{
	"hbar/SmartContracts/Tests/MintAndTransfer3.sol": {
		"NFTCreator": {
			"abi": [
				{
					"inputs": [
						{
							"internalType": "string",
							"name": "name",
							"type": "string"
						},
						{
							"internalType": "string",
							"name": "symbol",
							"type": "string"
						},
						{
							"internalType": "string",
							"name": "memo",
							"type": "string"
						},
						{
							"internalType": "uint32",
							"name": "maxSupply",
							"type": "uint32"
						},
						{
							"internalType": "uint32",
							"name": "autoRenewPeriod",
							"type": "uint32"
						}
					],
					"name": "createNft",
					"outputs": [
						{
							"internalType": "address",
							"name": "",
							"type": "address"
						}
					],
					"stateMutability": "payable",
					"type": "function"
				},
				{
					"inputs": [
						{
							"internalType": "address",
							"name": "token",
							"type": "address"
						},
						{
							"internalType": "bytes[]",
							"name": "metadata",
							"type": "bytes[]"
						}
					],
					"name": "mintNft",
					"outputs": [
						{
							"internalType": "int64",
							"name": "",
							"type": "int64"
						}
					],
					"stateMutability": "nonpayable",
					"type": "function"
				},
				{
					"inputs": [
						{
							"internalType": "address",
							"name": "token",
							"type": "address"
						},
						{
							"internalType": "address",
							"name": "receiver",
							"type": "address"
						},
						{
							"internalType": "int64",
							"name": "serial",
							"type": "int64"
						}
					],
					"name": "transferNft",
					"outputs": [
						{
							"internalType": "int256",
							"name": "",
							"type": "int256"
						}
					],
					"stateMutability": "nonpayable",
					"type": "function"
				}
			],
			"devdoc": {
				"kind": "dev",
				"methods": {},
				"version": 1
			},
			"evm": {
				"assembly": "    /* \"hbar/SmartContracts/Tests/MintAndTransfer3.sol\":358:2641  contract NFTCreator is ExpiryHelper, HederaTokenService {... */\n  mstore(0x40, 0x80)\n  callvalue\n  dup1\n  iszero\n  tag_1\n  jumpi\n  0x00\n  dup1\n  revert\ntag_1:\n  pop\n    /* \"hbar/SmartContracts/Auction2/hts-precompile/KeyHelper.sol\":601:602  1 */\n  0x01\n    /* \"hbar/SmartContracts/Auction2/hts-precompile/KeyHelper.sol\":575:583  keyTypes */\n  dup1\n    /* \"hbar/SmartContracts/Auction2/hts-precompile/KeyHelper.sol\":575:598  keyTypes[KeyType.ADMIN] */\n  0x00\n    /* \"hbar/SmartContracts/Auction2/hts-precompile/KeyHelper.sol\":584:597  KeyType.ADMIN */\n  dup1\n    /* \"hbar/SmartContracts/Auction2/hts-precompile/KeyHelper.sol\":575:598  keyTypes[KeyType.ADMIN] */\n  0x06\n  dup2\n  gt\n  iszero\n  tag_4\n  jumpi\n  tag_5\n  tag_6\n  jump\t// in\ntag_5:\ntag_4:\n  0x06\n  dup2\n  gt\n  iszero\n  tag_7\n  jumpi\n  tag_8\n  tag_6\n  jump\t// in\ntag_8:\ntag_7:\n  dup2\n  mstore\n  0x20\n  add\n  swap1\n  dup2\n  mstore\n  0x20\n  add\n  0x00\n  keccak256\n    /* \"hbar/SmartContracts/Auction2/hts-precompile/KeyHelper.sol\":575:602  keyTypes[KeyType.ADMIN] = 1 */\n  dup2\n  swap1\n  sstore\n  pop\n    /* \"hbar/SmartContracts/Auction2/hts-precompile/KeyHelper.sol\":636:637  2 */\n  0x02\n    /* \"hbar/SmartContracts/Auction2/hts-precompile/KeyHelper.sol\":612:620  keyTypes */\n  0x01\n    /* \"hbar/SmartContracts/Auction2/hts-precompile/KeyHelper.sol\":612:633  keyTypes[KeyType.KYC] */\n  0x00\n    /* \"hbar/SmartContracts/Auction2/hts-precompile/KeyHelper.sol\":621:632  KeyType.KYC */\n  0x01\n    /* \"hbar/SmartContracts/Auction2/hts-precompile/KeyHelper.sol\":612:633  keyTypes[KeyType.KYC] */\n  0x06\n  dup2\n  gt\n  iszero\n  tag_9\n  jumpi\n  tag_10\n  tag_6\n  jump\t// in\ntag_10:\ntag_9:\n  0x06\n  dup2\n  gt\n  iszero\n  tag_11\n  jumpi\n  tag_12\n  tag_6\n  jump\t// in\ntag_12:\ntag_11:\n  dup2\n  mstore\n  0x20\n  add\n  swap1\n  dup2\n  mstore\n  0x20\n  add\n  0x00\n  keccak256\n    /* \"hbar/SmartContracts/Auction2/hts-precompile/KeyHelper.sol\":612:637  keyTypes[KeyType.KYC] = 2 */\n  dup2\n  swap1\n  sstore\n  pop\n    /* \"hbar/SmartContracts/Auction2/hts-precompile/KeyHelper.sol\":674:675  4 */\n  0x04\n    /* \"hbar/SmartContracts/Auction2/hts-precompile/KeyHelper.sol\":647:655  keyTypes */\n  0x01\n    /* \"hbar/SmartContracts/Auction2/hts-precompile/KeyHelper.sol\":647:671  keyTypes[KeyType.FREEZE] */\n  0x00\n    /* \"hbar/SmartContracts/Auction2/hts-precompile/KeyHelper.sol\":656:670  KeyType.FREEZE */\n  0x02\n    /* \"hbar/SmartContracts/Auction2/hts-precompile/KeyHelper.sol\":647:671  keyTypes[KeyType.FREEZE] */\n  0x06\n  dup2\n  gt\n  iszero\n  tag_13\n  jumpi\n  tag_14\n  tag_6\n  jump\t// in\ntag_14:\ntag_13:\n  0x06\n  dup2\n  gt\n  iszero\n  tag_15\n  jumpi\n  tag_16\n  tag_6\n  jump\t// in\ntag_16:\ntag_15:\n  dup2\n  mstore\n  0x20\n  add\n  swap1\n  dup2\n  mstore\n  0x20\n  add\n  0x00\n  keccak256\n    /* \"hbar/SmartContracts/Auction2/hts-precompile/KeyHelper.sol\":647:675  keyTypes[KeyType.FREEZE] = 4 */\n  dup2\n  swap1\n  sstore\n  pop\n    /* \"hbar/SmartContracts/Auction2/hts-precompile/KeyHelper.sol\":710:711  8 */\n  0x08\n    /* \"hbar/SmartContracts/Auction2/hts-precompile/KeyHelper.sol\":685:693  keyTypes */\n  0x01\n    /* \"hbar/SmartContracts/Auction2/hts-precompile/KeyHelper.sol\":685:707  keyTypes[KeyType.WIPE] */\n  0x00\n    /* \"hbar/SmartContracts/Auction2/hts-precompile/KeyHelper.sol\":694:706  KeyType.WIPE */\n  0x03\n    /* \"hbar/SmartContracts/Auction2/hts-precompile/KeyHelper.sol\":685:707  keyTypes[KeyType.WIPE] */\n  0x06\n  dup2\n  gt\n  iszero\n  tag_17\n  jumpi\n  tag_18\n  tag_6\n  jump\t// in\ntag_18:\ntag_17:\n  0x06\n  dup2\n  gt\n  iszero\n  tag_19\n  jumpi\n  tag_20\n  tag_6\n  jump\t// in\ntag_20:\ntag_19:\n  dup2\n  mstore\n  0x20\n  add\n  swap1\n  dup2\n  mstore\n  0x20\n  add\n  0x00\n  keccak256\n    /* \"hbar/SmartContracts/Auction2/hts-precompile/KeyHelper.sol\":685:711  keyTypes[KeyType.WIPE] = 8 */\n  dup2\n  swap1\n  sstore\n  pop\n    /* \"hbar/SmartContracts/Auction2/hts-precompile/KeyHelper.sol\":748:750  16 */\n  0x10\n    /* \"hbar/SmartContracts/Auction2/hts-precompile/KeyHelper.sol\":721:729  keyTypes */\n  0x01\n    /* \"hbar/SmartContracts/Auction2/hts-precompile/KeyHelper.sol\":721:745  keyTypes[KeyType.SUPPLY] */\n  0x00\n    /* \"hbar/SmartContracts/Auction2/hts-precompile/KeyHelper.sol\":730:744  KeyType.SUPPLY */\n  0x04\n    /* \"hbar/SmartContracts/Auction2/hts-precompile/KeyHelper.sol\":721:745  keyTypes[KeyType.SUPPLY] */\n  0x06\n  dup2\n  gt\n  iszero\n  tag_21\n  jumpi\n  tag_22\n  tag_6\n  jump\t// in\ntag_22:\ntag_21:\n  0x06\n  dup2\n  gt\n  iszero\n  tag_23\n  jumpi\n  tag_24\n  tag_6\n  jump\t// in\ntag_24:\ntag_23:\n  dup2\n  mstore\n  0x20\n  add\n  swap1\n  dup2\n  mstore\n  0x20\n  add\n  0x00\n  keccak256\n    /* \"hbar/SmartContracts/Auction2/hts-precompile/KeyHelper.sol\":721:750  keyTypes[KeyType.SUPPLY] = 16 */\n  dup2\n  swap1\n  sstore\n  pop\n    /* \"hbar/SmartContracts/Auction2/hts-precompile/KeyHelper.sol\":784:786  32 */\n  0x20\n    /* \"hbar/SmartContracts/Auction2/hts-precompile/KeyHelper.sol\":760:768  keyTypes */\n  0x01\n    /* \"hbar/SmartContracts/Auction2/hts-precompile/KeyHelper.sol\":760:781  keyTypes[KeyType.FEE] */\n  0x00\n    /* \"hbar/SmartContracts/Auction2/hts-precompile/KeyHelper.sol\":769:780  KeyType.FEE */\n  0x05\n    /* \"hbar/SmartContracts/Auction2/hts-precompile/KeyHelper.sol\":760:781  keyTypes[KeyType.FEE] */\n  0x06\n  dup2\n  gt\n  iszero\n  tag_25\n  jumpi\n  tag_26\n  tag_6\n  jump\t// in\ntag_26:\ntag_25:\n  0x06\n  dup2\n  gt\n  iszero\n  tag_27\n  jumpi\n  tag_28\n  tag_6\n  jump\t// in\ntag_28:\ntag_27:\n  dup2\n  mstore\n  0x20\n  add\n  swap1\n  dup2\n  mstore\n  0x20\n  add\n  0x00\n  keccak256\n    /* \"hbar/SmartContracts/Auction2/hts-precompile/KeyHelper.sol\":760:786  keyTypes[KeyType.FEE] = 32 */\n  dup2\n  swap1\n  sstore\n  pop\n    /* \"hbar/SmartContracts/Auction2/hts-precompile/KeyHelper.sol\":822:824  64 */\n  0x40\n    /* \"hbar/SmartContracts/Auction2/hts-precompile/KeyHelper.sol\":796:804  keyTypes */\n  0x01\n    /* \"hbar/SmartContracts/Auction2/hts-precompile/KeyHelper.sol\":796:819  keyTypes[KeyType.PAUSE] */\n  0x00\n    /* \"hbar/SmartContracts/Auction2/hts-precompile/KeyHelper.sol\":805:818  KeyType.PAUSE */\n  0x06\n    /* \"hbar/SmartContracts/Auction2/hts-precompile/KeyHelper.sol\":796:819  keyTypes[KeyType.PAUSE] */\n  dup1\n  dup2\n  gt\n  iszero\n  tag_29\n  jumpi\n  tag_30\n  tag_6\n  jump\t// in\ntag_30:\ntag_29:\n  0x06\n  dup2\n  gt\n  iszero\n  tag_31\n  jumpi\n  tag_32\n  tag_6\n  jump\t// in\ntag_32:\ntag_31:\n  dup2\n  mstore\n  0x20\n  add\n  swap1\n  dup2\n  mstore\n  0x20\n  add\n  0x00\n  keccak256\n    /* \"hbar/SmartContracts/Auction2/hts-precompile/KeyHelper.sol\":796:824  keyTypes[KeyType.PAUSE] = 64 */\n  dup2\n  swap1\n  sstore\n  pop\n    /* \"hbar/SmartContracts/Tests/MintAndTransfer3.sol\":358:2641  contract NFTCreator is ExpiryHelper, HederaTokenService {... */\n  jump(tag_33)\n    /* \"#utility.yul\":7:187   */\ntag_6:\n    /* \"#utility.yul\":55:132   */\n  0x4e487b7100000000000000000000000000000000000000000000000000000000\n    /* \"#utility.yul\":52:53   */\n  0x00\n    /* \"#utility.yul\":45:133   */\n  mstore\n    /* \"#utility.yul\":152:156   */\n  0x21\n    /* \"#utility.yul\":149:150   */\n  0x04\n    /* \"#utility.yul\":142:157   */\n  mstore\n    /* \"#utility.yul\":176:180   */\n  0x24\n    /* \"#utility.yul\":173:174   */\n  0x00\n    /* \"#utility.yul\":166:181   */\n  revert\n    /* \"hbar/SmartContracts/Tests/MintAndTransfer3.sol\":358:2641  contract NFTCreator is ExpiryHelper, HederaTokenService {... */\ntag_33:\n  dataSize(sub_0)\n  dup1\n  dataOffset(sub_0)\n  0x00\n  codecopy\n  0x00\n  return\nstop\n\nsub_0: assembly {\n        /* \"hbar/SmartContracts/Tests/MintAndTransfer3.sol\":358:2641  contract NFTCreator is ExpiryHelper, HederaTokenService {... */\n      mstore(0x40, 0x80)\n      jumpi(tag_1, lt(calldatasize, 0x04))\n      shr(0xe0, calldataload(0x00))\n      dup1\n      0x0a284cb6\n      eq\n      tag_2\n      jumpi\n      dup1\n      0x82b562aa\n      eq\n      tag_3\n      jumpi\n      dup1\n      0xa1a79cde\n      eq\n      tag_4\n      jumpi\n    tag_1:\n      0x00\n      dup1\n      revert\n        /* \"hbar/SmartContracts/Tests/MintAndTransfer3.sol\":1696:2118  function mintNft(... */\n    tag_2:\n      callvalue\n      dup1\n      iszero\n      tag_5\n      jumpi\n      0x00\n      dup1\n      revert\n    tag_5:\n      pop\n      tag_6\n      0x04\n      dup1\n      calldatasize\n      sub\n      dup2\n      add\n      swap1\n      tag_7\n      swap2\n      swap1\n      tag_8\n      jump\t// in\n    tag_7:\n      tag_9\n      jump\t// in\n    tag_6:\n      mload(0x40)\n      tag_10\n      swap2\n      swap1\n      tag_11\n      jump\t// in\n    tag_10:\n      mload(0x40)\n      dup1\n      swap2\n      sub\n      swap1\n      return\n        /* \"hbar/SmartContracts/Tests/MintAndTransfer3.sol\":2126:2638  function transferNft(... */\n    tag_3:\n      callvalue\n      dup1\n      iszero\n      tag_12\n      jumpi\n      0x00\n      dup1\n      revert\n    tag_12:\n      pop\n      tag_13\n      0x04\n      dup1\n      calldatasize\n      sub\n      dup2\n      add\n      swap1\n      tag_14\n      swap2\n      swap1\n      tag_15\n      jump\t// in\n    tag_14:\n      tag_16\n      jump\t// in\n    tag_13:\n      mload(0x40)\n      tag_17\n      swap2\n      swap1\n      tag_18\n      jump\t// in\n    tag_17:\n      mload(0x40)\n      dup1\n      swap2\n      sub\n      swap1\n      return\n        /* \"hbar/SmartContracts/Tests/MintAndTransfer3.sol\":421:1688  function createNft(... */\n    tag_4:\n      tag_19\n      0x04\n      dup1\n      calldatasize\n      sub\n      dup2\n      add\n      swap1\n      tag_20\n      swap2\n      swap1\n      tag_21\n      jump\t// in\n    tag_20:\n      tag_22\n      jump\t// in\n    tag_19:\n      mload(0x40)\n      tag_23\n      swap2\n      swap1\n      tag_24\n      jump\t// in\n    tag_23:\n      mload(0x40)\n      dup1\n      swap2\n      sub\n      swap1\n      return\n        /* \"hbar/SmartContracts/Tests/MintAndTransfer3.sol\":1696:2118  function mintNft(... */\n    tag_9:\n        /* \"hbar/SmartContracts/Tests/MintAndTransfer3.sol\":1796:1801  int64 */\n      0x00\n        /* \"hbar/SmartContracts/Tests/MintAndTransfer3.sol\":1815:1827  int response */\n      dup1\n        /* \"hbar/SmartContracts/Tests/MintAndTransfer3.sol\":1831:1852  int64[] memory serial */\n      0x00\n        /* \"hbar/SmartContracts/Tests/MintAndTransfer3.sol\":1856:1954  HederaTokenService.mintToken(... */\n      tag_26\n        /* \"hbar/SmartContracts/Tests/MintAndTransfer3.sol\":1899:1904  token */\n      dup6\n        /* \"hbar/SmartContracts/Tests/MintAndTransfer3.sol\":1919:1920  0 */\n      0x00\n        /* \"hbar/SmartContracts/Tests/MintAndTransfer3.sol\":1935:1943  metadata */\n      dup7\n        /* \"hbar/SmartContracts/Tests/MintAndTransfer3.sol\":1856:1884  HederaTokenService.mintToken */\n      tag_27\n        /* \"hbar/SmartContracts/Tests/MintAndTransfer3.sol\":1856:1954  HederaTokenService.mintToken(... */\n      jump\t// in\n    tag_26:\n        /* \"hbar/SmartContracts/Tests/MintAndTransfer3.sol\":1814:1954  (int response, , int64[] memory serial) = HederaTokenService.mintToken(... */\n      swap3\n      pop\n      pop\n      swap2\n      pop\n        /* \"hbar/SmartContracts/Auction2/hts-precompile/HederaResponseCodes.sol\":2733:2735  22 */\n      0x16\n        /* \"hbar/SmartContracts/Tests/MintAndTransfer3.sol\":1971:2010  response != HederaResponseCodes.SUCCESS */\n      0x03\n      signextend\n        /* \"hbar/SmartContracts/Tests/MintAndTransfer3.sol\":1971:1979  response */\n      dup3\n        /* \"hbar/SmartContracts/Tests/MintAndTransfer3.sol\":1971:2010  response != HederaResponseCodes.SUCCESS */\n      eq\n        /* \"hbar/SmartContracts/Tests/MintAndTransfer3.sol\":1967:2082  if (response != HederaResponseCodes.SUCCESS) {... */\n      tag_28\n      jumpi\n        /* \"hbar/SmartContracts/Tests/MintAndTransfer3.sol\":2027:2070  revert(\"Failed to mint non-fungible token\") */\n      mload(0x40)\n      0x08c379a000000000000000000000000000000000000000000000000000000000\n      dup2\n      mstore\n      0x04\n      add\n      tag_29\n      swap1\n      tag_30\n      jump\t// in\n    tag_29:\n      mload(0x40)\n      dup1\n      swap2\n      sub\n      swap1\n      revert\n        /* \"hbar/SmartContracts/Tests/MintAndTransfer3.sol\":1967:2082  if (response != HederaResponseCodes.SUCCESS) {... */\n    tag_28:\n        /* \"hbar/SmartContracts/Tests/MintAndTransfer3.sol\":2101:2107  serial */\n      dup1\n        /* \"hbar/SmartContracts/Tests/MintAndTransfer3.sol\":2108:2109  0 */\n      0x00\n        /* \"hbar/SmartContracts/Tests/MintAndTransfer3.sol\":2101:2110  serial[0] */\n      dup2\n      mload\n      dup2\n      lt\n      tag_31\n      jumpi\n      tag_32\n      tag_33\n      jump\t// in\n    tag_32:\n    tag_31:\n      0x20\n      mul\n      0x20\n      add\n      add\n      mload\n        /* \"hbar/SmartContracts/Tests/MintAndTransfer3.sol\":2094:2110  return serial[0] */\n      swap3\n      pop\n      pop\n      pop\n        /* \"hbar/SmartContracts/Tests/MintAndTransfer3.sol\":1696:2118  function mintNft(... */\n      swap3\n      swap2\n      pop\n      pop\n      jump\t// out\n        /* \"hbar/SmartContracts/Tests/MintAndTransfer3.sol\":2126:2638  function transferNft(... */\n    tag_16:\n        /* \"hbar/SmartContracts/Tests/MintAndTransfer3.sol\":2246:2249  int */\n      0x00\n        /* \"hbar/SmartContracts/Tests/MintAndTransfer3.sol\":2262:2312  HederaTokenService.associateToken(receiver, token) */\n      tag_35\n        /* \"hbar/SmartContracts/Tests/MintAndTransfer3.sol\":2296:2304  receiver */\n      dup4\n        /* \"hbar/SmartContracts/Tests/MintAndTransfer3.sol\":2306:2311  token */\n      dup6\n        /* \"hbar/SmartContracts/Tests/MintAndTransfer3.sol\":2262:2295  HederaTokenService.associateToken */\n      tag_36\n        /* \"hbar/SmartContracts/Tests/MintAndTransfer3.sol\":2262:2312  HederaTokenService.associateToken(receiver, token) */\n      jump\t// in\n    tag_35:\n      pop\n        /* \"hbar/SmartContracts/Tests/MintAndTransfer3.sol\":2323:2335  int response */\n      0x00\n        /* \"hbar/SmartContracts/Tests/MintAndTransfer3.sol\":2338:2471  HederaTokenService.transferNFT(... */\n      tag_37\n        /* \"hbar/SmartContracts/Tests/MintAndTransfer3.sol\":2383:2388  token */\n      dup6\n        /* \"hbar/SmartContracts/Tests/MintAndTransfer3.sol\":2411:2415  this */\n      address\n        /* \"hbar/SmartContracts/Tests/MintAndTransfer3.sol\":2431:2439  receiver */\n      dup7\n        /* \"hbar/SmartContracts/Tests/MintAndTransfer3.sol\":2454:2460  serial */\n      dup7\n        /* \"hbar/SmartContracts/Tests/MintAndTransfer3.sol\":2338:2368  HederaTokenService.transferNFT */\n      tag_38\n        /* \"hbar/SmartContracts/Tests/MintAndTransfer3.sol\":2338:2471  HederaTokenService.transferNFT(... */\n      jump\t// in\n    tag_37:\n        /* \"hbar/SmartContracts/Tests/MintAndTransfer3.sol\":2323:2471  int response = HederaTokenService.transferNFT(... */\n      swap1\n      pop\n        /* \"hbar/SmartContracts/Auction2/hts-precompile/HederaResponseCodes.sol\":2733:2735  22 */\n      0x16\n        /* \"hbar/SmartContracts/Tests/MintAndTransfer3.sol\":2488:2527  response != HederaResponseCodes.SUCCESS */\n      0x03\n      signextend\n        /* \"hbar/SmartContracts/Tests/MintAndTransfer3.sol\":2488:2496  response */\n      dup2\n        /* \"hbar/SmartContracts/Tests/MintAndTransfer3.sol\":2488:2527  response != HederaResponseCodes.SUCCESS */\n      eq\n        /* \"hbar/SmartContracts/Tests/MintAndTransfer3.sol\":2484:2603  if (response != HederaResponseCodes.SUCCESS) {... */\n      tag_39\n      jumpi\n        /* \"hbar/SmartContracts/Tests/MintAndTransfer3.sol\":2544:2591  revert(\"Failed to transfer non-fungible token\") */\n      mload(0x40)\n      0x08c379a000000000000000000000000000000000000000000000000000000000\n      dup2\n      mstore\n      0x04\n      add\n      tag_40\n      swap1\n      tag_41\n      jump\t// in\n    tag_40:\n      mload(0x40)\n      dup1\n      swap2\n      sub\n      swap1\n      revert\n        /* \"hbar/SmartContracts/Tests/MintAndTransfer3.sol\":2484:2603  if (response != HederaResponseCodes.SUCCESS) {... */\n    tag_39:\n        /* \"hbar/SmartContracts/Tests/MintAndTransfer3.sol\":2622:2630  response */\n      dup1\n        /* \"hbar/SmartContracts/Tests/MintAndTransfer3.sol\":2615:2630  return response */\n      swap2\n      pop\n      pop\n        /* \"hbar/SmartContracts/Tests/MintAndTransfer3.sol\":2126:2638  function transferNft(... */\n      swap4\n      swap3\n      pop\n      pop\n      pop\n      jump\t// out\n        /* \"hbar/SmartContracts/Tests/MintAndTransfer3.sol\":421:1688  function createNft(... */\n    tag_22:\n        /* \"hbar/SmartContracts/Tests/MintAndTransfer3.sol\":622:629  address */\n      0x00\n        /* \"hbar/SmartContracts/Tests/MintAndTransfer3.sol\":642:697  IHederaTokenService.TokenKey[]... */\n      dup1\n        /* \"hbar/SmartContracts/Tests/MintAndTransfer3.sol\":735:736  1 */\n      0x01\n        /* \"hbar/SmartContracts/Tests/MintAndTransfer3.sol\":700:737  new IHederaTokenService.TokenKey[](1) */\n      0xffffffffffffffff\n      dup2\n      gt\n      iszero\n      tag_43\n      jumpi\n      tag_44\n      tag_45\n      jump\t// in\n    tag_44:\n    tag_43:\n      mload(0x40)\n      swap1\n      dup1\n      dup3\n      mstore\n      dup1\n      0x20\n      mul\n      0x20\n      add\n      dup3\n      add\n      0x40\n      mstore\n      dup1\n      iszero\n      tag_46\n      jumpi\n      dup2\n      0x20\n      add\n    tag_47:\n      tag_48\n      tag_49\n      jump\t// in\n    tag_48:\n      dup2\n      mstore\n      0x20\n      add\n      swap1\n      0x01\n      swap1\n      sub\n      swap1\n      dup2\n      tag_47\n      jumpi\n      swap1\n      pop\n    tag_46:\n      pop\n        /* \"hbar/SmartContracts/Tests/MintAndTransfer3.sol\":642:737  IHederaTokenService.TokenKey[]... */\n      swap1\n      pop\n        /* \"hbar/SmartContracts/Tests/MintAndTransfer3.sol\":798:917  getSingleKey(... */\n      tag_50\n        /* \"hbar/SmartContracts/Tests/MintAndTransfer3.sol\":825:839  KeyType.SUPPLY */\n      0x04\n        /* \"hbar/SmartContracts/Tests/MintAndTransfer3.sol\":854:878  KeyValueType.CONTRACT_ID */\n      0x01\n        /* \"hbar/SmartContracts/Tests/MintAndTransfer3.sol\":901:905  this */\n      address\n        /* \"hbar/SmartContracts/Tests/MintAndTransfer3.sol\":798:810  getSingleKey */\n      tag_51\n        /* \"hbar/SmartContracts/Tests/MintAndTransfer3.sol\":798:917  getSingleKey(... */\n      jump\t// in\n    tag_50:\n        /* \"hbar/SmartContracts/Tests/MintAndTransfer3.sol\":788:792  keys */\n      dup2\n        /* \"hbar/SmartContracts/Tests/MintAndTransfer3.sol\":793:794  0 */\n      0x00\n        /* \"hbar/SmartContracts/Tests/MintAndTransfer3.sol\":788:795  keys[0] */\n      dup2\n      mload\n      dup2\n      lt\n      tag_52\n      jumpi\n      tag_53\n      tag_33\n      jump\t// in\n    tag_53:\n    tag_52:\n      0x20\n      mul\n      0x20\n      add\n      add\n        /* \"hbar/SmartContracts/Tests/MintAndTransfer3.sol\":788:917  keys[0] = getSingleKey(... */\n      dup2\n      swap1\n      mstore\n      pop\n        /* \"hbar/SmartContracts/Tests/MintAndTransfer3.sol\":930:974  IHederaTokenService.HederaToken memory token */\n      tag_54\n      tag_55\n      jump\t// in\n    tag_54:\n        /* \"hbar/SmartContracts/Tests/MintAndTransfer3.sol\":998:1002  name */\n      dup8\n        /* \"hbar/SmartContracts/Tests/MintAndTransfer3.sol\":985:990  token */\n      dup2\n        /* \"hbar/SmartContracts/Tests/MintAndTransfer3.sol\":985:995  token.name */\n      0x00\n      add\n        /* \"hbar/SmartContracts/Tests/MintAndTransfer3.sol\":985:1002  token.name = name */\n      dup2\n      swap1\n      mstore\n      pop\n        /* \"hbar/SmartContracts/Tests/MintAndTransfer3.sol\":1028:1034  symbol */\n      dup7\n        /* \"hbar/SmartContracts/Tests/MintAndTransfer3.sol\":1013:1018  token */\n      dup2\n        /* \"hbar/SmartContracts/Tests/MintAndTransfer3.sol\":1013:1025  token.symbol */\n      0x20\n      add\n        /* \"hbar/SmartContracts/Tests/MintAndTransfer3.sol\":1013:1034  token.symbol = symbol */\n      dup2\n      swap1\n      mstore\n      pop\n        /* \"hbar/SmartContracts/Tests/MintAndTransfer3.sol\":1058:1062  memo */\n      dup6\n        /* \"hbar/SmartContracts/Tests/MintAndTransfer3.sol\":1045:1050  token */\n      dup2\n        /* \"hbar/SmartContracts/Tests/MintAndTransfer3.sol\":1045:1055  token.memo */\n      0x60\n      add\n        /* \"hbar/SmartContracts/Tests/MintAndTransfer3.sol\":1045:1062  token.memo = memo */\n      dup2\n      swap1\n      mstore\n      pop\n        /* \"hbar/SmartContracts/Tests/MintAndTransfer3.sol\":1098:1102  this */\n      address\n        /* \"hbar/SmartContracts/Tests/MintAndTransfer3.sol\":1073:1078  token */\n      dup2\n        /* \"hbar/SmartContracts/Tests/MintAndTransfer3.sol\":1073:1087  token.treasury */\n      0x40\n      add\n        /* \"hbar/SmartContracts/Tests/MintAndTransfer3.sol\":1073:1103  token.treasury = address(this) */\n      swap1\n      0xffffffffffffffffffffffffffffffffffffffff\n      and\n      swap1\n      dup2\n      0xffffffffffffffffffffffffffffffffffffffff\n      and\n      dup2\n      mstore\n      pop\n      pop\n        /* \"hbar/SmartContracts/Tests/MintAndTransfer3.sol\":1138:1142  true */\n      0x01\n        /* \"hbar/SmartContracts/Tests/MintAndTransfer3.sol\":1114:1119  token */\n      dup2\n        /* \"hbar/SmartContracts/Tests/MintAndTransfer3.sol\":1114:1135  token.tokenSupplyType */\n      0x80\n      add\n        /* \"hbar/SmartContracts/Tests/MintAndTransfer3.sol\":1114:1142  token.tokenSupplyType = true */\n      swap1\n      iszero\n      iszero\n      swap1\n      dup2\n      iszero\n      iszero\n      dup2\n      mstore\n      pop\n      pop\n        /* \"hbar/SmartContracts/Tests/MintAndTransfer3.sol\":1195:1204  maxSupply */\n      dup5\n        /* \"hbar/SmartContracts/Tests/MintAndTransfer3.sol\":1177:1182  token */\n      dup2\n        /* \"hbar/SmartContracts/Tests/MintAndTransfer3.sol\":1177:1192  token.maxSupply */\n      0xa0\n      add\n        /* \"hbar/SmartContracts/Tests/MintAndTransfer3.sol\":1177:1204  token.maxSupply = maxSupply */\n      swap1\n      0xffffffff\n      and\n      swap1\n      dup2\n      0xffffffff\n      and\n      dup2\n      mstore\n      pop\n      pop\n        /* \"hbar/SmartContracts/Tests/MintAndTransfer3.sol\":1233:1237  keys */\n      dup2\n        /* \"hbar/SmartContracts/Tests/MintAndTransfer3.sol\":1215:1220  token */\n      dup2\n        /* \"hbar/SmartContracts/Tests/MintAndTransfer3.sol\":1215:1230  token.tokenKeys */\n      0xe0\n      add\n        /* \"hbar/SmartContracts/Tests/MintAndTransfer3.sol\":1215:1237  token.tokenKeys = keys */\n      dup2\n      swap1\n      mstore\n      pop\n        /* \"hbar/SmartContracts/Tests/MintAndTransfer3.sol\":1270:1275  false */\n      0x00\n        /* \"hbar/SmartContracts/Tests/MintAndTransfer3.sol\":1248:1253  token */\n      dup2\n        /* \"hbar/SmartContracts/Tests/MintAndTransfer3.sol\":1248:1267  token.freezeDefault */\n      0xc0\n      add\n        /* \"hbar/SmartContracts/Tests/MintAndTransfer3.sol\":1248:1275  token.freezeDefault = false */\n      swap1\n      iszero\n      iszero\n      swap1\n      dup2\n      iszero\n      iszero\n      dup2\n      mstore\n      pop\n      pop\n        /* \"hbar/SmartContracts/Tests/MintAndTransfer3.sol\":1301:1354  createAutoRenewExpiry(address(this), autoRenewPeriod) */\n      tag_56\n        /* \"hbar/SmartContracts/Tests/MintAndTransfer3.sol\":1331:1335  this */\n      address\n        /* \"hbar/SmartContracts/Tests/MintAndTransfer3.sol\":1338:1353  autoRenewPeriod */\n      dup6\n        /* \"hbar/SmartContracts/Tests/MintAndTransfer3.sol\":1301:1322  createAutoRenewExpiry */\n      tag_57\n        /* \"hbar/SmartContracts/Tests/MintAndTransfer3.sol\":1301:1354  createAutoRenewExpiry(address(this), autoRenewPeriod) */\n      jump\t// in\n    tag_56:\n        /* \"hbar/SmartContracts/Tests/MintAndTransfer3.sol\":1286:1291  token */\n      dup2\n        /* \"hbar/SmartContracts/Tests/MintAndTransfer3.sol\":1286:1298  token.expiry */\n      0x0100\n      add\n        /* \"hbar/SmartContracts/Tests/MintAndTransfer3.sol\":1286:1354  token.expiry = createAutoRenewExpiry(address(this), autoRenewPeriod) */\n      dup2\n      swap1\n      mstore\n      pop\n        /* \"hbar/SmartContracts/Tests/MintAndTransfer3.sol\":1411:1427  int responseCode */\n      0x00\n        /* \"hbar/SmartContracts/Tests/MintAndTransfer3.sol\":1429:1449  address createdToken */\n      dup1\n        /* \"hbar/SmartContracts/Tests/MintAndTransfer3.sol\":1453:1515  HederaTokenService... */\n      tag_58\n        /* \"hbar/SmartContracts/Tests/MintAndTransfer3.sol\":1509:1514  token */\n      dup4\n        /* \"hbar/SmartContracts/Tests/MintAndTransfer3.sol\":1453:1508  HederaTokenService... */\n      tag_59\n        /* \"hbar/SmartContracts/Tests/MintAndTransfer3.sol\":1453:1515  HederaTokenService... */\n      jump\t// in\n    tag_58:\n        /* \"hbar/SmartContracts/Tests/MintAndTransfer3.sol\":1410:1515  (int responseCode, address createdToken) = HederaTokenService... */\n      swap2\n      pop\n      swap2\n      pop\n        /* \"hbar/SmartContracts/Tests/MintAndTransfer3.sol\":1668:1680  createdToken */\n      dup1\n        /* \"hbar/SmartContracts/Tests/MintAndTransfer3.sol\":1661:1680  return createdToken */\n      swap5\n      pop\n      pop\n      pop\n      pop\n      pop\n        /* \"hbar/SmartContracts/Tests/MintAndTransfer3.sol\":421:1688  function createNft(... */\n      swap6\n      swap5\n      pop\n      pop\n      pop\n      pop\n      pop\n      jump\t// out\n        /* \"hbar/SmartContracts/Auction2/hts-precompile/HederaTokenService.sol\":2570:3282  function mintToken(... */\n    tag_27:\n        /* \"hbar/SmartContracts/Auction2/hts-precompile/HederaTokenService.sol\":2721:2737  int responseCode */\n      0x00\n        /* \"hbar/SmartContracts/Auction2/hts-precompile/HederaTokenService.sol\":2751:2772  uint64 newTotalSupply */\n      dup1\n        /* \"hbar/SmartContracts/Auction2/hts-precompile/HederaTokenService.sol\":2786:2814  int64[] memory serialNumbers */\n      0x60\n        /* \"hbar/SmartContracts/Auction2/hts-precompile/HederaTokenService.sol\":2840:2852  bool success */\n      0x00\n        /* \"hbar/SmartContracts/Auction2/hts-precompile/HederaTokenService.sol\":2854:2873  bytes memory result */\n      dup1\n        /* \"hbar/SmartContracts/Auction2/hts-precompile/HederaTokenService.sol\":289:294  0x167 */\n      0x0167\n        /* \"hbar/SmartContracts/Auction2/hts-precompile/HederaTokenService.sol\":2877:2899  precompileAddress.call */\n      0xffffffffffffffffffffffffffffffffffffffff\n      and\n        /* \"hbar/SmartContracts/Auction2/hts-precompile/HederaTokenService.sol\":2953:2991  IHederaTokenService.mintToken.selector */\n      shl(0xe0, 0x278e0b88)\n        /* \"hbar/SmartContracts/Auction2/hts-precompile/HederaTokenService.sol\":3009:3014  token */\n      dup10\n        /* \"hbar/SmartContracts/Auction2/hts-precompile/HederaTokenService.sol\":3032:3038  amount */\n      dup10\n        /* \"hbar/SmartContracts/Auction2/hts-precompile/HederaTokenService.sol\":3056:3064  metadata */\n      dup10\n        /* \"hbar/SmartContracts/Auction2/hts-precompile/HederaTokenService.sol\":2913:3078  abi.encodeWithSelector(... */\n      add(0x24, mload(0x40))\n      tag_62\n      swap4\n      swap3\n      swap2\n      swap1\n      tag_63\n      jump\t// in\n    tag_62:\n      mload(0x40)\n      0x20\n      dup2\n      dup4\n      sub\n      sub\n      dup2\n      mstore\n      swap1\n      0x40\n      mstore\n      swap1\n      not(0xffffffffffffffffffffffffffffffffffffffffffffffffffffffff)\n      and\n      0x20\n      dup3\n      add\n      dup1\n      mload\n      0xffffffffffffffffffffffffffffffffffffffffffffffffffffffff\n      dup4\n      dup2\n      dup4\n      and\n      or\n      dup4\n      mstore\n      pop\n      pop\n      pop\n      pop\n        /* \"hbar/SmartContracts/Auction2/hts-precompile/HederaTokenService.sol\":2877:3088  precompileAddress.call(... */\n      mload(0x40)\n      tag_64\n      swap2\n      swap1\n      tag_65\n      jump\t// in\n    tag_64:\n      0x00\n      mload(0x40)\n      dup1\n      dup4\n      sub\n      dup2\n      0x00\n      dup7\n      gas\n      call\n      swap2\n      pop\n      pop\n      returndatasize\n      dup1\n      0x00\n      dup2\n      eq\n      tag_68\n      jumpi\n      mload(0x40)\n      swap2\n      pop\n      and(add(returndatasize, 0x3f), not(0x1f))\n      dup3\n      add\n      0x40\n      mstore\n      returndatasize\n      dup3\n      mstore\n      returndatasize\n      0x00\n      0x20\n      dup5\n      add\n      returndatacopy\n      jump(tag_67)\n    tag_68:\n      0x60\n      swap2\n      pop\n    tag_67:\n      pop\n        /* \"hbar/SmartContracts/Auction2/hts-precompile/HederaTokenService.sol\":2839:3088  (bool success, bytes memory result) = precompileAddress.call(... */\n      swap2\n      pop\n      swap2\n      pop\n        /* \"hbar/SmartContracts/Auction2/hts-precompile/HederaTokenService.sol\":3146:3153  success */\n      dup2\n        /* \"hbar/SmartContracts/Auction2/hts-precompile/HederaTokenService.sol\":3146:3275  success... */\n      tag_69\n      jumpi\n        /* \"hbar/SmartContracts/Auction2/hts-precompile/HederaResponseCodes.sol\":2587:2589  21 */\n      0x15\n        /* \"hbar/SmartContracts/Auction2/hts-precompile/HederaTokenService.sol\":3257:3258  0 */\n      0x00\n        /* \"hbar/SmartContracts/Auction2/hts-precompile/HederaTokenService.sol\":3272:3273  0 */\n      dup1\n        /* \"hbar/SmartContracts/Auction2/hts-precompile/HederaTokenService.sol\":3260:3274  new int64[](0) */\n      0xffffffffffffffff\n      dup2\n      gt\n      iszero\n      tag_70\n      jumpi\n      tag_71\n      tag_45\n      jump\t// in\n    tag_71:\n    tag_70:\n      mload(0x40)\n      swap1\n      dup1\n      dup3\n      mstore\n      dup1\n      0x20\n      mul\n      0x20\n      add\n      dup3\n      add\n      0x40\n      mstore\n      dup1\n      iszero\n      tag_72\n      jumpi\n      dup2\n      0x20\n      add\n      0x20\n      dup3\n      mul\n      dup1\n      calldatasize\n      dup4\n      calldatacopy\n      dup1\n      dup3\n      add\n      swap2\n      pop\n      pop\n      swap1\n      pop\n    tag_72:\n      pop\n        /* \"hbar/SmartContracts/Auction2/hts-precompile/HederaTokenService.sol\":3146:3275  success... */\n      jump(tag_73)\n    tag_69:\n        /* \"hbar/SmartContracts/Auction2/hts-precompile/HederaTokenService.sol\":3179:3185  result */\n      dup1\n        /* \"hbar/SmartContracts/Auction2/hts-precompile/HederaTokenService.sol\":3168:3212  abi.decode(result, (int32, uint64, int64[])) */\n      dup1\n      0x20\n      add\n      swap1\n      mload\n      dup2\n      add\n      swap1\n      tag_74\n      swap2\n      swap1\n      tag_75\n      jump\t// in\n    tag_74:\n        /* \"hbar/SmartContracts/Auction2/hts-precompile/HederaTokenService.sol\":3146:3275  success... */\n    tag_73:\n        /* \"hbar/SmartContracts/Auction2/hts-precompile/HederaTokenService.sol\":3098:3275  (responseCode, newTotalSupply, serialNumbers) = success... */\n      dup3\n      0x03\n      signextend\n      swap3\n      pop\n      dup1\n      swap6\n      pop\n      dup2\n      swap7\n      pop\n      dup3\n      swap8\n      pop\n      pop\n      pop\n      pop\n        /* \"hbar/SmartContracts/Auction2/hts-precompile/HederaTokenService.sol\":2829:3282  {... */\n      pop\n      pop\n        /* \"hbar/SmartContracts/Auction2/hts-precompile/HederaTokenService.sol\":2570:3282  function mintToken(... */\n      swap4\n      pop\n      swap4\n      pop\n      swap4\n      swap1\n      pop\n      jump\t// out\n        /* \"hbar/SmartContracts/Auction2/hts-precompile/HederaTokenService.sol\":6734:7210  function associateToken(... */\n    tag_36:\n        /* \"hbar/SmartContracts/Auction2/hts-precompile/HederaTokenService.sol\":6830:6846  int responseCode */\n      0x00\n        /* \"hbar/SmartContracts/Auction2/hts-precompile/HederaTokenService.sol\":6859:6871  bool success */\n      dup1\n        /* \"hbar/SmartContracts/Auction2/hts-precompile/HederaTokenService.sol\":6873:6892  bytes memory result */\n      0x00\n        /* \"hbar/SmartContracts/Auction2/hts-precompile/HederaTokenService.sol\":289:294  0x167 */\n      0x0167\n        /* \"hbar/SmartContracts/Auction2/hts-precompile/HederaTokenService.sol\":6896:6918  precompileAddress.call */\n      0xffffffffffffffffffffffffffffffffffffffff\n      and\n        /* \"hbar/SmartContracts/Auction2/hts-precompile/HederaTokenService.sol\":6972:7015  IHederaTokenService.associateToken.selector */\n      shl(0xe0, 0x49146bde)\n        /* \"hbar/SmartContracts/Auction2/hts-precompile/HederaTokenService.sol\":7033:7040  account */\n      dup7\n        /* \"hbar/SmartContracts/Auction2/hts-precompile/HederaTokenService.sol\":7058:7063  token */\n      dup7\n        /* \"hbar/SmartContracts/Auction2/hts-precompile/HederaTokenService.sol\":6932:7077  abi.encodeWithSelector(... */\n      add(0x24, mload(0x40))\n      tag_77\n      swap3\n      swap2\n      swap1\n      tag_78\n      jump\t// in\n    tag_77:\n      mload(0x40)\n      0x20\n      dup2\n      dup4\n      sub\n      sub\n      dup2\n      mstore\n      swap1\n      0x40\n      mstore\n      swap1\n      not(0xffffffffffffffffffffffffffffffffffffffffffffffffffffffff)\n      and\n      0x20\n      dup3\n      add\n      dup1\n      mload\n      0xffffffffffffffffffffffffffffffffffffffffffffffffffffffff\n      dup4\n      dup2\n      dup4\n      and\n      or\n      dup4\n      mstore\n      pop\n      pop\n      pop\n      pop\n        /* \"hbar/SmartContracts/Auction2/hts-precompile/HederaTokenService.sol\":6896:7087  precompileAddress.call(... */\n      mload(0x40)\n      tag_79\n      swap2\n      swap1\n      tag_65\n      jump\t// in\n    tag_79:\n      0x00\n      mload(0x40)\n      dup1\n      dup4\n      sub\n      dup2\n      0x00\n      dup7\n      gas\n      call\n      swap2\n      pop\n      pop\n      returndatasize\n      dup1\n      0x00\n      dup2\n      eq\n      tag_82\n      jumpi\n      mload(0x40)\n      swap2\n      pop\n      and(add(returndatasize, 0x3f), not(0x1f))\n      dup3\n      add\n      0x40\n      mstore\n      returndatasize\n      dup3\n      mstore\n      returndatasize\n      0x00\n      0x20\n      dup5\n      add\n      returndatacopy\n      jump(tag_81)\n    tag_82:\n      0x60\n      swap2\n      pop\n    tag_81:\n      pop\n        /* \"hbar/SmartContracts/Auction2/hts-precompile/HederaTokenService.sol\":6858:7087  (bool success, bytes memory result) = precompileAddress.call(... */\n      swap2\n      pop\n      swap2\n      pop\n        /* \"hbar/SmartContracts/Auction2/hts-precompile/HederaTokenService.sol\":7112:7119  success */\n      dup2\n        /* \"hbar/SmartContracts/Auction2/hts-precompile/HederaTokenService.sol\":7112:7203  success... */\n      tag_83\n      jumpi\n        /* \"hbar/SmartContracts/Auction2/hts-precompile/HederaResponseCodes.sol\":2587:2589  21 */\n      0x15\n        /* \"hbar/SmartContracts/Auction2/hts-precompile/HederaTokenService.sol\":7112:7203  success... */\n      jump(tag_84)\n    tag_83:\n        /* \"hbar/SmartContracts/Auction2/hts-precompile/HederaTokenService.sol\":7145:7151  result */\n      dup1\n        /* \"hbar/SmartContracts/Auction2/hts-precompile/HederaTokenService.sol\":7134:7161  abi.decode(result, (int32)) */\n      dup1\n      0x20\n      add\n      swap1\n      mload\n      dup2\n      add\n      swap1\n      tag_85\n      swap2\n      swap1\n      tag_86\n      jump\t// in\n    tag_85:\n        /* \"hbar/SmartContracts/Auction2/hts-precompile/HederaTokenService.sol\":7112:7203  success... */\n    tag_84:\n        /* \"hbar/SmartContracts/Auction2/hts-precompile/HederaTokenService.sol\":7097:7203  responseCode = success... */\n      0x03\n      signextend\n      swap3\n      pop\n        /* \"hbar/SmartContracts/Auction2/hts-precompile/HederaTokenService.sol\":6848:7210  {... */\n      pop\n      pop\n        /* \"hbar/SmartContracts/Auction2/hts-precompile/HederaTokenService.sol\":6734:7210  function associateToken(... */\n      swap3\n      swap2\n      pop\n      pop\n      jump\t// out\n        /* \"hbar/SmartContracts/Auction2/hts-precompile/HederaTokenService.sol\":24332:24910  function transferNFT(... */\n    tag_38:\n        /* \"hbar/SmartContracts/Auction2/hts-precompile/HederaTokenService.sol\":24478:24494  int responseCode */\n      0x00\n        /* \"hbar/SmartContracts/Auction2/hts-precompile/HederaTokenService.sol\":24507:24519  bool success */\n      dup1\n        /* \"hbar/SmartContracts/Auction2/hts-precompile/HederaTokenService.sol\":24521:24540  bytes memory result */\n      0x00\n        /* \"hbar/SmartContracts/Auction2/hts-precompile/HederaTokenService.sol\":289:294  0x167 */\n      0x0167\n        /* \"hbar/SmartContracts/Auction2/hts-precompile/HederaTokenService.sol\":24544:24566  precompileAddress.call */\n      0xffffffffffffffffffffffffffffffffffffffff\n      and\n        /* \"hbar/SmartContracts/Auction2/hts-precompile/HederaTokenService.sol\":24620:24660  IHederaTokenService.transferNFT.selector */\n      shl(0xe0, 0x5cfc9011)\n        /* \"hbar/SmartContracts/Auction2/hts-precompile/HederaTokenService.sol\":24678:24683  token */\n      dup9\n        /* \"hbar/SmartContracts/Auction2/hts-precompile/HederaTokenService.sol\":24701:24707  sender */\n      dup9\n        /* \"hbar/SmartContracts/Auction2/hts-precompile/HederaTokenService.sol\":24725:24733  receiver */\n      dup9\n        /* \"hbar/SmartContracts/Auction2/hts-precompile/HederaTokenService.sol\":24751:24763  serialNumber */\n      dup9\n        /* \"hbar/SmartContracts/Auction2/hts-precompile/HederaTokenService.sol\":24580:24777  abi.encodeWithSelector(... */\n      add(0x24, mload(0x40))\n      tag_88\n      swap5\n      swap4\n      swap3\n      swap2\n      swap1\n      tag_89\n      jump\t// in\n    tag_88:\n      mload(0x40)\n      0x20\n      dup2\n      dup4\n      sub\n      sub\n      dup2\n      mstore\n      swap1\n      0x40\n      mstore\n      swap1\n      not(0xffffffffffffffffffffffffffffffffffffffffffffffffffffffff)\n      and\n      0x20\n      dup3\n      add\n      dup1\n      mload\n      0xffffffffffffffffffffffffffffffffffffffffffffffffffffffff\n      dup4\n      dup2\n      dup4\n      and\n      or\n      dup4\n      mstore\n      pop\n      pop\n      pop\n      pop\n        /* \"hbar/SmartContracts/Auction2/hts-precompile/HederaTokenService.sol\":24544:24787  precompileAddress.call(... */\n      mload(0x40)\n      tag_90\n      swap2\n      swap1\n      tag_65\n      jump\t// in\n    tag_90:\n      0x00\n      mload(0x40)\n      dup1\n      dup4\n      sub\n      dup2\n      0x00\n      dup7\n      gas\n      call\n      swap2\n      pop\n      pop\n      returndatasize\n      dup1\n      0x00\n      dup2\n      eq\n      tag_93\n      jumpi\n      mload(0x40)\n      swap2\n      pop\n      and(add(returndatasize, 0x3f), not(0x1f))\n      dup3\n      add\n      0x40\n      mstore\n      returndatasize\n      dup3\n      mstore\n      returndatasize\n      0x00\n      0x20\n      dup5\n      add\n      returndatacopy\n      jump(tag_92)\n    tag_93:\n      0x60\n      swap2\n      pop\n    tag_92:\n      pop\n        /* \"hbar/SmartContracts/Auction2/hts-precompile/HederaTokenService.sol\":24506:24787  (bool success, bytes memory result) = precompileAddress.call(... */\n      swap2\n      pop\n      swap2\n      pop\n        /* \"hbar/SmartContracts/Auction2/hts-precompile/HederaTokenService.sol\":24812:24819  success */\n      dup2\n        /* \"hbar/SmartContracts/Auction2/hts-precompile/HederaTokenService.sol\":24812:24903  success... */\n      tag_94\n      jumpi\n        /* \"hbar/SmartContracts/Auction2/hts-precompile/HederaResponseCodes.sol\":2587:2589  21 */\n      0x15\n        /* \"hbar/SmartContracts/Auction2/hts-precompile/HederaTokenService.sol\":24812:24903  success... */\n      jump(tag_95)\n    tag_94:\n        /* \"hbar/SmartContracts/Auction2/hts-precompile/HederaTokenService.sol\":24845:24851  result */\n      dup1\n        /* \"hbar/SmartContracts/Auction2/hts-precompile/HederaTokenService.sol\":24834:24861  abi.decode(result, (int32)) */\n      dup1\n      0x20\n      add\n      swap1\n      mload\n      dup2\n      add\n      swap1\n      tag_96\n      swap2\n      swap1\n      tag_86\n      jump\t// in\n    tag_96:\n        /* \"hbar/SmartContracts/Auction2/hts-precompile/HederaTokenService.sol\":24812:24903  success... */\n    tag_95:\n        /* \"hbar/SmartContracts/Auction2/hts-precompile/HederaTokenService.sol\":24797:24903  responseCode = success... */\n      0x03\n      signextend\n      swap3\n      pop\n        /* \"hbar/SmartContracts/Auction2/hts-precompile/HederaTokenService.sol\":24496:24910  {... */\n      pop\n      pop\n        /* \"hbar/SmartContracts/Auction2/hts-precompile/HederaTokenService.sol\":24332:24910  function transferNFT(... */\n      swap5\n      swap4\n      pop\n      pop\n      pop\n      pop\n      jump\t// out\n        /* \"hbar/SmartContracts/Auction2/hts-precompile/KeyHelper.sol\":2821:3146  function getSingleKey(... */\n    tag_51:\n        /* \"hbar/SmartContracts/Auction2/hts-precompile/KeyHelper.sol\":2953:2997  IHederaTokenService.TokenKey memory tokenKey */\n      tag_97\n      tag_49\n      jump\t// in\n    tag_97:\n        /* \"hbar/SmartContracts/Auction2/hts-precompile/KeyHelper.sol\":3020:3139  IHederaTokenService.TokenKey(... */\n      mload(0x40)\n      dup1\n      0x40\n      add\n      0x40\n      mstore\n      dup1\n        /* \"hbar/SmartContracts/Auction2/hts-precompile/KeyHelper.sol\":3062:3081  getKeyType(keyType) */\n      tag_99\n        /* \"hbar/SmartContracts/Auction2/hts-precompile/KeyHelper.sol\":3073:3080  keyType */\n      dup7\n        /* \"hbar/SmartContracts/Auction2/hts-precompile/KeyHelper.sol\":3062:3072  getKeyType */\n      tag_100\n        /* \"hbar/SmartContracts/Auction2/hts-precompile/KeyHelper.sol\":3062:3081  getKeyType(keyType) */\n      jump\t// in\n    tag_99:\n        /* \"hbar/SmartContracts/Auction2/hts-precompile/KeyHelper.sol\":3020:3139  IHederaTokenService.TokenKey(... */\n      dup2\n      mstore\n      0x20\n      add\n        /* \"hbar/SmartContracts/Auction2/hts-precompile/KeyHelper.sol\":3095:3129  getKeyValueType(keyValueType, key) */\n      tag_101\n        /* \"hbar/SmartContracts/Auction2/hts-precompile/KeyHelper.sol\":3111:3123  keyValueType */\n      dup6\n        /* \"hbar/SmartContracts/Auction2/hts-precompile/KeyHelper.sol\":3125:3128  key */\n      dup6\n        /* \"hbar/SmartContracts/Auction2/hts-precompile/KeyHelper.sol\":3095:3110  getKeyValueType */\n      tag_102\n        /* \"hbar/SmartContracts/Auction2/hts-precompile/KeyHelper.sol\":3095:3129  getKeyValueType(keyValueType, key) */\n      jump\t// in\n    tag_101:\n        /* \"hbar/SmartContracts/Auction2/hts-precompile/KeyHelper.sol\":3020:3139  IHederaTokenService.TokenKey(... */\n      dup2\n      mstore\n      pop\n        /* \"hbar/SmartContracts/Auction2/hts-precompile/KeyHelper.sol\":3009:3139  tokenKey = IHederaTokenService.TokenKey(... */\n      swap1\n      pop\n        /* \"hbar/SmartContracts/Auction2/hts-precompile/KeyHelper.sol\":2821:3146  function getSingleKey(... */\n      swap4\n      swap3\n      pop\n      pop\n      pop\n      jump\t// out\n        /* \"hbar/SmartContracts/Auction2/hts-precompile/ExpiryHelper.sol\":210:487  function createAutoRenewExpiry(... */\n    tag_57:\n        /* \"hbar/SmartContracts/Auction2/hts-precompile/ExpiryHelper.sol\":336:376  IHederaTokenService.Expiry memory expiry */\n      tag_103\n      tag_104\n      jump\t// in\n    tag_103:\n        /* \"hbar/SmartContracts/Auction2/hts-precompile/ExpiryHelper.sol\":414:430  autoRenewAccount */\n      dup3\n        /* \"hbar/SmartContracts/Auction2/hts-precompile/ExpiryHelper.sol\":388:394  expiry */\n      dup2\n        /* \"hbar/SmartContracts/Auction2/hts-precompile/ExpiryHelper.sol\":388:411  expiry.autoRenewAccount */\n      0x20\n      add\n        /* \"hbar/SmartContracts/Auction2/hts-precompile/ExpiryHelper.sol\":388:430  expiry.autoRenewAccount = autoRenewAccount */\n      swap1\n      0xffffffffffffffffffffffffffffffffffffffff\n      and\n      swap1\n      dup2\n      0xffffffffffffffffffffffffffffffffffffffff\n      and\n      dup2\n      mstore\n      pop\n      pop\n        /* \"hbar/SmartContracts/Auction2/hts-precompile/ExpiryHelper.sol\":465:480  autoRenewPeriod */\n      dup2\n        /* \"hbar/SmartContracts/Auction2/hts-precompile/ExpiryHelper.sol\":440:446  expiry */\n      dup2\n        /* \"hbar/SmartContracts/Auction2/hts-precompile/ExpiryHelper.sol\":440:462  expiry.autoRenewPeriod */\n      0x40\n      add\n        /* \"hbar/SmartContracts/Auction2/hts-precompile/ExpiryHelper.sol\":440:480  expiry.autoRenewPeriod = autoRenewPeriod */\n      swap1\n      0xffffffff\n      and\n      swap1\n      dup2\n      0xffffffff\n      and\n      dup2\n      mstore\n      pop\n      pop\n        /* \"hbar/SmartContracts/Auction2/hts-precompile/ExpiryHelper.sol\":210:487  function createAutoRenewExpiry(... */\n      swap3\n      swap2\n      pop\n      pop\n      jump\t// out\n        /* \"hbar/SmartContracts/Auction2/hts-precompile/HederaTokenService.sol\":13005:13629  function createNonFungibleToken(... */\n    tag_59:\n        /* \"hbar/SmartContracts/Auction2/hts-precompile/HederaTokenService.sol\":13161:13177  int responseCode */\n      0x00\n        /* \"hbar/SmartContracts/Auction2/hts-precompile/HederaTokenService.sol\":13179:13199  address tokenAddress */\n      dup1\n        /* \"hbar/SmartContracts/Auction2/hts-precompile/HederaTokenService.sol\":13137:13142  token */\n      dup3\n        /* \"hbar/SmartContracts/Auction2/hts-precompile/HederaTokenService.sol\":765:766  0 */\n      0x00\n        /* \"hbar/SmartContracts/Auction2/hts-precompile/HederaTokenService.sol\":742:747  token */\n      dup2\n        /* \"hbar/SmartContracts/Auction2/hts-precompile/HederaTokenService.sol\":742:754  token.expiry */\n      0x0100\n      add\n      mload\n        /* \"hbar/SmartContracts/Auction2/hts-precompile/HederaTokenService.sol\":742:761  token.expiry.second */\n      0x00\n      add\n      mload\n        /* \"hbar/SmartContracts/Auction2/hts-precompile/HederaTokenService.sol\":742:766  token.expiry.second == 0 */\n      0xffffffff\n      and\n      eq\n        /* \"hbar/SmartContracts/Auction2/hts-precompile/HederaTokenService.sol\":742:803  token.expiry.second == 0 && token.expiry.autoRenewPeriod == 0 */\n      dup1\n      iszero\n      tag_107\n      jumpi\n      pop\n        /* \"hbar/SmartContracts/Auction2/hts-precompile/HederaTokenService.sol\":802:803  0 */\n      0x00\n        /* \"hbar/SmartContracts/Auction2/hts-precompile/HederaTokenService.sol\":770:775  token */\n      dup2\n        /* \"hbar/SmartContracts/Auction2/hts-precompile/HederaTokenService.sol\":770:782  token.expiry */\n      0x0100\n      add\n      mload\n        /* \"hbar/SmartContracts/Auction2/hts-precompile/HederaTokenService.sol\":770:798  token.expiry.autoRenewPeriod */\n      0x40\n      add\n      mload\n        /* \"hbar/SmartContracts/Auction2/hts-precompile/HederaTokenService.sol\":770:803  token.expiry.autoRenewPeriod == 0 */\n      0xffffffff\n      and\n      eq\n        /* \"hbar/SmartContracts/Auction2/hts-precompile/HederaTokenService.sol\":742:803  token.expiry.second == 0 && token.expiry.autoRenewPeriod == 0 */\n    tag_107:\n        /* \"hbar/SmartContracts/Auction2/hts-precompile/HederaTokenService.sol\":738:883  if (token.expiry.second == 0 && token.expiry.autoRenewPeriod == 0) {... */\n      iszero\n      tag_108\n      jumpi\n        /* \"hbar/SmartContracts/Auction2/hts-precompile/HederaTokenService.sol\":368:375  7776000 */\n      0x76a700\n        /* \"hbar/SmartContracts/Auction2/hts-precompile/HederaTokenService.sol\":819:824  token */\n      dup2\n        /* \"hbar/SmartContracts/Auction2/hts-precompile/HederaTokenService.sol\":819:831  token.expiry */\n      0x0100\n      add\n      mload\n        /* \"hbar/SmartContracts/Auction2/hts-precompile/HederaTokenService.sol\":819:847  token.expiry.autoRenewPeriod */\n      0x40\n      add\n        /* \"hbar/SmartContracts/Auction2/hts-precompile/HederaTokenService.sol\":819:872  token.expiry.autoRenewPeriod = defaultAutoRenewPeriod */\n      swap1\n      0xffffffff\n      and\n      swap1\n      dup2\n      0xffffffff\n      and\n      dup2\n      mstore\n      pop\n      pop\n        /* \"hbar/SmartContracts/Auction2/hts-precompile/HederaTokenService.sol\":738:883  if (token.expiry.second == 0 && token.expiry.autoRenewPeriod == 0) {... */\n    tag_108:\n        /* \"hbar/SmartContracts/Auction2/hts-precompile/HederaTokenService.sol\":13216:13228  bool success */\n      0x00\n        /* \"hbar/SmartContracts/Auction2/hts-precompile/HederaTokenService.sol\":13230:13249  bytes memory result */\n      dup1\n        /* \"hbar/SmartContracts/Auction2/hts-precompile/HederaTokenService.sol\":289:294  0x167 */\n      0x0167\n        /* \"hbar/SmartContracts/Auction2/hts-precompile/HederaTokenService.sol\":13253:13275  precompileAddress.call */\n      0xffffffffffffffffffffffffffffffffffffffff\n      and\n        /* \"hbar/SmartContracts/Auction2/hts-precompile/HederaTokenService.sol\":13296:13305  msg.value */\n      callvalue\n        /* \"hbar/SmartContracts/Auction2/hts-precompile/HederaTokenService.sol\":13369:13420  IHederaTokenService.createNonFungibleToken.selector */\n      shl(0xe0, 0x9dc711e0)\n        /* \"hbar/SmartContracts/Auction2/hts-precompile/HederaTokenService.sol\":13438:13443  token */\n      dup9\n        /* \"hbar/SmartContracts/Auction2/hts-precompile/HederaTokenService.sol\":13329:13457  abi.encodeWithSelector(... */\n      add(0x24, mload(0x40))\n      tag_110\n      swap2\n      swap1\n      tag_111\n      jump\t// in\n    tag_110:\n      mload(0x40)\n      0x20\n      dup2\n      dup4\n      sub\n      sub\n      dup2\n      mstore\n      swap1\n      0x40\n      mstore\n      swap1\n      not(0xffffffffffffffffffffffffffffffffffffffffffffffffffffffff)\n      and\n      0x20\n      dup3\n      add\n      dup1\n      mload\n      0xffffffffffffffffffffffffffffffffffffffffffffffffffffffff\n      dup4\n      dup2\n      dup4\n      and\n      or\n      dup4\n      mstore\n      pop\n      pop\n      pop\n      pop\n        /* \"hbar/SmartContracts/Auction2/hts-precompile/HederaTokenService.sol\":13253:13467  precompileAddress.call{... */\n      mload(0x40)\n      tag_112\n      swap2\n      swap1\n      tag_65\n      jump\t// in\n    tag_112:\n      0x00\n      mload(0x40)\n      dup1\n      dup4\n      sub\n      dup2\n      dup6\n      dup8\n      gas\n      call\n      swap3\n      pop\n      pop\n      pop\n      returndatasize\n      dup1\n      0x00\n      dup2\n      eq\n      tag_115\n      jumpi\n      mload(0x40)\n      swap2\n      pop\n      and(add(returndatasize, 0x3f), not(0x1f))\n      dup3\n      add\n      0x40\n      mstore\n      returndatasize\n      dup3\n      mstore\n      returndatasize\n      0x00\n      0x20\n      dup5\n      add\n      returndatacopy\n      jump(tag_114)\n    tag_115:\n      0x60\n      swap2\n      pop\n    tag_114:\n      pop\n        /* \"hbar/SmartContracts/Auction2/hts-precompile/HederaTokenService.sol\":13215:13467  (bool success, bytes memory result) = precompileAddress.call{... */\n      swap2\n      pop\n      swap2\n      pop\n        /* \"hbar/SmartContracts/Auction2/hts-precompile/HederaTokenService.sol\":13508:13515  success */\n      dup2\n        /* \"hbar/SmartContracts/Auction2/hts-precompile/HederaTokenService.sol\":13508:13622  success... */\n      tag_116\n      jumpi\n        /* \"hbar/SmartContracts/Auction2/hts-precompile/HederaResponseCodes.sol\":2587:2589  21 */\n      0x15\n        /* \"hbar/SmartContracts/Auction2/hts-precompile/HederaTokenService.sol\":13619:13620  0 */\n      0x00\n        /* \"hbar/SmartContracts/Auction2/hts-precompile/HederaTokenService.sol\":13508:13622  success... */\n      jump(tag_117)\n    tag_116:\n        /* \"hbar/SmartContracts/Auction2/hts-precompile/HederaTokenService.sol\":13541:13547  result */\n      dup1\n        /* \"hbar/SmartContracts/Auction2/hts-precompile/HederaTokenService.sol\":13530:13566  abi.decode(result, (int32, address)) */\n      dup1\n      0x20\n      add\n      swap1\n      mload\n      dup2\n      add\n      swap1\n      tag_118\n      swap2\n      swap1\n      tag_119\n      jump\t// in\n    tag_118:\n        /* \"hbar/SmartContracts/Auction2/hts-precompile/HederaTokenService.sol\":13508:13622  success... */\n    tag_117:\n        /* \"hbar/SmartContracts/Auction2/hts-precompile/HederaTokenService.sol\":13477:13622  (responseCode, tokenAddress) = success... */\n      dup2\n      0x03\n      signextend\n      swap2\n      pop\n      dup1\n      swap6\n      pop\n      dup2\n      swap7\n      pop\n      pop\n      pop\n        /* \"hbar/SmartContracts/Auction2/hts-precompile/HederaTokenService.sol\":13205:13629  {... */\n      pop\n      pop\n        /* \"hbar/SmartContracts/Auction2/hts-precompile/HederaTokenService.sol\":13005:13629  function createNonFungibleToken(... */\n      pop\n      swap2\n      pop\n      swap2\n      jump\t// out\n        /* \"hbar/SmartContracts/Auction2/hts-precompile/KeyHelper.sol\":4251:4361  function getKeyType(KeyType keyType) internal view returns (uint256) {... */\n    tag_100:\n        /* \"hbar/SmartContracts/Auction2/hts-precompile/KeyHelper.sol\":4311:4318  uint256 */\n      0x00\n        /* \"hbar/SmartContracts/Auction2/hts-precompile/KeyHelper.sol\":4337:4345  keyTypes */\n      0x01\n        /* \"hbar/SmartContracts/Auction2/hts-precompile/KeyHelper.sol\":4337:4354  keyTypes[keyType] */\n      0x00\n        /* \"hbar/SmartContracts/Auction2/hts-precompile/KeyHelper.sol\":4346:4353  keyType */\n      dup4\n        /* \"hbar/SmartContracts/Auction2/hts-precompile/KeyHelper.sol\":4337:4354  keyTypes[keyType] */\n      0x06\n      dup2\n      gt\n      iszero\n      tag_121\n      jumpi\n      tag_122\n      tag_123\n      jump\t// in\n    tag_122:\n    tag_121:\n      0x06\n      dup2\n      gt\n      iszero\n      tag_124\n      jumpi\n      tag_125\n      tag_123\n      jump\t// in\n    tag_125:\n    tag_124:\n      dup2\n      mstore\n      0x20\n      add\n      swap1\n      dup2\n      mstore\n      0x20\n      add\n      0x00\n      keccak256\n      sload\n        /* \"hbar/SmartContracts/Auction2/hts-precompile/KeyHelper.sol\":4330:4354  return keyTypes[keyType] */\n      swap1\n      pop\n        /* \"hbar/SmartContracts/Auction2/hts-precompile/KeyHelper.sol\":4251:4361  function getKeyType(KeyType keyType) internal view returns (uint256) {... */\n      swap2\n      swap1\n      pop\n      jump\t// out\n        /* \"hbar/SmartContracts/Auction2/hts-precompile/KeyHelper.sol\":5111:5525  function getKeyValueType(... */\n    tag_102:\n        /* \"hbar/SmartContracts/Auction2/hts-precompile/KeyHelper.sol\":5228:5272  IHederaTokenService.KeyValue memory keyValue */\n      tag_126\n      tag_127\n      jump\t// in\n    tag_126:\n        /* \"hbar/SmartContracts/Auction2/hts-precompile/KeyHelper.sol\":5304:5328  KeyValueType.CONTRACT_ID */\n      0x01\n        /* \"hbar/SmartContracts/Auction2/hts-precompile/KeyHelper.sol\":5288:5328  keyValueType == KeyValueType.CONTRACT_ID */\n      0x04\n      dup2\n      gt\n      iszero\n      tag_129\n      jumpi\n      tag_130\n      tag_123\n      jump\t// in\n    tag_130:\n    tag_129:\n        /* \"hbar/SmartContracts/Auction2/hts-precompile/KeyHelper.sol\":5288:5300  keyValueType */\n      dup4\n        /* \"hbar/SmartContracts/Auction2/hts-precompile/KeyHelper.sol\":5288:5328  keyValueType == KeyValueType.CONTRACT_ID */\n      0x04\n      dup2\n      gt\n      iszero\n      tag_131\n      jumpi\n      tag_132\n      tag_123\n      jump\t// in\n    tag_132:\n    tag_131:\n      sub\n        /* \"hbar/SmartContracts/Auction2/hts-precompile/KeyHelper.sol\":5284:5519  if (keyValueType == KeyValueType.CONTRACT_ID) {... */\n      tag_133\n      jumpi\n        /* \"hbar/SmartContracts/Auction2/hts-precompile/KeyHelper.sol\":5366:5376  keyAddress */\n      dup2\n        /* \"hbar/SmartContracts/Auction2/hts-precompile/KeyHelper.sol\":5344:5352  keyValue */\n      dup2\n        /* \"hbar/SmartContracts/Auction2/hts-precompile/KeyHelper.sol\":5344:5363  keyValue.contractId */\n      0x20\n      add\n        /* \"hbar/SmartContracts/Auction2/hts-precompile/KeyHelper.sol\":5344:5376  keyValue.contractId = keyAddress */\n      swap1\n      0xffffffffffffffffffffffffffffffffffffffff\n      and\n      swap1\n      dup2\n      0xffffffffffffffffffffffffffffffffffffffff\n      and\n      dup2\n      mstore\n      pop\n      pop\n        /* \"hbar/SmartContracts/Auction2/hts-precompile/KeyHelper.sol\":5284:5519  if (keyValueType == KeyValueType.CONTRACT_ID) {... */\n      jump(tag_134)\n    tag_133:\n        /* \"hbar/SmartContracts/Auction2/hts-precompile/KeyHelper.sol\":5413:5449  KeyValueType.DELEGETABLE_CONTRACT_ID */\n      0x04\n        /* \"hbar/SmartContracts/Auction2/hts-precompile/KeyHelper.sol\":5397:5449  keyValueType == KeyValueType.DELEGETABLE_CONTRACT_ID */\n      dup1\n      dup2\n      gt\n      iszero\n      tag_135\n      jumpi\n      tag_136\n      tag_123\n      jump\t// in\n    tag_136:\n    tag_135:\n        /* \"hbar/SmartContracts/Auction2/hts-precompile/KeyHelper.sol\":5397:5409  keyValueType */\n      dup4\n        /* \"hbar/SmartContracts/Auction2/hts-precompile/KeyHelper.sol\":5397:5449  keyValueType == KeyValueType.DELEGETABLE_CONTRACT_ID */\n      0x04\n      dup2\n      gt\n      iszero\n      tag_137\n      jumpi\n      tag_138\n      tag_123\n      jump\t// in\n    tag_138:\n    tag_137:\n      sub\n        /* \"hbar/SmartContracts/Auction2/hts-precompile/KeyHelper.sol\":5393:5519  if (keyValueType == KeyValueType.DELEGETABLE_CONTRACT_ID) {... */\n      tag_139\n      jumpi\n        /* \"hbar/SmartContracts/Auction2/hts-precompile/KeyHelper.sol\":5498:5508  keyAddress */\n      dup2\n        /* \"hbar/SmartContracts/Auction2/hts-precompile/KeyHelper.sol\":5465:5473  keyValue */\n      dup2\n        /* \"hbar/SmartContracts/Auction2/hts-precompile/KeyHelper.sol\":5465:5495  keyValue.delegatableContractId */\n      0x80\n      add\n        /* \"hbar/SmartContracts/Auction2/hts-precompile/KeyHelper.sol\":5465:5508  keyValue.delegatableContractId = keyAddress */\n      swap1\n      0xffffffffffffffffffffffffffffffffffffffff\n      and\n      swap1\n      dup2\n      0xffffffffffffffffffffffffffffffffffffffff\n      and\n      dup2\n      mstore\n      pop\n      pop\n        /* \"hbar/SmartContracts/Auction2/hts-precompile/KeyHelper.sol\":5393:5519  if (keyValueType == KeyValueType.DELEGETABLE_CONTRACT_ID) {... */\n    tag_139:\n        /* \"hbar/SmartContracts/Auction2/hts-precompile/KeyHelper.sol\":5284:5519  if (keyValueType == KeyValueType.CONTRACT_ID) {... */\n    tag_134:\n        /* \"hbar/SmartContracts/Auction2/hts-precompile/KeyHelper.sol\":5111:5525  function getKeyValueType(... */\n      swap3\n      swap2\n      pop\n      pop\n      jump\t// out\n    tag_49:\n      mload(0x40)\n      dup1\n      0x40\n      add\n      0x40\n      mstore\n      dup1\n      0x00\n      dup2\n      mstore\n      0x20\n      add\n      tag_140\n      tag_127\n      jump\t// in\n    tag_140:\n      dup2\n      mstore\n      pop\n      swap1\n      jump\t// out\n    tag_55:\n      mload(0x40)\n      dup1\n      0x0120\n      add\n      0x40\n      mstore\n      dup1\n      0x60\n      dup2\n      mstore\n      0x20\n      add\n      0x60\n      dup2\n      mstore\n      0x20\n      add\n      and(0xffffffffffffffffffffffffffffffffffffffff, 0x00)\n      dup2\n      mstore\n      0x20\n      add\n      0x60\n      dup2\n      mstore\n      0x20\n      add\n      iszero(iszero(0x00))\n      dup2\n      mstore\n      0x20\n      add\n      and(0xffffffff, 0x00)\n      dup2\n      mstore\n      0x20\n      add\n      iszero(iszero(0x00))\n      dup2\n      mstore\n      0x20\n      add\n      0x60\n      dup2\n      mstore\n      0x20\n      add\n      tag_141\n      tag_104\n      jump\t// in\n    tag_141:\n      dup2\n      mstore\n      pop\n      swap1\n      jump\t// out\n    tag_104:\n      mload(0x40)\n      dup1\n      0x60\n      add\n      0x40\n      mstore\n      dup1\n      and(0xffffffff, 0x00)\n      dup2\n      mstore\n      0x20\n      add\n      and(0xffffffffffffffffffffffffffffffffffffffff, 0x00)\n      dup2\n      mstore\n      0x20\n      add\n      and(0xffffffff, 0x00)\n      dup2\n      mstore\n      pop\n      swap1\n      jump\t// out\n    tag_127:\n      mload(0x40)\n      dup1\n      0xa0\n      add\n      0x40\n      mstore\n      dup1\n      iszero(iszero(0x00))\n      dup2\n      mstore\n      0x20\n      add\n      and(0xffffffffffffffffffffffffffffffffffffffff, 0x00)\n      dup2\n      mstore\n      0x20\n      add\n      0x60\n      dup2\n      mstore\n      0x20\n      add\n      0x60\n      dup2\n      mstore\n      0x20\n      add\n      and(0xffffffffffffffffffffffffffffffffffffffff, 0x00)\n      dup2\n      mstore\n      pop\n      swap1\n      jump\t// out\n        /* \"#utility.yul\":7:82   */\n    tag_142:\n        /* \"#utility.yul\":40:46   */\n      0x00\n        /* \"#utility.yul\":73:75   */\n      0x40\n        /* \"#utility.yul\":67:76   */\n      mload\n        /* \"#utility.yul\":57:76   */\n      swap1\n      pop\n        /* \"#utility.yul\":7:82   */\n      swap1\n      jump\t// out\n        /* \"#utility.yul\":88:205   */\n    tag_143:\n        /* \"#utility.yul\":197:198   */\n      0x00\n        /* \"#utility.yul\":194:195   */\n      dup1\n        /* \"#utility.yul\":187:199   */\n      revert\n        /* \"#utility.yul\":211:328   */\n    tag_144:\n        /* \"#utility.yul\":320:321   */\n      0x00\n        /* \"#utility.yul\":317:318   */\n      dup1\n        /* \"#utility.yul\":310:322   */\n      revert\n        /* \"#utility.yul\":334:460   */\n    tag_145:\n        /* \"#utility.yul\":371:378   */\n      0x00\n        /* \"#utility.yul\":411:453   */\n      0xffffffffffffffffffffffffffffffffffffffff\n        /* \"#utility.yul\":404:409   */\n      dup3\n        /* \"#utility.yul\":400:454   */\n      and\n        /* \"#utility.yul\":389:454   */\n      swap1\n      pop\n        /* \"#utility.yul\":334:460   */\n      swap2\n      swap1\n      pop\n      jump\t// out\n        /* \"#utility.yul\":466:562   */\n    tag_146:\n        /* \"#utility.yul\":503:510   */\n      0x00\n        /* \"#utility.yul\":532:556   */\n      tag_231\n        /* \"#utility.yul\":550:555   */\n      dup3\n        /* \"#utility.yul\":532:556   */\n      tag_145\n      jump\t// in\n    tag_231:\n        /* \"#utility.yul\":521:556   */\n      swap1\n      pop\n        /* \"#utility.yul\":466:562   */\n      swap2\n      swap1\n      pop\n      jump\t// out\n        /* \"#utility.yul\":568:690   */\n    tag_147:\n        /* \"#utility.yul\":641:665   */\n      tag_233\n        /* \"#utility.yul\":659:664   */\n      dup2\n        /* \"#utility.yul\":641:665   */\n      tag_146\n      jump\t// in\n    tag_233:\n        /* \"#utility.yul\":634:639   */\n      dup2\n        /* \"#utility.yul\":631:666   */\n      eq\n        /* \"#utility.yul\":621:684   */\n      tag_234\n      jumpi\n        /* \"#utility.yul\":680:681   */\n      0x00\n        /* \"#utility.yul\":677:678   */\n      dup1\n        /* \"#utility.yul\":670:682   */\n      revert\n        /* \"#utility.yul\":621:684   */\n    tag_234:\n        /* \"#utility.yul\":568:690   */\n      pop\n      jump\t// out\n        /* \"#utility.yul\":696:835   */\n    tag_148:\n        /* \"#utility.yul\":742:747   */\n      0x00\n        /* \"#utility.yul\":780:786   */\n      dup2\n        /* \"#utility.yul\":767:787   */\n      calldataload\n        /* \"#utility.yul\":758:787   */\n      swap1\n      pop\n        /* \"#utility.yul\":796:829   */\n      tag_236\n        /* \"#utility.yul\":823:828   */\n      dup2\n        /* \"#utility.yul\":796:829   */\n      tag_147\n      jump\t// in\n    tag_236:\n        /* \"#utility.yul\":696:835   */\n      swap3\n      swap2\n      pop\n      pop\n      jump\t// out\n        /* \"#utility.yul\":841:958   */\n    tag_149:\n        /* \"#utility.yul\":950:951   */\n      0x00\n        /* \"#utility.yul\":947:948   */\n      dup1\n        /* \"#utility.yul\":940:952   */\n      revert\n        /* \"#utility.yul\":964:1066   */\n    tag_150:\n        /* \"#utility.yul\":1005:1011   */\n      0x00\n        /* \"#utility.yul\":1056:1058   */\n      0x1f\n        /* \"#utility.yul\":1052:1059   */\n      not\n        /* \"#utility.yul\":1047:1049   */\n      0x1f\n        /* \"#utility.yul\":1040:1045   */\n      dup4\n        /* \"#utility.yul\":1036:1050   */\n      add\n        /* \"#utility.yul\":1032:1060   */\n      and\n        /* \"#utility.yul\":1022:1060   */\n      swap1\n      pop\n        /* \"#utility.yul\":964:1066   */\n      swap2\n      swap1\n      pop\n      jump\t// out\n        /* \"#utility.yul\":1072:1252   */\n    tag_45:\n        /* \"#utility.yul\":1120:1197   */\n      0x4e487b7100000000000000000000000000000000000000000000000000000000\n        /* \"#utility.yul\":1117:1118   */\n      0x00\n        /* \"#utility.yul\":1110:1198   */\n      mstore\n        /* \"#utility.yul\":1217:1221   */\n      0x41\n        /* \"#utility.yul\":1214:1215   */\n      0x04\n        /* \"#utility.yul\":1207:1222   */\n      mstore\n        /* \"#utility.yul\":1241:1245   */\n      0x24\n        /* \"#utility.yul\":1238:1239   */\n      0x00\n        /* \"#utility.yul\":1231:1246   */\n      revert\n        /* \"#utility.yul\":1258:1539   */\n    tag_151:\n        /* \"#utility.yul\":1341:1368   */\n      tag_241\n        /* \"#utility.yul\":1363:1367   */\n      dup3\n        /* \"#utility.yul\":1341:1368   */\n      tag_150\n      jump\t// in\n    tag_241:\n        /* \"#utility.yul\":1333:1339   */\n      dup2\n        /* \"#utility.yul\":1329:1369   */\n      add\n        /* \"#utility.yul\":1471:1477   */\n      dup2\n        /* \"#utility.yul\":1459:1469   */\n      dup2\n        /* \"#utility.yul\":1456:1478   */\n      lt\n        /* \"#utility.yul\":1435:1453   */\n      0xffffffffffffffff\n        /* \"#utility.yul\":1423:1433   */\n      dup3\n        /* \"#utility.yul\":1420:1454   */\n      gt\n        /* \"#utility.yul\":1417:1479   */\n      or\n        /* \"#utility.yul\":1414:1502   */\n      iszero\n      tag_242\n      jumpi\n        /* \"#utility.yul\":1482:1500   */\n      tag_243\n      tag_45\n      jump\t// in\n    tag_243:\n        /* \"#utility.yul\":1414:1502   */\n    tag_242:\n        /* \"#utility.yul\":1522:1532   */\n      dup1\n        /* \"#utility.yul\":1518:1520   */\n      0x40\n        /* \"#utility.yul\":1511:1533   */\n      mstore\n        /* \"#utility.yul\":1301:1539   */\n      pop\n        /* \"#utility.yul\":1258:1539   */\n      pop\n      pop\n      jump\t// out\n        /* \"#utility.yul\":1545:1674   */\n    tag_152:\n        /* \"#utility.yul\":1579:1585   */\n      0x00\n        /* \"#utility.yul\":1606:1626   */\n      tag_245\n      tag_142\n      jump\t// in\n    tag_245:\n        /* \"#utility.yul\":1596:1626   */\n      swap1\n      pop\n        /* \"#utility.yul\":1635:1668   */\n      tag_246\n        /* \"#utility.yul\":1663:1667   */\n      dup3\n        /* \"#utility.yul\":1655:1661   */\n      dup3\n        /* \"#utility.yul\":1635:1668   */\n      tag_151\n      jump\t// in\n    tag_246:\n        /* \"#utility.yul\":1545:1674   */\n      swap2\n      swap1\n      pop\n      jump\t// out\n        /* \"#utility.yul\":1680:2000   */\n    tag_153:\n        /* \"#utility.yul\":1766:1770   */\n      0x00\n        /* \"#utility.yul\":1856:1874   */\n      0xffffffffffffffff\n        /* \"#utility.yul\":1848:1854   */\n      dup3\n        /* \"#utility.yul\":1845:1875   */\n      gt\n        /* \"#utility.yul\":1842:1898   */\n      iszero\n      tag_248\n      jumpi\n        /* \"#utility.yul\":1878:1896   */\n      tag_249\n      tag_45\n      jump\t// in\n    tag_249:\n        /* \"#utility.yul\":1842:1898   */\n    tag_248:\n        /* \"#utility.yul\":1928:1932   */\n      0x20\n        /* \"#utility.yul\":1920:1926   */\n      dup3\n        /* \"#utility.yul\":1916:1933   */\n      mul\n        /* \"#utility.yul\":1908:1933   */\n      swap1\n      pop\n        /* \"#utility.yul\":1988:1992   */\n      0x20\n        /* \"#utility.yul\":1982:1986   */\n      dup2\n        /* \"#utility.yul\":1978:1993   */\n      add\n        /* \"#utility.yul\":1970:1993   */\n      swap1\n      pop\n        /* \"#utility.yul\":1680:2000   */\n      swap2\n      swap1\n      pop\n      jump\t// out\n        /* \"#utility.yul\":2006:2123   */\n    tag_154:\n        /* \"#utility.yul\":2115:2116   */\n      0x00\n        /* \"#utility.yul\":2112:2113   */\n      dup1\n        /* \"#utility.yul\":2105:2117   */\n      revert\n        /* \"#utility.yul\":2129:2246   */\n    tag_155:\n        /* \"#utility.yul\":2238:2239   */\n      0x00\n        /* \"#utility.yul\":2235:2236   */\n      dup1\n        /* \"#utility.yul\":2228:2240   */\n      revert\n        /* \"#utility.yul\":2252:2559   */\n    tag_156:\n        /* \"#utility.yul\":2313:2317   */\n      0x00\n        /* \"#utility.yul\":2403:2421   */\n      0xffffffffffffffff\n        /* \"#utility.yul\":2395:2401   */\n      dup3\n        /* \"#utility.yul\":2392:2422   */\n      gt\n        /* \"#utility.yul\":2389:2445   */\n      iszero\n      tag_253\n      jumpi\n        /* \"#utility.yul\":2425:2443   */\n      tag_254\n      tag_45\n      jump\t// in\n    tag_254:\n        /* \"#utility.yul\":2389:2445   */\n    tag_253:\n        /* \"#utility.yul\":2463:2492   */\n      tag_255\n        /* \"#utility.yul\":2485:2491   */\n      dup3\n        /* \"#utility.yul\":2463:2492   */\n      tag_150\n      jump\t// in\n    tag_255:\n        /* \"#utility.yul\":2455:2492   */\n      swap1\n      pop\n        /* \"#utility.yul\":2547:2551   */\n      0x20\n        /* \"#utility.yul\":2541:2545   */\n      dup2\n        /* \"#utility.yul\":2537:2552   */\n      add\n        /* \"#utility.yul\":2529:2552   */\n      swap1\n      pop\n        /* \"#utility.yul\":2252:2559   */\n      swap2\n      swap1\n      pop\n      jump\t// out\n        /* \"#utility.yul\":2565:2711   */\n    tag_157:\n        /* \"#utility.yul\":2662:2668   */\n      dup3\n        /* \"#utility.yul\":2657:2660   */\n      dup2\n        /* \"#utility.yul\":2652:2655   */\n      dup4\n        /* \"#utility.yul\":2639:2669   */\n      calldatacopy\n        /* \"#utility.yul\":2703:2704   */\n      0x00\n        /* \"#utility.yul\":2694:2700   */\n      dup4\n        /* \"#utility.yul\":2689:2692   */\n      dup4\n        /* \"#utility.yul\":2685:2701   */\n      add\n        /* \"#utility.yul\":2678:2705   */\n      mstore\n        /* \"#utility.yul\":2565:2711   */\n      pop\n      pop\n      pop\n      jump\t// out\n        /* \"#utility.yul\":2717:3140   */\n    tag_158:\n        /* \"#utility.yul\":2794:2799   */\n      0x00\n        /* \"#utility.yul\":2819:2884   */\n      tag_258\n        /* \"#utility.yul\":2835:2883   */\n      tag_259\n        /* \"#utility.yul\":2876:2882   */\n      dup5\n        /* \"#utility.yul\":2835:2883   */\n      tag_156\n      jump\t// in\n    tag_259:\n        /* \"#utility.yul\":2819:2884   */\n      tag_152\n      jump\t// in\n    tag_258:\n        /* \"#utility.yul\":2810:2884   */\n      swap1\n      pop\n        /* \"#utility.yul\":2907:2913   */\n      dup3\n        /* \"#utility.yul\":2900:2905   */\n      dup2\n        /* \"#utility.yul\":2893:2914   */\n      mstore\n        /* \"#utility.yul\":2945:2949   */\n      0x20\n        /* \"#utility.yul\":2938:2943   */\n      dup2\n        /* \"#utility.yul\":2934:2950   */\n      add\n        /* \"#utility.yul\":2983:2986   */\n      dup5\n        /* \"#utility.yul\":2974:2980   */\n      dup5\n        /* \"#utility.yul\":2969:2972   */\n      dup5\n        /* \"#utility.yul\":2965:2981   */\n      add\n        /* \"#utility.yul\":2962:2987   */\n      gt\n        /* \"#utility.yul\":2959:3071   */\n      iszero\n      tag_260\n      jumpi\n        /* \"#utility.yul\":2990:3069   */\n      tag_261\n      tag_155\n      jump\t// in\n    tag_261:\n        /* \"#utility.yul\":2959:3071   */\n    tag_260:\n        /* \"#utility.yul\":3080:3134   */\n      tag_262\n        /* \"#utility.yul\":3127:3133   */\n      dup5\n        /* \"#utility.yul\":3122:3125   */\n      dup3\n        /* \"#utility.yul\":3117:3120   */\n      dup6\n        /* \"#utility.yul\":3080:3134   */\n      tag_157\n      jump\t// in\n    tag_262:\n        /* \"#utility.yul\":2800:3140   */\n      pop\n        /* \"#utility.yul\":2717:3140   */\n      swap4\n      swap3\n      pop\n      pop\n      pop\n      jump\t// out\n        /* \"#utility.yul\":3159:3497   */\n    tag_159:\n        /* \"#utility.yul\":3214:3219   */\n      0x00\n        /* \"#utility.yul\":3263:3266   */\n      dup3\n        /* \"#utility.yul\":3256:3260   */\n      0x1f\n        /* \"#utility.yul\":3248:3254   */\n      dup4\n        /* \"#utility.yul\":3244:3261   */\n      add\n        /* \"#utility.yul\":3240:3267   */\n      slt\n        /* \"#utility.yul\":3230:3352   */\n      tag_264\n      jumpi\n        /* \"#utility.yul\":3271:3350   */\n      tag_265\n      tag_149\n      jump\t// in\n    tag_265:\n        /* \"#utility.yul\":3230:3352   */\n    tag_264:\n        /* \"#utility.yul\":3388:3394   */\n      dup2\n        /* \"#utility.yul\":3375:3395   */\n      calldataload\n        /* \"#utility.yul\":3413:3491   */\n      tag_266\n        /* \"#utility.yul\":3487:3490   */\n      dup5\n        /* \"#utility.yul\":3479:3485   */\n      dup3\n        /* \"#utility.yul\":3472:3476   */\n      0x20\n        /* \"#utility.yul\":3464:3470   */\n      dup7\n        /* \"#utility.yul\":3460:3477   */\n      add\n        /* \"#utility.yul\":3413:3491   */\n      tag_158\n      jump\t// in\n    tag_266:\n        /* \"#utility.yul\":3404:3491   */\n      swap2\n      pop\n        /* \"#utility.yul\":3220:3497   */\n      pop\n        /* \"#utility.yul\":3159:3497   */\n      swap3\n      swap2\n      pop\n      pop\n      jump\t// out\n        /* \"#utility.yul\":3518:4460   */\n    tag_160:\n        /* \"#utility.yul\":3623:3628   */\n      0x00\n        /* \"#utility.yul\":3648:3738   */\n      tag_268\n        /* \"#utility.yul\":3664:3737   */\n      tag_269\n        /* \"#utility.yul\":3730:3736   */\n      dup5\n        /* \"#utility.yul\":3664:3737   */\n      tag_153\n      jump\t// in\n    tag_269:\n        /* \"#utility.yul\":3648:3738   */\n      tag_152\n      jump\t// in\n    tag_268:\n        /* \"#utility.yul\":3639:3738   */\n      swap1\n      pop\n        /* \"#utility.yul\":3758:3763   */\n      dup1\n        /* \"#utility.yul\":3787:3793   */\n      dup4\n        /* \"#utility.yul\":3780:3785   */\n      dup3\n        /* \"#utility.yul\":3773:3794   */\n      mstore\n        /* \"#utility.yul\":3821:3825   */\n      0x20\n        /* \"#utility.yul\":3814:3819   */\n      dup3\n        /* \"#utility.yul\":3810:3826   */\n      add\n        /* \"#utility.yul\":3803:3826   */\n      swap1\n      pop\n        /* \"#utility.yul\":3874:3878   */\n      0x20\n        /* \"#utility.yul\":3866:3872   */\n      dup5\n        /* \"#utility.yul\":3862:3879   */\n      mul\n        /* \"#utility.yul\":3854:3860   */\n      dup4\n        /* \"#utility.yul\":3850:3880   */\n      add\n        /* \"#utility.yul\":3903:3906   */\n      dup6\n        /* \"#utility.yul\":3895:3901   */\n      dup2\n        /* \"#utility.yul\":3892:3907   */\n      gt\n        /* \"#utility.yul\":3889:4011   */\n      iszero\n      tag_270\n      jumpi\n        /* \"#utility.yul\":3922:4001   */\n      tag_271\n      tag_154\n      jump\t// in\n    tag_271:\n        /* \"#utility.yul\":3889:4011   */\n    tag_270:\n        /* \"#utility.yul\":4037:4043   */\n      dup4\n        /* \"#utility.yul\":4020:4454   */\n    tag_272:\n        /* \"#utility.yul\":4054:4060   */\n      dup2\n        /* \"#utility.yul\":4049:4052   */\n      dup2\n        /* \"#utility.yul\":4046:4061   */\n      lt\n        /* \"#utility.yul\":4020:4454   */\n      iszero\n      tag_274\n      jumpi\n        /* \"#utility.yul\":4143:4146   */\n      dup1\n        /* \"#utility.yul\":4130:4147   */\n      calldataload\n        /* \"#utility.yul\":4179:4197   */\n      0xffffffffffffffff\n        /* \"#utility.yul\":4166:4177   */\n      dup2\n        /* \"#utility.yul\":4163:4198   */\n      gt\n        /* \"#utility.yul\":4160:4282   */\n      iszero\n      tag_275\n      jumpi\n        /* \"#utility.yul\":4201:4280   */\n      tag_276\n      tag_149\n      jump\t// in\n    tag_276:\n        /* \"#utility.yul\":4160:4282   */\n    tag_275:\n        /* \"#utility.yul\":4325:4336   */\n      dup1\n        /* \"#utility.yul\":4317:4323   */\n      dup7\n        /* \"#utility.yul\":4313:4337   */\n      add\n        /* \"#utility.yul\":4363:4409   */\n      tag_277\n        /* \"#utility.yul\":4405:4408   */\n      dup10\n        /* \"#utility.yul\":4393:4403   */\n      dup3\n        /* \"#utility.yul\":4363:4409   */\n      tag_159\n      jump\t// in\n    tag_277:\n        /* \"#utility.yul\":4358:4361   */\n      dup6\n        /* \"#utility.yul\":4351:4410   */\n      mstore\n        /* \"#utility.yul\":4439:4443   */\n      0x20\n        /* \"#utility.yul\":4434:4437   */\n      dup6\n        /* \"#utility.yul\":4430:4444   */\n      add\n        /* \"#utility.yul\":4423:4444   */\n      swap5\n      pop\n        /* \"#utility.yul\":4096:4454   */\n      pop\n      pop\n        /* \"#utility.yul\":4080:4084   */\n      0x20\n        /* \"#utility.yul\":4075:4078   */\n      dup2\n        /* \"#utility.yul\":4071:4085   */\n      add\n        /* \"#utility.yul\":4064:4085   */\n      swap1\n      pop\n        /* \"#utility.yul\":4020:4454   */\n      jump(tag_272)\n    tag_274:\n        /* \"#utility.yul\":4024:4045   */\n      pop\n        /* \"#utility.yul\":3629:4460   */\n      pop\n      pop\n        /* \"#utility.yul\":3518:4460   */\n      swap4\n      swap3\n      pop\n      pop\n      pop\n      jump\t// out\n        /* \"#utility.yul\":4481:4869   */\n    tag_161:\n        /* \"#utility.yul\":4561:4566   */\n      0x00\n        /* \"#utility.yul\":4610:4613   */\n      dup3\n        /* \"#utility.yul\":4603:4607   */\n      0x1f\n        /* \"#utility.yul\":4595:4601   */\n      dup4\n        /* \"#utility.yul\":4591:4608   */\n      add\n        /* \"#utility.yul\":4587:4614   */\n      slt\n        /* \"#utility.yul\":4577:4699   */\n      tag_279\n      jumpi\n        /* \"#utility.yul\":4618:4697   */\n      tag_280\n      tag_149\n      jump\t// in\n    tag_280:\n        /* \"#utility.yul\":4577:4699   */\n    tag_279:\n        /* \"#utility.yul\":4735:4741   */\n      dup2\n        /* \"#utility.yul\":4722:4742   */\n      calldataload\n        /* \"#utility.yul\":4760:4863   */\n      tag_281\n        /* \"#utility.yul\":4859:4862   */\n      dup5\n        /* \"#utility.yul\":4851:4857   */\n      dup3\n        /* \"#utility.yul\":4844:4848   */\n      0x20\n        /* \"#utility.yul\":4836:4842   */\n      dup7\n        /* \"#utility.yul\":4832:4849   */\n      add\n        /* \"#utility.yul\":4760:4863   */\n      tag_160\n      jump\t// in\n    tag_281:\n        /* \"#utility.yul\":4751:4863   */\n      swap2\n      pop\n        /* \"#utility.yul\":4567:4869   */\n      pop\n        /* \"#utility.yul\":4481:4869   */\n      swap3\n      swap2\n      pop\n      pop\n      jump\t// out\n        /* \"#utility.yul\":4875:5577   */\n    tag_8:\n        /* \"#utility.yul\":4977:4983   */\n      0x00\n        /* \"#utility.yul\":4985:4991   */\n      dup1\n        /* \"#utility.yul\":5034:5036   */\n      0x40\n        /* \"#utility.yul\":5022:5031   */\n      dup4\n        /* \"#utility.yul\":5013:5020   */\n      dup6\n        /* \"#utility.yul\":5009:5032   */\n      sub\n        /* \"#utility.yul\":5005:5037   */\n      slt\n        /* \"#utility.yul\":5002:5121   */\n      iszero\n      tag_283\n      jumpi\n        /* \"#utility.yul\":5040:5119   */\n      tag_284\n      tag_143\n      jump\t// in\n    tag_284:\n        /* \"#utility.yul\":5002:5121   */\n    tag_283:\n        /* \"#utility.yul\":5160:5161   */\n      0x00\n        /* \"#utility.yul\":5185:5238   */\n      tag_285\n        /* \"#utility.yul\":5230:5237   */\n      dup6\n        /* \"#utility.yul\":5221:5227   */\n      dup3\n        /* \"#utility.yul\":5210:5219   */\n      dup7\n        /* \"#utility.yul\":5206:5228   */\n      add\n        /* \"#utility.yul\":5185:5238   */\n      tag_148\n      jump\t// in\n    tag_285:\n        /* \"#utility.yul\":5175:5238   */\n      swap3\n      pop\n        /* \"#utility.yul\":5131:5248   */\n      pop\n        /* \"#utility.yul\":5315:5317   */\n      0x20\n        /* \"#utility.yul\":5304:5313   */\n      dup4\n        /* \"#utility.yul\":5300:5318   */\n      add\n        /* \"#utility.yul\":5287:5319   */\n      calldataload\n        /* \"#utility.yul\":5346:5364   */\n      0xffffffffffffffff\n        /* \"#utility.yul\":5338:5344   */\n      dup2\n        /* \"#utility.yul\":5335:5365   */\n      gt\n        /* \"#utility.yul\":5332:5449   */\n      iszero\n      tag_286\n      jumpi\n        /* \"#utility.yul\":5368:5447   */\n      tag_287\n      tag_144\n      jump\t// in\n    tag_287:\n        /* \"#utility.yul\":5332:5449   */\n    tag_286:\n        /* \"#utility.yul\":5473:5560   */\n      tag_288\n        /* \"#utility.yul\":5552:5559   */\n      dup6\n        /* \"#utility.yul\":5543:5549   */\n      dup3\n        /* \"#utility.yul\":5532:5541   */\n      dup7\n        /* \"#utility.yul\":5528:5550   */\n      add\n        /* \"#utility.yul\":5473:5560   */\n      tag_161\n      jump\t// in\n    tag_288:\n        /* \"#utility.yul\":5463:5560   */\n      swap2\n      pop\n        /* \"#utility.yul\":5258:5570   */\n      pop\n        /* \"#utility.yul\":4875:5577   */\n      swap3\n      pop\n      swap3\n      swap1\n      pop\n      jump\t// out\n        /* \"#utility.yul\":5583:5673   */\n    tag_162:\n        /* \"#utility.yul\":5618:5625   */\n      0x00\n        /* \"#utility.yul\":5661:5666   */\n      dup2\n        /* \"#utility.yul\":5658:5659   */\n      0x07\n        /* \"#utility.yul\":5647:5667   */\n      signextend\n        /* \"#utility.yul\":5636:5667   */\n      swap1\n      pop\n        /* \"#utility.yul\":5583:5673   */\n      swap2\n      swap1\n      pop\n      jump\t// out\n        /* \"#utility.yul\":5679:5791   */\n    tag_163:\n        /* \"#utility.yul\":5762:5784   */\n      tag_291\n        /* \"#utility.yul\":5778:5783   */\n      dup2\n        /* \"#utility.yul\":5762:5784   */\n      tag_162\n      jump\t// in\n    tag_291:\n        /* \"#utility.yul\":5757:5760   */\n      dup3\n        /* \"#utility.yul\":5750:5785   */\n      mstore\n        /* \"#utility.yul\":5679:5791   */\n      pop\n      pop\n      jump\t// out\n        /* \"#utility.yul\":5797:6011   */\n    tag_11:\n        /* \"#utility.yul\":5886:5890   */\n      0x00\n        /* \"#utility.yul\":5924:5926   */\n      0x20\n        /* \"#utility.yul\":5913:5922   */\n      dup3\n        /* \"#utility.yul\":5909:5927   */\n      add\n        /* \"#utility.yul\":5901:5927   */\n      swap1\n      pop\n        /* \"#utility.yul\":5937:6004   */\n      tag_293\n        /* \"#utility.yul\":6001:6002   */\n      0x00\n        /* \"#utility.yul\":5990:5999   */\n      dup4\n        /* \"#utility.yul\":5986:6003   */\n      add\n        /* \"#utility.yul\":5977:5983   */\n      dup5\n        /* \"#utility.yul\":5937:6004   */\n      tag_163\n      jump\t// in\n    tag_293:\n        /* \"#utility.yul\":5797:6011   */\n      swap3\n      swap2\n      pop\n      pop\n      jump\t// out\n        /* \"#utility.yul\":6017:6135   */\n    tag_164:\n        /* \"#utility.yul\":6088:6110   */\n      tag_295\n        /* \"#utility.yul\":6104:6109   */\n      dup2\n        /* \"#utility.yul\":6088:6110   */\n      tag_162\n      jump\t// in\n    tag_295:\n        /* \"#utility.yul\":6081:6086   */\n      dup2\n        /* \"#utility.yul\":6078:6111   */\n      eq\n        /* \"#utility.yul\":6068:6129   */\n      tag_296\n      jumpi\n        /* \"#utility.yul\":6125:6126   */\n      0x00\n        /* \"#utility.yul\":6122:6123   */\n      dup1\n        /* \"#utility.yul\":6115:6127   */\n      revert\n        /* \"#utility.yul\":6068:6129   */\n    tag_296:\n        /* \"#utility.yul\":6017:6135   */\n      pop\n      jump\t// out\n        /* \"#utility.yul\":6141:6276   */\n    tag_165:\n        /* \"#utility.yul\":6185:6190   */\n      0x00\n        /* \"#utility.yul\":6223:6229   */\n      dup2\n        /* \"#utility.yul\":6210:6230   */\n      calldataload\n        /* \"#utility.yul\":6201:6230   */\n      swap1\n      pop\n        /* \"#utility.yul\":6239:6270   */\n      tag_298\n        /* \"#utility.yul\":6264:6269   */\n      dup2\n        /* \"#utility.yul\":6239:6270   */\n      tag_164\n      jump\t// in\n    tag_298:\n        /* \"#utility.yul\":6141:6276   */\n      swap3\n      swap2\n      pop\n      pop\n      jump\t// out\n        /* \"#utility.yul\":6282:6897   */\n    tag_15:\n        /* \"#utility.yul\":6357:6363   */\n      0x00\n        /* \"#utility.yul\":6365:6371   */\n      dup1\n        /* \"#utility.yul\":6373:6379   */\n      0x00\n        /* \"#utility.yul\":6422:6424   */\n      0x60\n        /* \"#utility.yul\":6410:6419   */\n      dup5\n        /* \"#utility.yul\":6401:6408   */\n      dup7\n        /* \"#utility.yul\":6397:6420   */\n      sub\n        /* \"#utility.yul\":6393:6425   */\n      slt\n        /* \"#utility.yul\":6390:6509   */\n      iszero\n      tag_300\n      jumpi\n        /* \"#utility.yul\":6428:6507   */\n      tag_301\n      tag_143\n      jump\t// in\n    tag_301:\n        /* \"#utility.yul\":6390:6509   */\n    tag_300:\n        /* \"#utility.yul\":6548:6549   */\n      0x00\n        /* \"#utility.yul\":6573:6626   */\n      tag_302\n        /* \"#utility.yul\":6618:6625   */\n      dup7\n        /* \"#utility.yul\":6609:6615   */\n      dup3\n        /* \"#utility.yul\":6598:6607   */\n      dup8\n        /* \"#utility.yul\":6594:6616   */\n      add\n        /* \"#utility.yul\":6573:6626   */\n      tag_148\n      jump\t// in\n    tag_302:\n        /* \"#utility.yul\":6563:6626   */\n      swap4\n      pop\n        /* \"#utility.yul\":6519:6636   */\n      pop\n        /* \"#utility.yul\":6675:6677   */\n      0x20\n        /* \"#utility.yul\":6701:6754   */\n      tag_303\n        /* \"#utility.yul\":6746:6753   */\n      dup7\n        /* \"#utility.yul\":6737:6743   */\n      dup3\n        /* \"#utility.yul\":6726:6735   */\n      dup8\n        /* \"#utility.yul\":6722:6744   */\n      add\n        /* \"#utility.yul\":6701:6754   */\n      tag_148\n      jump\t// in\n    tag_303:\n        /* \"#utility.yul\":6691:6754   */\n      swap3\n      pop\n        /* \"#utility.yul\":6646:6764   */\n      pop\n        /* \"#utility.yul\":6803:6805   */\n      0x40\n        /* \"#utility.yul\":6829:6880   */\n      tag_304\n        /* \"#utility.yul\":6872:6879   */\n      dup7\n        /* \"#utility.yul\":6863:6869   */\n      dup3\n        /* \"#utility.yul\":6852:6861   */\n      dup8\n        /* \"#utility.yul\":6848:6870   */\n      add\n        /* \"#utility.yul\":6829:6880   */\n      tag_165\n      jump\t// in\n    tag_304:\n        /* \"#utility.yul\":6819:6880   */\n      swap2\n      pop\n        /* \"#utility.yul\":6774:6890   */\n      pop\n        /* \"#utility.yul\":6282:6897   */\n      swap3\n      pop\n      swap3\n      pop\n      swap3\n      jump\t// out\n        /* \"#utility.yul\":6903:6979   */\n    tag_166:\n        /* \"#utility.yul\":6939:6946   */\n      0x00\n        /* \"#utility.yul\":6968:6973   */\n      dup2\n        /* \"#utility.yul\":6957:6973   */\n      swap1\n      pop\n        /* \"#utility.yul\":6903:6979   */\n      swap2\n      swap1\n      pop\n      jump\t// out\n        /* \"#utility.yul\":6985:7100   */\n    tag_167:\n        /* \"#utility.yul\":7070:7093   */\n      tag_307\n        /* \"#utility.yul\":7087:7092   */\n      dup2\n        /* \"#utility.yul\":7070:7093   */\n      tag_166\n      jump\t// in\n    tag_307:\n        /* \"#utility.yul\":7065:7068   */\n      dup3\n        /* \"#utility.yul\":7058:7094   */\n      mstore\n        /* \"#utility.yul\":6985:7100   */\n      pop\n      pop\n      jump\t// out\n        /* \"#utility.yul\":7106:7324   */\n    tag_18:\n        /* \"#utility.yul\":7197:7201   */\n      0x00\n        /* \"#utility.yul\":7235:7237   */\n      0x20\n        /* \"#utility.yul\":7224:7233   */\n      dup3\n        /* \"#utility.yul\":7220:7238   */\n      add\n        /* \"#utility.yul\":7212:7238   */\n      swap1\n      pop\n        /* \"#utility.yul\":7248:7317   */\n      tag_309\n        /* \"#utility.yul\":7314:7315   */\n      0x00\n        /* \"#utility.yul\":7303:7312   */\n      dup4\n        /* \"#utility.yul\":7299:7316   */\n      add\n        /* \"#utility.yul\":7290:7296   */\n      dup5\n        /* \"#utility.yul\":7248:7317   */\n      tag_167\n      jump\t// in\n    tag_309:\n        /* \"#utility.yul\":7106:7324   */\n      swap3\n      swap2\n      pop\n      pop\n      jump\t// out\n        /* \"#utility.yul\":7330:7638   */\n    tag_168:\n        /* \"#utility.yul\":7392:7396   */\n      0x00\n        /* \"#utility.yul\":7482:7500   */\n      0xffffffffffffffff\n        /* \"#utility.yul\":7474:7480   */\n      dup3\n        /* \"#utility.yul\":7471:7501   */\n      gt\n        /* \"#utility.yul\":7468:7524   */\n      iszero\n      tag_311\n      jumpi\n        /* \"#utility.yul\":7504:7522   */\n      tag_312\n      tag_45\n      jump\t// in\n    tag_312:\n        /* \"#utility.yul\":7468:7524   */\n    tag_311:\n        /* \"#utility.yul\":7542:7571   */\n      tag_313\n        /* \"#utility.yul\":7564:7570   */\n      dup3\n        /* \"#utility.yul\":7542:7571   */\n      tag_150\n      jump\t// in\n    tag_313:\n        /* \"#utility.yul\":7534:7571   */\n      swap1\n      pop\n        /* \"#utility.yul\":7626:7630   */\n      0x20\n        /* \"#utility.yul\":7620:7624   */\n      dup2\n        /* \"#utility.yul\":7616:7631   */\n      add\n        /* \"#utility.yul\":7608:7631   */\n      swap1\n      pop\n        /* \"#utility.yul\":7330:7638   */\n      swap2\n      swap1\n      pop\n      jump\t// out\n        /* \"#utility.yul\":7644:8069   */\n    tag_169:\n        /* \"#utility.yul\":7722:7727   */\n      0x00\n        /* \"#utility.yul\":7747:7813   */\n      tag_315\n        /* \"#utility.yul\":7763:7812   */\n      tag_316\n        /* \"#utility.yul\":7805:7811   */\n      dup5\n        /* \"#utility.yul\":7763:7812   */\n      tag_168\n      jump\t// in\n    tag_316:\n        /* \"#utility.yul\":7747:7813   */\n      tag_152\n      jump\t// in\n    tag_315:\n        /* \"#utility.yul\":7738:7813   */\n      swap1\n      pop\n        /* \"#utility.yul\":7836:7842   */\n      dup3\n        /* \"#utility.yul\":7829:7834   */\n      dup2\n        /* \"#utility.yul\":7822:7843   */\n      mstore\n        /* \"#utility.yul\":7874:7878   */\n      0x20\n        /* \"#utility.yul\":7867:7872   */\n      dup2\n        /* \"#utility.yul\":7863:7879   */\n      add\n        /* \"#utility.yul\":7912:7915   */\n      dup5\n        /* \"#utility.yul\":7903:7909   */\n      dup5\n        /* \"#utility.yul\":7898:7901   */\n      dup5\n        /* \"#utility.yul\":7894:7910   */\n      add\n        /* \"#utility.yul\":7891:7916   */\n      gt\n        /* \"#utility.yul\":7888:8000   */\n      iszero\n      tag_317\n      jumpi\n        /* \"#utility.yul\":7919:7998   */\n      tag_318\n      tag_155\n      jump\t// in\n    tag_318:\n        /* \"#utility.yul\":7888:8000   */\n    tag_317:\n        /* \"#utility.yul\":8009:8063   */\n      tag_319\n        /* \"#utility.yul\":8056:8062   */\n      dup5\n        /* \"#utility.yul\":8051:8054   */\n      dup3\n        /* \"#utility.yul\":8046:8049   */\n      dup6\n        /* \"#utility.yul\":8009:8063   */\n      tag_157\n      jump\t// in\n    tag_319:\n        /* \"#utility.yul\":7728:8069   */\n      pop\n        /* \"#utility.yul\":7644:8069   */\n      swap4\n      swap3\n      pop\n      pop\n      pop\n      jump\t// out\n        /* \"#utility.yul\":8089:8429   */\n    tag_170:\n        /* \"#utility.yul\":8145:8150   */\n      0x00\n        /* \"#utility.yul\":8194:8197   */\n      dup3\n        /* \"#utility.yul\":8187:8191   */\n      0x1f\n        /* \"#utility.yul\":8179:8185   */\n      dup4\n        /* \"#utility.yul\":8175:8192   */\n      add\n        /* \"#utility.yul\":8171:8198   */\n      slt\n        /* \"#utility.yul\":8161:8283   */\n      tag_321\n      jumpi\n        /* \"#utility.yul\":8202:8281   */\n      tag_322\n      tag_149\n      jump\t// in\n    tag_322:\n        /* \"#utility.yul\":8161:8283   */\n    tag_321:\n        /* \"#utility.yul\":8319:8325   */\n      dup2\n        /* \"#utility.yul\":8306:8326   */\n      calldataload\n        /* \"#utility.yul\":8344:8423   */\n      tag_323\n        /* \"#utility.yul\":8419:8422   */\n      dup5\n        /* \"#utility.yul\":8411:8417   */\n      dup3\n        /* \"#utility.yul\":8404:8408   */\n      0x20\n        /* \"#utility.yul\":8396:8402   */\n      dup7\n        /* \"#utility.yul\":8392:8409   */\n      add\n        /* \"#utility.yul\":8344:8423   */\n      tag_169\n      jump\t// in\n    tag_323:\n        /* \"#utility.yul\":8335:8423   */\n      swap2\n      pop\n        /* \"#utility.yul\":8151:8429   */\n      pop\n        /* \"#utility.yul\":8089:8429   */\n      swap3\n      swap2\n      pop\n      pop\n      jump\t// out\n        /* \"#utility.yul\":8435:8528   */\n    tag_171:\n        /* \"#utility.yul\":8471:8478   */\n      0x00\n        /* \"#utility.yul\":8511:8521   */\n      0xffffffff\n        /* \"#utility.yul\":8504:8509   */\n      dup3\n        /* \"#utility.yul\":8500:8522   */\n      and\n        /* \"#utility.yul\":8489:8522   */\n      swap1\n      pop\n        /* \"#utility.yul\":8435:8528   */\n      swap2\n      swap1\n      pop\n      jump\t// out\n        /* \"#utility.yul\":8534:8654   */\n    tag_172:\n        /* \"#utility.yul\":8606:8629   */\n      tag_326\n        /* \"#utility.yul\":8623:8628   */\n      dup2\n        /* \"#utility.yul\":8606:8629   */\n      tag_171\n      jump\t// in\n    tag_326:\n        /* \"#utility.yul\":8599:8604   */\n      dup2\n        /* \"#utility.yul\":8596:8630   */\n      eq\n        /* \"#utility.yul\":8586:8648   */\n      tag_327\n      jumpi\n        /* \"#utility.yul\":8644:8645   */\n      0x00\n        /* \"#utility.yul\":8641:8642   */\n      dup1\n        /* \"#utility.yul\":8634:8646   */\n      revert\n        /* \"#utility.yul\":8586:8648   */\n    tag_327:\n        /* \"#utility.yul\":8534:8654   */\n      pop\n      jump\t// out\n        /* \"#utility.yul\":8660:8797   */\n    tag_173:\n        /* \"#utility.yul\":8705:8710   */\n      0x00\n        /* \"#utility.yul\":8743:8749   */\n      dup2\n        /* \"#utility.yul\":8730:8750   */\n      calldataload\n        /* \"#utility.yul\":8721:8750   */\n      swap1\n      pop\n        /* \"#utility.yul\":8759:8791   */\n      tag_329\n        /* \"#utility.yul\":8785:8790   */\n      dup2\n        /* \"#utility.yul\":8759:8791   */\n      tag_172\n      jump\t// in\n    tag_329:\n        /* \"#utility.yul\":8660:8797   */\n      swap3\n      swap2\n      pop\n      pop\n      jump\t// out\n        /* \"#utility.yul\":8803:10250   */\n    tag_21:\n        /* \"#utility.yul\":8926:8932   */\n      0x00\n        /* \"#utility.yul\":8934:8940   */\n      dup1\n        /* \"#utility.yul\":8942:8948   */\n      0x00\n        /* \"#utility.yul\":8950:8956   */\n      dup1\n        /* \"#utility.yul\":8958:8964   */\n      0x00\n        /* \"#utility.yul\":9007:9010   */\n      0xa0\n        /* \"#utility.yul\":8995:9004   */\n      dup7\n        /* \"#utility.yul\":8986:8993   */\n      dup9\n        /* \"#utility.yul\":8982:9005   */\n      sub\n        /* \"#utility.yul\":8978:9011   */\n      slt\n        /* \"#utility.yul\":8975:9095   */\n      iszero\n      tag_331\n      jumpi\n        /* \"#utility.yul\":9014:9093   */\n      tag_332\n      tag_143\n      jump\t// in\n    tag_332:\n        /* \"#utility.yul\":8975:9095   */\n    tag_331:\n        /* \"#utility.yul\":9162:9163   */\n      0x00\n        /* \"#utility.yul\":9151:9160   */\n      dup7\n        /* \"#utility.yul\":9147:9164   */\n      add\n        /* \"#utility.yul\":9134:9165   */\n      calldataload\n        /* \"#utility.yul\":9192:9210   */\n      0xffffffffffffffff\n        /* \"#utility.yul\":9184:9190   */\n      dup2\n        /* \"#utility.yul\":9181:9211   */\n      gt\n        /* \"#utility.yul\":9178:9295   */\n      iszero\n      tag_333\n      jumpi\n        /* \"#utility.yul\":9214:9293   */\n      tag_334\n      tag_144\n      jump\t// in\n    tag_334:\n        /* \"#utility.yul\":9178:9295   */\n    tag_333:\n        /* \"#utility.yul\":9319:9382   */\n      tag_335\n        /* \"#utility.yul\":9374:9381   */\n      dup9\n        /* \"#utility.yul\":9365:9371   */\n      dup3\n        /* \"#utility.yul\":9354:9363   */\n      dup10\n        /* \"#utility.yul\":9350:9372   */\n      add\n        /* \"#utility.yul\":9319:9382   */\n      tag_170\n      jump\t// in\n    tag_335:\n        /* \"#utility.yul\":9309:9382   */\n      swap6\n      pop\n        /* \"#utility.yul\":9105:9392   */\n      pop\n        /* \"#utility.yul\":9459:9461   */\n      0x20\n        /* \"#utility.yul\":9448:9457   */\n      dup7\n        /* \"#utility.yul\":9444:9462   */\n      add\n        /* \"#utility.yul\":9431:9463   */\n      calldataload\n        /* \"#utility.yul\":9490:9508   */\n      0xffffffffffffffff\n        /* \"#utility.yul\":9482:9488   */\n      dup2\n        /* \"#utility.yul\":9479:9509   */\n      gt\n        /* \"#utility.yul\":9476:9593   */\n      iszero\n      tag_336\n      jumpi\n        /* \"#utility.yul\":9512:9591   */\n      tag_337\n      tag_144\n      jump\t// in\n    tag_337:\n        /* \"#utility.yul\":9476:9593   */\n    tag_336:\n        /* \"#utility.yul\":9617:9680   */\n      tag_338\n        /* \"#utility.yul\":9672:9679   */\n      dup9\n        /* \"#utility.yul\":9663:9669   */\n      dup3\n        /* \"#utility.yul\":9652:9661   */\n      dup10\n        /* \"#utility.yul\":9648:9670   */\n      add\n        /* \"#utility.yul\":9617:9680   */\n      tag_170\n      jump\t// in\n    tag_338:\n        /* \"#utility.yul\":9607:9680   */\n      swap5\n      pop\n        /* \"#utility.yul\":9402:9690   */\n      pop\n        /* \"#utility.yul\":9757:9759   */\n      0x40\n        /* \"#utility.yul\":9746:9755   */\n      dup7\n        /* \"#utility.yul\":9742:9760   */\n      add\n        /* \"#utility.yul\":9729:9761   */\n      calldataload\n        /* \"#utility.yul\":9788:9806   */\n      0xffffffffffffffff\n        /* \"#utility.yul\":9780:9786   */\n      dup2\n        /* \"#utility.yul\":9777:9807   */\n      gt\n        /* \"#utility.yul\":9774:9891   */\n      iszero\n      tag_339\n      jumpi\n        /* \"#utility.yul\":9810:9889   */\n      tag_340\n      tag_144\n      jump\t// in\n    tag_340:\n        /* \"#utility.yul\":9774:9891   */\n    tag_339:\n        /* \"#utility.yul\":9915:9978   */\n      tag_341\n        /* \"#utility.yul\":9970:9977   */\n      dup9\n        /* \"#utility.yul\":9961:9967   */\n      dup3\n        /* \"#utility.yul\":9950:9959   */\n      dup10\n        /* \"#utility.yul\":9946:9968   */\n      add\n        /* \"#utility.yul\":9915:9978   */\n      tag_170\n      jump\t// in\n    tag_341:\n        /* \"#utility.yul\":9905:9978   */\n      swap4\n      pop\n        /* \"#utility.yul\":9700:9988   */\n      pop\n        /* \"#utility.yul\":10027:10029   */\n      0x60\n        /* \"#utility.yul\":10053:10105   */\n      tag_342\n        /* \"#utility.yul\":10097:10104   */\n      dup9\n        /* \"#utility.yul\":10088:10094   */\n      dup3\n        /* \"#utility.yul\":10077:10086   */\n      dup10\n        /* \"#utility.yul\":10073:10095   */\n      add\n        /* \"#utility.yul\":10053:10105   */\n      tag_173\n      jump\t// in\n    tag_342:\n        /* \"#utility.yul\":10043:10105   */\n      swap3\n      pop\n        /* \"#utility.yul\":9998:10115   */\n      pop\n        /* \"#utility.yul\":10154:10157   */\n      0x80\n        /* \"#utility.yul\":10181:10233   */\n      tag_343\n        /* \"#utility.yul\":10225:10232   */\n      dup9\n        /* \"#utility.yul\":10216:10222   */\n      dup3\n        /* \"#utility.yul\":10205:10214   */\n      dup10\n        /* \"#utility.yul\":10201:10223   */\n      add\n        /* \"#utility.yul\":10181:10233   */\n      tag_173\n      jump\t// in\n    tag_343:\n        /* \"#utility.yul\":10171:10233   */\n      swap2\n      pop\n        /* \"#utility.yul\":10125:10243   */\n      pop\n        /* \"#utility.yul\":8803:10250   */\n      swap3\n      swap6\n      pop\n      swap3\n      swap6\n      swap1\n      swap4\n      pop\n      jump\t// out\n        /* \"#utility.yul\":10256:10374   */\n    tag_174:\n        /* \"#utility.yul\":10343:10367   */\n      tag_345\n        /* \"#utility.yul\":10361:10366   */\n      dup2\n        /* \"#utility.yul\":10343:10367   */\n      tag_146\n      jump\t// in\n    tag_345:\n        /* \"#utility.yul\":10338:10341   */\n      dup3\n        /* \"#utility.yul\":10331:10368   */\n      mstore\n        /* \"#utility.yul\":10256:10374   */\n      pop\n      pop\n      jump\t// out\n        /* \"#utility.yul\":10380:10602   */\n    tag_24:\n        /* \"#utility.yul\":10473:10477   */\n      0x00\n        /* \"#utility.yul\":10511:10513   */\n      0x20\n        /* \"#utility.yul\":10500:10509   */\n      dup3\n        /* \"#utility.yul\":10496:10514   */\n      add\n        /* \"#utility.yul\":10488:10514   */\n      swap1\n      pop\n        /* \"#utility.yul\":10524:10595   */\n      tag_347\n        /* \"#utility.yul\":10592:10593   */\n      0x00\n        /* \"#utility.yul\":10581:10590   */\n      dup4\n        /* \"#utility.yul\":10577:10594   */\n      add\n        /* \"#utility.yul\":10568:10574   */\n      dup5\n        /* \"#utility.yul\":10524:10595   */\n      tag_174\n      jump\t// in\n    tag_347:\n        /* \"#utility.yul\":10380:10602   */\n      swap3\n      swap2\n      pop\n      pop\n      jump\t// out\n        /* \"#utility.yul\":10608:10777   */\n    tag_175:\n        /* \"#utility.yul\":10692:10703   */\n      0x00\n        /* \"#utility.yul\":10726:10732   */\n      dup3\n        /* \"#utility.yul\":10721:10724   */\n      dup3\n        /* \"#utility.yul\":10714:10733   */\n      mstore\n        /* \"#utility.yul\":10766:10770   */\n      0x20\n        /* \"#utility.yul\":10761:10764   */\n      dup3\n        /* \"#utility.yul\":10757:10771   */\n      add\n        /* \"#utility.yul\":10742:10771   */\n      swap1\n      pop\n        /* \"#utility.yul\":10608:10777   */\n      swap3\n      swap2\n      pop\n      pop\n      jump\t// out\n        /* \"#utility.yul\":10783:11003   */\n    tag_176:\n        /* \"#utility.yul\":10923:10957   */\n      0x4661696c656420746f206d696e74206e6f6e2d66756e6769626c6520746f6b65\n        /* \"#utility.yul\":10919:10920   */\n      0x00\n        /* \"#utility.yul\":10911:10917   */\n      dup3\n        /* \"#utility.yul\":10907:10921   */\n      add\n        /* \"#utility.yul\":10900:10958   */\n      mstore\n        /* \"#utility.yul\":10992:10995   */\n      0x6e00000000000000000000000000000000000000000000000000000000000000\n        /* \"#utility.yul\":10987:10989   */\n      0x20\n        /* \"#utility.yul\":10979:10985   */\n      dup3\n        /* \"#utility.yul\":10975:10990   */\n      add\n        /* \"#utility.yul\":10968:10996   */\n      mstore\n        /* \"#utility.yul\":10783:11003   */\n      pop\n      jump\t// out\n        /* \"#utility.yul\":11009:11375   */\n    tag_177:\n        /* \"#utility.yul\":11151:11154   */\n      0x00\n        /* \"#utility.yul\":11172:11239   */\n      tag_351\n        /* \"#utility.yul\":11236:11238   */\n      0x21\n        /* \"#utility.yul\":11231:11234   */\n      dup4\n        /* \"#utility.yul\":11172:11239   */\n      tag_175\n      jump\t// in\n    tag_351:\n        /* \"#utility.yul\":11165:11239   */\n      swap2\n      pop\n        /* \"#utility.yul\":11248:11341   */\n      tag_352\n        /* \"#utility.yul\":11337:11340   */\n      dup3\n        /* \"#utility.yul\":11248:11341   */\n      tag_176\n      jump\t// in\n    tag_352:\n        /* \"#utility.yul\":11366:11368   */\n      0x40\n        /* \"#utility.yul\":11361:11364   */\n      dup3\n        /* \"#utility.yul\":11357:11369   */\n      add\n        /* \"#utility.yul\":11350:11369   */\n      swap1\n      pop\n        /* \"#utility.yul\":11009:11375   */\n      swap2\n      swap1\n      pop\n      jump\t// out\n        /* \"#utility.yul\":11381:11800   */\n    tag_30:\n        /* \"#utility.yul\":11547:11551   */\n      0x00\n        /* \"#utility.yul\":11585:11587   */\n      0x20\n        /* \"#utility.yul\":11574:11583   */\n      dup3\n        /* \"#utility.yul\":11570:11588   */\n      add\n        /* \"#utility.yul\":11562:11588   */\n      swap1\n      pop\n        /* \"#utility.yul\":11634:11643   */\n      dup2\n        /* \"#utility.yul\":11628:11632   */\n      dup2\n        /* \"#utility.yul\":11624:11644   */\n      sub\n        /* \"#utility.yul\":11620:11621   */\n      0x00\n        /* \"#utility.yul\":11609:11618   */\n      dup4\n        /* \"#utility.yul\":11605:11622   */\n      add\n        /* \"#utility.yul\":11598:11645   */\n      mstore\n        /* \"#utility.yul\":11662:11793   */\n      tag_354\n        /* \"#utility.yul\":11788:11792   */\n      dup2\n        /* \"#utility.yul\":11662:11793   */\n      tag_177\n      jump\t// in\n    tag_354:\n        /* \"#utility.yul\":11654:11793   */\n      swap1\n      pop\n        /* \"#utility.yul\":11381:11800   */\n      swap2\n      swap1\n      pop\n      jump\t// out\n        /* \"#utility.yul\":11806:11986   */\n    tag_33:\n        /* \"#utility.yul\":11854:11931   */\n      0x4e487b7100000000000000000000000000000000000000000000000000000000\n        /* \"#utility.yul\":11851:11852   */\n      0x00\n        /* \"#utility.yul\":11844:11932   */\n      mstore\n        /* \"#utility.yul\":11951:11955   */\n      0x32\n        /* \"#utility.yul\":11948:11949   */\n      0x04\n        /* \"#utility.yul\":11941:11956   */\n      mstore\n        /* \"#utility.yul\":11975:11979   */\n      0x24\n        /* \"#utility.yul\":11972:11973   */\n      0x00\n        /* \"#utility.yul\":11965:11980   */\n      revert\n        /* \"#utility.yul\":11992:12216   */\n    tag_178:\n        /* \"#utility.yul\":12132:12166   */\n      0x4661696c656420746f207472616e73666572206e6f6e2d66756e6769626c6520\n        /* \"#utility.yul\":12128:12129   */\n      0x00\n        /* \"#utility.yul\":12120:12126   */\n      dup3\n        /* \"#utility.yul\":12116:12130   */\n      add\n        /* \"#utility.yul\":12109:12167   */\n      mstore\n        /* \"#utility.yul\":12201:12208   */\n      0x746f6b656e000000000000000000000000000000000000000000000000000000\n        /* \"#utility.yul\":12196:12198   */\n      0x20\n        /* \"#utility.yul\":12188:12194   */\n      dup3\n        /* \"#utility.yul\":12184:12199   */\n      add\n        /* \"#utility.yul\":12177:12209   */\n      mstore\n        /* \"#utility.yul\":11992:12216   */\n      pop\n      jump\t// out\n        /* \"#utility.yul\":12222:12588   */\n    tag_179:\n        /* \"#utility.yul\":12364:12367   */\n      0x00\n        /* \"#utility.yul\":12385:12452   */\n      tag_358\n        /* \"#utility.yul\":12449:12451   */\n      0x25\n        /* \"#utility.yul\":12444:12447   */\n      dup4\n        /* \"#utility.yul\":12385:12452   */\n      tag_175\n      jump\t// in\n    tag_358:\n        /* \"#utility.yul\":12378:12452   */\n      swap2\n      pop\n        /* \"#utility.yul\":12461:12554   */\n      tag_359\n        /* \"#utility.yul\":12550:12553   */\n      dup3\n        /* \"#utility.yul\":12461:12554   */\n      tag_178\n      jump\t// in\n    tag_359:\n        /* \"#utility.yul\":12579:12581   */\n      0x40\n        /* \"#utility.yul\":12574:12577   */\n      dup3\n        /* \"#utility.yul\":12570:12582   */\n      add\n        /* \"#utility.yul\":12563:12582   */\n      swap1\n      pop\n        /* \"#utility.yul\":12222:12588   */\n      swap2\n      swap1\n      pop\n      jump\t// out\n        /* \"#utility.yul\":12594:13013   */\n    tag_41:\n        /* \"#utility.yul\":12760:12764   */\n      0x00\n        /* \"#utility.yul\":12798:12800   */\n      0x20\n        /* \"#utility.yul\":12787:12796   */\n      dup3\n        /* \"#utility.yul\":12783:12801   */\n      add\n        /* \"#utility.yul\":12775:12801   */\n      swap1\n      pop\n        /* \"#utility.yul\":12847:12856   */\n      dup2\n        /* \"#utility.yul\":12841:12845   */\n      dup2\n        /* \"#utility.yul\":12837:12857   */\n      sub\n        /* \"#utility.yul\":12833:12834   */\n      0x00\n        /* \"#utility.yul\":12822:12831   */\n      dup4\n        /* \"#utility.yul\":12818:12835   */\n      add\n        /* \"#utility.yul\":12811:12858   */\n      mstore\n        /* \"#utility.yul\":12875:13006   */\n      tag_361\n        /* \"#utility.yul\":13001:13005   */\n      dup2\n        /* \"#utility.yul\":12875:13006   */\n      tag_179\n      jump\t// in\n    tag_361:\n        /* \"#utility.yul\":12867:13006   */\n      swap1\n      pop\n        /* \"#utility.yul\":12594:13013   */\n      swap2\n      swap1\n      pop\n      jump\t// out\n        /* \"#utility.yul\":13019:13120   */\n    tag_180:\n        /* \"#utility.yul\":13055:13062   */\n      0x00\n        /* \"#utility.yul\":13095:13113   */\n      0xffffffffffffffff\n        /* \"#utility.yul\":13088:13093   */\n      dup3\n        /* \"#utility.yul\":13084:13114   */\n      and\n        /* \"#utility.yul\":13073:13114   */\n      swap1\n      pop\n        /* \"#utility.yul\":13019:13120   */\n      swap2\n      swap1\n      pop\n      jump\t// out\n        /* \"#utility.yul\":13126:13241   */\n    tag_181:\n        /* \"#utility.yul\":13211:13234   */\n      tag_364\n        /* \"#utility.yul\":13228:13233   */\n      dup2\n        /* \"#utility.yul\":13211:13234   */\n      tag_180\n      jump\t// in\n    tag_364:\n        /* \"#utility.yul\":13206:13209   */\n      dup3\n        /* \"#utility.yul\":13199:13235   */\n      mstore\n        /* \"#utility.yul\":13126:13241   */\n      pop\n      pop\n      jump\t// out\n        /* \"#utility.yul\":13247:13370   */\n    tag_182:\n        /* \"#utility.yul\":13323:13329   */\n      0x00\n        /* \"#utility.yul\":13357:13362   */\n      dup2\n        /* \"#utility.yul\":13351:13363   */\n      mload\n        /* \"#utility.yul\":13341:13363   */\n      swap1\n      pop\n        /* \"#utility.yul\":13247:13370   */\n      swap2\n      swap1\n      pop\n      jump\t// out\n        /* \"#utility.yul\":13376:13569   */\n    tag_183:\n        /* \"#utility.yul\":13484:13495   */\n      0x00\n        /* \"#utility.yul\":13518:13524   */\n      dup3\n        /* \"#utility.yul\":13513:13516   */\n      dup3\n        /* \"#utility.yul\":13506:13525   */\n      mstore\n        /* \"#utility.yul\":13558:13562   */\n      0x20\n        /* \"#utility.yul\":13553:13556   */\n      dup3\n        /* \"#utility.yul\":13549:13563   */\n      add\n        /* \"#utility.yul\":13534:13563   */\n      swap1\n      pop\n        /* \"#utility.yul\":13376:13569   */\n      swap3\n      swap2\n      pop\n      pop\n      jump\t// out\n        /* \"#utility.yul\":13575:13716   */\n    tag_184:\n        /* \"#utility.yul\":13651:13655   */\n      0x00\n        /* \"#utility.yul\":13674:13677   */\n      dup2\n        /* \"#utility.yul\":13666:13677   */\n      swap1\n      pop\n        /* \"#utility.yul\":13704:13708   */\n      0x20\n        /* \"#utility.yul\":13699:13702   */\n      dup3\n        /* \"#utility.yul\":13695:13709   */\n      add\n        /* \"#utility.yul\":13687:13709   */\n      swap1\n      pop\n        /* \"#utility.yul\":13575:13716   */\n      swap2\n      swap1\n      pop\n      jump\t// out\n        /* \"#utility.yul\":13722:13820   */\n    tag_185:\n        /* \"#utility.yul\":13773:13779   */\n      0x00\n        /* \"#utility.yul\":13807:13812   */\n      dup2\n        /* \"#utility.yul\":13801:13813   */\n      mload\n        /* \"#utility.yul\":13791:13813   */\n      swap1\n      pop\n        /* \"#utility.yul\":13722:13820   */\n      swap2\n      swap1\n      pop\n      jump\t// out\n        /* \"#utility.yul\":13826:13984   */\n    tag_186:\n        /* \"#utility.yul\":13899:13910   */\n      0x00\n        /* \"#utility.yul\":13933:13939   */\n      dup3\n        /* \"#utility.yul\":13928:13931   */\n      dup3\n        /* \"#utility.yul\":13921:13940   */\n      mstore\n        /* \"#utility.yul\":13973:13977   */\n      0x20\n        /* \"#utility.yul\":13968:13971   */\n      dup3\n        /* \"#utility.yul\":13964:13978   */\n      add\n        /* \"#utility.yul\":13949:13978   */\n      swap1\n      pop\n        /* \"#utility.yul\":13826:13984   */\n      swap3\n      swap2\n      pop\n      pop\n      jump\t// out\n        /* \"#utility.yul\":13990:14236   */\n    tag_187:\n        /* \"#utility.yul\":14071:14072   */\n      0x00\n        /* \"#utility.yul\":14081:14194   */\n    tag_371:\n        /* \"#utility.yul\":14095:14101   */\n      dup4\n        /* \"#utility.yul\":14092:14093   */\n      dup2\n        /* \"#utility.yul\":14089:14102   */\n      lt\n        /* \"#utility.yul\":14081:14194   */\n      iszero\n      tag_373\n      jumpi\n        /* \"#utility.yul\":14180:14181   */\n      dup1\n        /* \"#utility.yul\":14175:14178   */\n      dup3\n        /* \"#utility.yul\":14171:14182   */\n      add\n        /* \"#utility.yul\":14165:14183   */\n      mload\n        /* \"#utility.yul\":14161:14162   */\n      dup2\n        /* \"#utility.yul\":14156:14159   */\n      dup5\n        /* \"#utility.yul\":14152:14163   */\n      add\n        /* \"#utility.yul\":14145:14184   */\n      mstore\n        /* \"#utility.yul\":14117:14119   */\n      0x20\n        /* \"#utility.yul\":14114:14115   */\n      dup2\n        /* \"#utility.yul\":14110:14120   */\n      add\n        /* \"#utility.yul\":14105:14120   */\n      swap1\n      pop\n        /* \"#utility.yul\":14081:14194   */\n      jump(tag_371)\n    tag_373:\n        /* \"#utility.yul\":14228:14229   */\n      0x00\n        /* \"#utility.yul\":14219:14225   */\n      dup5\n        /* \"#utility.yul\":14214:14217   */\n      dup5\n        /* \"#utility.yul\":14210:14226   */\n      add\n        /* \"#utility.yul\":14203:14230   */\n      mstore\n        /* \"#utility.yul\":14052:14236   */\n      pop\n        /* \"#utility.yul\":13990:14236   */\n      pop\n      pop\n      pop\n      jump\t// out\n        /* \"#utility.yul\":14242:14595   */\n    tag_188:\n        /* \"#utility.yul\":14318:14321   */\n      0x00\n        /* \"#utility.yul\":14346:14384   */\n      tag_375\n        /* \"#utility.yul\":14378:14383   */\n      dup3\n        /* \"#utility.yul\":14346:14384   */\n      tag_185\n      jump\t// in\n    tag_375:\n        /* \"#utility.yul\":14400:14460   */\n      tag_376\n        /* \"#utility.yul\":14453:14459   */\n      dup2\n        /* \"#utility.yul\":14448:14451   */\n      dup6\n        /* \"#utility.yul\":14400:14460   */\n      tag_186\n      jump\t// in\n    tag_376:\n        /* \"#utility.yul\":14393:14460   */\n      swap4\n      pop\n        /* \"#utility.yul\":14469:14534   */\n      tag_377\n        /* \"#utility.yul\":14527:14533   */\n      dup2\n        /* \"#utility.yul\":14522:14525   */\n      dup6\n        /* \"#utility.yul\":14515:14519   */\n      0x20\n        /* \"#utility.yul\":14508:14513   */\n      dup7\n        /* \"#utility.yul\":14504:14520   */\n      add\n        /* \"#utility.yul\":14469:14534   */\n      tag_187\n      jump\t// in\n    tag_377:\n        /* \"#utility.yul\":14559:14588   */\n      tag_378\n        /* \"#utility.yul\":14581:14587   */\n      dup2\n        /* \"#utility.yul\":14559:14588   */\n      tag_150\n      jump\t// in\n    tag_378:\n        /* \"#utility.yul\":14554:14557   */\n      dup5\n        /* \"#utility.yul\":14550:14589   */\n      add\n        /* \"#utility.yul\":14543:14589   */\n      swap2\n      pop\n        /* \"#utility.yul\":14322:14595   */\n      pop\n        /* \"#utility.yul\":14242:14595   */\n      swap3\n      swap2\n      pop\n      pop\n      jump\t// out\n        /* \"#utility.yul\":14601:14793   */\n    tag_189:\n        /* \"#utility.yul\":14688:14698   */\n      0x00\n        /* \"#utility.yul\":14723:14787   */\n      tag_380\n        /* \"#utility.yul\":14783:14786   */\n      dup4\n        /* \"#utility.yul\":14775:14781   */\n      dup4\n        /* \"#utility.yul\":14723:14787   */\n      tag_188\n      jump\t// in\n    tag_380:\n        /* \"#utility.yul\":14709:14787   */\n      swap1\n      pop\n        /* \"#utility.yul\":14601:14793   */\n      swap3\n      swap2\n      pop\n      pop\n      jump\t// out\n        /* \"#utility.yul\":14799:14921   */\n    tag_190:\n        /* \"#utility.yul\":14878:14882   */\n      0x00\n        /* \"#utility.yul\":14910:14914   */\n      0x20\n        /* \"#utility.yul\":14905:14908   */\n      dup3\n        /* \"#utility.yul\":14901:14915   */\n      add\n        /* \"#utility.yul\":14893:14915   */\n      swap1\n      pop\n        /* \"#utility.yul\":14799:14921   */\n      swap2\n      swap1\n      pop\n      jump\t// out\n        /* \"#utility.yul\":14953:15936   */\n    tag_191:\n        /* \"#utility.yul\":15090:15093   */\n      0x00\n        /* \"#utility.yul\":15119:15182   */\n      tag_383\n        /* \"#utility.yul\":15176:15181   */\n      dup3\n        /* \"#utility.yul\":15119:15182   */\n      tag_182\n      jump\t// in\n    tag_383:\n        /* \"#utility.yul\":15198:15293   */\n      tag_384\n        /* \"#utility.yul\":15286:15292   */\n      dup2\n        /* \"#utility.yul\":15281:15284   */\n      dup6\n        /* \"#utility.yul\":15198:15293   */\n      tag_183\n      jump\t// in\n    tag_384:\n        /* \"#utility.yul\":15191:15293   */\n      swap4\n      pop\n        /* \"#utility.yul\":15319:15322   */\n      dup4\n        /* \"#utility.yul\":15364:15368   */\n      0x20\n        /* \"#utility.yul\":15356:15362   */\n      dup3\n        /* \"#utility.yul\":15352:15369   */\n      mul\n        /* \"#utility.yul\":15347:15350   */\n      dup6\n        /* \"#utility.yul\":15343:15370   */\n      add\n        /* \"#utility.yul\":15394:15459   */\n      tag_385\n        /* \"#utility.yul\":15453:15458   */\n      dup6\n        /* \"#utility.yul\":15394:15459   */\n      tag_184\n      jump\t// in\n    tag_385:\n        /* \"#utility.yul\":15482:15489   */\n      dup1\n        /* \"#utility.yul\":15513:15514   */\n      0x00\n        /* \"#utility.yul\":15498:15891   */\n    tag_386:\n        /* \"#utility.yul\":15523:15529   */\n      dup6\n        /* \"#utility.yul\":15520:15521   */\n      dup2\n        /* \"#utility.yul\":15517:15530   */\n      lt\n        /* \"#utility.yul\":15498:15891   */\n      iszero\n      tag_388\n      jumpi\n        /* \"#utility.yul\":15594:15603   */\n      dup5\n        /* \"#utility.yul\":15588:15592   */\n      dup5\n        /* \"#utility.yul\":15584:15604   */\n      sub\n        /* \"#utility.yul\":15579:15582   */\n      dup10\n        /* \"#utility.yul\":15572:15605   */\n      mstore\n        /* \"#utility.yul\":15645:15651   */\n      dup2\n        /* \"#utility.yul\":15639:15652   */\n      mload\n        /* \"#utility.yul\":15673:15755   */\n      tag_389\n        /* \"#utility.yul\":15750:15754   */\n      dup6\n        /* \"#utility.yul\":15735:15748   */\n      dup3\n        /* \"#utility.yul\":15673:15755   */\n      tag_189\n      jump\t// in\n    tag_389:\n        /* \"#utility.yul\":15665:15755   */\n      swap5\n      pop\n        /* \"#utility.yul\":15778:15847   */\n      tag_390\n        /* \"#utility.yul\":15840:15846   */\n      dup4\n        /* \"#utility.yul\":15778:15847   */\n      tag_190\n      jump\t// in\n    tag_390:\n        /* \"#utility.yul\":15768:15847   */\n      swap3\n      pop\n        /* \"#utility.yul\":15876:15880   */\n      0x20\n        /* \"#utility.yul\":15871:15874   */\n      dup11\n        /* \"#utility.yul\":15867:15881   */\n      add\n        /* \"#utility.yul\":15860:15881   */\n      swap10\n      pop\n        /* \"#utility.yul\":15558:15891   */\n      pop\n        /* \"#utility.yul\":15545:15546   */\n      0x01\n        /* \"#utility.yul\":15542:15543   */\n      dup2\n        /* \"#utility.yul\":15538:15547   */\n      add\n        /* \"#utility.yul\":15533:15547   */\n      swap1\n      pop\n        /* \"#utility.yul\":15498:15891   */\n      jump(tag_386)\n    tag_388:\n        /* \"#utility.yul\":15502:15516   */\n      pop\n        /* \"#utility.yul\":15907:15911   */\n      dup3\n        /* \"#utility.yul\":15900:15911   */\n      swap8\n      pop\n        /* \"#utility.yul\":15927:15930   */\n      dup8\n        /* \"#utility.yul\":15920:15930   */\n      swap6\n      pop\n        /* \"#utility.yul\":15095:15936   */\n      pop\n      pop\n      pop\n      pop\n      pop\n        /* \"#utility.yul\":14953:15936   */\n      swap3\n      swap2\n      pop\n      pop\n      jump\t// out\n        /* \"#utility.yul\":15942:16567   */\n    tag_63:\n        /* \"#utility.yul\":16157:16161   */\n      0x00\n        /* \"#utility.yul\":16195:16197   */\n      0x60\n        /* \"#utility.yul\":16184:16193   */\n      dup3\n        /* \"#utility.yul\":16180:16198   */\n      add\n        /* \"#utility.yul\":16172:16198   */\n      swap1\n      pop\n        /* \"#utility.yul\":16208:16279   */\n      tag_392\n        /* \"#utility.yul\":16276:16277   */\n      0x00\n        /* \"#utility.yul\":16265:16274   */\n      dup4\n        /* \"#utility.yul\":16261:16278   */\n      add\n        /* \"#utility.yul\":16252:16258   */\n      dup7\n        /* \"#utility.yul\":16208:16279   */\n      tag_174\n      jump\t// in\n    tag_392:\n        /* \"#utility.yul\":16289:16359   */\n      tag_393\n        /* \"#utility.yul\":16355:16357   */\n      0x20\n        /* \"#utility.yul\":16344:16353   */\n      dup4\n        /* \"#utility.yul\":16340:16358   */\n      add\n        /* \"#utility.yul\":16331:16337   */\n      dup6\n        /* \"#utility.yul\":16289:16359   */\n      tag_181\n      jump\t// in\n    tag_393:\n        /* \"#utility.yul\":16406:16415   */\n      dup2\n        /* \"#utility.yul\":16400:16404   */\n      dup2\n        /* \"#utility.yul\":16396:16416   */\n      sub\n        /* \"#utility.yul\":16391:16393   */\n      0x40\n        /* \"#utility.yul\":16380:16389   */\n      dup4\n        /* \"#utility.yul\":16376:16394   */\n      add\n        /* \"#utility.yul\":16369:16417   */\n      mstore\n        /* \"#utility.yul\":16434:16560   */\n      tag_394\n        /* \"#utility.yul\":16555:16559   */\n      dup2\n        /* \"#utility.yul\":16546:16552   */\n      dup5\n        /* \"#utility.yul\":16434:16560   */\n      tag_191\n      jump\t// in\n    tag_394:\n        /* \"#utility.yul\":16426:16560   */\n      swap1\n      pop\n        /* \"#utility.yul\":15942:16567   */\n      swap5\n      swap4\n      pop\n      pop\n      pop\n      pop\n      jump\t// out\n        /* \"#utility.yul\":16573:16720   */\n    tag_192:\n        /* \"#utility.yul\":16674:16685   */\n      0x00\n        /* \"#utility.yul\":16711:16714   */\n      dup2\n        /* \"#utility.yul\":16696:16714   */\n      swap1\n      pop\n        /* \"#utility.yul\":16573:16720   */\n      swap3\n      swap2\n      pop\n      pop\n      jump\t// out\n        /* \"#utility.yul\":16726:17112   */\n    tag_193:\n        /* \"#utility.yul\":16830:16833   */\n      0x00\n        /* \"#utility.yul\":16858:16896   */\n      tag_397\n        /* \"#utility.yul\":16890:16895   */\n      dup3\n        /* \"#utility.yul\":16858:16896   */\n      tag_185\n      jump\t// in\n    tag_397:\n        /* \"#utility.yul\":16912:17000   */\n      tag_398\n        /* \"#utility.yul\":16993:16999   */\n      dup2\n        /* \"#utility.yul\":16988:16991   */\n      dup6\n        /* \"#utility.yul\":16912:17000   */\n      tag_192\n      jump\t// in\n    tag_398:\n        /* \"#utility.yul\":16905:17000   */\n      swap4\n      pop\n        /* \"#utility.yul\":17009:17074   */\n      tag_399\n        /* \"#utility.yul\":17067:17073   */\n      dup2\n        /* \"#utility.yul\":17062:17065   */\n      dup6\n        /* \"#utility.yul\":17055:17059   */\n      0x20\n        /* \"#utility.yul\":17048:17053   */\n      dup7\n        /* \"#utility.yul\":17044:17060   */\n      add\n        /* \"#utility.yul\":17009:17074   */\n      tag_187\n      jump\t// in\n    tag_399:\n        /* \"#utility.yul\":17099:17105   */\n      dup1\n        /* \"#utility.yul\":17094:17097   */\n      dup5\n        /* \"#utility.yul\":17090:17106   */\n      add\n        /* \"#utility.yul\":17083:17106   */\n      swap2\n      pop\n        /* \"#utility.yul\":16834:17112   */\n      pop\n        /* \"#utility.yul\":16726:17112   */\n      swap3\n      swap2\n      pop\n      pop\n      jump\t// out\n        /* \"#utility.yul\":17118:17389   */\n    tag_65:\n        /* \"#utility.yul\":17248:17251   */\n      0x00\n        /* \"#utility.yul\":17270:17363   */\n      tag_401\n        /* \"#utility.yul\":17359:17362   */\n      dup3\n        /* \"#utility.yul\":17350:17356   */\n      dup5\n        /* \"#utility.yul\":17270:17363   */\n      tag_193\n      jump\t// in\n    tag_401:\n        /* \"#utility.yul\":17263:17363   */\n      swap2\n      pop\n        /* \"#utility.yul\":17380:17383   */\n      dup2\n        /* \"#utility.yul\":17373:17383   */\n      swap1\n      pop\n        /* \"#utility.yul\":17118:17389   */\n      swap3\n      swap2\n      pop\n      pop\n      jump\t// out\n        /* \"#utility.yul\":17395:17485   */\n    tag_194:\n        /* \"#utility.yul\":17430:17437   */\n      0x00\n        /* \"#utility.yul\":17473:17478   */\n      dup2\n        /* \"#utility.yul\":17470:17471   */\n      0x03\n        /* \"#utility.yul\":17459:17479   */\n      signextend\n        /* \"#utility.yul\":17448:17479   */\n      swap1\n      pop\n        /* \"#utility.yul\":17395:17485   */\n      swap2\n      swap1\n      pop\n      jump\t// out\n        /* \"#utility.yul\":17491:17609   */\n    tag_195:\n        /* \"#utility.yul\":17562:17584   */\n      tag_404\n        /* \"#utility.yul\":17578:17583   */\n      dup2\n        /* \"#utility.yul\":17562:17584   */\n      tag_194\n      jump\t// in\n    tag_404:\n        /* \"#utility.yul\":17555:17560   */\n      dup2\n        /* \"#utility.yul\":17552:17585   */\n      eq\n        /* \"#utility.yul\":17542:17603   */\n      tag_405\n      jumpi\n        /* \"#utility.yul\":17599:17600   */\n      0x00\n        /* \"#utility.yul\":17596:17597   */\n      dup1\n        /* \"#utility.yul\":17589:17601   */\n      revert\n        /* \"#utility.yul\":17542:17603   */\n    tag_405:\n        /* \"#utility.yul\":17491:17609   */\n      pop\n      jump\t// out\n        /* \"#utility.yul\":17615:17754   */\n    tag_196:\n        /* \"#utility.yul\":17670:17675   */\n      0x00\n        /* \"#utility.yul\":17701:17707   */\n      dup2\n        /* \"#utility.yul\":17695:17708   */\n      mload\n        /* \"#utility.yul\":17686:17708   */\n      swap1\n      pop\n        /* \"#utility.yul\":17717:17748   */\n      tag_407\n        /* \"#utility.yul\":17742:17747   */\n      dup2\n        /* \"#utility.yul\":17717:17748   */\n      tag_195\n      jump\t// in\n    tag_407:\n        /* \"#utility.yul\":17615:17754   */\n      swap3\n      swap2\n      pop\n      pop\n      jump\t// out\n        /* \"#utility.yul\":17760:17880   */\n    tag_197:\n        /* \"#utility.yul\":17832:17855   */\n      tag_409\n        /* \"#utility.yul\":17849:17854   */\n      dup2\n        /* \"#utility.yul\":17832:17855   */\n      tag_180\n      jump\t// in\n    tag_409:\n        /* \"#utility.yul\":17825:17830   */\n      dup2\n        /* \"#utility.yul\":17822:17856   */\n      eq\n        /* \"#utility.yul\":17812:17874   */\n      tag_410\n      jumpi\n        /* \"#utility.yul\":17870:17871   */\n      0x00\n        /* \"#utility.yul\":17867:17868   */\n      dup1\n        /* \"#utility.yul\":17860:17872   */\n      revert\n        /* \"#utility.yul\":17812:17874   */\n    tag_410:\n        /* \"#utility.yul\":17760:17880   */\n      pop\n      jump\t// out\n        /* \"#utility.yul\":17886:18027   */\n    tag_198:\n        /* \"#utility.yul\":17942:17947   */\n      0x00\n        /* \"#utility.yul\":17973:17979   */\n      dup2\n        /* \"#utility.yul\":17967:17980   */\n      mload\n        /* \"#utility.yul\":17958:17980   */\n      swap1\n      pop\n        /* \"#utility.yul\":17989:18021   */\n      tag_412\n        /* \"#utility.yul\":18015:18020   */\n      dup2\n        /* \"#utility.yul\":17989:18021   */\n      tag_197\n      jump\t// in\n    tag_412:\n        /* \"#utility.yul\":17886:18027   */\n      swap3\n      swap2\n      pop\n      pop\n      jump\t// out\n        /* \"#utility.yul\":18033:18342   */\n    tag_199:\n        /* \"#utility.yul\":18108:18112   */\n      0x00\n        /* \"#utility.yul\":18198:18216   */\n      0xffffffffffffffff\n        /* \"#utility.yul\":18190:18196   */\n      dup3\n        /* \"#utility.yul\":18187:18217   */\n      gt\n        /* \"#utility.yul\":18184:18240   */\n      iszero\n      tag_414\n      jumpi\n        /* \"#utility.yul\":18220:18238   */\n      tag_415\n      tag_45\n      jump\t// in\n    tag_415:\n        /* \"#utility.yul\":18184:18240   */\n    tag_414:\n        /* \"#utility.yul\":18270:18274   */\n      0x20\n        /* \"#utility.yul\":18262:18268   */\n      dup3\n        /* \"#utility.yul\":18258:18275   */\n      mul\n        /* \"#utility.yul\":18250:18275   */\n      swap1\n      pop\n        /* \"#utility.yul\":18330:18334   */\n      0x20\n        /* \"#utility.yul\":18324:18328   */\n      dup2\n        /* \"#utility.yul\":18320:18335   */\n      add\n        /* \"#utility.yul\":18312:18335   */\n      swap1\n      pop\n        /* \"#utility.yul\":18033:18342   */\n      swap2\n      swap1\n      pop\n      jump\t// out\n        /* \"#utility.yul\":18348:18487   */\n    tag_200:\n        /* \"#utility.yul\":18403:18408   */\n      0x00\n        /* \"#utility.yul\":18434:18440   */\n      dup2\n        /* \"#utility.yul\":18428:18441   */\n      mload\n        /* \"#utility.yul\":18419:18441   */\n      swap1\n      pop\n        /* \"#utility.yul\":18450:18481   */\n      tag_417\n        /* \"#utility.yul\":18475:18480   */\n      dup2\n        /* \"#utility.yul\":18450:18481   */\n      tag_164\n      jump\t// in\n    tag_417:\n        /* \"#utility.yul\":18348:18487   */\n      swap3\n      swap2\n      pop\n      pop\n      jump\t// out\n        /* \"#utility.yul\":18508:19234   */\n    tag_201:\n        /* \"#utility.yul\":18613:18618   */\n      0x00\n        /* \"#utility.yul\":18638:18717   */\n      tag_419\n        /* \"#utility.yul\":18654:18716   */\n      tag_420\n        /* \"#utility.yul\":18709:18715   */\n      dup5\n        /* \"#utility.yul\":18654:18716   */\n      tag_199\n      jump\t// in\n    tag_420:\n        /* \"#utility.yul\":18638:18717   */\n      tag_152\n      jump\t// in\n    tag_419:\n        /* \"#utility.yul\":18629:18717   */\n      swap1\n      pop\n        /* \"#utility.yul\":18737:18742   */\n      dup1\n        /* \"#utility.yul\":18766:18772   */\n      dup4\n        /* \"#utility.yul\":18759:18764   */\n      dup3\n        /* \"#utility.yul\":18752:18773   */\n      mstore\n        /* \"#utility.yul\":18800:18804   */\n      0x20\n        /* \"#utility.yul\":18793:18798   */\n      dup3\n        /* \"#utility.yul\":18789:18805   */\n      add\n        /* \"#utility.yul\":18782:18805   */\n      swap1\n      pop\n        /* \"#utility.yul\":18853:18857   */\n      0x20\n        /* \"#utility.yul\":18845:18851   */\n      dup5\n        /* \"#utility.yul\":18841:18858   */\n      mul\n        /* \"#utility.yul\":18833:18839   */\n      dup4\n        /* \"#utility.yul\":18829:18859   */\n      add\n        /* \"#utility.yul\":18882:18885   */\n      dup6\n        /* \"#utility.yul\":18874:18880   */\n      dup2\n        /* \"#utility.yul\":18871:18886   */\n      gt\n        /* \"#utility.yul\":18868:18990   */\n      iszero\n      tag_421\n      jumpi\n        /* \"#utility.yul\":18901:18980   */\n      tag_422\n      tag_154\n      jump\t// in\n    tag_422:\n        /* \"#utility.yul\":18868:18990   */\n    tag_421:\n        /* \"#utility.yul\":19016:19022   */\n      dup4\n        /* \"#utility.yul\":18999:19228   */\n    tag_423:\n        /* \"#utility.yul\":19033:19039   */\n      dup2\n        /* \"#utility.yul\":19028:19031   */\n      dup2\n        /* \"#utility.yul\":19025:19040   */\n      lt\n        /* \"#utility.yul\":18999:19228   */\n      iszero\n      tag_425\n      jumpi\n        /* \"#utility.yul\":19108:19111   */\n      dup1\n        /* \"#utility.yul\":19137:19183   */\n      tag_426\n        /* \"#utility.yul\":19179:19182   */\n      dup9\n        /* \"#utility.yul\":19167:19177   */\n      dup3\n        /* \"#utility.yul\":19137:19183   */\n      tag_200\n      jump\t// in\n    tag_426:\n        /* \"#utility.yul\":19132:19135   */\n      dup5\n        /* \"#utility.yul\":19125:19184   */\n      mstore\n        /* \"#utility.yul\":19213:19217   */\n      0x20\n        /* \"#utility.yul\":19208:19211   */\n      dup5\n        /* \"#utility.yul\":19204:19218   */\n      add\n        /* \"#utility.yul\":19197:19218   */\n      swap4\n      pop\n        /* \"#utility.yul\":19075:19228   */\n      pop\n        /* \"#utility.yul\":19059:19063   */\n      0x20\n        /* \"#utility.yul\":19054:19057   */\n      dup2\n        /* \"#utility.yul\":19050:19064   */\n      add\n        /* \"#utility.yul\":19043:19064   */\n      swap1\n      pop\n        /* \"#utility.yul\":18999:19228   */\n      jump(tag_423)\n    tag_425:\n        /* \"#utility.yul\":19003:19024   */\n      pop\n        /* \"#utility.yul\":18619:19234   */\n      pop\n      pop\n        /* \"#utility.yul\":18508:19234   */\n      swap4\n      swap3\n      pop\n      pop\n      pop\n      jump\t// out\n        /* \"#utility.yul\":19255:19636   */\n    tag_202:\n        /* \"#utility.yul\":19335:19340   */\n      0x00\n        /* \"#utility.yul\":19384:19387   */\n      dup3\n        /* \"#utility.yul\":19377:19381   */\n      0x1f\n        /* \"#utility.yul\":19369:19375   */\n      dup4\n        /* \"#utility.yul\":19365:19382   */\n      add\n        /* \"#utility.yul\":19361:19388   */\n      slt\n        /* \"#utility.yul\":19351:19473   */\n      tag_428\n      jumpi\n        /* \"#utility.yul\":19392:19471   */\n      tag_429\n      tag_149\n      jump\t// in\n    tag_429:\n        /* \"#utility.yul\":19351:19473   */\n    tag_428:\n        /* \"#utility.yul\":19502:19508   */\n      dup2\n        /* \"#utility.yul\":19496:19509   */\n      mload\n        /* \"#utility.yul\":19527:19630   */\n      tag_430\n        /* \"#utility.yul\":19626:19629   */\n      dup5\n        /* \"#utility.yul\":19618:19624   */\n      dup3\n        /* \"#utility.yul\":19611:19615   */\n      0x20\n        /* \"#utility.yul\":19603:19609   */\n      dup7\n        /* \"#utility.yul\":19599:19616   */\n      add\n        /* \"#utility.yul\":19527:19630   */\n      tag_201\n      jump\t// in\n    tag_430:\n        /* \"#utility.yul\":19518:19630   */\n      swap2\n      pop\n        /* \"#utility.yul\":19341:19636   */\n      pop\n        /* \"#utility.yul\":19255:19636   */\n      swap3\n      swap2\n      pop\n      pop\n      jump\t// out\n        /* \"#utility.yul\":19642:20498   */\n    tag_75:\n        /* \"#utility.yul\":19750:19756   */\n      0x00\n        /* \"#utility.yul\":19758:19764   */\n      dup1\n        /* \"#utility.yul\":19766:19772   */\n      0x00\n        /* \"#utility.yul\":19815:19817   */\n      0x60\n        /* \"#utility.yul\":19803:19812   */\n      dup5\n        /* \"#utility.yul\":19794:19801   */\n      dup7\n        /* \"#utility.yul\":19790:19813   */\n      sub\n        /* \"#utility.yul\":19786:19818   */\n      slt\n        /* \"#utility.yul\":19783:19902   */\n      iszero\n      tag_432\n      jumpi\n        /* \"#utility.yul\":19821:19900   */\n      tag_433\n      tag_143\n      jump\t// in\n    tag_433:\n        /* \"#utility.yul\":19783:19902   */\n    tag_432:\n        /* \"#utility.yul\":19941:19942   */\n      0x00\n        /* \"#utility.yul\":19966:20028   */\n      tag_434\n        /* \"#utility.yul\":20020:20027   */\n      dup7\n        /* \"#utility.yul\":20011:20017   */\n      dup3\n        /* \"#utility.yul\":20000:20009   */\n      dup8\n        /* \"#utility.yul\":19996:20018   */\n      add\n        /* \"#utility.yul\":19966:20028   */\n      tag_196\n      jump\t// in\n    tag_434:\n        /* \"#utility.yul\":19956:20028   */\n      swap4\n      pop\n        /* \"#utility.yul\":19912:20038   */\n      pop\n        /* \"#utility.yul\":20077:20079   */\n      0x20\n        /* \"#utility.yul\":20103:20166   */\n      tag_435\n        /* \"#utility.yul\":20158:20165   */\n      dup7\n        /* \"#utility.yul\":20149:20155   */\n      dup3\n        /* \"#utility.yul\":20138:20147   */\n      dup8\n        /* \"#utility.yul\":20134:20156   */\n      add\n        /* \"#utility.yul\":20103:20166   */\n      tag_198\n      jump\t// in\n    tag_435:\n        /* \"#utility.yul\":20093:20166   */\n      swap3\n      pop\n        /* \"#utility.yul\":20048:20176   */\n      pop\n        /* \"#utility.yul\":20236:20238   */\n      0x40\n        /* \"#utility.yul\":20225:20234   */\n      dup5\n        /* \"#utility.yul\":20221:20239   */\n      add\n        /* \"#utility.yul\":20215:20240   */\n      mload\n        /* \"#utility.yul\":20267:20285   */\n      0xffffffffffffffff\n        /* \"#utility.yul\":20259:20265   */\n      dup2\n        /* \"#utility.yul\":20256:20286   */\n      gt\n        /* \"#utility.yul\":20253:20370   */\n      iszero\n      tag_436\n      jumpi\n        /* \"#utility.yul\":20289:20368   */\n      tag_437\n      tag_144\n      jump\t// in\n    tag_437:\n        /* \"#utility.yul\":20253:20370   */\n    tag_436:\n        /* \"#utility.yul\":20394:20481   */\n      tag_438\n        /* \"#utility.yul\":20473:20480   */\n      dup7\n        /* \"#utility.yul\":20464:20470   */\n      dup3\n        /* \"#utility.yul\":20453:20462   */\n      dup8\n        /* \"#utility.yul\":20449:20471   */\n      add\n        /* \"#utility.yul\":20394:20481   */\n      tag_202\n      jump\t// in\n    tag_438:\n        /* \"#utility.yul\":20384:20481   */\n      swap2\n      pop\n        /* \"#utility.yul\":20186:20491   */\n      pop\n        /* \"#utility.yul\":19642:20498   */\n      swap3\n      pop\n      swap3\n      pop\n      swap3\n      jump\t// out\n        /* \"#utility.yul\":20504:20836   */\n    tag_78:\n        /* \"#utility.yul\":20625:20629   */\n      0x00\n        /* \"#utility.yul\":20663:20665   */\n      0x40\n        /* \"#utility.yul\":20652:20661   */\n      dup3\n        /* \"#utility.yul\":20648:20666   */\n      add\n        /* \"#utility.yul\":20640:20666   */\n      swap1\n      pop\n        /* \"#utility.yul\":20676:20747   */\n      tag_440\n        /* \"#utility.yul\":20744:20745   */\n      0x00\n        /* \"#utility.yul\":20733:20742   */\n      dup4\n        /* \"#utility.yul\":20729:20746   */\n      add\n        /* \"#utility.yul\":20720:20726   */\n      dup6\n        /* \"#utility.yul\":20676:20747   */\n      tag_174\n      jump\t// in\n    tag_440:\n        /* \"#utility.yul\":20757:20829   */\n      tag_441\n        /* \"#utility.yul\":20825:20827   */\n      0x20\n        /* \"#utility.yul\":20814:20823   */\n      dup4\n        /* \"#utility.yul\":20810:20828   */\n      add\n        /* \"#utility.yul\":20801:20807   */\n      dup5\n        /* \"#utility.yul\":20757:20829   */\n      tag_174\n      jump\t// in\n    tag_441:\n        /* \"#utility.yul\":20504:20836   */\n      swap4\n      swap3\n      pop\n      pop\n      pop\n      jump\t// out\n        /* \"#utility.yul\":20842:21189   */\n    tag_86:\n        /* \"#utility.yul\":20910:20916   */\n      0x00\n        /* \"#utility.yul\":20959:20961   */\n      0x20\n        /* \"#utility.yul\":20947:20956   */\n      dup3\n        /* \"#utility.yul\":20938:20945   */\n      dup5\n        /* \"#utility.yul\":20934:20957   */\n      sub\n        /* \"#utility.yul\":20930:20962   */\n      slt\n        /* \"#utility.yul\":20927:21046   */\n      iszero\n      tag_443\n      jumpi\n        /* \"#utility.yul\":20965:21044   */\n      tag_444\n      tag_143\n      jump\t// in\n    tag_444:\n        /* \"#utility.yul\":20927:21046   */\n    tag_443:\n        /* \"#utility.yul\":21085:21086   */\n      0x00\n        /* \"#utility.yul\":21110:21172   */\n      tag_445\n        /* \"#utility.yul\":21164:21171   */\n      dup5\n        /* \"#utility.yul\":21155:21161   */\n      dup3\n        /* \"#utility.yul\":21144:21153   */\n      dup6\n        /* \"#utility.yul\":21140:21162   */\n      add\n        /* \"#utility.yul\":21110:21172   */\n      tag_196\n      jump\t// in\n    tag_445:\n        /* \"#utility.yul\":21100:21172   */\n      swap2\n      pop\n        /* \"#utility.yul\":21056:21182   */\n      pop\n        /* \"#utility.yul\":20842:21189   */\n      swap3\n      swap2\n      pop\n      pop\n      jump\t// out\n        /* \"#utility.yul\":21195:21740   */\n    tag_89:\n        /* \"#utility.yul\":21368:21372   */\n      0x00\n        /* \"#utility.yul\":21406:21409   */\n      0x80\n        /* \"#utility.yul\":21395:21404   */\n      dup3\n        /* \"#utility.yul\":21391:21410   */\n      add\n        /* \"#utility.yul\":21383:21410   */\n      swap1\n      pop\n        /* \"#utility.yul\":21420:21491   */\n      tag_447\n        /* \"#utility.yul\":21488:21489   */\n      0x00\n        /* \"#utility.yul\":21477:21486   */\n      dup4\n        /* \"#utility.yul\":21473:21490   */\n      add\n        /* \"#utility.yul\":21464:21470   */\n      dup8\n        /* \"#utility.yul\":21420:21491   */\n      tag_174\n      jump\t// in\n    tag_447:\n        /* \"#utility.yul\":21501:21573   */\n      tag_448\n        /* \"#utility.yul\":21569:21571   */\n      0x20\n        /* \"#utility.yul\":21558:21567   */\n      dup4\n        /* \"#utility.yul\":21554:21572   */\n      add\n        /* \"#utility.yul\":21545:21551   */\n      dup7\n        /* \"#utility.yul\":21501:21573   */\n      tag_174\n      jump\t// in\n    tag_448:\n        /* \"#utility.yul\":21583:21655   */\n      tag_449\n        /* \"#utility.yul\":21651:21653   */\n      0x40\n        /* \"#utility.yul\":21640:21649   */\n      dup4\n        /* \"#utility.yul\":21636:21654   */\n      add\n        /* \"#utility.yul\":21627:21633   */\n      dup6\n        /* \"#utility.yul\":21583:21655   */\n      tag_174\n      jump\t// in\n    tag_449:\n        /* \"#utility.yul\":21665:21733   */\n      tag_450\n        /* \"#utility.yul\":21729:21731   */\n      0x60\n        /* \"#utility.yul\":21718:21727   */\n      dup4\n        /* \"#utility.yul\":21714:21732   */\n      add\n        /* \"#utility.yul\":21705:21711   */\n      dup5\n        /* \"#utility.yul\":21665:21733   */\n      tag_163\n      jump\t// in\n    tag_450:\n        /* \"#utility.yul\":21195:21740   */\n      swap6\n      swap5\n      pop\n      pop\n      pop\n      pop\n      pop\n      jump\t// out\n        /* \"#utility.yul\":21746:21845   */\n    tag_203:\n        /* \"#utility.yul\":21798:21804   */\n      0x00\n        /* \"#utility.yul\":21832:21837   */\n      dup2\n        /* \"#utility.yul\":21826:21838   */\n      mload\n        /* \"#utility.yul\":21816:21838   */\n      swap1\n      pop\n        /* \"#utility.yul\":21746:21845   */\n      swap2\n      swap1\n      pop\n      jump\t// out\n        /* \"#utility.yul\":21851:22010   */\n    tag_204:\n        /* \"#utility.yul\":21925:21936   */\n      0x00\n        /* \"#utility.yul\":21959:21965   */\n      dup3\n        /* \"#utility.yul\":21954:21957   */\n      dup3\n        /* \"#utility.yul\":21947:21966   */\n      mstore\n        /* \"#utility.yul\":21999:22003   */\n      0x20\n        /* \"#utility.yul\":21994:21997   */\n      dup3\n        /* \"#utility.yul\":21990:22004   */\n      add\n        /* \"#utility.yul\":21975:22004   */\n      swap1\n      pop\n        /* \"#utility.yul\":21851:22010   */\n      swap3\n      swap2\n      pop\n      pop\n      jump\t// out\n        /* \"#utility.yul\":22016:22373   */\n    tag_205:\n        /* \"#utility.yul\":22094:22097   */\n      0x00\n        /* \"#utility.yul\":22122:22161   */\n      tag_454\n        /* \"#utility.yul\":22155:22160   */\n      dup3\n        /* \"#utility.yul\":22122:22161   */\n      tag_203\n      jump\t// in\n    tag_454:\n        /* \"#utility.yul\":22177:22238   */\n      tag_455\n        /* \"#utility.yul\":22231:22237   */\n      dup2\n        /* \"#utility.yul\":22226:22229   */\n      dup6\n        /* \"#utility.yul\":22177:22238   */\n      tag_204\n      jump\t// in\n    tag_455:\n        /* \"#utility.yul\":22170:22238   */\n      swap4\n      pop\n        /* \"#utility.yul\":22247:22312   */\n      tag_456\n        /* \"#utility.yul\":22305:22311   */\n      dup2\n        /* \"#utility.yul\":22300:22303   */\n      dup6\n        /* \"#utility.yul\":22293:22297   */\n      0x20\n        /* \"#utility.yul\":22286:22291   */\n      dup7\n        /* \"#utility.yul\":22282:22298   */\n      add\n        /* \"#utility.yul\":22247:22312   */\n      tag_187\n      jump\t// in\n    tag_456:\n        /* \"#utility.yul\":22337:22366   */\n      tag_457\n        /* \"#utility.yul\":22359:22365   */\n      dup2\n        /* \"#utility.yul\":22337:22366   */\n      tag_150\n      jump\t// in\n    tag_457:\n        /* \"#utility.yul\":22332:22335   */\n      dup5\n        /* \"#utility.yul\":22328:22367   */\n      add\n        /* \"#utility.yul\":22321:22367   */\n      swap2\n      pop\n        /* \"#utility.yul\":22098:22373   */\n      pop\n        /* \"#utility.yul\":22016:22373   */\n      swap3\n      swap2\n      pop\n      pop\n      jump\t// out\n        /* \"#utility.yul\":22379:22487   */\n    tag_206:\n        /* \"#utility.yul\":22456:22480   */\n      tag_459\n        /* \"#utility.yul\":22474:22479   */\n      dup2\n        /* \"#utility.yul\":22456:22480   */\n      tag_146\n      jump\t// in\n    tag_459:\n        /* \"#utility.yul\":22451:22454   */\n      dup3\n        /* \"#utility.yul\":22444:22481   */\n      mstore\n        /* \"#utility.yul\":22379:22487   */\n      pop\n      pop\n      jump\t// out\n        /* \"#utility.yul\":22493:22583   */\n    tag_207:\n        /* \"#utility.yul\":22527:22534   */\n      0x00\n        /* \"#utility.yul\":22570:22575   */\n      dup2\n        /* \"#utility.yul\":22563:22576   */\n      iszero\n        /* \"#utility.yul\":22556:22577   */\n      iszero\n        /* \"#utility.yul\":22545:22577   */\n      swap1\n      pop\n        /* \"#utility.yul\":22493:22583   */\n      swap2\n      swap1\n      pop\n      jump\t// out\n        /* \"#utility.yul\":22589:22688   */\n    tag_208:\n        /* \"#utility.yul\":22660:22681   */\n      tag_462\n        /* \"#utility.yul\":22675:22680   */\n      dup2\n        /* \"#utility.yul\":22660:22681   */\n      tag_207\n      jump\t// in\n    tag_462:\n        /* \"#utility.yul\":22655:22658   */\n      dup3\n        /* \"#utility.yul\":22648:22682   */\n      mstore\n        /* \"#utility.yul\":22589:22688   */\n      pop\n      pop\n      jump\t// out\n        /* \"#utility.yul\":22694:22799   */\n    tag_209:\n        /* \"#utility.yul\":22769:22792   */\n      tag_464\n        /* \"#utility.yul\":22786:22791   */\n      dup2\n        /* \"#utility.yul\":22769:22792   */\n      tag_171\n      jump\t// in\n    tag_464:\n        /* \"#utility.yul\":22764:22767   */\n      dup3\n        /* \"#utility.yul\":22757:22793   */\n      mstore\n        /* \"#utility.yul\":22694:22799   */\n      pop\n      pop\n      jump\t// out\n        /* \"#utility.yul\":22805:22945   */\n    tag_210:\n        /* \"#utility.yul\":22898:22904   */\n      0x00\n        /* \"#utility.yul\":22932:22937   */\n      dup2\n        /* \"#utility.yul\":22926:22938   */\n      mload\n        /* \"#utility.yul\":22916:22938   */\n      swap1\n      pop\n        /* \"#utility.yul\":22805:22945   */\n      swap2\n      swap1\n      pop\n      jump\t// out\n        /* \"#utility.yul\":22951:23151   */\n    tag_211:\n        /* \"#utility.yul\":23066:23077   */\n      0x00\n        /* \"#utility.yul\":23100:23106   */\n      dup3\n        /* \"#utility.yul\":23095:23098   */\n      dup3\n        /* \"#utility.yul\":23088:23107   */\n      mstore\n        /* \"#utility.yul\":23140:23144   */\n      0x20\n        /* \"#utility.yul\":23135:23138   */\n      dup3\n        /* \"#utility.yul\":23131:23145   */\n      add\n        /* \"#utility.yul\":23116:23145   */\n      swap1\n      pop\n        /* \"#utility.yul\":22951:23151   */\n      swap3\n      swap2\n      pop\n      pop\n      jump\t// out\n        /* \"#utility.yul\":23157:23315   */\n    tag_212:\n        /* \"#utility.yul\":23250:23254   */\n      0x00\n        /* \"#utility.yul\":23273:23276   */\n      dup2\n        /* \"#utility.yul\":23265:23276   */\n      swap1\n      pop\n        /* \"#utility.yul\":23303:23307   */\n      0x20\n        /* \"#utility.yul\":23298:23301   */\n      dup3\n        /* \"#utility.yul\":23294:23308   */\n      add\n        /* \"#utility.yul\":23286:23308   */\n      swap1\n      pop\n        /* \"#utility.yul\":23157:23315   */\n      swap2\n      swap1\n      pop\n      jump\t// out\n        /* \"#utility.yul\":23321:23398   */\n    tag_213:\n        /* \"#utility.yul\":23358:23365   */\n      0x00\n        /* \"#utility.yul\":23387:23392   */\n      dup2\n        /* \"#utility.yul\":23376:23392   */\n      swap1\n      pop\n        /* \"#utility.yul\":23321:23398   */\n      swap2\n      swap1\n      pop\n      jump\t// out\n        /* \"#utility.yul\":23404:23512   */\n    tag_214:\n        /* \"#utility.yul\":23481:23505   */\n      tag_470\n        /* \"#utility.yul\":23499:23504   */\n      dup2\n        /* \"#utility.yul\":23481:23505   */\n      tag_213\n      jump\t// in\n    tag_470:\n        /* \"#utility.yul\":23476:23479   */\n      dup3\n        /* \"#utility.yul\":23469:23506   */\n      mstore\n        /* \"#utility.yul\":23404:23512   */\n      pop\n      pop\n      jump\t// out\n        /* \"#utility.yul\":23600:24831   */\n    tag_215:\n        /* \"#utility.yul\":23711:23714   */\n      0x00\n        /* \"#utility.yul\":23747:23751   */\n      0xa0\n        /* \"#utility.yul\":23742:23745   */\n      dup4\n        /* \"#utility.yul\":23738:23752   */\n      add\n        /* \"#utility.yul\":23847:23851   */\n      0x00\n        /* \"#utility.yul\":23840:23845   */\n      dup4\n        /* \"#utility.yul\":23836:23852   */\n      add\n        /* \"#utility.yul\":23830:23853   */\n      mload\n        /* \"#utility.yul\":23866:23923   */\n      tag_472\n        /* \"#utility.yul\":23917:23921   */\n      0x00\n        /* \"#utility.yul\":23912:23915   */\n      dup7\n        /* \"#utility.yul\":23908:23922   */\n      add\n        /* \"#utility.yul\":23894:23906   */\n      dup3\n        /* \"#utility.yul\":23866:23923   */\n      tag_208\n      jump\t// in\n    tag_472:\n        /* \"#utility.yul\":23762:23933   */\n      pop\n        /* \"#utility.yul\":24021:24025   */\n      0x20\n        /* \"#utility.yul\":24014:24019   */\n      dup4\n        /* \"#utility.yul\":24010:24026   */\n      add\n        /* \"#utility.yul\":24004:24027   */\n      mload\n        /* \"#utility.yul\":24040:24103   */\n      tag_473\n        /* \"#utility.yul\":24097:24101   */\n      0x20\n        /* \"#utility.yul\":24092:24095   */\n      dup7\n        /* \"#utility.yul\":24088:24102   */\n      add\n        /* \"#utility.yul\":24074:24086   */\n      dup3\n        /* \"#utility.yul\":24040:24103   */\n      tag_206\n      jump\t// in\n    tag_473:\n        /* \"#utility.yul\":23943:24113   */\n      pop\n        /* \"#utility.yul\":24198:24202   */\n      0x40\n        /* \"#utility.yul\":24191:24196   */\n      dup4\n        /* \"#utility.yul\":24187:24203   */\n      add\n        /* \"#utility.yul\":24181:24204   */\n      mload\n        /* \"#utility.yul\":24251:24254   */\n      dup5\n        /* \"#utility.yul\":24245:24249   */\n      dup3\n        /* \"#utility.yul\":24241:24255   */\n      sub\n        /* \"#utility.yul\":24234:24238   */\n      0x40\n        /* \"#utility.yul\":24229:24232   */\n      dup7\n        /* \"#utility.yul\":24225:24239   */\n      add\n        /* \"#utility.yul\":24218:24256   */\n      mstore\n        /* \"#utility.yul\":24277:24348   */\n      tag_474\n        /* \"#utility.yul\":24343:24347   */\n      dup3\n        /* \"#utility.yul\":24329:24341   */\n      dup3\n        /* \"#utility.yul\":24277:24348   */\n      tag_188\n      jump\t// in\n    tag_474:\n        /* \"#utility.yul\":24269:24348   */\n      swap2\n      pop\n        /* \"#utility.yul\":24123:24359   */\n      pop\n        /* \"#utility.yul\":24452:24456   */\n      0x60\n        /* \"#utility.yul\":24445:24450   */\n      dup4\n        /* \"#utility.yul\":24441:24457   */\n      add\n        /* \"#utility.yul\":24435:24458   */\n      mload\n        /* \"#utility.yul\":24505:24508   */\n      dup5\n        /* \"#utility.yul\":24499:24503   */\n      dup3\n        /* \"#utility.yul\":24495:24509   */\n      sub\n        /* \"#utility.yul\":24488:24492   */\n      0x60\n        /* \"#utility.yul\":24483:24486   */\n      dup7\n        /* \"#utility.yul\":24479:24493   */\n      add\n        /* \"#utility.yul\":24472:24510   */\n      mstore\n        /* \"#utility.yul\":24531:24602   */\n      tag_475\n        /* \"#utility.yul\":24597:24601   */\n      dup3\n        /* \"#utility.yul\":24583:24595   */\n      dup3\n        /* \"#utility.yul\":24531:24602   */\n      tag_188\n      jump\t// in\n    tag_475:\n        /* \"#utility.yul\":24523:24602   */\n      swap2\n      pop\n        /* \"#utility.yul\":24369:24613   */\n      pop\n        /* \"#utility.yul\":24712:24716   */\n      0x80\n        /* \"#utility.yul\":24705:24710   */\n      dup4\n        /* \"#utility.yul\":24701:24717   */\n      add\n        /* \"#utility.yul\":24695:24718   */\n      mload\n        /* \"#utility.yul\":24731:24794   */\n      tag_476\n        /* \"#utility.yul\":24788:24792   */\n      0x80\n        /* \"#utility.yul\":24783:24786   */\n      dup7\n        /* \"#utility.yul\":24779:24793   */\n      add\n        /* \"#utility.yul\":24765:24777   */\n      dup3\n        /* \"#utility.yul\":24731:24794   */\n      tag_206\n      jump\t// in\n    tag_476:\n        /* \"#utility.yul\":24623:24804   */\n      pop\n        /* \"#utility.yul\":24821:24825   */\n      dup1\n        /* \"#utility.yul\":24814:24825   */\n      swap2\n      pop\n        /* \"#utility.yul\":23716:24831   */\n      pop\n        /* \"#utility.yul\":23600:24831   */\n      swap3\n      swap2\n      pop\n      pop\n      jump\t// out\n        /* \"#utility.yul\":24919:25551   */\n    tag_216:\n        /* \"#utility.yul\":25030:25033   */\n      0x00\n        /* \"#utility.yul\":25066:25070   */\n      0x40\n        /* \"#utility.yul\":25061:25064   */\n      dup4\n        /* \"#utility.yul\":25057:25071   */\n      add\n        /* \"#utility.yul\":25156:25160   */\n      0x00\n        /* \"#utility.yul\":25149:25154   */\n      dup4\n        /* \"#utility.yul\":25145:25161   */\n      add\n        /* \"#utility.yul\":25139:25162   */\n      mload\n        /* \"#utility.yul\":25175:25238   */\n      tag_478\n        /* \"#utility.yul\":25232:25236   */\n      0x00\n        /* \"#utility.yul\":25227:25230   */\n      dup7\n        /* \"#utility.yul\":25223:25237   */\n      add\n        /* \"#utility.yul\":25209:25221   */\n      dup3\n        /* \"#utility.yul\":25175:25238   */\n      tag_214\n      jump\t// in\n    tag_478:\n        /* \"#utility.yul\":25081:25248   */\n      pop\n        /* \"#utility.yul\":25329:25333   */\n      0x20\n        /* \"#utility.yul\":25322:25327   */\n      dup4\n        /* \"#utility.yul\":25318:25334   */\n      add\n        /* \"#utility.yul\":25312:25335   */\n      mload\n        /* \"#utility.yul\":25382:25385   */\n      dup5\n        /* \"#utility.yul\":25376:25380   */\n      dup3\n        /* \"#utility.yul\":25372:25386   */\n      sub\n        /* \"#utility.yul\":25365:25369   */\n      0x20\n        /* \"#utility.yul\":25360:25363   */\n      dup7\n        /* \"#utility.yul\":25356:25370   */\n      add\n        /* \"#utility.yul\":25349:25387   */\n      mstore\n        /* \"#utility.yul\":25408:25513   */\n      tag_479\n        /* \"#utility.yul\":25508:25512   */\n      dup3\n        /* \"#utility.yul\":25494:25506   */\n      dup3\n        /* \"#utility.yul\":25408:25513   */\n      tag_215\n      jump\t// in\n    tag_479:\n        /* \"#utility.yul\":25400:25513   */\n      swap2\n      pop\n        /* \"#utility.yul\":25258:25524   */\n      pop\n        /* \"#utility.yul\":25541:25545   */\n      dup1\n        /* \"#utility.yul\":25534:25545   */\n      swap2\n      pop\n        /* \"#utility.yul\":25035:25551   */\n      pop\n        /* \"#utility.yul\":24919:25551   */\n      swap3\n      swap2\n      pop\n      pop\n      jump\t// out\n        /* \"#utility.yul\":25557:25817   */\n    tag_217:\n        /* \"#utility.yul\":25678:25688   */\n      0x00\n        /* \"#utility.yul\":25713:25811   */\n      tag_481\n        /* \"#utility.yul\":25807:25810   */\n      dup4\n        /* \"#utility.yul\":25799:25805   */\n      dup4\n        /* \"#utility.yul\":25713:25811   */\n      tag_216\n      jump\t// in\n    tag_481:\n        /* \"#utility.yul\":25699:25811   */\n      swap1\n      pop\n        /* \"#utility.yul\":25557:25817   */\n      swap3\n      swap2\n      pop\n      pop\n      jump\t// out\n        /* \"#utility.yul\":25823:25962   */\n    tag_218:\n        /* \"#utility.yul\":25919:25923   */\n      0x00\n        /* \"#utility.yul\":25951:25955   */\n      0x20\n        /* \"#utility.yul\":25946:25949   */\n      dup3\n        /* \"#utility.yul\":25942:25956   */\n      add\n        /* \"#utility.yul\":25934:25956   */\n      swap1\n      pop\n        /* \"#utility.yul\":25823:25962   */\n      swap2\n      swap1\n      pop\n      jump\t// out\n        /* \"#utility.yul\":26054:27153   */\n    tag_219:\n        /* \"#utility.yul\":26215:26218   */\n      0x00\n        /* \"#utility.yul\":26244:26324   */\n      tag_484\n        /* \"#utility.yul\":26318:26323   */\n      dup3\n        /* \"#utility.yul\":26244:26324   */\n      tag_210\n      jump\t// in\n    tag_484:\n        /* \"#utility.yul\":26340:26442   */\n      tag_485\n        /* \"#utility.yul\":26435:26441   */\n      dup2\n        /* \"#utility.yul\":26430:26433   */\n      dup6\n        /* \"#utility.yul\":26340:26442   */\n      tag_211\n      jump\t// in\n    tag_485:\n        /* \"#utility.yul\":26333:26442   */\n      swap4\n      pop\n        /* \"#utility.yul\":26468:26471   */\n      dup4\n        /* \"#utility.yul\":26513:26517   */\n      0x20\n        /* \"#utility.yul\":26505:26511   */\n      dup3\n        /* \"#utility.yul\":26501:26518   */\n      mul\n        /* \"#utility.yul\":26496:26499   */\n      dup6\n        /* \"#utility.yul\":26492:26519   */\n      add\n        /* \"#utility.yul\":26543:26625   */\n      tag_486\n        /* \"#utility.yul\":26619:26624   */\n      dup6\n        /* \"#utility.yul\":26543:26625   */\n      tag_212\n      jump\t// in\n    tag_486:\n        /* \"#utility.yul\":26648:26655   */\n      dup1\n        /* \"#utility.yul\":26679:26680   */\n      0x00\n        /* \"#utility.yul\":26664:27108   */\n    tag_487:\n        /* \"#utility.yul\":26689:26695   */\n      dup6\n        /* \"#utility.yul\":26686:26687   */\n      dup2\n        /* \"#utility.yul\":26683:26696   */\n      lt\n        /* \"#utility.yul\":26664:27108   */\n      iszero\n      tag_489\n      jumpi\n        /* \"#utility.yul\":26760:26769   */\n      dup5\n        /* \"#utility.yul\":26754:26758   */\n      dup5\n        /* \"#utility.yul\":26750:26770   */\n      sub\n        /* \"#utility.yul\":26745:26748   */\n      dup10\n        /* \"#utility.yul\":26738:26771   */\n      mstore\n        /* \"#utility.yul\":26811:26817   */\n      dup2\n        /* \"#utility.yul\":26805:26818   */\n      mload\n        /* \"#utility.yul\":26839:26955   */\n      tag_490\n        /* \"#utility.yul\":26950:26954   */\n      dup6\n        /* \"#utility.yul\":26935:26948   */\n      dup3\n        /* \"#utility.yul\":26839:26955   */\n      tag_217\n      jump\t// in\n    tag_490:\n        /* \"#utility.yul\":26831:26955   */\n      swap5\n      pop\n        /* \"#utility.yul\":26978:27064   */\n      tag_491\n        /* \"#utility.yul\":27057:27063   */\n      dup4\n        /* \"#utility.yul\":26978:27064   */\n      tag_218\n      jump\t// in\n    tag_491:\n        /* \"#utility.yul\":26968:27064   */\n      swap3\n      pop\n        /* \"#utility.yul\":27093:27097   */\n      0x20\n        /* \"#utility.yul\":27088:27091   */\n      dup11\n        /* \"#utility.yul\":27084:27098   */\n      add\n        /* \"#utility.yul\":27077:27098   */\n      swap10\n      pop\n        /* \"#utility.yul\":26724:27108   */\n      pop\n        /* \"#utility.yul\":26711:26712   */\n      0x01\n        /* \"#utility.yul\":26708:26709   */\n      dup2\n        /* \"#utility.yul\":26704:26713   */\n      add\n        /* \"#utility.yul\":26699:26713   */\n      swap1\n      pop\n        /* \"#utility.yul\":26664:27108   */\n      jump(tag_487)\n    tag_489:\n        /* \"#utility.yul\":26668:26682   */\n      pop\n        /* \"#utility.yul\":27124:27128   */\n      dup3\n        /* \"#utility.yul\":27117:27128   */\n      swap8\n      pop\n        /* \"#utility.yul\":27144:27147   */\n      dup8\n        /* \"#utility.yul\":27137:27147   */\n      swap6\n      pop\n        /* \"#utility.yul\":26220:27153   */\n      pop\n      pop\n      pop\n      pop\n      pop\n        /* \"#utility.yul\":26054:27153   */\n      swap3\n      swap2\n      pop\n      pop\n      jump\t// out\n        /* \"#utility.yul\":27237:27927   */\n    tag_220:\n        /* \"#utility.yul\":27372:27376   */\n      0x60\n        /* \"#utility.yul\":27367:27370   */\n      dup3\n        /* \"#utility.yul\":27363:27377   */\n      add\n        /* \"#utility.yul\":27461:27465   */\n      0x00\n        /* \"#utility.yul\":27454:27459   */\n      dup3\n        /* \"#utility.yul\":27450:27466   */\n      add\n        /* \"#utility.yul\":27444:27467   */\n      mload\n        /* \"#utility.yul\":27480:27541   */\n      tag_493\n        /* \"#utility.yul\":27535:27539   */\n      0x00\n        /* \"#utility.yul\":27530:27533   */\n      dup6\n        /* \"#utility.yul\":27526:27540   */\n      add\n        /* \"#utility.yul\":27512:27524   */\n      dup3\n        /* \"#utility.yul\":27480:27541   */\n      tag_209\n      jump\t// in\n    tag_493:\n        /* \"#utility.yul\":27387:27551   */\n      pop\n        /* \"#utility.yul\":27645:27649   */\n      0x20\n        /* \"#utility.yul\":27638:27643   */\n      dup3\n        /* \"#utility.yul\":27634:27650   */\n      add\n        /* \"#utility.yul\":27628:27651   */\n      mload\n        /* \"#utility.yul\":27664:27727   */\n      tag_494\n        /* \"#utility.yul\":27721:27725   */\n      0x20\n        /* \"#utility.yul\":27716:27719   */\n      dup6\n        /* \"#utility.yul\":27712:27726   */\n      add\n        /* \"#utility.yul\":27698:27710   */\n      dup3\n        /* \"#utility.yul\":27664:27727   */\n      tag_206\n      jump\t// in\n    tag_494:\n        /* \"#utility.yul\":27561:27737   */\n      pop\n        /* \"#utility.yul\":27830:27834   */\n      0x40\n        /* \"#utility.yul\":27823:27828   */\n      dup3\n        /* \"#utility.yul\":27819:27835   */\n      add\n        /* \"#utility.yul\":27813:27836   */\n      mload\n        /* \"#utility.yul\":27849:27910   */\n      tag_495\n        /* \"#utility.yul\":27904:27908   */\n      0x40\n        /* \"#utility.yul\":27899:27902   */\n      dup6\n        /* \"#utility.yul\":27895:27909   */\n      add\n        /* \"#utility.yul\":27881:27893   */\n      dup3\n        /* \"#utility.yul\":27849:27910   */\n      tag_209\n      jump\t// in\n    tag_495:\n        /* \"#utility.yul\":27747:27920   */\n      pop\n        /* \"#utility.yul\":27341:27927   */\n      pop\n        /* \"#utility.yul\":27237:27927   */\n      pop\n      pop\n      jump\t// out\n        /* \"#utility.yul\":28021:30226   */\n    tag_221:\n        /* \"#utility.yul\":28148:28151   */\n      0x00\n        /* \"#utility.yul\":28184:28190   */\n      0x0160\n        /* \"#utility.yul\":28179:28182   */\n      dup4\n        /* \"#utility.yul\":28175:28191   */\n      add\n        /* \"#utility.yul\":28273:28277   */\n      0x00\n        /* \"#utility.yul\":28266:28271   */\n      dup4\n        /* \"#utility.yul\":28262:28278   */\n      add\n        /* \"#utility.yul\":28256:28279   */\n      mload\n        /* \"#utility.yul\":28326:28329   */\n      dup5\n        /* \"#utility.yul\":28320:28324   */\n      dup3\n        /* \"#utility.yul\":28316:28330   */\n      sub\n        /* \"#utility.yul\":28309:28313   */\n      0x00\n        /* \"#utility.yul\":28304:28307   */\n      dup7\n        /* \"#utility.yul\":28300:28314   */\n      add\n        /* \"#utility.yul\":28293:28331   */\n      mstore\n        /* \"#utility.yul\":28352:28425   */\n      tag_497\n        /* \"#utility.yul\":28420:28424   */\n      dup3\n        /* \"#utility.yul\":28406:28418   */\n      dup3\n        /* \"#utility.yul\":28352:28425   */\n      tag_205\n      jump\t// in\n    tag_497:\n        /* \"#utility.yul\":28344:28425   */\n      swap2\n      pop\n        /* \"#utility.yul\":28201:28436   */\n      pop\n        /* \"#utility.yul\":28520:28524   */\n      0x20\n        /* \"#utility.yul\":28513:28518   */\n      dup4\n        /* \"#utility.yul\":28509:28525   */\n      add\n        /* \"#utility.yul\":28503:28526   */\n      mload\n        /* \"#utility.yul\":28573:28576   */\n      dup5\n        /* \"#utility.yul\":28567:28571   */\n      dup3\n        /* \"#utility.yul\":28563:28577   */\n      sub\n        /* \"#utility.yul\":28556:28560   */\n      0x20\n        /* \"#utility.yul\":28551:28554   */\n      dup7\n        /* \"#utility.yul\":28547:28561   */\n      add\n        /* \"#utility.yul\":28540:28578   */\n      mstore\n        /* \"#utility.yul\":28599:28672   */\n      tag_498\n        /* \"#utility.yul\":28667:28671   */\n      dup3\n        /* \"#utility.yul\":28653:28665   */\n      dup3\n        /* \"#utility.yul\":28599:28672   */\n      tag_205\n      jump\t// in\n    tag_498:\n        /* \"#utility.yul\":28591:28672   */\n      swap2\n      pop\n        /* \"#utility.yul\":28446:28683   */\n      pop\n        /* \"#utility.yul\":28769:28773   */\n      0x40\n        /* \"#utility.yul\":28762:28767   */\n      dup4\n        /* \"#utility.yul\":28758:28774   */\n      add\n        /* \"#utility.yul\":28752:28775   */\n      mload\n        /* \"#utility.yul\":28788:28851   */\n      tag_499\n        /* \"#utility.yul\":28845:28849   */\n      0x40\n        /* \"#utility.yul\":28840:28843   */\n      dup7\n        /* \"#utility.yul\":28836:28850   */\n      add\n        /* \"#utility.yul\":28822:28834   */\n      dup3\n        /* \"#utility.yul\":28788:28851   */\n      tag_206\n      jump\t// in\n    tag_499:\n        /* \"#utility.yul\":28693:28861   */\n      pop\n        /* \"#utility.yul\":28943:28947   */\n      0x60\n        /* \"#utility.yul\":28936:28941   */\n      dup4\n        /* \"#utility.yul\":28932:28948   */\n      add\n        /* \"#utility.yul\":28926:28949   */\n      mload\n        /* \"#utility.yul\":28996:28999   */\n      dup5\n        /* \"#utility.yul\":28990:28994   */\n      dup3\n        /* \"#utility.yul\":28986:29000   */\n      sub\n        /* \"#utility.yul\":28979:28983   */\n      0x60\n        /* \"#utility.yul\":28974:28977   */\n      dup7\n        /* \"#utility.yul\":28970:28984   */\n      add\n        /* \"#utility.yul\":28963:29001   */\n      mstore\n        /* \"#utility.yul\":29022:29095   */\n      tag_500\n        /* \"#utility.yul\":29090:29094   */\n      dup3\n        /* \"#utility.yul\":29076:29088   */\n      dup3\n        /* \"#utility.yul\":29022:29095   */\n      tag_205\n      jump\t// in\n    tag_500:\n        /* \"#utility.yul\":29014:29095   */\n      swap2\n      pop\n        /* \"#utility.yul\":28871:29106   */\n      pop\n        /* \"#utility.yul\":29199:29203   */\n      0x80\n        /* \"#utility.yul\":29192:29197   */\n      dup4\n        /* \"#utility.yul\":29188:29204   */\n      add\n        /* \"#utility.yul\":29182:29205   */\n      mload\n        /* \"#utility.yul\":29218:29275   */\n      tag_501\n        /* \"#utility.yul\":29269:29273   */\n      0x80\n        /* \"#utility.yul\":29264:29267   */\n      dup7\n        /* \"#utility.yul\":29260:29274   */\n      add\n        /* \"#utility.yul\":29246:29258   */\n      dup3\n        /* \"#utility.yul\":29218:29275   */\n      tag_208\n      jump\t// in\n    tag_501:\n        /* \"#utility.yul\":29116:29285   */\n      pop\n        /* \"#utility.yul\":29372:29376   */\n      0xa0\n        /* \"#utility.yul\":29365:29370   */\n      dup4\n        /* \"#utility.yul\":29361:29377   */\n      add\n        /* \"#utility.yul\":29355:29378   */\n      mload\n        /* \"#utility.yul\":29391:29452   */\n      tag_502\n        /* \"#utility.yul\":29446:29450   */\n      0xa0\n        /* \"#utility.yul\":29441:29444   */\n      dup7\n        /* \"#utility.yul\":29437:29451   */\n      add\n        /* \"#utility.yul\":29423:29435   */\n      dup3\n        /* \"#utility.yul\":29391:29452   */\n      tag_209\n      jump\t// in\n    tag_502:\n        /* \"#utility.yul\":29295:29462   */\n      pop\n        /* \"#utility.yul\":29553:29557   */\n      0xc0\n        /* \"#utility.yul\":29546:29551   */\n      dup4\n        /* \"#utility.yul\":29542:29558   */\n      add\n        /* \"#utility.yul\":29536:29559   */\n      mload\n        /* \"#utility.yul\":29572:29629   */\n      tag_503\n        /* \"#utility.yul\":29623:29627   */\n      0xc0\n        /* \"#utility.yul\":29618:29621   */\n      dup7\n        /* \"#utility.yul\":29614:29628   */\n      add\n        /* \"#utility.yul\":29600:29612   */\n      dup3\n        /* \"#utility.yul\":29572:29629   */\n      tag_208\n      jump\t// in\n    tag_503:\n        /* \"#utility.yul\":29472:29639   */\n      pop\n        /* \"#utility.yul\":29726:29730   */\n      0xe0\n        /* \"#utility.yul\":29719:29724   */\n      dup4\n        /* \"#utility.yul\":29715:29731   */\n      add\n        /* \"#utility.yul\":29709:29732   */\n      mload\n        /* \"#utility.yul\":29779:29782   */\n      dup5\n        /* \"#utility.yul\":29773:29777   */\n      dup3\n        /* \"#utility.yul\":29769:29783   */\n      sub\n        /* \"#utility.yul\":29762:29766   */\n      0xe0\n        /* \"#utility.yul\":29757:29760   */\n      dup7\n        /* \"#utility.yul\":29753:29767   */\n      add\n        /* \"#utility.yul\":29746:29784   */\n      mstore\n        /* \"#utility.yul\":29805:29960   */\n      tag_504\n        /* \"#utility.yul\":29955:29959   */\n      dup3\n        /* \"#utility.yul\":29941:29953   */\n      dup3\n        /* \"#utility.yul\":29805:29960   */\n      tag_219\n      jump\t// in\n    tag_504:\n        /* \"#utility.yul\":29797:29960   */\n      swap2\n      pop\n        /* \"#utility.yul\":29649:29971   */\n      pop\n        /* \"#utility.yul\":30055:30061   */\n      0x0100\n        /* \"#utility.yul\":30048:30053   */\n      dup4\n        /* \"#utility.yul\":30044:30062   */\n      add\n        /* \"#utility.yul\":30038:30063   */\n      mload\n        /* \"#utility.yul\":30076:30189   */\n      tag_505\n        /* \"#utility.yul\":30181:30187   */\n      0x0100\n        /* \"#utility.yul\":30176:30179   */\n      dup7\n        /* \"#utility.yul\":30172:30188   */\n      add\n        /* \"#utility.yul\":30158:30170   */\n      dup3\n        /* \"#utility.yul\":30076:30189   */\n      tag_220\n      jump\t// in\n    tag_505:\n        /* \"#utility.yul\":29981:30199   */\n      pop\n        /* \"#utility.yul\":30216:30220   */\n      dup1\n        /* \"#utility.yul\":30209:30220   */\n      swap2\n      pop\n        /* \"#utility.yul\":28153:30226   */\n      pop\n        /* \"#utility.yul\":28021:30226   */\n      swap3\n      swap2\n      pop\n      pop\n      jump\t// out\n        /* \"#utility.yul\":30232:30621   */\n    tag_111:\n        /* \"#utility.yul\":30383:30387   */\n      0x00\n        /* \"#utility.yul\":30421:30423   */\n      0x20\n        /* \"#utility.yul\":30410:30419   */\n      dup3\n        /* \"#utility.yul\":30406:30424   */\n      add\n        /* \"#utility.yul\":30398:30424   */\n      swap1\n      pop\n        /* \"#utility.yul\":30470:30479   */\n      dup2\n        /* \"#utility.yul\":30464:30468   */\n      dup2\n        /* \"#utility.yul\":30460:30480   */\n      sub\n        /* \"#utility.yul\":30456:30457   */\n      0x00\n        /* \"#utility.yul\":30445:30454   */\n      dup4\n        /* \"#utility.yul\":30441:30458   */\n      add\n        /* \"#utility.yul\":30434:30481   */\n      mstore\n        /* \"#utility.yul\":30498:30614   */\n      tag_507\n        /* \"#utility.yul\":30609:30613   */\n      dup2\n        /* \"#utility.yul\":30600:30606   */\n      dup5\n        /* \"#utility.yul\":30498:30614   */\n      tag_221\n      jump\t// in\n    tag_507:\n        /* \"#utility.yul\":30490:30614   */\n      swap1\n      pop\n        /* \"#utility.yul\":30232:30621   */\n      swap3\n      swap2\n      pop\n      pop\n      jump\t// out\n        /* \"#utility.yul\":30627:30731   */\n    tag_222:\n        /* \"#utility.yul\":30672:30679   */\n      0x00\n        /* \"#utility.yul\":30701:30725   */\n      tag_509\n        /* \"#utility.yul\":30719:30724   */\n      dup3\n        /* \"#utility.yul\":30701:30725   */\n      tag_145\n      jump\t// in\n    tag_509:\n        /* \"#utility.yul\":30690:30725   */\n      swap1\n      pop\n        /* \"#utility.yul\":30627:30731   */\n      swap2\n      swap1\n      pop\n      jump\t// out\n        /* \"#utility.yul\":30737:30875   */\n    tag_223:\n        /* \"#utility.yul\":30818:30850   */\n      tag_511\n        /* \"#utility.yul\":30844:30849   */\n      dup2\n        /* \"#utility.yul\":30818:30850   */\n      tag_222\n      jump\t// in\n    tag_511:\n        /* \"#utility.yul\":30811:30816   */\n      dup2\n        /* \"#utility.yul\":30808:30851   */\n      eq\n        /* \"#utility.yul\":30798:30869   */\n      tag_512\n      jumpi\n        /* \"#utility.yul\":30865:30866   */\n      0x00\n        /* \"#utility.yul\":30862:30863   */\n      dup1\n        /* \"#utility.yul\":30855:30867   */\n      revert\n        /* \"#utility.yul\":30798:30869   */\n    tag_512:\n        /* \"#utility.yul\":30737:30875   */\n      pop\n      jump\t// out\n        /* \"#utility.yul\":30881:31040   */\n    tag_224:\n        /* \"#utility.yul\":30946:30951   */\n      0x00\n        /* \"#utility.yul\":30977:30983   */\n      dup2\n        /* \"#utility.yul\":30971:30984   */\n      mload\n        /* \"#utility.yul\":30962:30984   */\n      swap1\n      pop\n        /* \"#utility.yul\":30993:31034   */\n      tag_514\n        /* \"#utility.yul\":31028:31033   */\n      dup2\n        /* \"#utility.yul\":30993:31034   */\n      tag_223\n      jump\t// in\n    tag_514:\n        /* \"#utility.yul\":30881:31040   */\n      swap3\n      swap2\n      pop\n      pop\n      jump\t// out\n        /* \"#utility.yul\":31046:31565   */\n    tag_119:\n        /* \"#utility.yul\":31131:31137   */\n      0x00\n        /* \"#utility.yul\":31139:31145   */\n      dup1\n        /* \"#utility.yul\":31188:31190   */\n      0x40\n        /* \"#utility.yul\":31176:31185   */\n      dup4\n        /* \"#utility.yul\":31167:31174   */\n      dup6\n        /* \"#utility.yul\":31163:31186   */\n      sub\n        /* \"#utility.yul\":31159:31191   */\n      slt\n        /* \"#utility.yul\":31156:31275   */\n      iszero\n      tag_516\n      jumpi\n        /* \"#utility.yul\":31194:31273   */\n      tag_517\n      tag_143\n      jump\t// in\n    tag_517:\n        /* \"#utility.yul\":31156:31275   */\n    tag_516:\n        /* \"#utility.yul\":31314:31315   */\n      0x00\n        /* \"#utility.yul\":31339:31401   */\n      tag_518\n        /* \"#utility.yul\":31393:31400   */\n      dup6\n        /* \"#utility.yul\":31384:31390   */\n      dup3\n        /* \"#utility.yul\":31373:31382   */\n      dup7\n        /* \"#utility.yul\":31369:31391   */\n      add\n        /* \"#utility.yul\":31339:31401   */\n      tag_196\n      jump\t// in\n    tag_518:\n        /* \"#utility.yul\":31329:31401   */\n      swap3\n      pop\n        /* \"#utility.yul\":31285:31411   */\n      pop\n        /* \"#utility.yul\":31450:31452   */\n      0x20\n        /* \"#utility.yul\":31476:31548   */\n      tag_519\n        /* \"#utility.yul\":31540:31547   */\n      dup6\n        /* \"#utility.yul\":31531:31537   */\n      dup3\n        /* \"#utility.yul\":31520:31529   */\n      dup7\n        /* \"#utility.yul\":31516:31538   */\n      add\n        /* \"#utility.yul\":31476:31548   */\n      tag_224\n      jump\t// in\n    tag_519:\n        /* \"#utility.yul\":31466:31548   */\n      swap2\n      pop\n        /* \"#utility.yul\":31421:31558   */\n      pop\n        /* \"#utility.yul\":31046:31565   */\n      swap3\n      pop\n      swap3\n      swap1\n      pop\n      jump\t// out\n        /* \"#utility.yul\":31571:31751   */\n    tag_123:\n        /* \"#utility.yul\":31619:31696   */\n      0x4e487b7100000000000000000000000000000000000000000000000000000000\n        /* \"#utility.yul\":31616:31617   */\n      0x00\n        /* \"#utility.yul\":31609:31697   */\n      mstore\n        /* \"#utility.yul\":31716:31720   */\n      0x21\n        /* \"#utility.yul\":31713:31714   */\n      0x04\n        /* \"#utility.yul\":31706:31721   */\n      mstore\n        /* \"#utility.yul\":31740:31744   */\n      0x24\n        /* \"#utility.yul\":31737:31738   */\n      0x00\n        /* \"#utility.yul\":31730:31745   */\n      revert\n\n    auxdata: 0xa26469706673582212208a2bc148d7c22890c14b30aa40416f50efe5a756d49ee7409b7f05da74ce79f464736f6c63430008110033\n}\n",
				"bytecode": {
					"linkReferences": {},
					"object": "60806040523480156200001157600080fd5b5060018060008060068111156200002d576200002c620001f1565b5b6006811115620000425762000041620001f1565b5b81526020019081526020016000208190555060026001600060016006811115620000715762000070620001f1565b5b6006811115620000865762000085620001f1565b5b81526020019081526020016000208190555060046001600060026006811115620000b557620000b4620001f1565b5b6006811115620000ca57620000c9620001f1565b5b81526020019081526020016000208190555060086001600060036006811115620000f957620000f8620001f1565b5b60068111156200010e576200010d620001f1565b5b815260200190815260200160002081905550601060016000600460068111156200013d576200013c620001f1565b5b6006811115620001525762000151620001f1565b5b81526020019081526020016000208190555060206001600060056006811115620001815762000180620001f1565b5b6006811115620001965762000195620001f1565b5b815260200190815260200160002081905550604060016000600680811115620001c457620001c3620001f1565b5b6006811115620001d957620001d8620001f1565b5b81526020019081526020016000208190555062000220565b7f4e487b7100000000000000000000000000000000000000000000000000000000600052602160045260246000fd5b611ad280620002306000396000f3fe6080604052600436106100345760003560e01c80630a284cb61461003957806382b562aa14610076578063a1a79cde146100b3575b600080fd5b34801561004557600080fd5b50610060600480360381019061005b9190610dd2565b6100e3565b60405161006d9190610e4a565b60405180910390f35b34801561008257600080fd5b5061009d60048036038101906100989190610e91565b610165565b6040516100aa9190610efd565b60405180910390f35b6100cd60048036038101906100c89190610ff5565b6101d3565b6040516100da91906110d3565b60405180910390f35b60008060006100f48560008661032a565b9250509150601660030b821461013f576040517f08c379a000000000000000000000000000000000000000000000000000000000815260040161013690611171565b60405180910390fd5b8060008151811061015357610152611191565b5b60200260200101519250505092915050565b600061017183856104a2565b506000610180853086866105ba565b9050601660030b81146101c8576040517f08c379a00000000000000000000000000000000000000000000000000000000081526004016101bf90611232565b60405180910390fd5b809150509392505050565b600080600167ffffffffffffffff8111156101f1576101f0610bbc565b5b60405190808252806020026020018201604052801561022a57816020015b610217610a02565b81526020019060019003908161020f5790505b50905061023a60046001306106d8565b8160008151811061024e5761024d611191565b5b6020026020010181905250610261610a22565b87816000018190525086816020018190525085816060018190525030816040019073ffffffffffffffffffffffffffffffffffffffff16908173ffffffffffffffffffffffffffffffffffffffff16815250506001816080019015159081151581525050848160a0019063ffffffff16908163ffffffff1681525050818160e0018190525060008160c0019015159081151581525050610301308561070f565b8161010001819052506000806103168361076d565b915091508094505050505095945050505050565b600080606060008061016773ffffffffffffffffffffffffffffffffffffffff1663278e0b8860e01b898989604051602401610368939291906113b6565b604051602081830303815290604052907bffffffffffffffffffffffffffffffffffffffffffffffffffffffff19166020820180517bffffffffffffffffffffffffffffffffffffffffffffffffffffffff83818316178352505050506040516103d29190611430565b6000604051808303816000865af19150503d806000811461040f576040519150601f19603f3d011682016040523d82523d6000602084013e610414565b606091505b50915091508161047057601560008067ffffffffffffffff81111561043c5761043b610bbc565b5b60405190808252806020026020018201604052801561046a5781602001602082028036833780820191505090505b50610485565b808060200190518101906104849190611584565b5b8260030b9250809550819650829750505050505093509350939050565b600080600061016773ffffffffffffffffffffffffffffffffffffffff166349146bde60e01b86866040516024016104db9291906115f3565b604051602081830303815290604052907bffffffffffffffffffffffffffffffffffffffffffffffffffffffff19166020820180517bffffffffffffffffffffffffffffffffffffffffffffffffffffffff83818316178352505050506040516105459190611430565b6000604051808303816000865af19150503d8060008114610582576040519150601f19603f3d011682016040523d82523d6000602084013e610587565b606091505b5091509150816105985760156105ad565b808060200190518101906105ac919061161c565b5b60030b9250505092915050565b600080600061016773ffffffffffffffffffffffffffffffffffffffff16635cfc901160e01b888888886040516024016105f79493929190611649565b604051602081830303815290604052907bffffffffffffffffffffffffffffffffffffffffffffffffffffffff19166020820180517bffffffffffffffffffffffffffffffffffffffffffffffffffffffff83818316178352505050506040516106619190611430565b6000604051808303816000865af19150503d806000811461069e576040519150601f19603f3d011682016040523d82523d6000602084013e6106a3565b606091505b5091509150816106b45760156106c9565b808060200190518101906106c8919061161c565b5b60030b92505050949350505050565b6106e0610a02565b60405180604001604052806106f4866108e5565b81526020016107038585610926565b81525090509392505050565b610717610a94565b82816020019073ffffffffffffffffffffffffffffffffffffffff16908173ffffffffffffffffffffffffffffffffffffffff168152505081816040019063ffffffff16908163ffffffff168152505092915050565b6000808260008161010001516000015163ffffffff1614801561079f575060008161010001516040015163ffffffff16145b156107c5576276a7008161010001516040019063ffffffff16908163ffffffff16815250505b60008061016773ffffffffffffffffffffffffffffffffffffffff1634639dc711e060e01b886040516024016107fb91906119cd565b604051602081830303815290604052907bffffffffffffffffffffffffffffffffffffffffffffffffffffffff19166020820180517bffffffffffffffffffffffffffffffffffffffffffffffffffffffff83818316178352505050506040516108659190611430565b60006040518083038185875af1925050503d80600081146108a2576040519150601f19603f3d011682016040523d82523d6000602084013e6108a7565b606091505b5091509150816108ba57601560006108cf565b808060200190518101906108ce9190611a2d565b5b8160030b91508095508196505050505050915091565b6000600160008360068111156108fe576108fd611a6d565b5b60068111156109105761090f611a6d565b5b8152602001908152602001600020549050919050565b61092e610ad7565b6001600481111561094257610941611a6d565b5b83600481111561095557610954611a6d565b5b036109975781816020019073ffffffffffffffffffffffffffffffffffffffff16908173ffffffffffffffffffffffffffffffffffffffff16815250506109fc565b6004808111156109aa576109a9611a6d565b5b8360048111156109bd576109bc611a6d565b5b036109fb5781816080019073ffffffffffffffffffffffffffffffffffffffff16908173ffffffffffffffffffffffffffffffffffffffff16815250505b5b92915050565b604051806040016040528060008152602001610a1c610ad7565b81525090565b6040518061012001604052806060815260200160608152602001600073ffffffffffffffffffffffffffffffffffffffff16815260200160608152602001600015158152602001600063ffffffff16815260200160001515815260200160608152602001610a8e610a94565b81525090565b6040518060600160405280600063ffffffff168152602001600073ffffffffffffffffffffffffffffffffffffffff168152602001600063ffffffff1681525090565b6040518060a00160405280600015158152602001600073ffffffffffffffffffffffffffffffffffffffff1681526020016060815260200160608152602001600073ffffffffffffffffffffffffffffffffffffffff1681525090565b6000604051905090565b600080fd5b600080fd5b600073ffffffffffffffffffffffffffffffffffffffff82169050919050565b6000610b7382610b48565b9050919050565b610b8381610b68565b8114610b8e57600080fd5b50565b600081359050610ba081610b7a565b92915050565b600080fd5b6000601f19601f8301169050919050565b7f4e487b7100000000000000000000000000000000000000000000000000000000600052604160045260246000fd5b610bf482610bab565b810181811067ffffffffffffffff82111715610c1357610c12610bbc565b5b80604052505050565b6000610c26610b34565b9050610c328282610beb565b919050565b600067ffffffffffffffff821115610c5257610c51610bbc565b5b602082029050602081019050919050565b600080fd5b600080fd5b600067ffffffffffffffff821115610c8857610c87610bbc565b5b610c9182610bab565b9050602081019050919050565b82818337600083830152505050565b6000610cc0610cbb84610c6d565b610c1c565b905082815260208101848484011115610cdc57610cdb610c68565b5b610ce7848285610c9e565b509392505050565b600082601f830112610d0457610d03610ba6565b5b8135610d14848260208601610cad565b91505092915050565b6000610d30610d2b84610c37565b610c1c565b90508083825260208201905060208402830185811115610d5357610d52610c63565b5b835b81811015610d9a57803567ffffffffffffffff811115610d7857610d77610ba6565b5b808601610d858982610cef565b85526020850194505050602081019050610d55565b5050509392505050565b600082601f830112610db957610db8610ba6565b5b8135610dc9848260208601610d1d565b91505092915050565b60008060408385031215610de957610de8610b3e565b5b6000610df785828601610b91565b925050602083013567ffffffffffffffff811115610e1857610e17610b43565b5b610e2485828601610da4565b9150509250929050565b60008160070b9050919050565b610e4481610e2e565b82525050565b6000602082019050610e5f6000830184610e3b565b92915050565b610e6e81610e2e565b8114610e7957600080fd5b50565b600081359050610e8b81610e65565b92915050565b600080600060608486031215610eaa57610ea9610b3e565b5b6000610eb886828701610b91565b9350506020610ec986828701610b91565b9250506040610eda86828701610e7c565b9150509250925092565b6000819050919050565b610ef781610ee4565b82525050565b6000602082019050610f126000830184610eee565b92915050565b600067ffffffffffffffff821115610f3357610f32610bbc565b5b610f3c82610bab565b9050602081019050919050565b6000610f5c610f5784610f18565b610c1c565b905082815260208101848484011115610f7857610f77610c68565b5b610f83848285610c9e565b509392505050565b600082601f830112610fa057610f9f610ba6565b5b8135610fb0848260208601610f49565b91505092915050565b600063ffffffff82169050919050565b610fd281610fb9565b8114610fdd57600080fd5b50565b600081359050610fef81610fc9565b92915050565b600080600080600060a0868803121561101157611010610b3e565b5b600086013567ffffffffffffffff81111561102f5761102e610b43565b5b61103b88828901610f8b565b955050602086013567ffffffffffffffff81111561105c5761105b610b43565b5b61106888828901610f8b565b945050604086013567ffffffffffffffff81111561108957611088610b43565b5b61109588828901610f8b565b93505060606110a688828901610fe0565b92505060806110b788828901610fe0565b9150509295509295909350565b6110cd81610b68565b82525050565b60006020820190506110e860008301846110c4565b92915050565b600082825260208201905092915050565b7f4661696c656420746f206d696e74206e6f6e2d66756e6769626c6520746f6b6560008201527f6e00000000000000000000000000000000000000000000000000000000000000602082015250565b600061115b6021836110ee565b9150611166826110ff565b604082019050919050565b6000602082019050818103600083015261118a8161114e565b9050919050565b7f4e487b7100000000000000000000000000000000000000000000000000000000600052603260045260246000fd5b7f4661696c656420746f207472616e73666572206e6f6e2d66756e6769626c652060008201527f746f6b656e000000000000000000000000000000000000000000000000000000602082015250565b600061121c6025836110ee565b9150611227826111c0565b604082019050919050565b6000602082019050818103600083015261124b8161120f565b9050919050565b600067ffffffffffffffff82169050919050565b61126f81611252565b82525050565b600081519050919050565b600082825260208201905092915050565b6000819050602082019050919050565b600081519050919050565b600082825260208201905092915050565b60005b838110156112db5780820151818401526020810190506112c0565b60008484015250505050565b60006112f2826112a1565b6112fc81856112ac565b935061130c8185602086016112bd565b61131581610bab565b840191505092915050565b600061132c83836112e7565b905092915050565b6000602082019050919050565b600061134c82611275565b6113568185611280565b93508360208202850161136885611291565b8060005b858110156113a457848403895281516113858582611320565b945061139083611334565b925060208a0199505060018101905061136c565b50829750879550505050505092915050565b60006060820190506113cb60008301866110c4565b6113d86020830185611266565b81810360408301526113ea8184611341565b9050949350505050565b600081905092915050565b600061140a826112a1565b61141481856113f4565b93506114248185602086016112bd565b80840191505092915050565b600061143c82846113ff565b915081905092915050565b60008160030b9050919050565b61145d81611447565b811461146857600080fd5b50565b60008151905061147a81611454565b92915050565b61148981611252565b811461149457600080fd5b50565b6000815190506114a681611480565b92915050565b600067ffffffffffffffff8211156114c7576114c6610bbc565b5b602082029050602081019050919050565b6000815190506114e781610e65565b92915050565b60006115006114fb846114ac565b610c1c565b9050808382526020820190506020840283018581111561152357611522610c63565b5b835b8181101561154c578061153888826114d8565b845260208401935050602081019050611525565b5050509392505050565b600082601f83011261156b5761156a610ba6565b5b815161157b8482602086016114ed565b91505092915050565b60008060006060848603121561159d5761159c610b3e565b5b60006115ab8682870161146b565b93505060206115bc86828701611497565b925050604084015167ffffffffffffffff8111156115dd576115dc610b43565b5b6115e986828701611556565b9150509250925092565b600060408201905061160860008301856110c4565b61161560208301846110c4565b9392505050565b60006020828403121561163257611631610b3e565b5b60006116408482850161146b565b91505092915050565b600060808201905061165e60008301876110c4565b61166b60208301866110c4565b61167860408301856110c4565b6116856060830184610e3b565b95945050505050565b600081519050919050565b600082825260208201905092915050565b60006116b58261168e565b6116bf8185611699565b93506116cf8185602086016112bd565b6116d881610bab565b840191505092915050565b6116ec81610b68565b82525050565b60008115159050919050565b611707816116f2565b82525050565b61171681610fb9565b82525050565b600081519050919050565b600082825260208201905092915050565b6000819050602082019050919050565b6000819050919050565b61175b81611748565b82525050565b600060a08301600083015161177960008601826116fe565b50602083015161178c60208601826116e3565b50604083015184820360408601526117a482826112e7565b915050606083015184820360608601526117be82826112e7565b91505060808301516117d360808601826116e3565b508091505092915050565b60006040830160008301516117f66000860182611752565b506020830151848203602086015261180e8282611761565b9150508091505092915050565b600061182783836117de565b905092915050565b6000602082019050919050565b60006118478261171c565b6118518185611727565b93508360208202850161186385611738565b8060005b8581101561189f5784840389528151611880858261181b565b945061188b8361182f565b925060208a01995050600181019050611867565b50829750879550505050505092915050565b6060820160008201516118c7600085018261170d565b5060208201516118da60208501826116e3565b5060408201516118ed604085018261170d565b50505050565b600061016083016000830151848203600086015261191182826116aa565b9150506020830151848203602086015261192b82826116aa565b915050604083015161194060408601826116e3565b506060830151848203606086015261195882826116aa565b915050608083015161196d60808601826116fe565b5060a083015161198060a086018261170d565b5060c083015161199360c08601826116fe565b5060e083015184820360e08601526119ab828261183c565b9150506101008301516119c26101008601826118b1565b508091505092915050565b600060208201905081810360008301526119e781846118f3565b905092915050565b60006119fa82610b48565b9050919050565b611a0a816119ef565b8114611a1557600080fd5b50565b600081519050611a2781611a01565b92915050565b60008060408385031215611a4457611a43610b3e565b5b6000611a528582860161146b565b9250506020611a6385828601611a18565b9150509250929050565b7f4e487b7100000000000000000000000000000000000000000000000000000000600052602160045260246000fdfea26469706673582212208a2bc148d7c22890c14b30aa40416f50efe5a756d49ee7409b7f05da74ce79f464736f6c63430008110033",
					"opcodes": "PUSH1 0x80 PUSH1 0x40 MSTORE CALLVALUE DUP1 ISZERO PUSH3 0x11 JUMPI PUSH1 0x0 DUP1 REVERT JUMPDEST POP PUSH1 0x1 DUP1 PUSH1 0x0 DUP1 PUSH1 0x6 DUP2 GT ISZERO PUSH3 0x2D JUMPI PUSH3 0x2C PUSH3 0x1F1 JUMP JUMPDEST JUMPDEST PUSH1 0x6 DUP2 GT ISZERO PUSH3 0x42 JUMPI PUSH3 0x41 PUSH3 0x1F1 JUMP JUMPDEST JUMPDEST DUP2 MSTORE PUSH1 0x20 ADD SWAP1 DUP2 MSTORE PUSH1 0x20 ADD PUSH1 0x0 KECCAK256 DUP2 SWAP1 SSTORE POP PUSH1 0x2 PUSH1 0x1 PUSH1 0x0 PUSH1 0x1 PUSH1 0x6 DUP2 GT ISZERO PUSH3 0x71 JUMPI PUSH3 0x70 PUSH3 0x1F1 JUMP JUMPDEST JUMPDEST PUSH1 0x6 DUP2 GT ISZERO PUSH3 0x86 JUMPI PUSH3 0x85 PUSH3 0x1F1 JUMP JUMPDEST JUMPDEST DUP2 MSTORE PUSH1 0x20 ADD SWAP1 DUP2 MSTORE PUSH1 0x20 ADD PUSH1 0x0 KECCAK256 DUP2 SWAP1 SSTORE POP PUSH1 0x4 PUSH1 0x1 PUSH1 0x0 PUSH1 0x2 PUSH1 0x6 DUP2 GT ISZERO PUSH3 0xB5 JUMPI PUSH3 0xB4 PUSH3 0x1F1 JUMP JUMPDEST JUMPDEST PUSH1 0x6 DUP2 GT ISZERO PUSH3 0xCA JUMPI PUSH3 0xC9 PUSH3 0x1F1 JUMP JUMPDEST JUMPDEST DUP2 MSTORE PUSH1 0x20 ADD SWAP1 DUP2 MSTORE PUSH1 0x20 ADD PUSH1 0x0 KECCAK256 DUP2 SWAP1 SSTORE POP PUSH1 0x8 PUSH1 0x1 PUSH1 0x0 PUSH1 0x3 PUSH1 0x6 DUP2 GT ISZERO PUSH3 0xF9 JUMPI PUSH3 0xF8 PUSH3 0x1F1 JUMP JUMPDEST JUMPDEST PUSH1 0x6 DUP2 GT ISZERO PUSH3 0x10E JUMPI PUSH3 0x10D PUSH3 0x1F1 JUMP JUMPDEST JUMPDEST DUP2 MSTORE PUSH1 0x20 ADD SWAP1 DUP2 MSTORE PUSH1 0x20 ADD PUSH1 0x0 KECCAK256 DUP2 SWAP1 SSTORE POP PUSH1 0x10 PUSH1 0x1 PUSH1 0x0 PUSH1 0x4 PUSH1 0x6 DUP2 GT ISZERO PUSH3 0x13D JUMPI PUSH3 0x13C PUSH3 0x1F1 JUMP JUMPDEST JUMPDEST PUSH1 0x6 DUP2 GT ISZERO PUSH3 0x152 JUMPI PUSH3 0x151 PUSH3 0x1F1 JUMP JUMPDEST JUMPDEST DUP2 MSTORE PUSH1 0x20 ADD SWAP1 DUP2 MSTORE PUSH1 0x20 ADD PUSH1 0x0 KECCAK256 DUP2 SWAP1 SSTORE POP PUSH1 0x20 PUSH1 0x1 PUSH1 0x0 PUSH1 0x5 PUSH1 0x6 DUP2 GT ISZERO PUSH3 0x181 JUMPI PUSH3 0x180 PUSH3 0x1F1 JUMP JUMPDEST JUMPDEST PUSH1 0x6 DUP2 GT ISZERO PUSH3 0x196 JUMPI PUSH3 0x195 PUSH3 0x1F1 JUMP JUMPDEST JUMPDEST DUP2 MSTORE PUSH1 0x20 ADD SWAP1 DUP2 MSTORE PUSH1 0x20 ADD PUSH1 0x0 KECCAK256 DUP2 SWAP1 SSTORE POP PUSH1 0x40 PUSH1 0x1 PUSH1 0x0 PUSH1 0x6 DUP1 DUP2 GT ISZERO PUSH3 0x1C4 JUMPI PUSH3 0x1C3 PUSH3 0x1F1 JUMP JUMPDEST JUMPDEST PUSH1 0x6 DUP2 GT ISZERO PUSH3 0x1D9 JUMPI PUSH3 0x1D8 PUSH3 0x1F1 JUMP JUMPDEST JUMPDEST DUP2 MSTORE PUSH1 0x20 ADD SWAP1 DUP2 MSTORE PUSH1 0x20 ADD PUSH1 0x0 KECCAK256 DUP2 SWAP1 SSTORE POP PUSH3 0x220 JUMP JUMPDEST PUSH32 0x4E487B7100000000000000000000000000000000000000000000000000000000 PUSH1 0x0 MSTORE PUSH1 0x21 PUSH1 0x4 MSTORE PUSH1 0x24 PUSH1 0x0 REVERT JUMPDEST PUSH2 0x1AD2 DUP1 PUSH3 0x230 PUSH1 0x0 CODECOPY PUSH1 0x0 RETURN INVALID PUSH1 0x80 PUSH1 0x40 MSTORE PUSH1 0x4 CALLDATASIZE LT PUSH2 0x34 JUMPI PUSH1 0x0 CALLDATALOAD PUSH1 0xE0 SHR DUP1 PUSH4 0xA284CB6 EQ PUSH2 0x39 JUMPI DUP1 PUSH4 0x82B562AA EQ PUSH2 0x76 JUMPI DUP1 PUSH4 0xA1A79CDE EQ PUSH2 0xB3 JUMPI JUMPDEST PUSH1 0x0 DUP1 REVERT JUMPDEST CALLVALUE DUP1 ISZERO PUSH2 0x45 JUMPI PUSH1 0x0 DUP1 REVERT JUMPDEST POP PUSH2 0x60 PUSH1 0x4 DUP1 CALLDATASIZE SUB DUP2 ADD SWAP1 PUSH2 0x5B SWAP2 SWAP1 PUSH2 0xDD2 JUMP JUMPDEST PUSH2 0xE3 JUMP JUMPDEST PUSH1 0x40 MLOAD PUSH2 0x6D SWAP2 SWAP1 PUSH2 0xE4A JUMP JUMPDEST PUSH1 0x40 MLOAD DUP1 SWAP2 SUB SWAP1 RETURN JUMPDEST CALLVALUE DUP1 ISZERO PUSH2 0x82 JUMPI PUSH1 0x0 DUP1 REVERT JUMPDEST POP PUSH2 0x9D PUSH1 0x4 DUP1 CALLDATASIZE SUB DUP2 ADD SWAP1 PUSH2 0x98 SWAP2 SWAP1 PUSH2 0xE91 JUMP JUMPDEST PUSH2 0x165 JUMP JUMPDEST PUSH1 0x40 MLOAD PUSH2 0xAA SWAP2 SWAP1 PUSH2 0xEFD JUMP JUMPDEST PUSH1 0x40 MLOAD DUP1 SWAP2 SUB SWAP1 RETURN JUMPDEST PUSH2 0xCD PUSH1 0x4 DUP1 CALLDATASIZE SUB DUP2 ADD SWAP1 PUSH2 0xC8 SWAP2 SWAP1 PUSH2 0xFF5 JUMP JUMPDEST PUSH2 0x1D3 JUMP JUMPDEST PUSH1 0x40 MLOAD PUSH2 0xDA SWAP2 SWAP1 PUSH2 0x10D3 JUMP JUMPDEST PUSH1 0x40 MLOAD DUP1 SWAP2 SUB SWAP1 RETURN JUMPDEST PUSH1 0x0 DUP1 PUSH1 0x0 PUSH2 0xF4 DUP6 PUSH1 0x0 DUP7 PUSH2 0x32A JUMP JUMPDEST SWAP3 POP POP SWAP2 POP PUSH1 0x16 PUSH1 0x3 SIGNEXTEND DUP3 EQ PUSH2 0x13F JUMPI PUSH1 0x40 MLOAD PUSH32 0x8C379A000000000000000000000000000000000000000000000000000000000 DUP2 MSTORE PUSH1 0x4 ADD PUSH2 0x136 SWAP1 PUSH2 0x1171 JUMP JUMPDEST PUSH1 0x40 MLOAD DUP1 SWAP2 SUB SWAP1 REVERT JUMPDEST DUP1 PUSH1 0x0 DUP2 MLOAD DUP2 LT PUSH2 0x153 JUMPI PUSH2 0x152 PUSH2 0x1191 JUMP JUMPDEST JUMPDEST PUSH1 0x20 MUL PUSH1 0x20 ADD ADD MLOAD SWAP3 POP POP POP SWAP3 SWAP2 POP POP JUMP JUMPDEST PUSH1 0x0 PUSH2 0x171 DUP4 DUP6 PUSH2 0x4A2 JUMP JUMPDEST POP PUSH1 0x0 PUSH2 0x180 DUP6 ADDRESS DUP7 DUP7 PUSH2 0x5BA JUMP JUMPDEST SWAP1 POP PUSH1 0x16 PUSH1 0x3 SIGNEXTEND DUP2 EQ PUSH2 0x1C8 JUMPI PUSH1 0x40 MLOAD PUSH32 0x8C379A000000000000000000000000000000000000000000000000000000000 DUP2 MSTORE PUSH1 0x4 ADD PUSH2 0x1BF SWAP1 PUSH2 0x1232 JUMP JUMPDEST PUSH1 0x40 MLOAD DUP1 SWAP2 SUB SWAP1 REVERT JUMPDEST DUP1 SWAP2 POP POP SWAP4 SWAP3 POP POP POP JUMP JUMPDEST PUSH1 0x0 DUP1 PUSH1 0x1 PUSH8 0xFFFFFFFFFFFFFFFF DUP2 GT ISZERO PUSH2 0x1F1 JUMPI PUSH2 0x1F0 PUSH2 0xBBC JUMP JUMPDEST JUMPDEST PUSH1 0x40 MLOAD SWAP1 DUP1 DUP3 MSTORE DUP1 PUSH1 0x20 MUL PUSH1 0x20 ADD DUP3 ADD PUSH1 0x40 MSTORE DUP1 ISZERO PUSH2 0x22A JUMPI DUP2 PUSH1 0x20 ADD JUMPDEST PUSH2 0x217 PUSH2 0xA02 JUMP JUMPDEST DUP2 MSTORE PUSH1 0x20 ADD SWAP1 PUSH1 0x1 SWAP1 SUB SWAP1 DUP2 PUSH2 0x20F JUMPI SWAP1 POP JUMPDEST POP SWAP1 POP PUSH2 0x23A PUSH1 0x4 PUSH1 0x1 ADDRESS PUSH2 0x6D8 JUMP JUMPDEST DUP2 PUSH1 0x0 DUP2 MLOAD DUP2 LT PUSH2 0x24E JUMPI PUSH2 0x24D PUSH2 0x1191 JUMP JUMPDEST JUMPDEST PUSH1 0x20 MUL PUSH1 0x20 ADD ADD DUP2 SWAP1 MSTORE POP PUSH2 0x261 PUSH2 0xA22 JUMP JUMPDEST DUP8 DUP2 PUSH1 0x0 ADD DUP2 SWAP1 MSTORE POP DUP7 DUP2 PUSH1 0x20 ADD DUP2 SWAP1 MSTORE POP DUP6 DUP2 PUSH1 0x60 ADD DUP2 SWAP1 MSTORE POP ADDRESS DUP2 PUSH1 0x40 ADD SWAP1 PUSH20 0xFFFFFFFFFFFFFFFFFFFFFFFFFFFFFFFFFFFFFFFF AND SWAP1 DUP2 PUSH20 0xFFFFFFFFFFFFFFFFFFFFFFFFFFFFFFFFFFFFFFFF AND DUP2 MSTORE POP POP PUSH1 0x1 DUP2 PUSH1 0x80 ADD SWAP1 ISZERO ISZERO SWAP1 DUP2 ISZERO ISZERO DUP2 MSTORE POP POP DUP5 DUP2 PUSH1 0xA0 ADD SWAP1 PUSH4 0xFFFFFFFF AND SWAP1 DUP2 PUSH4 0xFFFFFFFF AND DUP2 MSTORE POP POP DUP2 DUP2 PUSH1 0xE0 ADD DUP2 SWAP1 MSTORE POP PUSH1 0x0 DUP2 PUSH1 0xC0 ADD SWAP1 ISZERO ISZERO SWAP1 DUP2 ISZERO ISZERO DUP2 MSTORE POP POP PUSH2 0x301 ADDRESS DUP6 PUSH2 0x70F JUMP JUMPDEST DUP2 PUSH2 0x100 ADD DUP2 SWAP1 MSTORE POP PUSH1 0x0 DUP1 PUSH2 0x316 DUP4 PUSH2 0x76D JUMP JUMPDEST SWAP2 POP SWAP2 POP DUP1 SWAP5 POP POP POP POP POP SWAP6 SWAP5 POP POP POP POP POP JUMP JUMPDEST PUSH1 0x0 DUP1 PUSH1 0x60 PUSH1 0x0 DUP1 PUSH2 0x167 PUSH20 0xFFFFFFFFFFFFFFFFFFFFFFFFFFFFFFFFFFFFFFFF AND PUSH4 0x278E0B88 PUSH1 0xE0 SHL DUP10 DUP10 DUP10 PUSH1 0x40 MLOAD PUSH1 0x24 ADD PUSH2 0x368 SWAP4 SWAP3 SWAP2 SWAP1 PUSH2 0x13B6 JUMP JUMPDEST PUSH1 0x40 MLOAD PUSH1 0x20 DUP2 DUP4 SUB SUB DUP2 MSTORE SWAP1 PUSH1 0x40 MSTORE SWAP1 PUSH28 0xFFFFFFFFFFFFFFFFFFFFFFFFFFFFFFFFFFFFFFFFFFFFFFFFFFFFFFFF NOT AND PUSH1 0x20 DUP3 ADD DUP1 MLOAD PUSH28 0xFFFFFFFFFFFFFFFFFFFFFFFFFFFFFFFFFFFFFFFFFFFFFFFFFFFFFFFF DUP4 DUP2 DUP4 AND OR DUP4 MSTORE POP POP POP POP PUSH1 0x40 MLOAD PUSH2 0x3D2 SWAP2 SWAP1 PUSH2 0x1430 JUMP JUMPDEST PUSH1 0x0 PUSH1 0x40 MLOAD DUP1 DUP4 SUB DUP2 PUSH1 0x0 DUP7 GAS CALL SWAP2 POP POP RETURNDATASIZE DUP1 PUSH1 0x0 DUP2 EQ PUSH2 0x40F JUMPI PUSH1 0x40 MLOAD SWAP2 POP PUSH1 0x1F NOT PUSH1 0x3F RETURNDATASIZE ADD AND DUP3 ADD PUSH1 0x40 MSTORE RETURNDATASIZE DUP3 MSTORE RETURNDATASIZE PUSH1 0x0 PUSH1 0x20 DUP5 ADD RETURNDATACOPY PUSH2 0x414 JUMP JUMPDEST PUSH1 0x60 SWAP2 POP JUMPDEST POP SWAP2 POP SWAP2 POP DUP2 PUSH2 0x470 JUMPI PUSH1 0x15 PUSH1 0x0 DUP1 PUSH8 0xFFFFFFFFFFFFFFFF DUP2 GT ISZERO PUSH2 0x43C JUMPI PUSH2 0x43B PUSH2 0xBBC JUMP JUMPDEST JUMPDEST PUSH1 0x40 MLOAD SWAP1 DUP1 DUP3 MSTORE DUP1 PUSH1 0x20 MUL PUSH1 0x20 ADD DUP3 ADD PUSH1 0x40 MSTORE DUP1 ISZERO PUSH2 0x46A JUMPI DUP2 PUSH1 0x20 ADD PUSH1 0x20 DUP3 MUL DUP1 CALLDATASIZE DUP4 CALLDATACOPY DUP1 DUP3 ADD SWAP2 POP POP SWAP1 POP JUMPDEST POP PUSH2 0x485 JUMP JUMPDEST DUP1 DUP1 PUSH1 0x20 ADD SWAP1 MLOAD DUP2 ADD SWAP1 PUSH2 0x484 SWAP2 SWAP1 PUSH2 0x1584 JUMP JUMPDEST JUMPDEST DUP3 PUSH1 0x3 SIGNEXTEND SWAP3 POP DUP1 SWAP6 POP DUP2 SWAP7 POP DUP3 SWAP8 POP POP POP POP POP POP SWAP4 POP SWAP4 POP SWAP4 SWAP1 POP JUMP JUMPDEST PUSH1 0x0 DUP1 PUSH1 0x0 PUSH2 0x167 PUSH20 0xFFFFFFFFFFFFFFFFFFFFFFFFFFFFFFFFFFFFFFFF AND PUSH4 0x49146BDE PUSH1 0xE0 SHL DUP7 DUP7 PUSH1 0x40 MLOAD PUSH1 0x24 ADD PUSH2 0x4DB SWAP3 SWAP2 SWAP1 PUSH2 0x15F3 JUMP JUMPDEST PUSH1 0x40 MLOAD PUSH1 0x20 DUP2 DUP4 SUB SUB DUP2 MSTORE SWAP1 PUSH1 0x40 MSTORE SWAP1 PUSH28 0xFFFFFFFFFFFFFFFFFFFFFFFFFFFFFFFFFFFFFFFFFFFFFFFFFFFFFFFF NOT AND PUSH1 0x20 DUP3 ADD DUP1 MLOAD PUSH28 0xFFFFFFFFFFFFFFFFFFFFFFFFFFFFFFFFFFFFFFFFFFFFFFFFFFFFFFFF DUP4 DUP2 DUP4 AND OR DUP4 MSTORE POP POP POP POP PUSH1 0x40 MLOAD PUSH2 0x545 SWAP2 SWAP1 PUSH2 0x1430 JUMP JUMPDEST PUSH1 0x0 PUSH1 0x40 MLOAD DUP1 DUP4 SUB DUP2 PUSH1 0x0 DUP7 GAS CALL SWAP2 POP POP RETURNDATASIZE DUP1 PUSH1 0x0 DUP2 EQ PUSH2 0x582 JUMPI PUSH1 0x40 MLOAD SWAP2 POP PUSH1 0x1F NOT PUSH1 0x3F RETURNDATASIZE ADD AND DUP3 ADD PUSH1 0x40 MSTORE RETURNDATASIZE DUP3 MSTORE RETURNDATASIZE PUSH1 0x0 PUSH1 0x20 DUP5 ADD RETURNDATACOPY PUSH2 0x587 JUMP JUMPDEST PUSH1 0x60 SWAP2 POP JUMPDEST POP SWAP2 POP SWAP2 POP DUP2 PUSH2 0x598 JUMPI PUSH1 0x15 PUSH2 0x5AD JUMP JUMPDEST DUP1 DUP1 PUSH1 0x20 ADD SWAP1 MLOAD DUP2 ADD SWAP1 PUSH2 0x5AC SWAP2 SWAP1 PUSH2 0x161C JUMP JUMPDEST JUMPDEST PUSH1 0x3 SIGNEXTEND SWAP3 POP POP POP SWAP3 SWAP2 POP POP JUMP JUMPDEST PUSH1 0x0 DUP1 PUSH1 0x0 PUSH2 0x167 PUSH20 0xFFFFFFFFFFFFFFFFFFFFFFFFFFFFFFFFFFFFFFFF AND PUSH4 0x5CFC9011 PUSH1 0xE0 SHL DUP9 DUP9 DUP9 DUP9 PUSH1 0x40 MLOAD PUSH1 0x24 ADD PUSH2 0x5F7 SWAP5 SWAP4 SWAP3 SWAP2 SWAP1 PUSH2 0x1649 JUMP JUMPDEST PUSH1 0x40 MLOAD PUSH1 0x20 DUP2 DUP4 SUB SUB DUP2 MSTORE SWAP1 PUSH1 0x40 MSTORE SWAP1 PUSH28 0xFFFFFFFFFFFFFFFFFFFFFFFFFFFFFFFFFFFFFFFFFFFFFFFFFFFFFFFF NOT AND PUSH1 0x20 DUP3 ADD DUP1 MLOAD PUSH28 0xFFFFFFFFFFFFFFFFFFFFFFFFFFFFFFFFFFFFFFFFFFFFFFFFFFFFFFFF DUP4 DUP2 DUP4 AND OR DUP4 MSTORE POP POP POP POP PUSH1 0x40 MLOAD PUSH2 0x661 SWAP2 SWAP1 PUSH2 0x1430 JUMP JUMPDEST PUSH1 0x0 PUSH1 0x40 MLOAD DUP1 DUP4 SUB DUP2 PUSH1 0x0 DUP7 GAS CALL SWAP2 POP POP RETURNDATASIZE DUP1 PUSH1 0x0 DUP2 EQ PUSH2 0x69E JUMPI PUSH1 0x40 MLOAD SWAP2 POP PUSH1 0x1F NOT PUSH1 0x3F RETURNDATASIZE ADD AND DUP3 ADD PUSH1 0x40 MSTORE RETURNDATASIZE DUP3 MSTORE RETURNDATASIZE PUSH1 0x0 PUSH1 0x20 DUP5 ADD RETURNDATACOPY PUSH2 0x6A3 JUMP JUMPDEST PUSH1 0x60 SWAP2 POP JUMPDEST POP SWAP2 POP SWAP2 POP DUP2 PUSH2 0x6B4 JUMPI PUSH1 0x15 PUSH2 0x6C9 JUMP JUMPDEST DUP1 DUP1 PUSH1 0x20 ADD SWAP1 MLOAD DUP2 ADD SWAP1 PUSH2 0x6C8 SWAP2 SWAP1 PUSH2 0x161C JUMP JUMPDEST JUMPDEST PUSH1 0x3 SIGNEXTEND SWAP3 POP POP POP SWAP5 SWAP4 POP POP POP POP JUMP JUMPDEST PUSH2 0x6E0 PUSH2 0xA02 JUMP JUMPDEST PUSH1 0x40 MLOAD DUP1 PUSH1 0x40 ADD PUSH1 0x40 MSTORE DUP1 PUSH2 0x6F4 DUP7 PUSH2 0x8E5 JUMP JUMPDEST DUP2 MSTORE PUSH1 0x20 ADD PUSH2 0x703 DUP6 DUP6 PUSH2 0x926 JUMP JUMPDEST DUP2 MSTORE POP SWAP1 POP SWAP4 SWAP3 POP POP POP JUMP JUMPDEST PUSH2 0x717 PUSH2 0xA94 JUMP JUMPDEST DUP3 DUP2 PUSH1 0x20 ADD SWAP1 PUSH20 0xFFFFFFFFFFFFFFFFFFFFFFFFFFFFFFFFFFFFFFFF AND SWAP1 DUP2 PUSH20 0xFFFFFFFFFFFFFFFFFFFFFFFFFFFFFFFFFFFFFFFF AND DUP2 MSTORE POP POP DUP2 DUP2 PUSH1 0x40 ADD SWAP1 PUSH4 0xFFFFFFFF AND SWAP1 DUP2 PUSH4 0xFFFFFFFF AND DUP2 MSTORE POP POP SWAP3 SWAP2 POP POP JUMP JUMPDEST PUSH1 0x0 DUP1 DUP3 PUSH1 0x0 DUP2 PUSH2 0x100 ADD MLOAD PUSH1 0x0 ADD MLOAD PUSH4 0xFFFFFFFF AND EQ DUP1 ISZERO PUSH2 0x79F JUMPI POP PUSH1 0x0 DUP2 PUSH2 0x100 ADD MLOAD PUSH1 0x40 ADD MLOAD PUSH4 0xFFFFFFFF AND EQ JUMPDEST ISZERO PUSH2 0x7C5 JUMPI PUSH3 0x76A700 DUP2 PUSH2 0x100 ADD MLOAD PUSH1 0x40 ADD SWAP1 PUSH4 0xFFFFFFFF AND SWAP1 DUP2 PUSH4 0xFFFFFFFF AND DUP2 MSTORE POP POP JUMPDEST PUSH1 0x0 DUP1 PUSH2 0x167 PUSH20 0xFFFFFFFFFFFFFFFFFFFFFFFFFFFFFFFFFFFFFFFF AND CALLVALUE PUSH4 0x9DC711E0 PUSH1 0xE0 SHL DUP9 PUSH1 0x40 MLOAD PUSH1 0x24 ADD PUSH2 0x7FB SWAP2 SWAP1 PUSH2 0x19CD JUMP JUMPDEST PUSH1 0x40 MLOAD PUSH1 0x20 DUP2 DUP4 SUB SUB DUP2 MSTORE SWAP1 PUSH1 0x40 MSTORE SWAP1 PUSH28 0xFFFFFFFFFFFFFFFFFFFFFFFFFFFFFFFFFFFFFFFFFFFFFFFFFFFFFFFF NOT AND PUSH1 0x20 DUP3 ADD DUP1 MLOAD PUSH28 0xFFFFFFFFFFFFFFFFFFFFFFFFFFFFFFFFFFFFFFFFFFFFFFFFFFFFFFFF DUP4 DUP2 DUP4 AND OR DUP4 MSTORE POP POP POP POP PUSH1 0x40 MLOAD PUSH2 0x865 SWAP2 SWAP1 PUSH2 0x1430 JUMP JUMPDEST PUSH1 0x0 PUSH1 0x40 MLOAD DUP1 DUP4 SUB DUP2 DUP6 DUP8 GAS CALL SWAP3 POP POP POP RETURNDATASIZE DUP1 PUSH1 0x0 DUP2 EQ PUSH2 0x8A2 JUMPI PUSH1 0x40 MLOAD SWAP2 POP PUSH1 0x1F NOT PUSH1 0x3F RETURNDATASIZE ADD AND DUP3 ADD PUSH1 0x40 MSTORE RETURNDATASIZE DUP3 MSTORE RETURNDATASIZE PUSH1 0x0 PUSH1 0x20 DUP5 ADD RETURNDATACOPY PUSH2 0x8A7 JUMP JUMPDEST PUSH1 0x60 SWAP2 POP JUMPDEST POP SWAP2 POP SWAP2 POP DUP2 PUSH2 0x8BA JUMPI PUSH1 0x15 PUSH1 0x0 PUSH2 0x8CF JUMP JUMPDEST DUP1 DUP1 PUSH1 0x20 ADD SWAP1 MLOAD DUP2 ADD SWAP1 PUSH2 0x8CE SWAP2 SWAP1 PUSH2 0x1A2D JUMP JUMPDEST JUMPDEST DUP2 PUSH1 0x3 SIGNEXTEND SWAP2 POP DUP1 SWAP6 POP DUP2 SWAP7 POP POP POP POP POP POP SWAP2 POP SWAP2 JUMP JUMPDEST PUSH1 0x0 PUSH1 0x1 PUSH1 0x0 DUP4 PUSH1 0x6 DUP2 GT ISZERO PUSH2 0x8FE JUMPI PUSH2 0x8FD PUSH2 0x1A6D JUMP JUMPDEST JUMPDEST PUSH1 0x6 DUP2 GT ISZERO PUSH2 0x910 JUMPI PUSH2 0x90F PUSH2 0x1A6D JUMP JUMPDEST JUMPDEST DUP2 MSTORE PUSH1 0x20 ADD SWAP1 DUP2 MSTORE PUSH1 0x20 ADD PUSH1 0x0 KECCAK256 SLOAD SWAP1 POP SWAP2 SWAP1 POP JUMP JUMPDEST PUSH2 0x92E PUSH2 0xAD7 JUMP JUMPDEST PUSH1 0x1 PUSH1 0x4 DUP2 GT ISZERO PUSH2 0x942 JUMPI PUSH2 0x941 PUSH2 0x1A6D JUMP JUMPDEST JUMPDEST DUP4 PUSH1 0x4 DUP2 GT ISZERO PUSH2 0x955 JUMPI PUSH2 0x954 PUSH2 0x1A6D JUMP JUMPDEST JUMPDEST SUB PUSH2 0x997 JUMPI DUP2 DUP2 PUSH1 0x20 ADD SWAP1 PUSH20 0xFFFFFFFFFFFFFFFFFFFFFFFFFFFFFFFFFFFFFFFF AND SWAP1 DUP2 PUSH20 0xFFFFFFFFFFFFFFFFFFFFFFFFFFFFFFFFFFFFFFFF AND DUP2 MSTORE POP POP PUSH2 0x9FC JUMP JUMPDEST PUSH1 0x4 DUP1 DUP2 GT ISZERO PUSH2 0x9AA JUMPI PUSH2 0x9A9 PUSH2 0x1A6D JUMP JUMPDEST JUMPDEST DUP4 PUSH1 0x4 DUP2 GT ISZERO PUSH2 0x9BD JUMPI PUSH2 0x9BC PUSH2 0x1A6D JUMP JUMPDEST JUMPDEST SUB PUSH2 0x9FB JUMPI DUP2 DUP2 PUSH1 0x80 ADD SWAP1 PUSH20 0xFFFFFFFFFFFFFFFFFFFFFFFFFFFFFFFFFFFFFFFF AND SWAP1 DUP2 PUSH20 0xFFFFFFFFFFFFFFFFFFFFFFFFFFFFFFFFFFFFFFFF AND DUP2 MSTORE POP POP JUMPDEST JUMPDEST SWAP3 SWAP2 POP POP JUMP JUMPDEST PUSH1 0x40 MLOAD DUP1 PUSH1 0x40 ADD PUSH1 0x40 MSTORE DUP1 PUSH1 0x0 DUP2 MSTORE PUSH1 0x20 ADD PUSH2 0xA1C PUSH2 0xAD7 JUMP JUMPDEST DUP2 MSTORE POP SWAP1 JUMP JUMPDEST PUSH1 0x40 MLOAD DUP1 PUSH2 0x120 ADD PUSH1 0x40 MSTORE DUP1 PUSH1 0x60 DUP2 MSTORE PUSH1 0x20 ADD PUSH1 0x60 DUP2 MSTORE PUSH1 0x20 ADD PUSH1 0x0 PUSH20 0xFFFFFFFFFFFFFFFFFFFFFFFFFFFFFFFFFFFFFFFF AND DUP2 MSTORE PUSH1 0x20 ADD PUSH1 0x60 DUP2 MSTORE PUSH1 0x20 ADD PUSH1 0x0 ISZERO ISZERO DUP2 MSTORE PUSH1 0x20 ADD PUSH1 0x0 PUSH4 0xFFFFFFFF AND DUP2 MSTORE PUSH1 0x20 ADD PUSH1 0x0 ISZERO ISZERO DUP2 MSTORE PUSH1 0x20 ADD PUSH1 0x60 DUP2 MSTORE PUSH1 0x20 ADD PUSH2 0xA8E PUSH2 0xA94 JUMP JUMPDEST DUP2 MSTORE POP SWAP1 JUMP JUMPDEST PUSH1 0x40 MLOAD DUP1 PUSH1 0x60 ADD PUSH1 0x40 MSTORE DUP1 PUSH1 0x0 PUSH4 0xFFFFFFFF AND DUP2 MSTORE PUSH1 0x20 ADD PUSH1 0x0 PUSH20 0xFFFFFFFFFFFFFFFFFFFFFFFFFFFFFFFFFFFFFFFF AND DUP2 MSTORE PUSH1 0x20 ADD PUSH1 0x0 PUSH4 0xFFFFFFFF AND DUP2 MSTORE POP SWAP1 JUMP JUMPDEST PUSH1 0x40 MLOAD DUP1 PUSH1 0xA0 ADD PUSH1 0x40 MSTORE DUP1 PUSH1 0x0 ISZERO ISZERO DUP2 MSTORE PUSH1 0x20 ADD PUSH1 0x0 PUSH20 0xFFFFFFFFFFFFFFFFFFFFFFFFFFFFFFFFFFFFFFFF AND DUP2 MSTORE PUSH1 0x20 ADD PUSH1 0x60 DUP2 MSTORE PUSH1 0x20 ADD PUSH1 0x60 DUP2 MSTORE PUSH1 0x20 ADD PUSH1 0x0 PUSH20 0xFFFFFFFFFFFFFFFFFFFFFFFFFFFFFFFFFFFFFFFF AND DUP2 MSTORE POP SWAP1 JUMP JUMPDEST PUSH1 0x0 PUSH1 0x40 MLOAD SWAP1 POP SWAP1 JUMP JUMPDEST PUSH1 0x0 DUP1 REVERT JUMPDEST PUSH1 0x0 DUP1 REVERT JUMPDEST PUSH1 0x0 PUSH20 0xFFFFFFFFFFFFFFFFFFFFFFFFFFFFFFFFFFFFFFFF DUP3 AND SWAP1 POP SWAP2 SWAP1 POP JUMP JUMPDEST PUSH1 0x0 PUSH2 0xB73 DUP3 PUSH2 0xB48 JUMP JUMPDEST SWAP1 POP SWAP2 SWAP1 POP JUMP JUMPDEST PUSH2 0xB83 DUP2 PUSH2 0xB68 JUMP JUMPDEST DUP2 EQ PUSH2 0xB8E JUMPI PUSH1 0x0 DUP1 REVERT JUMPDEST POP JUMP JUMPDEST PUSH1 0x0 DUP2 CALLDATALOAD SWAP1 POP PUSH2 0xBA0 DUP2 PUSH2 0xB7A JUMP JUMPDEST SWAP3 SWAP2 POP POP JUMP JUMPDEST PUSH1 0x0 DUP1 REVERT JUMPDEST PUSH1 0x0 PUSH1 0x1F NOT PUSH1 0x1F DUP4 ADD AND SWAP1 POP SWAP2 SWAP1 POP JUMP JUMPDEST PUSH32 0x4E487B7100000000000000000000000000000000000000000000000000000000 PUSH1 0x0 MSTORE PUSH1 0x41 PUSH1 0x4 MSTORE PUSH1 0x24 PUSH1 0x0 REVERT JUMPDEST PUSH2 0xBF4 DUP3 PUSH2 0xBAB JUMP JUMPDEST DUP2 ADD DUP2 DUP2 LT PUSH8 0xFFFFFFFFFFFFFFFF DUP3 GT OR ISZERO PUSH2 0xC13 JUMPI PUSH2 0xC12 PUSH2 0xBBC JUMP JUMPDEST JUMPDEST DUP1 PUSH1 0x40 MSTORE POP POP POP JUMP JUMPDEST PUSH1 0x0 PUSH2 0xC26 PUSH2 0xB34 JUMP JUMPDEST SWAP1 POP PUSH2 0xC32 DUP3 DUP3 PUSH2 0xBEB JUMP JUMPDEST SWAP2 SWAP1 POP JUMP JUMPDEST PUSH1 0x0 PUSH8 0xFFFFFFFFFFFFFFFF DUP3 GT ISZERO PUSH2 0xC52 JUMPI PUSH2 0xC51 PUSH2 0xBBC JUMP JUMPDEST JUMPDEST PUSH1 0x20 DUP3 MUL SWAP1 POP PUSH1 0x20 DUP2 ADD SWAP1 POP SWAP2 SWAP1 POP JUMP JUMPDEST PUSH1 0x0 DUP1 REVERT JUMPDEST PUSH1 0x0 DUP1 REVERT JUMPDEST PUSH1 0x0 PUSH8 0xFFFFFFFFFFFFFFFF DUP3 GT ISZERO PUSH2 0xC88 JUMPI PUSH2 0xC87 PUSH2 0xBBC JUMP JUMPDEST JUMPDEST PUSH2 0xC91 DUP3 PUSH2 0xBAB JUMP JUMPDEST SWAP1 POP PUSH1 0x20 DUP2 ADD SWAP1 POP SWAP2 SWAP1 POP JUMP JUMPDEST DUP3 DUP2 DUP4 CALLDATACOPY PUSH1 0x0 DUP4 DUP4 ADD MSTORE POP POP POP JUMP JUMPDEST PUSH1 0x0 PUSH2 0xCC0 PUSH2 0xCBB DUP5 PUSH2 0xC6D JUMP JUMPDEST PUSH2 0xC1C JUMP JUMPDEST SWAP1 POP DUP3 DUP2 MSTORE PUSH1 0x20 DUP2 ADD DUP5 DUP5 DUP5 ADD GT ISZERO PUSH2 0xCDC JUMPI PUSH2 0xCDB PUSH2 0xC68 JUMP JUMPDEST JUMPDEST PUSH2 0xCE7 DUP5 DUP3 DUP6 PUSH2 0xC9E JUMP JUMPDEST POP SWAP4 SWAP3 POP POP POP JUMP JUMPDEST PUSH1 0x0 DUP3 PUSH1 0x1F DUP4 ADD SLT PUSH2 0xD04 JUMPI PUSH2 0xD03 PUSH2 0xBA6 JUMP JUMPDEST JUMPDEST DUP2 CALLDATALOAD PUSH2 0xD14 DUP5 DUP3 PUSH1 0x20 DUP7 ADD PUSH2 0xCAD JUMP JUMPDEST SWAP2 POP POP SWAP3 SWAP2 POP POP JUMP JUMPDEST PUSH1 0x0 PUSH2 0xD30 PUSH2 0xD2B DUP5 PUSH2 0xC37 JUMP JUMPDEST PUSH2 0xC1C JUMP JUMPDEST SWAP1 POP DUP1 DUP4 DUP3 MSTORE PUSH1 0x20 DUP3 ADD SWAP1 POP PUSH1 0x20 DUP5 MUL DUP4 ADD DUP6 DUP2 GT ISZERO PUSH2 0xD53 JUMPI PUSH2 0xD52 PUSH2 0xC63 JUMP JUMPDEST JUMPDEST DUP4 JUMPDEST DUP2 DUP2 LT ISZERO PUSH2 0xD9A JUMPI DUP1 CALLDATALOAD PUSH8 0xFFFFFFFFFFFFFFFF DUP2 GT ISZERO PUSH2 0xD78 JUMPI PUSH2 0xD77 PUSH2 0xBA6 JUMP JUMPDEST JUMPDEST DUP1 DUP7 ADD PUSH2 0xD85 DUP10 DUP3 PUSH2 0xCEF JUMP JUMPDEST DUP6 MSTORE PUSH1 0x20 DUP6 ADD SWAP5 POP POP POP PUSH1 0x20 DUP2 ADD SWAP1 POP PUSH2 0xD55 JUMP JUMPDEST POP POP POP SWAP4 SWAP3 POP POP POP JUMP JUMPDEST PUSH1 0x0 DUP3 PUSH1 0x1F DUP4 ADD SLT PUSH2 0xDB9 JUMPI PUSH2 0xDB8 PUSH2 0xBA6 JUMP JUMPDEST JUMPDEST DUP2 CALLDATALOAD PUSH2 0xDC9 DUP5 DUP3 PUSH1 0x20 DUP7 ADD PUSH2 0xD1D JUMP JUMPDEST SWAP2 POP POP SWAP3 SWAP2 POP POP JUMP JUMPDEST PUSH1 0x0 DUP1 PUSH1 0x40 DUP4 DUP6 SUB SLT ISZERO PUSH2 0xDE9 JUMPI PUSH2 0xDE8 PUSH2 0xB3E JUMP JUMPDEST JUMPDEST PUSH1 0x0 PUSH2 0xDF7 DUP6 DUP3 DUP7 ADD PUSH2 0xB91 JUMP JUMPDEST SWAP3 POP POP PUSH1 0x20 DUP4 ADD CALLDATALOAD PUSH8 0xFFFFFFFFFFFFFFFF DUP2 GT ISZERO PUSH2 0xE18 JUMPI PUSH2 0xE17 PUSH2 0xB43 JUMP JUMPDEST JUMPDEST PUSH2 0xE24 DUP6 DUP3 DUP7 ADD PUSH2 0xDA4 JUMP JUMPDEST SWAP2 POP POP SWAP3 POP SWAP3 SWAP1 POP JUMP JUMPDEST PUSH1 0x0 DUP2 PUSH1 0x7 SIGNEXTEND SWAP1 POP SWAP2 SWAP1 POP JUMP JUMPDEST PUSH2 0xE44 DUP2 PUSH2 0xE2E JUMP JUMPDEST DUP3 MSTORE POP POP JUMP JUMPDEST PUSH1 0x0 PUSH1 0x20 DUP3 ADD SWAP1 POP PUSH2 0xE5F PUSH1 0x0 DUP4 ADD DUP5 PUSH2 0xE3B JUMP JUMPDEST SWAP3 SWAP2 POP POP JUMP JUMPDEST PUSH2 0xE6E DUP2 PUSH2 0xE2E JUMP JUMPDEST DUP2 EQ PUSH2 0xE79 JUMPI PUSH1 0x0 DUP1 REVERT JUMPDEST POP JUMP JUMPDEST PUSH1 0x0 DUP2 CALLDATALOAD SWAP1 POP PUSH2 0xE8B DUP2 PUSH2 0xE65 JUMP JUMPDEST SWAP3 SWAP2 POP POP JUMP JUMPDEST PUSH1 0x0 DUP1 PUSH1 0x0 PUSH1 0x60 DUP5 DUP7 SUB SLT ISZERO PUSH2 0xEAA JUMPI PUSH2 0xEA9 PUSH2 0xB3E JUMP JUMPDEST JUMPDEST PUSH1 0x0 PUSH2 0xEB8 DUP7 DUP3 DUP8 ADD PUSH2 0xB91 JUMP JUMPDEST SWAP4 POP POP PUSH1 0x20 PUSH2 0xEC9 DUP7 DUP3 DUP8 ADD PUSH2 0xB91 JUMP JUMPDEST SWAP3 POP POP PUSH1 0x40 PUSH2 0xEDA DUP7 DUP3 DUP8 ADD PUSH2 0xE7C JUMP JUMPDEST SWAP2 POP POP SWAP3 POP SWAP3 POP SWAP3 JUMP JUMPDEST PUSH1 0x0 DUP2 SWAP1 POP SWAP2 SWAP1 POP JUMP JUMPDEST PUSH2 0xEF7 DUP2 PUSH2 0xEE4 JUMP JUMPDEST DUP3 MSTORE POP POP JUMP JUMPDEST PUSH1 0x0 PUSH1 0x20 DUP3 ADD SWAP1 POP PUSH2 0xF12 PUSH1 0x0 DUP4 ADD DUP5 PUSH2 0xEEE JUMP JUMPDEST SWAP3 SWAP2 POP POP JUMP JUMPDEST PUSH1 0x0 PUSH8 0xFFFFFFFFFFFFFFFF DUP3 GT ISZERO PUSH2 0xF33 JUMPI PUSH2 0xF32 PUSH2 0xBBC JUMP JUMPDEST JUMPDEST PUSH2 0xF3C DUP3 PUSH2 0xBAB JUMP JUMPDEST SWAP1 POP PUSH1 0x20 DUP2 ADD SWAP1 POP SWAP2 SWAP1 POP JUMP JUMPDEST PUSH1 0x0 PUSH2 0xF5C PUSH2 0xF57 DUP5 PUSH2 0xF18 JUMP JUMPDEST PUSH2 0xC1C JUMP JUMPDEST SWAP1 POP DUP3 DUP2 MSTORE PUSH1 0x20 DUP2 ADD DUP5 DUP5 DUP5 ADD GT ISZERO PUSH2 0xF78 JUMPI PUSH2 0xF77 PUSH2 0xC68 JUMP JUMPDEST JUMPDEST PUSH2 0xF83 DUP5 DUP3 DUP6 PUSH2 0xC9E JUMP JUMPDEST POP SWAP4 SWAP3 POP POP POP JUMP JUMPDEST PUSH1 0x0 DUP3 PUSH1 0x1F DUP4 ADD SLT PUSH2 0xFA0 JUMPI PUSH2 0xF9F PUSH2 0xBA6 JUMP JUMPDEST JUMPDEST DUP2 CALLDATALOAD PUSH2 0xFB0 DUP5 DUP3 PUSH1 0x20 DUP7 ADD PUSH2 0xF49 JUMP JUMPDEST SWAP2 POP POP SWAP3 SWAP2 POP POP JUMP JUMPDEST PUSH1 0x0 PUSH4 0xFFFFFFFF DUP3 AND SWAP1 POP SWAP2 SWAP1 POP JUMP JUMPDEST PUSH2 0xFD2 DUP2 PUSH2 0xFB9 JUMP JUMPDEST DUP2 EQ PUSH2 0xFDD JUMPI PUSH1 0x0 DUP1 REVERT JUMPDEST POP JUMP JUMPDEST PUSH1 0x0 DUP2 CALLDATALOAD SWAP1 POP PUSH2 0xFEF DUP2 PUSH2 0xFC9 JUMP JUMPDEST SWAP3 SWAP2 POP POP JUMP JUMPDEST PUSH1 0x0 DUP1 PUSH1 0x0 DUP1 PUSH1 0x0 PUSH1 0xA0 DUP7 DUP9 SUB SLT ISZERO PUSH2 0x1011 JUMPI PUSH2 0x1010 PUSH2 0xB3E JUMP JUMPDEST JUMPDEST PUSH1 0x0 DUP7 ADD CALLDATALOAD PUSH8 0xFFFFFFFFFFFFFFFF DUP2 GT ISZERO PUSH2 0x102F JUMPI PUSH2 0x102E PUSH2 0xB43 JUMP JUMPDEST JUMPDEST PUSH2 0x103B DUP9 DUP3 DUP10 ADD PUSH2 0xF8B JUMP JUMPDEST SWAP6 POP POP PUSH1 0x20 DUP7 ADD CALLDATALOAD PUSH8 0xFFFFFFFFFFFFFFFF DUP2 GT ISZERO PUSH2 0x105C JUMPI PUSH2 0x105B PUSH2 0xB43 JUMP JUMPDEST JUMPDEST PUSH2 0x1068 DUP9 DUP3 DUP10 ADD PUSH2 0xF8B JUMP JUMPDEST SWAP5 POP POP PUSH1 0x40 DUP7 ADD CALLDATALOAD PUSH8 0xFFFFFFFFFFFFFFFF DUP2 GT ISZERO PUSH2 0x1089 JUMPI PUSH2 0x1088 PUSH2 0xB43 JUMP JUMPDEST JUMPDEST PUSH2 0x1095 DUP9 DUP3 DUP10 ADD PUSH2 0xF8B JUMP JUMPDEST SWAP4 POP POP PUSH1 0x60 PUSH2 0x10A6 DUP9 DUP3 DUP10 ADD PUSH2 0xFE0 JUMP JUMPDEST SWAP3 POP POP PUSH1 0x80 PUSH2 0x10B7 DUP9 DUP3 DUP10 ADD PUSH2 0xFE0 JUMP JUMPDEST SWAP2 POP POP SWAP3 SWAP6 POP SWAP3 SWAP6 SWAP1 SWAP4 POP JUMP JUMPDEST PUSH2 0x10CD DUP2 PUSH2 0xB68 JUMP JUMPDEST DUP3 MSTORE POP POP JUMP JUMPDEST PUSH1 0x0 PUSH1 0x20 DUP3 ADD SWAP1 POP PUSH2 0x10E8 PUSH1 0x0 DUP4 ADD DUP5 PUSH2 0x10C4 JUMP JUMPDEST SWAP3 SWAP2 POP POP JUMP JUMPDEST PUSH1 0x0 DUP3 DUP3 MSTORE PUSH1 0x20 DUP3 ADD SWAP1 POP SWAP3 SWAP2 POP POP JUMP JUMPDEST PUSH32 0x4661696C656420746F206D696E74206E6F6E2D66756E6769626C6520746F6B65 PUSH1 0x0 DUP3 ADD MSTORE PUSH32 0x6E00000000000000000000000000000000000000000000000000000000000000 PUSH1 0x20 DUP3 ADD MSTORE POP JUMP JUMPDEST PUSH1 0x0 PUSH2 0x115B PUSH1 0x21 DUP4 PUSH2 0x10EE JUMP JUMPDEST SWAP2 POP PUSH2 0x1166 DUP3 PUSH2 0x10FF JUMP JUMPDEST PUSH1 0x40 DUP3 ADD SWAP1 POP SWAP2 SWAP1 POP JUMP JUMPDEST PUSH1 0x0 PUSH1 0x20 DUP3 ADD SWAP1 POP DUP2 DUP2 SUB PUSH1 0x0 DUP4 ADD MSTORE PUSH2 0x118A DUP2 PUSH2 0x114E JUMP JUMPDEST SWAP1 POP SWAP2 SWAP1 POP JUMP JUMPDEST PUSH32 0x4E487B7100000000000000000000000000000000000000000000000000000000 PUSH1 0x0 MSTORE PUSH1 0x32 PUSH1 0x4 MSTORE PUSH1 0x24 PUSH1 0x0 REVERT JUMPDEST PUSH32 0x4661696C656420746F207472616E73666572206E6F6E2D66756E6769626C6520 PUSH1 0x0 DUP3 ADD MSTORE PUSH32 0x746F6B656E000000000000000000000000000000000000000000000000000000 PUSH1 0x20 DUP3 ADD MSTORE POP JUMP JUMPDEST PUSH1 0x0 PUSH2 0x121C PUSH1 0x25 DUP4 PUSH2 0x10EE JUMP JUMPDEST SWAP2 POP PUSH2 0x1227 DUP3 PUSH2 0x11C0 JUMP JUMPDEST PUSH1 0x40 DUP3 ADD SWAP1 POP SWAP2 SWAP1 POP JUMP JUMPDEST PUSH1 0x0 PUSH1 0x20 DUP3 ADD SWAP1 POP DUP2 DUP2 SUB PUSH1 0x0 DUP4 ADD MSTORE PUSH2 0x124B DUP2 PUSH2 0x120F JUMP JUMPDEST SWAP1 POP SWAP2 SWAP1 POP JUMP JUMPDEST PUSH1 0x0 PUSH8 0xFFFFFFFFFFFFFFFF DUP3 AND SWAP1 POP SWAP2 SWAP1 POP JUMP JUMPDEST PUSH2 0x126F DUP2 PUSH2 0x1252 JUMP JUMPDEST DUP3 MSTORE POP POP JUMP JUMPDEST PUSH1 0x0 DUP2 MLOAD SWAP1 POP SWAP2 SWAP1 POP JUMP JUMPDEST PUSH1 0x0 DUP3 DUP3 MSTORE PUSH1 0x20 DUP3 ADD SWAP1 POP SWAP3 SWAP2 POP POP JUMP JUMPDEST PUSH1 0x0 DUP2 SWAP1 POP PUSH1 0x20 DUP3 ADD SWAP1 POP SWAP2 SWAP1 POP JUMP JUMPDEST PUSH1 0x0 DUP2 MLOAD SWAP1 POP SWAP2 SWAP1 POP JUMP JUMPDEST PUSH1 0x0 DUP3 DUP3 MSTORE PUSH1 0x20 DUP3 ADD SWAP1 POP SWAP3 SWAP2 POP POP JUMP JUMPDEST PUSH1 0x0 JUMPDEST DUP4 DUP2 LT ISZERO PUSH2 0x12DB JUMPI DUP1 DUP3 ADD MLOAD DUP2 DUP5 ADD MSTORE PUSH1 0x20 DUP2 ADD SWAP1 POP PUSH2 0x12C0 JUMP JUMPDEST PUSH1 0x0 DUP5 DUP5 ADD MSTORE POP POP POP POP JUMP JUMPDEST PUSH1 0x0 PUSH2 0x12F2 DUP3 PUSH2 0x12A1 JUMP JUMPDEST PUSH2 0x12FC DUP2 DUP6 PUSH2 0x12AC JUMP JUMPDEST SWAP4 POP PUSH2 0x130C DUP2 DUP6 PUSH1 0x20 DUP7 ADD PUSH2 0x12BD JUMP JUMPDEST PUSH2 0x1315 DUP2 PUSH2 0xBAB JUMP JUMPDEST DUP5 ADD SWAP2 POP POP SWAP3 SWAP2 POP POP JUMP JUMPDEST PUSH1 0x0 PUSH2 0x132C DUP4 DUP4 PUSH2 0x12E7 JUMP JUMPDEST SWAP1 POP SWAP3 SWAP2 POP POP JUMP JUMPDEST PUSH1 0x0 PUSH1 0x20 DUP3 ADD SWAP1 POP SWAP2 SWAP1 POP JUMP JUMPDEST PUSH1 0x0 PUSH2 0x134C DUP3 PUSH2 0x1275 JUMP JUMPDEST PUSH2 0x1356 DUP2 DUP6 PUSH2 0x1280 JUMP JUMPDEST SWAP4 POP DUP4 PUSH1 0x20 DUP3 MUL DUP6 ADD PUSH2 0x1368 DUP6 PUSH2 0x1291 JUMP JUMPDEST DUP1 PUSH1 0x0 JUMPDEST DUP6 DUP2 LT ISZERO PUSH2 0x13A4 JUMPI DUP5 DUP5 SUB DUP10 MSTORE DUP2 MLOAD PUSH2 0x1385 DUP6 DUP3 PUSH2 0x1320 JUMP JUMPDEST SWAP5 POP PUSH2 0x1390 DUP4 PUSH2 0x1334 JUMP JUMPDEST SWAP3 POP PUSH1 0x20 DUP11 ADD SWAP10 POP POP PUSH1 0x1 DUP2 ADD SWAP1 POP PUSH2 0x136C JUMP JUMPDEST POP DUP3 SWAP8 POP DUP8 SWAP6 POP POP POP POP POP POP SWAP3 SWAP2 POP POP JUMP JUMPDEST PUSH1 0x0 PUSH1 0x60 DUP3 ADD SWAP1 POP PUSH2 0x13CB PUSH1 0x0 DUP4 ADD DUP7 PUSH2 0x10C4 JUMP JUMPDEST PUSH2 0x13D8 PUSH1 0x20 DUP4 ADD DUP6 PUSH2 0x1266 JUMP JUMPDEST DUP2 DUP2 SUB PUSH1 0x40 DUP4 ADD MSTORE PUSH2 0x13EA DUP2 DUP5 PUSH2 0x1341 JUMP JUMPDEST SWAP1 POP SWAP5 SWAP4 POP POP POP POP JUMP JUMPDEST PUSH1 0x0 DUP2 SWAP1 POP SWAP3 SWAP2 POP POP JUMP JUMPDEST PUSH1 0x0 PUSH2 0x140A DUP3 PUSH2 0x12A1 JUMP JUMPDEST PUSH2 0x1414 DUP2 DUP6 PUSH2 0x13F4 JUMP JUMPDEST SWAP4 POP PUSH2 0x1424 DUP2 DUP6 PUSH1 0x20 DUP7 ADD PUSH2 0x12BD JUMP JUMPDEST DUP1 DUP5 ADD SWAP2 POP POP SWAP3 SWAP2 POP POP JUMP JUMPDEST PUSH1 0x0 PUSH2 0x143C DUP3 DUP5 PUSH2 0x13FF JUMP JUMPDEST SWAP2 POP DUP2 SWAP1 POP SWAP3 SWAP2 POP POP JUMP JUMPDEST PUSH1 0x0 DUP2 PUSH1 0x3 SIGNEXTEND SWAP1 POP SWAP2 SWAP1 POP JUMP JUMPDEST PUSH2 0x145D DUP2 PUSH2 0x1447 JUMP JUMPDEST DUP2 EQ PUSH2 0x1468 JUMPI PUSH1 0x0 DUP1 REVERT JUMPDEST POP JUMP JUMPDEST PUSH1 0x0 DUP2 MLOAD SWAP1 POP PUSH2 0x147A DUP2 PUSH2 0x1454 JUMP JUMPDEST SWAP3 SWAP2 POP POP JUMP JUMPDEST PUSH2 0x1489 DUP2 PUSH2 0x1252 JUMP JUMPDEST DUP2 EQ PUSH2 0x1494 JUMPI PUSH1 0x0 DUP1 REVERT JUMPDEST POP JUMP JUMPDEST PUSH1 0x0 DUP2 MLOAD SWAP1 POP PUSH2 0x14A6 DUP2 PUSH2 0x1480 JUMP JUMPDEST SWAP3 SWAP2 POP POP JUMP JUMPDEST PUSH1 0x0 PUSH8 0xFFFFFFFFFFFFFFFF DUP3 GT ISZERO PUSH2 0x14C7 JUMPI PUSH2 0x14C6 PUSH2 0xBBC JUMP JUMPDEST JUMPDEST PUSH1 0x20 DUP3 MUL SWAP1 POP PUSH1 0x20 DUP2 ADD SWAP1 POP SWAP2 SWAP1 POP JUMP JUMPDEST PUSH1 0x0 DUP2 MLOAD SWAP1 POP PUSH2 0x14E7 DUP2 PUSH2 0xE65 JUMP JUMPDEST SWAP3 SWAP2 POP POP JUMP JUMPDEST PUSH1 0x0 PUSH2 0x1500 PUSH2 0x14FB DUP5 PUSH2 0x14AC JUMP JUMPDEST PUSH2 0xC1C JUMP JUMPDEST SWAP1 POP DUP1 DUP4 DUP3 MSTORE PUSH1 0x20 DUP3 ADD SWAP1 POP PUSH1 0x20 DUP5 MUL DUP4 ADD DUP6 DUP2 GT ISZERO PUSH2 0x1523 JUMPI PUSH2 0x1522 PUSH2 0xC63 JUMP JUMPDEST JUMPDEST DUP4 JUMPDEST DUP2 DUP2 LT ISZERO PUSH2 0x154C JUMPI DUP1 PUSH2 0x1538 DUP9 DUP3 PUSH2 0x14D8 JUMP JUMPDEST DUP5 MSTORE PUSH1 0x20 DUP5 ADD SWAP4 POP POP PUSH1 0x20 DUP2 ADD SWAP1 POP PUSH2 0x1525 JUMP JUMPDEST POP POP POP SWAP4 SWAP3 POP POP POP JUMP JUMPDEST PUSH1 0x0 DUP3 PUSH1 0x1F DUP4 ADD SLT PUSH2 0x156B JUMPI PUSH2 0x156A PUSH2 0xBA6 JUMP JUMPDEST JUMPDEST DUP2 MLOAD PUSH2 0x157B DUP5 DUP3 PUSH1 0x20 DUP7 ADD PUSH2 0x14ED JUMP JUMPDEST SWAP2 POP POP SWAP3 SWAP2 POP POP JUMP JUMPDEST PUSH1 0x0 DUP1 PUSH1 0x0 PUSH1 0x60 DUP5 DUP7 SUB SLT ISZERO PUSH2 0x159D JUMPI PUSH2 0x159C PUSH2 0xB3E JUMP JUMPDEST JUMPDEST PUSH1 0x0 PUSH2 0x15AB DUP7 DUP3 DUP8 ADD PUSH2 0x146B JUMP JUMPDEST SWAP4 POP POP PUSH1 0x20 PUSH2 0x15BC DUP7 DUP3 DUP8 ADD PUSH2 0x1497 JUMP JUMPDEST SWAP3 POP POP PUSH1 0x40 DUP5 ADD MLOAD PUSH8 0xFFFFFFFFFFFFFFFF DUP2 GT ISZERO PUSH2 0x15DD JUMPI PUSH2 0x15DC PUSH2 0xB43 JUMP JUMPDEST JUMPDEST PUSH2 0x15E9 DUP7 DUP3 DUP8 ADD PUSH2 0x1556 JUMP JUMPDEST SWAP2 POP POP SWAP3 POP SWAP3 POP SWAP3 JUMP JUMPDEST PUSH1 0x0 PUSH1 0x40 DUP3 ADD SWAP1 POP PUSH2 0x1608 PUSH1 0x0 DUP4 ADD DUP6 PUSH2 0x10C4 JUMP JUMPDEST PUSH2 0x1615 PUSH1 0x20 DUP4 ADD DUP5 PUSH2 0x10C4 JUMP JUMPDEST SWAP4 SWAP3 POP POP POP JUMP JUMPDEST PUSH1 0x0 PUSH1 0x20 DUP3 DUP5 SUB SLT ISZERO PUSH2 0x1632 JUMPI PUSH2 0x1631 PUSH2 0xB3E JUMP JUMPDEST JUMPDEST PUSH1 0x0 PUSH2 0x1640 DUP5 DUP3 DUP6 ADD PUSH2 0x146B JUMP JUMPDEST SWAP2 POP POP SWAP3 SWAP2 POP POP JUMP JUMPDEST PUSH1 0x0 PUSH1 0x80 DUP3 ADD SWAP1 POP PUSH2 0x165E PUSH1 0x0 DUP4 ADD DUP8 PUSH2 0x10C4 JUMP JUMPDEST PUSH2 0x166B PUSH1 0x20 DUP4 ADD DUP7 PUSH2 0x10C4 JUMP JUMPDEST PUSH2 0x1678 PUSH1 0x40 DUP4 ADD DUP6 PUSH2 0x10C4 JUMP JUMPDEST PUSH2 0x1685 PUSH1 0x60 DUP4 ADD DUP5 PUSH2 0xE3B JUMP JUMPDEST SWAP6 SWAP5 POP POP POP POP POP JUMP JUMPDEST PUSH1 0x0 DUP2 MLOAD SWAP1 POP SWAP2 SWAP1 POP JUMP JUMPDEST PUSH1 0x0 DUP3 DUP3 MSTORE PUSH1 0x20 DUP3 ADD SWAP1 POP SWAP3 SWAP2 POP POP JUMP JUMPDEST PUSH1 0x0 PUSH2 0x16B5 DUP3 PUSH2 0x168E JUMP JUMPDEST PUSH2 0x16BF DUP2 DUP6 PUSH2 0x1699 JUMP JUMPDEST SWAP4 POP PUSH2 0x16CF DUP2 DUP6 PUSH1 0x20 DUP7 ADD PUSH2 0x12BD JUMP JUMPDEST PUSH2 0x16D8 DUP2 PUSH2 0xBAB JUMP JUMPDEST DUP5 ADD SWAP2 POP POP SWAP3 SWAP2 POP POP JUMP JUMPDEST PUSH2 0x16EC DUP2 PUSH2 0xB68 JUMP JUMPDEST DUP3 MSTORE POP POP JUMP JUMPDEST PUSH1 0x0 DUP2 ISZERO ISZERO SWAP1 POP SWAP2 SWAP1 POP JUMP JUMPDEST PUSH2 0x1707 DUP2 PUSH2 0x16F2 JUMP JUMPDEST DUP3 MSTORE POP POP JUMP JUMPDEST PUSH2 0x1716 DUP2 PUSH2 0xFB9 JUMP JUMPDEST DUP3 MSTORE POP POP JUMP JUMPDEST PUSH1 0x0 DUP2 MLOAD SWAP1 POP SWAP2 SWAP1 POP JUMP JUMPDEST PUSH1 0x0 DUP3 DUP3 MSTORE PUSH1 0x20 DUP3 ADD SWAP1 POP SWAP3 SWAP2 POP POP JUMP JUMPDEST PUSH1 0x0 DUP2 SWAP1 POP PUSH1 0x20 DUP3 ADD SWAP1 POP SWAP2 SWAP1 POP JUMP JUMPDEST PUSH1 0x0 DUP2 SWAP1 POP SWAP2 SWAP1 POP JUMP JUMPDEST PUSH2 0x175B DUP2 PUSH2 0x1748 JUMP JUMPDEST DUP3 MSTORE POP POP JUMP JUMPDEST PUSH1 0x0 PUSH1 0xA0 DUP4 ADD PUSH1 0x0 DUP4 ADD MLOAD PUSH2 0x1779 PUSH1 0x0 DUP7 ADD DUP3 PUSH2 0x16FE JUMP JUMPDEST POP PUSH1 0x20 DUP4 ADD MLOAD PUSH2 0x178C PUSH1 0x20 DUP7 ADD DUP3 PUSH2 0x16E3 JUMP JUMPDEST POP PUSH1 0x40 DUP4 ADD MLOAD DUP5 DUP3 SUB PUSH1 0x40 DUP7 ADD MSTORE PUSH2 0x17A4 DUP3 DUP3 PUSH2 0x12E7 JUMP JUMPDEST SWAP2 POP POP PUSH1 0x60 DUP4 ADD MLOAD DUP5 DUP3 SUB PUSH1 0x60 DUP7 ADD MSTORE PUSH2 0x17BE DUP3 DUP3 PUSH2 0x12E7 JUMP JUMPDEST SWAP2 POP POP PUSH1 0x80 DUP4 ADD MLOAD PUSH2 0x17D3 PUSH1 0x80 DUP7 ADD DUP3 PUSH2 0x16E3 JUMP JUMPDEST POP DUP1 SWAP2 POP POP SWAP3 SWAP2 POP POP JUMP JUMPDEST PUSH1 0x0 PUSH1 0x40 DUP4 ADD PUSH1 0x0 DUP4 ADD MLOAD PUSH2 0x17F6 PUSH1 0x0 DUP7 ADD DUP3 PUSH2 0x1752 JUMP JUMPDEST POP PUSH1 0x20 DUP4 ADD MLOAD DUP5 DUP3 SUB PUSH1 0x20 DUP7 ADD MSTORE PUSH2 0x180E DUP3 DUP3 PUSH2 0x1761 JUMP JUMPDEST SWAP2 POP POP DUP1 SWAP2 POP POP SWAP3 SWAP2 POP POP JUMP JUMPDEST PUSH1 0x0 PUSH2 0x1827 DUP4 DUP4 PUSH2 0x17DE JUMP JUMPDEST SWAP1 POP SWAP3 SWAP2 POP POP JUMP JUMPDEST PUSH1 0x0 PUSH1 0x20 DUP3 ADD SWAP1 POP SWAP2 SWAP1 POP JUMP JUMPDEST PUSH1 0x0 PUSH2 0x1847 DUP3 PUSH2 0x171C JUMP JUMPDEST PUSH2 0x1851 DUP2 DUP6 PUSH2 0x1727 JUMP JUMPDEST SWAP4 POP DUP4 PUSH1 0x20 DUP3 MUL DUP6 ADD PUSH2 0x1863 DUP6 PUSH2 0x1738 JUMP JUMPDEST DUP1 PUSH1 0x0 JUMPDEST DUP6 DUP2 LT ISZERO PUSH2 0x189F JUMPI DUP5 DUP5 SUB DUP10 MSTORE DUP2 MLOAD PUSH2 0x1880 DUP6 DUP3 PUSH2 0x181B JUMP JUMPDEST SWAP5 POP PUSH2 0x188B DUP4 PUSH2 0x182F JUMP JUMPDEST SWAP3 POP PUSH1 0x20 DUP11 ADD SWAP10 POP POP PUSH1 0x1 DUP2 ADD SWAP1 POP PUSH2 0x1867 JUMP JUMPDEST POP DUP3 SWAP8 POP DUP8 SWAP6 POP POP POP POP POP POP SWAP3 SWAP2 POP POP JUMP JUMPDEST PUSH1 0x60 DUP3 ADD PUSH1 0x0 DUP3 ADD MLOAD PUSH2 0x18C7 PUSH1 0x0 DUP6 ADD DUP3 PUSH2 0x170D JUMP JUMPDEST POP PUSH1 0x20 DUP3 ADD MLOAD PUSH2 0x18DA PUSH1 0x20 DUP6 ADD DUP3 PUSH2 0x16E3 JUMP JUMPDEST POP PUSH1 0x40 DUP3 ADD MLOAD PUSH2 0x18ED PUSH1 0x40 DUP6 ADD DUP3 PUSH2 0x170D JUMP JUMPDEST POP POP POP POP JUMP JUMPDEST PUSH1 0x0 PUSH2 0x160 DUP4 ADD PUSH1 0x0 DUP4 ADD MLOAD DUP5 DUP3 SUB PUSH1 0x0 DUP7 ADD MSTORE PUSH2 0x1911 DUP3 DUP3 PUSH2 0x16AA JUMP JUMPDEST SWAP2 POP POP PUSH1 0x20 DUP4 ADD MLOAD DUP5 DUP3 SUB PUSH1 0x20 DUP7 ADD MSTORE PUSH2 0x192B DUP3 DUP3 PUSH2 0x16AA JUMP JUMPDEST SWAP2 POP POP PUSH1 0x40 DUP4 ADD MLOAD PUSH2 0x1940 PUSH1 0x40 DUP7 ADD DUP3 PUSH2 0x16E3 JUMP JUMPDEST POP PUSH1 0x60 DUP4 ADD MLOAD DUP5 DUP3 SUB PUSH1 0x60 DUP7 ADD MSTORE PUSH2 0x1958 DUP3 DUP3 PUSH2 0x16AA JUMP JUMPDEST SWAP2 POP POP PUSH1 0x80 DUP4 ADD MLOAD PUSH2 0x196D PUSH1 0x80 DUP7 ADD DUP3 PUSH2 0x16FE JUMP JUMPDEST POP PUSH1 0xA0 DUP4 ADD MLOAD PUSH2 0x1980 PUSH1 0xA0 DUP7 ADD DUP3 PUSH2 0x170D JUMP JUMPDEST POP PUSH1 0xC0 DUP4 ADD MLOAD PUSH2 0x1993 PUSH1 0xC0 DUP7 ADD DUP3 PUSH2 0x16FE JUMP JUMPDEST POP PUSH1 0xE0 DUP4 ADD MLOAD DUP5 DUP3 SUB PUSH1 0xE0 DUP7 ADD MSTORE PUSH2 0x19AB DUP3 DUP3 PUSH2 0x183C JUMP JUMPDEST SWAP2 POP POP PUSH2 0x100 DUP4 ADD MLOAD PUSH2 0x19C2 PUSH2 0x100 DUP7 ADD DUP3 PUSH2 0x18B1 JUMP JUMPDEST POP DUP1 SWAP2 POP POP SWAP3 SWAP2 POP POP JUMP JUMPDEST PUSH1 0x0 PUSH1 0x20 DUP3 ADD SWAP1 POP DUP2 DUP2 SUB PUSH1 0x0 DUP4 ADD MSTORE PUSH2 0x19E7 DUP2 DUP5 PUSH2 0x18F3 JUMP JUMPDEST SWAP1 POP SWAP3 SWAP2 POP POP JUMP JUMPDEST PUSH1 0x0 PUSH2 0x19FA DUP3 PUSH2 0xB48 JUMP JUMPDEST SWAP1 POP SWAP2 SWAP1 POP JUMP JUMPDEST PUSH2 0x1A0A DUP2 PUSH2 0x19EF JUMP JUMPDEST DUP2 EQ PUSH2 0x1A15 JUMPI PUSH1 0x0 DUP1 REVERT JUMPDEST POP JUMP JUMPDEST PUSH1 0x0 DUP2 MLOAD SWAP1 POP PUSH2 0x1A27 DUP2 PUSH2 0x1A01 JUMP JUMPDEST SWAP3 SWAP2 POP POP JUMP JUMPDEST PUSH1 0x0 DUP1 PUSH1 0x40 DUP4 DUP6 SUB SLT ISZERO PUSH2 0x1A44 JUMPI PUSH2 0x1A43 PUSH2 0xB3E JUMP JUMPDEST JUMPDEST PUSH1 0x0 PUSH2 0x1A52 DUP6 DUP3 DUP7 ADD PUSH2 0x146B JUMP JUMPDEST SWAP3 POP POP PUSH1 0x20 PUSH2 0x1A63 DUP6 DUP3 DUP7 ADD PUSH2 0x1A18 JUMP JUMPDEST SWAP2 POP POP SWAP3 POP SWAP3 SWAP1 POP JUMP JUMPDEST PUSH32 0x4E487B7100000000000000000000000000000000000000000000000000000000 PUSH1 0x0 MSTORE PUSH1 0x21 PUSH1 0x4 MSTORE PUSH1 0x24 PUSH1 0x0 REVERT INVALID LOG2 PUSH5 0x6970667358 0x22 SLT KECCAK256 DUP11 0x2B 0xC1 BASEFEE 0xD7 0xC2 0x28 SWAP1 0xC1 0x4B ADDRESS 0xAA BLOCKHASH COINBASE PUSH16 0x50EFE5A756D49EE7409B7F05DA74CE79 DELEGATECALL PUSH5 0x736F6C6343 STOP ADDMOD GT STOP CALLER "
				},
				"gasEstimates": {
					"creation": {
						"codeDepositCost": "1373200",
						"executionCost": "157151",
						"totalCost": "1530351"
					},
					"external": {
						"createNft(string,string,string,uint32,uint32)": "infinite",
						"mintNft(address,bytes[])": "infinite",
						"transferNft(address,address,int64)": "infinite"
					}
				},
				"methodIdentifiers": {
					"createNft(string,string,string,uint32,uint32)": "a1a79cde",
					"mintNft(address,bytes[])": "0a284cb6",
					"transferNft(address,address,int64)": "82b562aa"
				}
			},
			"storageLayout": {
				"storage": [
					{
						"astId": 2718,
						"contract": "hbar/SmartContracts/Tests/MintAndTransfer3.sol:NFTCreator",
						"label": "supplyContract",
						"offset": 0,
						"slot": "0",
						"type": "t_address"
					},
					{
						"astId": 2723,
						"contract": "hbar/SmartContracts/Tests/MintAndTransfer3.sol:NFTCreator",
						"label": "keyTypes",
						"offset": 0,
						"slot": "1",
						"type": "t_mapping(t_enum(KeyType)2731,t_uint256)"
					}
				],
				"types": {
					"t_address": {
						"encoding": "inplace",
						"label": "address",
						"numberOfBytes": "20"
					},
					"t_enum(KeyType)2731": {
						"encoding": "inplace",
						"label": "enum KeyHelper.KeyType",
						"numberOfBytes": "1"
					},
					"t_mapping(t_enum(KeyType)2731,t_uint256)": {
						"encoding": "mapping",
						"key": "t_enum(KeyType)2731",
						"label": "mapping(enum KeyHelper.KeyType => uint256)",
						"numberOfBytes": "32",
						"value": "t_uint256"
					},
					"t_uint256": {
						"encoding": "inplace",
						"label": "uint256",
						"numberOfBytes": "32"
					}
				}
			},
			"userdoc": {
				"kind": "user",
				"methods": {},
				"version": 1
			}
		}
	}
}