{
	"data": {
		"bytecode": {
			"linkReferences": {},
			"object": "608060405234801561001057600080fd5b506136f6806100206000396000f3fe60806040526004361061004a5760003560e01c8063123119cd1461004f5780637ae249511461007a5780639d76ea58146100a5578063afe7d54d146100d0578063c86e25d7146100ec575b600080fd5b34801561005b57600080fd5b50610064610117565b60405161007191906106ed565b60405180910390f35b34801561008657600080fd5b5061008f61013d565b60405161009c9190610767565b60405180910390f35b3480156100b157600080fd5b506100ba610163565b6040516100c791906106ed565b60405180910390f35b6100ea60048036038101906100e591906107c2565b610187565b005b3480156100f857600080fd5b506101016103e3565b60405161010e9190610810565b60405180910390f35b600160009054906101000a900473ffffffffffffffffffffffffffffffffffffffff1681565b600360009054906101000a900473ffffffffffffffffffffffffffffffffffffffff1681565b60008054906101000a900473ffffffffffffffffffffffffffffffffffffffff1681565b6040516101939061069f565b604051809103906000f0801580156101af573d6000803e3d6000fd5b50600260006101000a81548173ffffffffffffffffffffffffffffffffffffffff021916908373ffffffffffffffffffffffffffffffffffffffff16021790555080600160006101000a81548173ffffffffffffffffffffffffffffffffffffffff021916908373ffffffffffffffffffffffffffffffffffffffff160217905550600260009054906101000a900473ffffffffffffffffffffffffffffffffffffffff1673ffffffffffffffffffffffffffffffffffffffff16632c9283103362a98ac76040518363ffffffff1660e01b815260040161029192919061091f565b6020604051808303816000875af11580156102b0573d6000803e3d6000fd5b505050506040513d601f19601f820116820180604052508101906102d49190610983565b6000806101000a81548173ffffffffffffffffffffffffffffffffffffffff021916908373ffffffffffffffffffffffffffffffffffffffff16021790555061038d60008054906101000a900473ffffffffffffffffffffffffffffffffffffffff166001600067ffffffffffffffff811115610354576103536109b0565b5b60405190808252806020026020018201604052801561038757816020015b60608152602001906001900390816103725790505b50610409565b5050506103df60008054906101000a900473ffffffffffffffffffffffffffffffffffffffff1630600160009054906101000a900473ffffffffffffffffffffffffffffffffffffffff166001610581565b5050565b600260009054906101000a900473ffffffffffffffffffffffffffffffffffffffff1681565b600080606060008061016773ffffffffffffffffffffffffffffffffffffffff1663278e0b8860e01b89898960405160240161044793929190610b54565b604051602081830303815290604052907bffffffffffffffffffffffffffffffffffffffffffffffffffffffff19166020820180517bffffffffffffffffffffffffffffffffffffffffffffffffffffffff83818316178352505050506040516104b19190610bce565b6000604051808303816000865af19150503d80600081146104ee576040519150601f19603f3d011682016040523d82523d6000602084013e6104f3565b606091505b50915091508161054f57601560008067ffffffffffffffff81111561051b5761051a6109b0565b5b6040519080825280602002602001820160405280156105495781602001602082028036833780820191505090505b50610564565b808060200190518101906105639190610d9c565b5b8260030b9250809550819650829750505050505093509350939050565b600080600061016773ffffffffffffffffffffffffffffffffffffffff1663eca3691760e01b888888886040516024016105be9493929190610e1a565b604051602081830303815290604052907bffffffffffffffffffffffffffffffffffffffffffffffffffffffff19166020820180517bffffffffffffffffffffffffffffffffffffffffffffffffffffffff83818316178352505050506040516106289190610bce565b6000604051808303816000865af19150503d8060008114610665576040519150601f19603f3d011682016040523d82523d6000602084013e61066a565b606091505b50915091508161067b576015610690565b8080602001905181019061068f9190610e5f565b5b60030b92505050949350505050565b61283480610e8d83390190565b600073ffffffffffffffffffffffffffffffffffffffff82169050919050565b60006106d7826106ac565b9050919050565b6106e7816106cc565b82525050565b600060208201905061070260008301846106de565b92915050565b6000819050919050565b600061072d610728610723846106ac565b610708565b6106ac565b9050919050565b600061073f82610712565b9050919050565b600061075182610734565b9050919050565b61076181610746565b82525050565b600060208201905061077c6000830184610758565b92915050565b6000604051905090565b600080fd5b600080fd5b61079f816106cc565b81146107aa57600080fd5b50565b6000813590506107bc81610796565b92915050565b6000602082840312156107d8576107d761078c565b5b60006107e6848285016107ad565b91505092915050565b60006107fa82610734565b9050919050565b61080a816107ef565b82525050565b60006020820190506108256000830184610801565b92915050565b600082825260208201905092915050565b7f4141414143334e7a6143316c5a4449314e54453541414141494f70556872614160008201527f5444306850716364624a393443436e65694a6f6239706941617774366650596760208201527f5271673100000000000000000000000000000000000000000000000000000000604082015250565b60006108be60448361082b565b91506108c98261083c565b606082019050919050565b6000819050919050565b600063ffffffff82169050919050565b60006109096109046108ff846108d4565b610708565b6108de565b9050919050565b610919816108ee565b82525050565b60006080820190508181036000830152610938816108b1565b9050818103602083015261094b816108b1565b905061095a60408301856106de565b6109676060830184610910565b9392505050565b60008151905061097d81610796565b92915050565b6000602082840312156109995761099861078c565b5b60006109a78482850161096e565b91505092915050565b7f4e487b7100000000000000000000000000000000000000000000000000000000600052604160045260246000fd5b600067ffffffffffffffff82169050919050565b6109fc816109df565b82525050565b600081519050919050565b600082825260208201905092915050565b6000819050602082019050919050565b600081519050919050565b600082825260208201905092915050565b60005b83811015610a68578082015181840152602081019050610a4d565b60008484015250505050565b6000601f19601f8301169050919050565b6000610a9082610a2e565b610a9a8185610a39565b9350610aaa818560208601610a4a565b610ab381610a74565b840191505092915050565b6000610aca8383610a85565b905092915050565b6000602082019050919050565b6000610aea82610a02565b610af48185610a0d565b935083602082028501610b0685610a1e565b8060005b85811015610b425784840389528151610b238582610abe565b9450610b2e83610ad2565b925060208a01995050600181019050610b0a565b50829750879550505050505092915050565b6000606082019050610b6960008301866106de565b610b7660208301856109f3565b8181036040830152610b888184610adf565b9050949350505050565b600081905092915050565b6000610ba882610a2e565b610bb28185610b92565b9350610bc2818560208601610a4a565b80840191505092915050565b6000610bda8284610b9d565b915081905092915050565b60008160030b9050919050565b610bfb81610be5565b8114610c0657600080fd5b50565b600081519050610c1881610bf2565b92915050565b610c27816109df565b8114610c3257600080fd5b50565b600081519050610c4481610c1e565b92915050565b600080fd5b610c5882610a74565b810181811067ffffffffffffffff82111715610c7757610c766109b0565b5b80604052505050565b6000610c8a610782565b9050610c968282610c4f565b919050565b600067ffffffffffffffff821115610cb657610cb56109b0565b5b602082029050602081019050919050565b600080fd5b60008160070b9050919050565b610ce281610ccc565b8114610ced57600080fd5b50565b600081519050610cff81610cd9565b92915050565b6000610d18610d1384610c9b565b610c80565b90508083825260208201905060208402830185811115610d3b57610d3a610cc7565b5b835b81811015610d645780610d508882610cf0565b845260208401935050602081019050610d3d565b5050509392505050565b600082601f830112610d8357610d82610c4a565b5b8151610d93848260208601610d05565b91505092915050565b600080600060608486031215610db557610db461078c565b5b6000610dc386828701610c09565b9350506020610dd486828701610c35565b925050604084015167ffffffffffffffff811115610df557610df4610791565b5b610e0186828701610d6e565b9150509250925092565b610e1481610ccc565b82525050565b6000608082019050610e2f60008301876106de565b610e3c60208301866106de565b610e4960408301856106de565b610e566060830184610e0b565b95945050505050565b600060208284031215610e7557610e7461078c565b5b6000610e8384828501610c09565b9150509291505056fe608060405234801561001057600080fd5b50612814806100206000396000f3fe60806040526004361061004a5760003560e01c80632c9283101461004f578063801ecdbf1461007f578063dabf38a31461009d578063ee52ad32146100cd578063fbdd95d6146100fd575b600080fd5b61006960048036038101906100649190611c19565b61012d565b6040516100769190611cc7565b60405180910390f35b610087610388565b6040516100949190611cc7565b60405180910390f35b6100b760048036038101906100b29190611ce2565b610473565b6040516100c49190611cc7565b60405180910390f35b6100e760048036038101906100e29190611d35565b610678565b6040516100f49190611cc7565b60405180910390f35b61011760048036038101906101129190611dde565b610944565b6040516101249190611cc7565b60405180910390f35b600080600367ffffffffffffffff81111561014b5761014a611a54565b5b60405190808252806020026020018201604052801561018457816020015b6101716117b2565b8152602001906001900390816101695790505b5090506101a260018060405180602001604052806000815250610c83565b816000815181106101b6576101b5611e59565b5b602002602001018190525060006101cb6117d2565b6101d36117d2565b6101e7600484610cb490919063ffffffff16565b92506101fd600684610cb490919063ffffffff16565b92508882604001819052506040518060400160405280848152602001838152508460018151811061023157610230611e59565b5b6020026020010181905250878160400181905250604051806040016040528060018152602001828152508460028151811061026f5761026e611e59565b5b602002602001018190525061028261182f565b6040518060400160405280600781526020017f4d79546f6b656e0000000000000000000000000000000000000000000000000081525081600001819052506040518060400160405280600381526020017f4d544b0000000000000000000000000000000000000000000000000000000000815250816020018190525030816040019073ffffffffffffffffffffffffffffffffffffffff16908173ffffffffffffffffffffffffffffffffffffffff1681525050848160e001819052506103498888610cc8565b8161010001819052506000806103628360c86008610d26565b91509150601660030b821461037657600080fd5b80975050505050505050949350505050565b600061039261182f565b6040518060400160405280600481526020017f6e616d650000000000000000000000000000000000000000000000000000000081525081600001819052506040518060400160405280600681526020017f73796d626f6c0000000000000000000000000000000000000000000000000000815250816020018190525030816040019073ffffffffffffffffffffffffffffffffffffffff16908173ffffffffffffffffffffffffffffffffffffffff16815250506000806104568360c86008610d26565b91509150601660030b821461046a57600080fd5b80935050505090565b600080600167ffffffffffffffff81111561049157610490611a54565b5b6040519080825280602002602001820160405280156104ca57816020015b6104b76117b2565b8152602001906001900390816104af5790505b5090506104da6004600287610ea5565b816000815181106104ee576104ed611e59565b5b602002602001018190525061050161182f565b6040518060400160405280600581526020017f4d794e465400000000000000000000000000000000000000000000000000000081525081600001819052506040518060400160405280600481526020017f4d4e46540000000000000000000000000000000000000000000000000000000081525081602001819052506040518060400160405280600481526020017f6d656d6f00000000000000000000000000000000000000000000000000000000815250816060018190525030816040019073ffffffffffffffffffffffffffffffffffffffff16908173ffffffffffffffffffffffffffffffffffffffff16815250506001816080019015159081151581525050600a8160a0019063ffffffff16908163ffffffff1681525050818160e0018190525060018160c00190151590811515815250506106418585610cc8565b81610100018190525060008061065683610ee4565b91509150601660030b821461066a57600080fd5b809450505050509392505050565b600080600167ffffffffffffffff81111561069657610695611a54565b5b6040519080825280602002602001820160405280156106cf57816020015b6106bc6117b2565b8152602001906001900390816106b45790505b5090506106df600160048a610c83565b816000815181106106f3576106f2611e59565b5b60200260200101819052506000600267ffffffffffffffff81111561071b5761071a611a54565b5b60405190808252806020026020018201604052801561075457816020015b6107416118a1565b8152602001906001900390816107395790505b50905061076260058861105c565b8160008151811061077657610775611e59565b5b602002602001018190525061078d600587896110cb565b816001815181106107a1576107a0611e59565b5b60200260200101819052506000600167ffffffffffffffff8111156107c9576107c8611a54565b5b60405190808252806020026020018201604052801561080257816020015b6107ef611906565b8152602001906001900390816107e75790505b5090506108146004600560018b611162565b8160008151811061082857610827611e59565b5b602002602001018190525061083b61182f565b6040518060400160405280600781526020017f4d79546f6b656e0000000000000000000000000000000000000000000000000081525081600001819052506040518060400160405280600381526020017f4d544b0000000000000000000000000000000000000000000000000000000000815250816020018190525089816040019073ffffffffffffffffffffffffffffffffffffffff16908173ffffffffffffffffffffffffffffffffffffffff1681525050838160e001819052506109028787610cc8565b81610100018190525060008061091d8360c8600888886111ea565b91509150601660030b821461093157600080fd5b8096505050505050509695505050505050565b60008061095b600082610cb490919063ffffffff16565b9050610971600482610cb490919063ffffffff16565b905061097b6117d2565b87816020019073ffffffffffffffffffffffffffffffffffffffff16908173ffffffffffffffffffffffffffffffffffffffff16815250506000600167ffffffffffffffff8111156109d0576109cf611a54565b5b604051908082528060200260200182016040528015610a0957816020015b6109f66117b2565b8152602001906001900390816109ee5790505b50905060405180604001604052808481526020018381525081600081518110610a3557610a34611e59565b5b60200260200101819052506000600367ffffffffffffffff811115610a5d57610a5c611a54565b5b604051908082528060200260200182016040528015610a9657816020015b610a8361196c565b815260200190600190039081610a7b5790505b509050610aa6600460058b61136f565b81600081518110610aba57610ab9611e59565b5b6020026020010181905250610ad46004600560328c6113e6565b81600181518110610ae857610ae7611e59565b5b6020026020010181905250610b0360046005601e8b8d611487565b81600281518110610b1757610b16611e59565b5b6020026020010181905250610b2a61182f565b6040518060400160405280600581526020017f4d794e465400000000000000000000000000000000000000000000000000000081525081600001819052506040518060400160405280600481526020017f4d4e465400000000000000000000000000000000000000000000000000000000815250816020018190525089816040019073ffffffffffffffffffffffffffffffffffffffff16908173ffffffffffffffffffffffffffffffffffffffff1681525050828160e00181905250610bf18888610cc8565b816101000181905250600080610c5c83600067ffffffffffffffff811115610c1c57610c1b611a54565b5b604051908082528060200260200182016040528015610c5557816020015b610c426118a1565b815260200190600190039081610c3a5790505b5086611550565b91509150601660030b8214610c7057600080fd5b8097505050505050505095945050505050565b610c8b6117b2565b6040518060400160405280858152602001610ca8858560006116cf565b81525090509392505050565b60008160ff166001901b8317905092915050565b610cd06119e2565b82816020019073ffffffffffffffffffffffffffffffffffffffff16908173ffffffffffffffffffffffffffffffffffffffff168152505081816040019063ffffffff16908163ffffffff168152505092915050565b6000808460008161010001516000015163ffffffff16148015610d58575060008161010001516040015163ffffffff16145b15610d7e576276a7008161010001516040019063ffffffff16908163ffffffff16815250505b60008061016773ffffffffffffffffffffffffffffffffffffffff1634637812a04b60e01b8a8a8a604051602401610db893929190612255565b604051602081830303815290604052907bffffffffffffffffffffffffffffffffffffffffffffffffffffffff19166020820180517bffffffffffffffffffffffffffffffffffffffffffffffffffffffff8381831617835250505050604051610e2291906122cf565b60006040518083038185875af1925050503d8060008114610e5f576040519150601f19603f3d011682016040523d82523d6000602084013e610e64565b606091505b509150915081610e775760156000610e8c565b80806020019051810190610e8b919061235d565b5b8160030b91508095508196505050505050935093915050565b610ead6117b2565b6040518060400160405280858152602001610ed88560405180602001604052806000815250866116cf565b81525090509392505050565b6000808260008161010001516000015163ffffffff16148015610f16575060008161010001516040015163ffffffff16145b15610f3c576276a7008161010001516040019063ffffffff16908163ffffffff16815250505b60008061016773ffffffffffffffffffffffffffffffffffffffff1634639dc711e060e01b88604051602401610f72919061239d565b604051602081830303815290604052907bffffffffffffffffffffffffffffffffffffffffffffffffffffffff19166020820180517bffffffffffffffffffffffffffffffffffffffffffffffffffffffff8381831617835250505050604051610fdc91906122cf565b60006040518083038185875af1925050503d8060008114611019576040519150601f19603f3d011682016040523d82523d6000602084013e61101e565b606091505b5091509150816110315760156000611046565b80806020019051810190611045919061235d565b5b8160030b91508095508196505050505050915091565b6110646118a1565b82816000019063ffffffff16908163ffffffff1681525050600181604001901515908115158152505081816080019073ffffffffffffffffffffffffffffffffffffffff16908173ffffffffffffffffffffffffffffffffffffffff168152505092915050565b6110d36118a1565b83816000019063ffffffff16908163ffffffff168152505082816020019073ffffffffffffffffffffffffffffffffffffffff16908173ffffffffffffffffffffffffffffffffffffffff168152505081816080019073ffffffffffffffffffffffffffffffffffffffff16908173ffffffffffffffffffffffffffffffffffffffff16815250509392505050565b61116a611906565b84816000019063ffffffff16908163ffffffff168152505083816020019063ffffffff16908163ffffffff168152505082816080019015159081151581525050818160a0019073ffffffffffffffffffffffffffffffffffffffff16908173ffffffffffffffffffffffffffffffffffffffff1681525050949350505050565b6000808660008161010001516000015163ffffffff1614801561121c575060008161010001516040015163ffffffff16145b15611242576276a7008161010001516040019063ffffffff16908163ffffffff16815250505b60008061016773ffffffffffffffffffffffffffffffffffffffff1634634c381ae760e01b8c8c8c8c8c604051602401611280959493929190612600565b604051602081830303815290604052907bffffffffffffffffffffffffffffffffffffffffffffffffffffffff19166020820180517bffffffffffffffffffffffffffffffffffffffffffffffffffffffff83818316178352505050506040516112ea91906122cf565b60006040518083038185875af1925050503d8060008114611327576040519150601f19603f3d011682016040523d82523d6000602084013e61132c565b606091505b50915091508161133f5760156000611354565b80806020019051810190611353919061235d565b5b8160030b915080955081965050505050509550959350505050565b61137761196c565b83816000019063ffffffff16908163ffffffff168152505082816020019063ffffffff16908163ffffffff1681525050818160a0019073ffffffffffffffffffffffffffffffffffffffff16908173ffffffffffffffffffffffffffffffffffffffff16815250509392505050565b6113ee61196c565b84816000019063ffffffff16908163ffffffff168152505083816020019063ffffffff16908163ffffffff168152505082816040019063ffffffff16908163ffffffff16815250506001816080019015159081151581525050818160a0019073ffffffffffffffffffffffffffffffffffffffff16908173ffffffffffffffffffffffffffffffffffffffff1681525050949350505050565b61148f61196c565b85816000019063ffffffff16908163ffffffff168152505084816020019063ffffffff16908163ffffffff168152505083816040019063ffffffff16908163ffffffff168152505082816060019073ffffffffffffffffffffffffffffffffffffffff16908173ffffffffffffffffffffffffffffffffffffffff1681525050818160a0019073ffffffffffffffffffffffffffffffffffffffff16908173ffffffffffffffffffffffffffffffffffffffff168152505095945050505050565b6000808460008161010001516000015163ffffffff16148015611582575060008161010001516040015163ffffffff16145b156115a8576276a7008161010001516040019063ffffffff16908163ffffffff16815250505b60008061016773ffffffffffffffffffffffffffffffffffffffff1634635bc7c0e660e01b8a8a8a6040516024016115e293929190612792565b604051602081830303815290604052907bffffffffffffffffffffffffffffffffffffffffffffffffffffffff19166020820180517bffffffffffffffffffffffffffffffffffffffffffffffffffffffff838183161783525050505060405161164c91906122cf565b60006040518083038185875af1925050503d8060008114611689576040519150601f19603f3d011682016040523d82523d6000602084013e61168e565b606091505b5091509150816116a157601560006116b6565b808060200190518101906116b5919061235d565b5b8160030b91508095508196505050505050935093915050565b6116d76117d2565b600184036116f55760018160000190151590811515815250506117ab565b6002840361173a5781816020019073ffffffffffffffffffffffffffffffffffffffff16908173ffffffffffffffffffffffffffffffffffffffff16815250506117aa565b60038403611750578281604001819052506117a9565b60048403611766578281606001819052506117a8565b600584036117a75781816080019073ffffffffffffffffffffffffffffffffffffffff16908173ffffffffffffffffffffffffffffffffffffffff16815250505b5b5b5b5b9392505050565b6040518060400160405280600081526020016117cc6117d2565b81525090565b6040518060a00160405280600015158152602001600073ffffffffffffffffffffffffffffffffffffffff1681526020016060815260200160608152602001600073ffffffffffffffffffffffffffffffffffffffff1681525090565b6040518061012001604052806060815260200160608152602001600073ffffffffffffffffffffffffffffffffffffffff16815260200160608152602001600015158152602001600063ffffffff1681526020016000151581526020016060815260200161189b6119e2565b81525090565b6040518060a00160405280600063ffffffff168152602001600073ffffffffffffffffffffffffffffffffffffffff168152602001600015158152602001600015158152602001600073ffffffffffffffffffffffffffffffffffffffff1681525090565b6040518060c00160405280600063ffffffff168152602001600063ffffffff168152602001600063ffffffff168152602001600063ffffffff168152602001600015158152602001600073ffffffffffffffffffffffffffffffffffffffff1681525090565b6040518060c00160405280600063ffffffff168152602001600063ffffffff168152602001600063ffffffff168152602001600073ffffffffffffffffffffffffffffffffffffffff168152602001600015158152602001600073ffffffffffffffffffffffffffffffffffffffff1681525090565b6040518060600160405280600063ffffffff168152602001600073ffffffffffffffffffffffffffffffffffffffff168152602001600063ffffffff1681525090565b6000604051905090565b600080fd5b600080fd5b600080fd5b600080fd5b6000601f19601f8301169050919050565b7f4e487b7100000000000000000000000000000000000000000000000000000000600052604160045260246000fd5b611a8c82611a43565b810181811067ffffffffffffffff82111715611aab57611aaa611a54565b5b80604052505050565b6000611abe611a25565b9050611aca8282611a83565b919050565b600067ffffffffffffffff821115611aea57611ae9611a54565b5b611af382611a43565b9050602081019050919050565b82818337600083830152505050565b6000611b22611b1d84611acf565b611ab4565b905082815260208101848484011115611b3e57611b3d611a3e565b5b611b49848285611b00565b509392505050565b600082601f830112611b6657611b65611a39565b5b8135611b76848260208601611b0f565b91505092915050565b600073ffffffffffffffffffffffffffffffffffffffff82169050919050565b6000611baa82611b7f565b9050919050565b611bba81611b9f565b8114611bc557600080fd5b50565b600081359050611bd781611bb1565b92915050565b600063ffffffff82169050919050565b611bf681611bdd565b8114611c0157600080fd5b50565b600081359050611c1381611bed565b92915050565b60008060008060808587031215611c3357611c32611a2f565b5b600085013567ffffffffffffffff811115611c5157611c50611a34565b5b611c5d87828801611b51565b945050602085013567ffffffffffffffff811115611c7e57611c7d611a34565b5b611c8a87828801611b51565b9350506040611c9b87828801611bc8565b9250506060611cac87828801611c04565b91505092959194509250565b611cc181611b9f565b82525050565b6000602082019050611cdc6000830184611cb8565b92915050565b600080600060608486031215611cfb57611cfa611a2f565b5b6000611d0986828701611bc8565b9350506020611d1a86828701611bc8565b9250506040611d2b86828701611c04565b9150509250925092565b60008060008060008060c08789031215611d5257611d51611a2f565b5b600087013567ffffffffffffffff811115611d7057611d6f611a34565b5b611d7c89828a01611b51565b9650506020611d8d89828a01611bc8565b9550506040611d9e89828a01611bc8565b9450506060611daf89828a01611bc8565b9350506080611dc089828a01611bc8565b92505060a0611dd189828a01611c04565b9150509295509295509295565b600080600080600060a08688031215611dfa57611df9611a2f565b5b6000611e0888828901611bc8565b9550506020611e1988828901611bc8565b9450506040611e2a88828901611bc8565b9350506060611e3b88828901611bc8565b9250506080611e4c88828901611c04565b9150509295509295909350565b7f4e487b7100000000000000000000000000000000000000000000000000000000600052603260045260246000fd5b600081519050919050565b600082825260208201905092915050565b60005b83811015611ec2578082015181840152602081019050611ea7565b60008484015250505050565b6000611ed982611e88565b611ee38185611e93565b9350611ef3818560208601611ea4565b611efc81611a43565b840191505092915050565b611f1081611b9f565b82525050565b60008115159050919050565b611f2b81611f16565b82525050565b611f3a81611bdd565b82525050565b600081519050919050565b600082825260208201905092915050565b6000819050602082019050919050565b6000819050919050565b611f7f81611f6c565b82525050565b600081519050919050565b600082825260208201905092915050565b6000611fac82611f85565b611fb68185611f90565b9350611fc6818560208601611ea4565b611fcf81611a43565b840191505092915050565b600060a083016000830151611ff26000860182611f22565b5060208301516120056020860182611f07565b506040830151848203604086015261201d8282611fa1565b915050606083015184820360608601526120378282611fa1565b915050608083015161204c6080860182611f07565b508091505092915050565b600060408301600083015161206f6000860182611f76565b50602083015184820360208601526120878282611fda565b9150508091505092915050565b60006120a08383612057565b905092915050565b6000602082019050919050565b60006120c082611f40565b6120ca8185611f4b565b9350836020820285016120dc85611f5c565b8060005b8581101561211857848403895281516120f98582612094565b9450612104836120a8565b925060208a019950506001810190506120e0565b50829750879550505050505092915050565b6060820160008201516121406000850182611f31565b5060208201516121536020850182611f07565b5060408201516121666040850182611f31565b50505050565b600061016083016000830151848203600086015261218a8282611ece565b915050602083015184820360208601526121a48282611ece565b91505060408301516121b96040860182611f07565b50606083015184820360608601526121d18282611ece565b91505060808301516121e66080860182611f22565b5060a08301516121f960a0860182611f31565b5060c083015161220c60c0860182611f22565b5060e083015184820360e086015261222482826120b5565b91505061010083015161223b61010086018261212a565b508091505092915050565b61224f81611f6c565b82525050565b6000606082019050818103600083015261226f818661216c565b905061227e6020830185612246565b61228b6040830184612246565b949350505050565b600081905092915050565b60006122a982611f85565b6122b38185612293565b93506122c3818560208601611ea4565b80840191505092915050565b60006122db828461229e565b915081905092915050565b60008160030b9050919050565b6122fc816122e6565b811461230757600080fd5b50565b600081519050612319816122f3565b92915050565b600061232a82611b7f565b9050919050565b61233a8161231f565b811461234557600080fd5b50565b60008151905061235781612331565b92915050565b6000806040838503121561237457612373611a2f565b5b60006123828582860161230a565b925050602061239385828601612348565b9150509250929050565b600060208201905081810360008301526123b7818461216c565b905092915050565b600081519050919050565b600082825260208201905092915050565b6000819050602082019050919050565b60a0820160008201516124016000850182611f31565b5060208201516124146020850182611f07565b5060408201516124276040850182611f22565b50606082015161243a6060850182611f22565b50608082015161244d6080850182611f07565b50505050565b600061245f83836123eb565b60a08301905092915050565b6000602082019050919050565b6000612483826123bf565b61248d81856123ca565b9350612498836123db565b8060005b838110156124c95781516124b08882612453565b97506124bb8361246b565b92505060018101905061249c565b5085935050505092915050565b600081519050919050565b600082825260208201905092915050565b6000819050602082019050919050565b60c0820160008201516125186000850182611f31565b50602082015161252b6020850182611f31565b50604082015161253e6040850182611f31565b5060608201516125516060850182611f31565b5060808201516125646080850182611f22565b5060a082015161257760a0850182611f07565b50505050565b60006125898383612502565b60c08301905092915050565b6000602082019050919050565b60006125ad826124d6565b6125b781856124e1565b93506125c2836124f2565b8060005b838110156125f35781516125da888261257d565b97506125e583612595565b9250506001810190506125c6565b5085935050505092915050565b600060a082019050818103600083015261261a818861216c565b90506126296020830187612246565b6126366040830186612246565b81810360608301526126488185612478565b9050818103608083015261265c81846125a2565b90509695505050505050565b600081519050919050565b600082825260208201905092915050565b6000819050602082019050919050565b60c0820160008201516126aa6000850182611f31565b5060208201516126bd6020850182611f31565b5060408201516126d06040850182611f31565b5060608201516126e36060850182611f07565b5060808201516126f66080850182611f22565b5060a082015161270960a0850182611f07565b50505050565b600061271b8383612694565b60c08301905092915050565b6000602082019050919050565b600061273f82612668565b6127498185612673565b935061275483612684565b8060005b8381101561278557815161276c888261270f565b975061277783612727565b925050600181019050612758565b5085935050505092915050565b600060608201905081810360008301526127ac818661216c565b905081810360208301526127c08185612478565b905081810360408301526127d48184612734565b905094935050505056fea264697066735822122029013bd3390a9421a5e6a43b32d6258354aadb1505214b296df72da5f83ef64a64736f6c63430008110033a2646970667358221220d45b96e3d4b7fcd8e756c8758bd561d67e960a0a3893195eda07745334c0a94064736f6c63430008110033",
			"opcodes": "PUSH1 0x80 PUSH1 0x40 MSTORE CALLVALUE DUP1 ISZERO PUSH2 0x10 JUMPI PUSH1 0x0 DUP1 REVERT JUMPDEST POP PUSH2 0x36F6 DUP1 PUSH2 0x20 PUSH1 0x0 CODECOPY PUSH1 0x0 RETURN INVALID PUSH1 0x80 PUSH1 0x40 MSTORE PUSH1 0x4 CALLDATASIZE LT PUSH2 0x4A JUMPI PUSH1 0x0 CALLDATALOAD PUSH1 0xE0 SHR DUP1 PUSH4 0x123119CD EQ PUSH2 0x4F JUMPI DUP1 PUSH4 0x7AE24951 EQ PUSH2 0x7A JUMPI DUP1 PUSH4 0x9D76EA58 EQ PUSH2 0xA5 JUMPI DUP1 PUSH4 0xAFE7D54D EQ PUSH2 0xD0 JUMPI DUP1 PUSH4 0xC86E25D7 EQ PUSH2 0xEC JUMPI JUMPDEST PUSH1 0x0 DUP1 REVERT JUMPDEST CALLVALUE DUP1 ISZERO PUSH2 0x5B JUMPI PUSH1 0x0 DUP1 REVERT JUMPDEST POP PUSH2 0x64 PUSH2 0x117 JUMP JUMPDEST PUSH1 0x40 MLOAD PUSH2 0x71 SWAP2 SWAP1 PUSH2 0x6ED JUMP JUMPDEST PUSH1 0x40 MLOAD DUP1 SWAP2 SUB SWAP1 RETURN JUMPDEST CALLVALUE DUP1 ISZERO PUSH2 0x86 JUMPI PUSH1 0x0 DUP1 REVERT JUMPDEST POP PUSH2 0x8F PUSH2 0x13D JUMP JUMPDEST PUSH1 0x40 MLOAD PUSH2 0x9C SWAP2 SWAP1 PUSH2 0x767 JUMP JUMPDEST PUSH1 0x40 MLOAD DUP1 SWAP2 SUB SWAP1 RETURN JUMPDEST CALLVALUE DUP1 ISZERO PUSH2 0xB1 JUMPI PUSH1 0x0 DUP1 REVERT JUMPDEST POP PUSH2 0xBA PUSH2 0x163 JUMP JUMPDEST PUSH1 0x40 MLOAD PUSH2 0xC7 SWAP2 SWAP1 PUSH2 0x6ED JUMP JUMPDEST PUSH1 0x40 MLOAD DUP1 SWAP2 SUB SWAP1 RETURN JUMPDEST PUSH2 0xEA PUSH1 0x4 DUP1 CALLDATASIZE SUB DUP2 ADD SWAP1 PUSH2 0xE5 SWAP2 SWAP1 PUSH2 0x7C2 JUMP JUMPDEST PUSH2 0x187 JUMP JUMPDEST STOP JUMPDEST CALLVALUE DUP1 ISZERO PUSH2 0xF8 JUMPI PUSH1 0x0 DUP1 REVERT JUMPDEST POP PUSH2 0x101 PUSH2 0x3E3 JUMP JUMPDEST PUSH1 0x40 MLOAD PUSH2 0x10E SWAP2 SWAP1 PUSH2 0x810 JUMP JUMPDEST PUSH1 0x40 MLOAD DUP1 SWAP2 SUB SWAP1 RETURN JUMPDEST PUSH1 0x1 PUSH1 0x0 SWAP1 SLOAD SWAP1 PUSH2 0x100 EXP SWAP1 DIV PUSH20 0xFFFFFFFFFFFFFFFFFFFFFFFFFFFFFFFFFFFFFFFF AND DUP2 JUMP JUMPDEST PUSH1 0x3 PUSH1 0x0 SWAP1 SLOAD SWAP1 PUSH2 0x100 EXP SWAP1 DIV PUSH20 0xFFFFFFFFFFFFFFFFFFFFFFFFFFFFFFFFFFFFFFFF AND DUP2 JUMP JUMPDEST PUSH1 0x0 DUP1 SLOAD SWAP1 PUSH2 0x100 EXP SWAP1 DIV PUSH20 0xFFFFFFFFFFFFFFFFFFFFFFFFFFFFFFFFFFFFFFFF AND DUP2 JUMP JUMPDEST PUSH1 0x40 MLOAD PUSH2 0x193 SWAP1 PUSH2 0x69F JUMP JUMPDEST PUSH1 0x40 MLOAD DUP1 SWAP2 SUB SWAP1 PUSH1 0x0 CREATE DUP1 ISZERO DUP1 ISZERO PUSH2 0x1AF JUMPI RETURNDATASIZE PUSH1 0x0 DUP1 RETURNDATACOPY RETURNDATASIZE PUSH1 0x0 REVERT JUMPDEST POP PUSH1 0x2 PUSH1 0x0 PUSH2 0x100 EXP DUP2 SLOAD DUP2 PUSH20 0xFFFFFFFFFFFFFFFFFFFFFFFFFFFFFFFFFFFFFFFF MUL NOT AND SWAP1 DUP4 PUSH20 0xFFFFFFFFFFFFFFFFFFFFFFFFFFFFFFFFFFFFFFFF AND MUL OR SWAP1 SSTORE POP DUP1 PUSH1 0x1 PUSH1 0x0 PUSH2 0x100 EXP DUP2 SLOAD DUP2 PUSH20 0xFFFFFFFFFFFFFFFFFFFFFFFFFFFFFFFFFFFFFFFF MUL NOT AND SWAP1 DUP4 PUSH20 0xFFFFFFFFFFFFFFFFFFFFFFFFFFFFFFFFFFFFFFFF AND MUL OR SWAP1 SSTORE POP PUSH1 0x2 PUSH1 0x0 SWAP1 SLOAD SWAP1 PUSH2 0x100 EXP SWAP1 DIV PUSH20 0xFFFFFFFFFFFFFFFFFFFFFFFFFFFFFFFFFFFFFFFF AND PUSH20 0xFFFFFFFFFFFFFFFFFFFFFFFFFFFFFFFFFFFFFFFF AND PUSH4 0x2C928310 CALLER PUSH3 0xA98AC7 PUSH1 0x40 MLOAD DUP4 PUSH4 0xFFFFFFFF AND PUSH1 0xE0 SHL DUP2 MSTORE PUSH1 0x4 ADD PUSH2 0x291 SWAP3 SWAP2 SWAP1 PUSH2 0x91F JUMP JUMPDEST PUSH1 0x20 PUSH1 0x40 MLOAD DUP1 DUP4 SUB DUP2 PUSH1 0x0 DUP8 GAS CALL ISZERO DUP1 ISZERO PUSH2 0x2B0 JUMPI RETURNDATASIZE PUSH1 0x0 DUP1 RETURNDATACOPY RETURNDATASIZE PUSH1 0x0 REVERT JUMPDEST POP POP POP POP PUSH1 0x40 MLOAD RETURNDATASIZE PUSH1 0x1F NOT PUSH1 0x1F DUP3 ADD AND DUP3 ADD DUP1 PUSH1 0x40 MSTORE POP DUP2 ADD SWAP1 PUSH2 0x2D4 SWAP2 SWAP1 PUSH2 0x983 JUMP JUMPDEST PUSH1 0x0 DUP1 PUSH2 0x100 EXP DUP2 SLOAD DUP2 PUSH20 0xFFFFFFFFFFFFFFFFFFFFFFFFFFFFFFFFFFFFFFFF MUL NOT AND SWAP1 DUP4 PUSH20 0xFFFFFFFFFFFFFFFFFFFFFFFFFFFFFFFFFFFFFFFF AND MUL OR SWAP1 SSTORE POP PUSH2 0x38D PUSH1 0x0 DUP1 SLOAD SWAP1 PUSH2 0x100 EXP SWAP1 DIV PUSH20 0xFFFFFFFFFFFFFFFFFFFFFFFFFFFFFFFFFFFFFFFF AND PUSH1 0x1 PUSH1 0x0 PUSH8 0xFFFFFFFFFFFFFFFF DUP2 GT ISZERO PUSH2 0x354 JUMPI PUSH2 0x353 PUSH2 0x9B0 JUMP JUMPDEST JUMPDEST PUSH1 0x40 MLOAD SWAP1 DUP1 DUP3 MSTORE DUP1 PUSH1 0x20 MUL PUSH1 0x20 ADD DUP3 ADD PUSH1 0x40 MSTORE DUP1 ISZERO PUSH2 0x387 JUMPI DUP2 PUSH1 0x20 ADD JUMPDEST PUSH1 0x60 DUP2 MSTORE PUSH1 0x20 ADD SWAP1 PUSH1 0x1 SWAP1 SUB SWAP1 DUP2 PUSH2 0x372 JUMPI SWAP1 POP JUMPDEST POP PUSH2 0x409 JUMP JUMPDEST POP POP POP PUSH2 0x3DF PUSH1 0x0 DUP1 SLOAD SWAP1 PUSH2 0x100 EXP SWAP1 DIV PUSH20 0xFFFFFFFFFFFFFFFFFFFFFFFFFFFFFFFFFFFFFFFF AND ADDRESS PUSH1 0x1 PUSH1 0x0 SWAP1 SLOAD SWAP1 PUSH2 0x100 EXP SWAP1 DIV PUSH20 0xFFFFFFFFFFFFFFFFFFFFFFFFFFFFFFFFFFFFFFFF AND PUSH1 0x1 PUSH2 0x581 JUMP JUMPDEST POP POP JUMP JUMPDEST PUSH1 0x2 PUSH1 0x0 SWAP1 SLOAD SWAP1 PUSH2 0x100 EXP SWAP1 DIV PUSH20 0xFFFFFFFFFFFFFFFFFFFFFFFFFFFFFFFFFFFFFFFF AND DUP2 JUMP JUMPDEST PUSH1 0x0 DUP1 PUSH1 0x60 PUSH1 0x0 DUP1 PUSH2 0x167 PUSH20 0xFFFFFFFFFFFFFFFFFFFFFFFFFFFFFFFFFFFFFFFF AND PUSH4 0x278E0B88 PUSH1 0xE0 SHL DUP10 DUP10 DUP10 PUSH1 0x40 MLOAD PUSH1 0x24 ADD PUSH2 0x447 SWAP4 SWAP3 SWAP2 SWAP1 PUSH2 0xB54 JUMP JUMPDEST PUSH1 0x40 MLOAD PUSH1 0x20 DUP2 DUP4 SUB SUB DUP2 MSTORE SWAP1 PUSH1 0x40 MSTORE SWAP1 PUSH28 0xFFFFFFFFFFFFFFFFFFFFFFFFFFFFFFFFFFFFFFFFFFFFFFFFFFFFFFFF NOT AND PUSH1 0x20 DUP3 ADD DUP1 MLOAD PUSH28 0xFFFFFFFFFFFFFFFFFFFFFFFFFFFFFFFFFFFFFFFFFFFFFFFFFFFFFFFF DUP4 DUP2 DUP4 AND OR DUP4 MSTORE POP POP POP POP PUSH1 0x40 MLOAD PUSH2 0x4B1 SWAP2 SWAP1 PUSH2 0xBCE JUMP JUMPDEST PUSH1 0x0 PUSH1 0x40 MLOAD DUP1 DUP4 SUB DUP2 PUSH1 0x0 DUP7 GAS CALL SWAP2 POP POP RETURNDATASIZE DUP1 PUSH1 0x0 DUP2 EQ PUSH2 0x4EE JUMPI PUSH1 0x40 MLOAD SWAP2 POP PUSH1 0x1F NOT PUSH1 0x3F RETURNDATASIZE ADD AND DUP3 ADD PUSH1 0x40 MSTORE RETURNDATASIZE DUP3 MSTORE RETURNDATASIZE PUSH1 0x0 PUSH1 0x20 DUP5 ADD RETURNDATACOPY PUSH2 0x4F3 JUMP JUMPDEST PUSH1 0x60 SWAP2 POP JUMPDEST POP SWAP2 POP SWAP2 POP DUP2 PUSH2 0x54F JUMPI PUSH1 0x15 PUSH1 0x0 DUP1 PUSH8 0xFFFFFFFFFFFFFFFF DUP2 GT ISZERO PUSH2 0x51B JUMPI PUSH2 0x51A PUSH2 0x9B0 JUMP JUMPDEST JUMPDEST PUSH1 0x40 MLOAD SWAP1 DUP1 DUP3 MSTORE DUP1 PUSH1 0x20 MUL PUSH1 0x20 ADD DUP3 ADD PUSH1 0x40 MSTORE DUP1 ISZERO PUSH2 0x549 JUMPI DUP2 PUSH1 0x20 ADD PUSH1 0x20 DUP3 MUL DUP1 CALLDATASIZE DUP4 CALLDATACOPY DUP1 DUP3 ADD SWAP2 POP POP SWAP1 POP JUMPDEST POP PUSH2 0x564 JUMP JUMPDEST DUP1 DUP1 PUSH1 0x20 ADD SWAP1 MLOAD DUP2 ADD SWAP1 PUSH2 0x563 SWAP2 SWAP1 PUSH2 0xD9C JUMP JUMPDEST JUMPDEST DUP3 PUSH1 0x3 SIGNEXTEND SWAP3 POP DUP1 SWAP6 POP DUP2 SWAP7 POP DUP3 SWAP8 POP POP POP POP POP POP SWAP4 POP SWAP4 POP SWAP4 SWAP1 POP JUMP JUMPDEST PUSH1 0x0 DUP1 PUSH1 0x0 PUSH2 0x167 PUSH20 0xFFFFFFFFFFFFFFFFFFFFFFFFFFFFFFFFFFFFFFFF AND PUSH4 0xECA36917 PUSH1 0xE0 SHL DUP9 DUP9 DUP9 DUP9 PUSH1 0x40 MLOAD PUSH1 0x24 ADD PUSH2 0x5BE SWAP5 SWAP4 SWAP3 SWAP2 SWAP1 PUSH2 0xE1A JUMP JUMPDEST PUSH1 0x40 MLOAD PUSH1 0x20 DUP2 DUP4 SUB SUB DUP2 MSTORE SWAP1 PUSH1 0x40 MSTORE SWAP1 PUSH28 0xFFFFFFFFFFFFFFFFFFFFFFFFFFFFFFFFFFFFFFFFFFFFFFFFFFFFFFFF NOT AND PUSH1 0x20 DUP3 ADD DUP1 MLOAD PUSH28 0xFFFFFFFFFFFFFFFFFFFFFFFFFFFFFFFFFFFFFFFFFFFFFFFFFFFFFFFF DUP4 DUP2 DUP4 AND OR DUP4 MSTORE POP POP POP POP PUSH1 0x40 MLOAD PUSH2 0x628 SWAP2 SWAP1 PUSH2 0xBCE JUMP JUMPDEST PUSH1 0x0 PUSH1 0x40 MLOAD DUP1 DUP4 SUB DUP2 PUSH1 0x0 DUP7 GAS CALL SWAP2 POP POP RETURNDATASIZE DUP1 PUSH1 0x0 DUP2 EQ PUSH2 0x665 JUMPI PUSH1 0x40 MLOAD SWAP2 POP PUSH1 0x1F NOT PUSH1 0x3F RETURNDATASIZE ADD AND DUP3 ADD PUSH1 0x40 MSTORE RETURNDATASIZE DUP3 MSTORE RETURNDATASIZE PUSH1 0x0 PUSH1 0x20 DUP5 ADD RETURNDATACOPY PUSH2 0x66A JUMP JUMPDEST PUSH1 0x60 SWAP2 POP JUMPDEST POP SWAP2 POP SWAP2 POP DUP2 PUSH2 0x67B JUMPI PUSH1 0x15 PUSH2 0x690 JUMP JUMPDEST DUP1 DUP1 PUSH1 0x20 ADD SWAP1 MLOAD DUP2 ADD SWAP1 PUSH2 0x68F SWAP2 SWAP1 PUSH2 0xE5F JUMP JUMPDEST JUMPDEST PUSH1 0x3 SIGNEXTEND SWAP3 POP POP POP SWAP5 SWAP4 POP POP POP POP JUMP JUMPDEST PUSH2 0x2834 DUP1 PUSH2 0xE8D DUP4 CODECOPY ADD SWAP1 JUMP JUMPDEST PUSH1 0x0 PUSH20 0xFFFFFFFFFFFFFFFFFFFFFFFFFFFFFFFFFFFFFFFF DUP3 AND SWAP1 POP SWAP2 SWAP1 POP JUMP JUMPDEST PUSH1 0x0 PUSH2 0x6D7 DUP3 PUSH2 0x6AC JUMP JUMPDEST SWAP1 POP SWAP2 SWAP1 POP JUMP JUMPDEST PUSH2 0x6E7 DUP2 PUSH2 0x6CC JUMP JUMPDEST DUP3 MSTORE POP POP JUMP JUMPDEST PUSH1 0x0 PUSH1 0x20 DUP3 ADD SWAP1 POP PUSH2 0x702 PUSH1 0x0 DUP4 ADD DUP5 PUSH2 0x6DE JUMP JUMPDEST SWAP3 SWAP2 POP POP JUMP JUMPDEST PUSH1 0x0 DUP2 SWAP1 POP SWAP2 SWAP1 POP JUMP JUMPDEST PUSH1 0x0 PUSH2 0x72D PUSH2 0x728 PUSH2 0x723 DUP5 PUSH2 0x6AC JUMP JUMPDEST PUSH2 0x708 JUMP JUMPDEST PUSH2 0x6AC JUMP JUMPDEST SWAP1 POP SWAP2 SWAP1 POP JUMP JUMPDEST PUSH1 0x0 PUSH2 0x73F DUP3 PUSH2 0x712 JUMP JUMPDEST SWAP1 POP SWAP2 SWAP1 POP JUMP JUMPDEST PUSH1 0x0 PUSH2 0x751 DUP3 PUSH2 0x734 JUMP JUMPDEST SWAP1 POP SWAP2 SWAP1 POP JUMP JUMPDEST PUSH2 0x761 DUP2 PUSH2 0x746 JUMP JUMPDEST DUP3 MSTORE POP POP JUMP JUMPDEST PUSH1 0x0 PUSH1 0x20 DUP3 ADD SWAP1 POP PUSH2 0x77C PUSH1 0x0 DUP4 ADD DUP5 PUSH2 0x758 JUMP JUMPDEST SWAP3 SWAP2 POP POP JUMP JUMPDEST PUSH1 0x0 PUSH1 0x40 MLOAD SWAP1 POP SWAP1 JUMP JUMPDEST PUSH1 0x0 DUP1 REVERT JUMPDEST PUSH1 0x0 DUP1 REVERT JUMPDEST PUSH2 0x79F DUP2 PUSH2 0x6CC JUMP JUMPDEST DUP2 EQ PUSH2 0x7AA JUMPI PUSH1 0x0 DUP1 REVERT JUMPDEST POP JUMP JUMPDEST PUSH1 0x0 DUP2 CALLDATALOAD SWAP1 POP PUSH2 0x7BC DUP2 PUSH2 0x796 JUMP JUMPDEST SWAP3 SWAP2 POP POP JUMP JUMPDEST PUSH1 0x0 PUSH1 0x20 DUP3 DUP5 SUB SLT ISZERO PUSH2 0x7D8 JUMPI PUSH2 0x7D7 PUSH2 0x78C JUMP JUMPDEST JUMPDEST PUSH1 0x0 PUSH2 0x7E6 DUP5 DUP3 DUP6 ADD PUSH2 0x7AD JUMP JUMPDEST SWAP2 POP POP SWAP3 SWAP2 POP POP JUMP JUMPDEST PUSH1 0x0 PUSH2 0x7FA DUP3 PUSH2 0x734 JUMP JUMPDEST SWAP1 POP SWAP2 SWAP1 POP JUMP JUMPDEST PUSH2 0x80A DUP2 PUSH2 0x7EF JUMP JUMPDEST DUP3 MSTORE POP POP JUMP JUMPDEST PUSH1 0x0 PUSH1 0x20 DUP3 ADD SWAP1 POP PUSH2 0x825 PUSH1 0x0 DUP4 ADD DUP5 PUSH2 0x801 JUMP JUMPDEST SWAP3 SWAP2 POP POP JUMP JUMPDEST PUSH1 0x0 DUP3 DUP3 MSTORE PUSH1 0x20 DUP3 ADD SWAP1 POP SWAP3 SWAP2 POP POP JUMP JUMPDEST PUSH32 0x4141414143334E7A6143316C5A4449314E54453541414141494F705568726141 PUSH1 0x0 DUP3 ADD MSTORE PUSH32 0x5444306850716364624A393443436E65694A6F62397069416177743666505967 PUSH1 0x20 DUP3 ADD MSTORE PUSH32 0x5271673100000000000000000000000000000000000000000000000000000000 PUSH1 0x40 DUP3 ADD MSTORE POP JUMP JUMPDEST PUSH1 0x0 PUSH2 0x8BE PUSH1 0x44 DUP4 PUSH2 0x82B JUMP JUMPDEST SWAP2 POP PUSH2 0x8C9 DUP3 PUSH2 0x83C JUMP JUMPDEST PUSH1 0x60 DUP3 ADD SWAP1 POP SWAP2 SWAP1 POP JUMP JUMPDEST PUSH1 0x0 DUP2 SWAP1 POP SWAP2 SWAP1 POP JUMP JUMPDEST PUSH1 0x0 PUSH4 0xFFFFFFFF DUP3 AND SWAP1 POP SWAP2 SWAP1 POP JUMP JUMPDEST PUSH1 0x0 PUSH2 0x909 PUSH2 0x904 PUSH2 0x8FF DUP5 PUSH2 0x8D4 JUMP JUMPDEST PUSH2 0x708 JUMP JUMPDEST PUSH2 0x8DE JUMP JUMPDEST SWAP1 POP SWAP2 SWAP1 POP JUMP JUMPDEST PUSH2 0x919 DUP2 PUSH2 0x8EE JUMP JUMPDEST DUP3 MSTORE POP POP JUMP JUMPDEST PUSH1 0x0 PUSH1 0x80 DUP3 ADD SWAP1 POP DUP2 DUP2 SUB PUSH1 0x0 DUP4 ADD MSTORE PUSH2 0x938 DUP2 PUSH2 0x8B1 JUMP JUMPDEST SWAP1 POP DUP2 DUP2 SUB PUSH1 0x20 DUP4 ADD MSTORE PUSH2 0x94B DUP2 PUSH2 0x8B1 JUMP JUMPDEST SWAP1 POP PUSH2 0x95A PUSH1 0x40 DUP4 ADD DUP6 PUSH2 0x6DE JUMP JUMPDEST PUSH2 0x967 PUSH1 0x60 DUP4 ADD DUP5 PUSH2 0x910 JUMP JUMPDEST SWAP4 SWAP3 POP POP POP JUMP JUMPDEST PUSH1 0x0 DUP2 MLOAD SWAP1 POP PUSH2 0x97D DUP2 PUSH2 0x796 JUMP JUMPDEST SWAP3 SWAP2 POP POP JUMP JUMPDEST PUSH1 0x0 PUSH1 0x20 DUP3 DUP5 SUB SLT ISZERO PUSH2 0x999 JUMPI PUSH2 0x998 PUSH2 0x78C JUMP JUMPDEST JUMPDEST PUSH1 0x0 PUSH2 0x9A7 DUP5 DUP3 DUP6 ADD PUSH2 0x96E JUMP JUMPDEST SWAP2 POP POP SWAP3 SWAP2 POP POP JUMP JUMPDEST PUSH32 0x4E487B7100000000000000000000000000000000000000000000000000000000 PUSH1 0x0 MSTORE PUSH1 0x41 PUSH1 0x4 MSTORE PUSH1 0x24 PUSH1 0x0 REVERT JUMPDEST PUSH1 0x0 PUSH8 0xFFFFFFFFFFFFFFFF DUP3 AND SWAP1 POP SWAP2 SWAP1 POP JUMP JUMPDEST PUSH2 0x9FC DUP2 PUSH2 0x9DF JUMP JUMPDEST DUP3 MSTORE POP POP JUMP JUMPDEST PUSH1 0x0 DUP2 MLOAD SWAP1 POP SWAP2 SWAP1 POP JUMP JUMPDEST PUSH1 0x0 DUP3 DUP3 MSTORE PUSH1 0x20 DUP3 ADD SWAP1 POP SWAP3 SWAP2 POP POP JUMP JUMPDEST PUSH1 0x0 DUP2 SWAP1 POP PUSH1 0x20 DUP3 ADD SWAP1 POP SWAP2 SWAP1 POP JUMP JUMPDEST PUSH1 0x0 DUP2 MLOAD SWAP1 POP SWAP2 SWAP1 POP JUMP JUMPDEST PUSH1 0x0 DUP3 DUP3 MSTORE PUSH1 0x20 DUP3 ADD SWAP1 POP SWAP3 SWAP2 POP POP JUMP JUMPDEST PUSH1 0x0 JUMPDEST DUP4 DUP2 LT ISZERO PUSH2 0xA68 JUMPI DUP1 DUP3 ADD MLOAD DUP2 DUP5 ADD MSTORE PUSH1 0x20 DUP2 ADD SWAP1 POP PUSH2 0xA4D JUMP JUMPDEST PUSH1 0x0 DUP5 DUP5 ADD MSTORE POP POP POP POP JUMP JUMPDEST PUSH1 0x0 PUSH1 0x1F NOT PUSH1 0x1F DUP4 ADD AND SWAP1 POP SWAP2 SWAP1 POP JUMP JUMPDEST PUSH1 0x0 PUSH2 0xA90 DUP3 PUSH2 0xA2E JUMP JUMPDEST PUSH2 0xA9A DUP2 DUP6 PUSH2 0xA39 JUMP JUMPDEST SWAP4 POP PUSH2 0xAAA DUP2 DUP6 PUSH1 0x20 DUP7 ADD PUSH2 0xA4A JUMP JUMPDEST PUSH2 0xAB3 DUP2 PUSH2 0xA74 JUMP JUMPDEST DUP5 ADD SWAP2 POP POP SWAP3 SWAP2 POP POP JUMP JUMPDEST PUSH1 0x0 PUSH2 0xACA DUP4 DUP4 PUSH2 0xA85 JUMP JUMPDEST SWAP1 POP SWAP3 SWAP2 POP POP JUMP JUMPDEST PUSH1 0x0 PUSH1 0x20 DUP3 ADD SWAP1 POP SWAP2 SWAP1 POP JUMP JUMPDEST PUSH1 0x0 PUSH2 0xAEA DUP3 PUSH2 0xA02 JUMP JUMPDEST PUSH2 0xAF4 DUP2 DUP6 PUSH2 0xA0D JUMP JUMPDEST SWAP4 POP DUP4 PUSH1 0x20 DUP3 MUL DUP6 ADD PUSH2 0xB06 DUP6 PUSH2 0xA1E JUMP JUMPDEST DUP1 PUSH1 0x0 JUMPDEST DUP6 DUP2 LT ISZERO PUSH2 0xB42 JUMPI DUP5 DUP5 SUB DUP10 MSTORE DUP2 MLOAD PUSH2 0xB23 DUP6 DUP3 PUSH2 0xABE JUMP JUMPDEST SWAP5 POP PUSH2 0xB2E DUP4 PUSH2 0xAD2 JUMP JUMPDEST SWAP3 POP PUSH1 0x20 DUP11 ADD SWAP10 POP POP PUSH1 0x1 DUP2 ADD SWAP1 POP PUSH2 0xB0A JUMP JUMPDEST POP DUP3 SWAP8 POP DUP8 SWAP6 POP POP POP POP POP POP SWAP3 SWAP2 POP POP JUMP JUMPDEST PUSH1 0x0 PUSH1 0x60 DUP3 ADD SWAP1 POP PUSH2 0xB69 PUSH1 0x0 DUP4 ADD DUP7 PUSH2 0x6DE JUMP JUMPDEST PUSH2 0xB76 PUSH1 0x20 DUP4 ADD DUP6 PUSH2 0x9F3 JUMP JUMPDEST DUP2 DUP2 SUB PUSH1 0x40 DUP4 ADD MSTORE PUSH2 0xB88 DUP2 DUP5 PUSH2 0xADF JUMP JUMPDEST SWAP1 POP SWAP5 SWAP4 POP POP POP POP JUMP JUMPDEST PUSH1 0x0 DUP2 SWAP1 POP SWAP3 SWAP2 POP POP JUMP JUMPDEST PUSH1 0x0 PUSH2 0xBA8 DUP3 PUSH2 0xA2E JUMP JUMPDEST PUSH2 0xBB2 DUP2 DUP6 PUSH2 0xB92 JUMP JUMPDEST SWAP4 POP PUSH2 0xBC2 DUP2 DUP6 PUSH1 0x20 DUP7 ADD PUSH2 0xA4A JUMP JUMPDEST DUP1 DUP5 ADD SWAP2 POP POP SWAP3 SWAP2 POP POP JUMP JUMPDEST PUSH1 0x0 PUSH2 0xBDA DUP3 DUP5 PUSH2 0xB9D JUMP JUMPDEST SWAP2 POP DUP2 SWAP1 POP SWAP3 SWAP2 POP POP JUMP JUMPDEST PUSH1 0x0 DUP2 PUSH1 0x3 SIGNEXTEND SWAP1 POP SWAP2 SWAP1 POP JUMP JUMPDEST PUSH2 0xBFB DUP2 PUSH2 0xBE5 JUMP JUMPDEST DUP2 EQ PUSH2 0xC06 JUMPI PUSH1 0x0 DUP1 REVERT JUMPDEST POP JUMP JUMPDEST PUSH1 0x0 DUP2 MLOAD SWAP1 POP PUSH2 0xC18 DUP2 PUSH2 0xBF2 JUMP JUMPDEST SWAP3 SWAP2 POP POP JUMP JUMPDEST PUSH2 0xC27 DUP2 PUSH2 0x9DF JUMP JUMPDEST DUP2 EQ PUSH2 0xC32 JUMPI PUSH1 0x0 DUP1 REVERT JUMPDEST POP JUMP JUMPDEST PUSH1 0x0 DUP2 MLOAD SWAP1 POP PUSH2 0xC44 DUP2 PUSH2 0xC1E JUMP JUMPDEST SWAP3 SWAP2 POP POP JUMP JUMPDEST PUSH1 0x0 DUP1 REVERT JUMPDEST PUSH2 0xC58 DUP3 PUSH2 0xA74 JUMP JUMPDEST DUP2 ADD DUP2 DUP2 LT PUSH8 0xFFFFFFFFFFFFFFFF DUP3 GT OR ISZERO PUSH2 0xC77 JUMPI PUSH2 0xC76 PUSH2 0x9B0 JUMP JUMPDEST JUMPDEST DUP1 PUSH1 0x40 MSTORE POP POP POP JUMP JUMPDEST PUSH1 0x0 PUSH2 0xC8A PUSH2 0x782 JUMP JUMPDEST SWAP1 POP PUSH2 0xC96 DUP3 DUP3 PUSH2 0xC4F JUMP JUMPDEST SWAP2 SWAP1 POP JUMP JUMPDEST PUSH1 0x0 PUSH8 0xFFFFFFFFFFFFFFFF DUP3 GT ISZERO PUSH2 0xCB6 JUMPI PUSH2 0xCB5 PUSH2 0x9B0 JUMP JUMPDEST JUMPDEST PUSH1 0x20 DUP3 MUL SWAP1 POP PUSH1 0x20 DUP2 ADD SWAP1 POP SWAP2 SWAP1 POP JUMP JUMPDEST PUSH1 0x0 DUP1 REVERT JUMPDEST PUSH1 0x0 DUP2 PUSH1 0x7 SIGNEXTEND SWAP1 POP SWAP2 SWAP1 POP JUMP JUMPDEST PUSH2 0xCE2 DUP2 PUSH2 0xCCC JUMP JUMPDEST DUP2 EQ PUSH2 0xCED JUMPI PUSH1 0x0 DUP1 REVERT JUMPDEST POP JUMP JUMPDEST PUSH1 0x0 DUP2 MLOAD SWAP1 POP PUSH2 0xCFF DUP2 PUSH2 0xCD9 JUMP JUMPDEST SWAP3 SWAP2 POP POP JUMP JUMPDEST PUSH1 0x0 PUSH2 0xD18 PUSH2 0xD13 DUP5 PUSH2 0xC9B JUMP JUMPDEST PUSH2 0xC80 JUMP JUMPDEST SWAP1 POP DUP1 DUP4 DUP3 MSTORE PUSH1 0x20 DUP3 ADD SWAP1 POP PUSH1 0x20 DUP5 MUL DUP4 ADD DUP6 DUP2 GT ISZERO PUSH2 0xD3B JUMPI PUSH2 0xD3A PUSH2 0xCC7 JUMP JUMPDEST JUMPDEST DUP4 JUMPDEST DUP2 DUP2 LT ISZERO PUSH2 0xD64 JUMPI DUP1 PUSH2 0xD50 DUP9 DUP3 PUSH2 0xCF0 JUMP JUMPDEST DUP5 MSTORE PUSH1 0x20 DUP5 ADD SWAP4 POP POP PUSH1 0x20 DUP2 ADD SWAP1 POP PUSH2 0xD3D JUMP JUMPDEST POP POP POP SWAP4 SWAP3 POP POP POP JUMP JUMPDEST PUSH1 0x0 DUP3 PUSH1 0x1F DUP4 ADD SLT PUSH2 0xD83 JUMPI PUSH2 0xD82 PUSH2 0xC4A JUMP JUMPDEST JUMPDEST DUP2 MLOAD PUSH2 0xD93 DUP5 DUP3 PUSH1 0x20 DUP7 ADD PUSH2 0xD05 JUMP JUMPDEST SWAP2 POP POP SWAP3 SWAP2 POP POP JUMP JUMPDEST PUSH1 0x0 DUP1 PUSH1 0x0 PUSH1 0x60 DUP5 DUP7 SUB SLT ISZERO PUSH2 0xDB5 JUMPI PUSH2 0xDB4 PUSH2 0x78C JUMP JUMPDEST JUMPDEST PUSH1 0x0 PUSH2 0xDC3 DUP7 DUP3 DUP8 ADD PUSH2 0xC09 JUMP JUMPDEST SWAP4 POP POP PUSH1 0x20 PUSH2 0xDD4 DUP7 DUP3 DUP8 ADD PUSH2 0xC35 JUMP JUMPDEST SWAP3 POP POP PUSH1 0x40 DUP5 ADD MLOAD PUSH8 0xFFFFFFFFFFFFFFFF DUP2 GT ISZERO PUSH2 0xDF5 JUMPI PUSH2 0xDF4 PUSH2 0x791 JUMP JUMPDEST JUMPDEST PUSH2 0xE01 DUP7 DUP3 DUP8 ADD PUSH2 0xD6E JUMP JUMPDEST SWAP2 POP POP SWAP3 POP SWAP3 POP SWAP3 JUMP JUMPDEST PUSH2 0xE14 DUP2 PUSH2 0xCCC JUMP JUMPDEST DUP3 MSTORE POP POP JUMP JUMPDEST PUSH1 0x0 PUSH1 0x80 DUP3 ADD SWAP1 POP PUSH2 0xE2F PUSH1 0x0 DUP4 ADD DUP8 PUSH2 0x6DE JUMP JUMPDEST PUSH2 0xE3C PUSH1 0x20 DUP4 ADD DUP7 PUSH2 0x6DE JUMP JUMPDEST PUSH2 0xE49 PUSH1 0x40 DUP4 ADD DUP6 PUSH2 0x6DE JUMP JUMPDEST PUSH2 0xE56 PUSH1 0x60 DUP4 ADD DUP5 PUSH2 0xE0B JUMP JUMPDEST SWAP6 SWAP5 POP POP POP POP POP JUMP JUMPDEST PUSH1 0x0 PUSH1 0x20 DUP3 DUP5 SUB SLT ISZERO PUSH2 0xE75 JUMPI PUSH2 0xE74 PUSH2 0x78C JUMP JUMPDEST JUMPDEST PUSH1 0x0 PUSH2 0xE83 DUP5 DUP3 DUP6 ADD PUSH2 0xC09 JUMP JUMPDEST SWAP2 POP POP SWAP3 SWAP2 POP POP JUMP INVALID PUSH1 0x80 PUSH1 0x40 MSTORE CALLVALUE DUP1 ISZERO PUSH2 0x10 JUMPI PUSH1 0x0 DUP1 REVERT JUMPDEST POP PUSH2 0x2814 DUP1 PUSH2 0x20 PUSH1 0x0 CODECOPY PUSH1 0x0 RETURN INVALID PUSH1 0x80 PUSH1 0x40 MSTORE PUSH1 0x4 CALLDATASIZE LT PUSH2 0x4A JUMPI PUSH1 0x0 CALLDATALOAD PUSH1 0xE0 SHR DUP1 PUSH4 0x2C928310 EQ PUSH2 0x4F JUMPI DUP1 PUSH4 0x801ECDBF EQ PUSH2 0x7F JUMPI DUP1 PUSH4 0xDABF38A3 EQ PUSH2 0x9D JUMPI DUP1 PUSH4 0xEE52AD32 EQ PUSH2 0xCD JUMPI DUP1 PUSH4 0xFBDD95D6 EQ PUSH2 0xFD JUMPI JUMPDEST PUSH1 0x0 DUP1 REVERT JUMPDEST PUSH2 0x69 PUSH1 0x4 DUP1 CALLDATASIZE SUB DUP2 ADD SWAP1 PUSH2 0x64 SWAP2 SWAP1 PUSH2 0x1C19 JUMP JUMPDEST PUSH2 0x12D JUMP JUMPDEST PUSH1 0x40 MLOAD PUSH2 0x76 SWAP2 SWAP1 PUSH2 0x1CC7 JUMP JUMPDEST PUSH1 0x40 MLOAD DUP1 SWAP2 SUB SWAP1 RETURN JUMPDEST PUSH2 0x87 PUSH2 0x388 JUMP JUMPDEST PUSH1 0x40 MLOAD PUSH2 0x94 SWAP2 SWAP1 PUSH2 0x1CC7 JUMP JUMPDEST PUSH1 0x40 MLOAD DUP1 SWAP2 SUB SWAP1 RETURN JUMPDEST PUSH2 0xB7 PUSH1 0x4 DUP1 CALLDATASIZE SUB DUP2 ADD SWAP1 PUSH2 0xB2 SWAP2 SWAP1 PUSH2 0x1CE2 JUMP JUMPDEST PUSH2 0x473 JUMP JUMPDEST PUSH1 0x40 MLOAD PUSH2 0xC4 SWAP2 SWAP1 PUSH2 0x1CC7 JUMP JUMPDEST PUSH1 0x40 MLOAD DUP1 SWAP2 SUB SWAP1 RETURN JUMPDEST PUSH2 0xE7 PUSH1 0x4 DUP1 CALLDATASIZE SUB DUP2 ADD SWAP1 PUSH2 0xE2 SWAP2 SWAP1 PUSH2 0x1D35 JUMP JUMPDEST PUSH2 0x678 JUMP JUMPDEST PUSH1 0x40 MLOAD PUSH2 0xF4 SWAP2 SWAP1 PUSH2 0x1CC7 JUMP JUMPDEST PUSH1 0x40 MLOAD DUP1 SWAP2 SUB SWAP1 RETURN JUMPDEST PUSH2 0x117 PUSH1 0x4 DUP1 CALLDATASIZE SUB DUP2 ADD SWAP1 PUSH2 0x112 SWAP2 SWAP1 PUSH2 0x1DDE JUMP JUMPDEST PUSH2 0x944 JUMP JUMPDEST PUSH1 0x40 MLOAD PUSH2 0x124 SWAP2 SWAP1 PUSH2 0x1CC7 JUMP JUMPDEST PUSH1 0x40 MLOAD DUP1 SWAP2 SUB SWAP1 RETURN JUMPDEST PUSH1 0x0 DUP1 PUSH1 0x3 PUSH8 0xFFFFFFFFFFFFFFFF DUP2 GT ISZERO PUSH2 0x14B JUMPI PUSH2 0x14A PUSH2 0x1A54 JUMP JUMPDEST JUMPDEST PUSH1 0x40 MLOAD SWAP1 DUP1 DUP3 MSTORE DUP1 PUSH1 0x20 MUL PUSH1 0x20 ADD DUP3 ADD PUSH1 0x40 MSTORE DUP1 ISZERO PUSH2 0x184 JUMPI DUP2 PUSH1 0x20 ADD JUMPDEST PUSH2 0x171 PUSH2 0x17B2 JUMP JUMPDEST DUP2 MSTORE PUSH1 0x20 ADD SWAP1 PUSH1 0x1 SWAP1 SUB SWAP1 DUP2 PUSH2 0x169 JUMPI SWAP1 POP JUMPDEST POP SWAP1 POP PUSH2 0x1A2 PUSH1 0x1 DUP1 PUSH1 0x40 MLOAD DUP1 PUSH1 0x20 ADD PUSH1 0x40 MSTORE DUP1 PUSH1 0x0 DUP2 MSTORE POP PUSH2 0xC83 JUMP JUMPDEST DUP2 PUSH1 0x0 DUP2 MLOAD DUP2 LT PUSH2 0x1B6 JUMPI PUSH2 0x1B5 PUSH2 0x1E59 JUMP JUMPDEST JUMPDEST PUSH1 0x20 MUL PUSH1 0x20 ADD ADD DUP2 SWAP1 MSTORE POP PUSH1 0x0 PUSH2 0x1CB PUSH2 0x17D2 JUMP JUMPDEST PUSH2 0x1D3 PUSH2 0x17D2 JUMP JUMPDEST PUSH2 0x1E7 PUSH1 0x4 DUP5 PUSH2 0xCB4 SWAP1 SWAP2 SWAP1 PUSH4 0xFFFFFFFF AND JUMP JUMPDEST SWAP3 POP PUSH2 0x1FD PUSH1 0x6 DUP5 PUSH2 0xCB4 SWAP1 SWAP2 SWAP1 PUSH4 0xFFFFFFFF AND JUMP JUMPDEST SWAP3 POP DUP9 DUP3 PUSH1 0x40 ADD DUP2 SWAP1 MSTORE POP PUSH1 0x40 MLOAD DUP1 PUSH1 0x40 ADD PUSH1 0x40 MSTORE DUP1 DUP5 DUP2 MSTORE PUSH1 0x20 ADD DUP4 DUP2 MSTORE POP DUP5 PUSH1 0x1 DUP2 MLOAD DUP2 LT PUSH2 0x231 JUMPI PUSH2 0x230 PUSH2 0x1E59 JUMP JUMPDEST JUMPDEST PUSH1 0x20 MUL PUSH1 0x20 ADD ADD DUP2 SWAP1 MSTORE POP DUP8 DUP2 PUSH1 0x40 ADD DUP2 SWAP1 MSTORE POP PUSH1 0x40 MLOAD DUP1 PUSH1 0x40 ADD PUSH1 0x40 MSTORE DUP1 PUSH1 0x1 DUP2 MSTORE PUSH1 0x20 ADD DUP3 DUP2 MSTORE POP DUP5 PUSH1 0x2 DUP2 MLOAD DUP2 LT PUSH2 0x26F JUMPI PUSH2 0x26E PUSH2 0x1E59 JUMP JUMPDEST JUMPDEST PUSH1 0x20 MUL PUSH1 0x20 ADD ADD DUP2 SWAP1 MSTORE POP PUSH2 0x282 PUSH2 0x182F JUMP JUMPDEST PUSH1 0x40 MLOAD DUP1 PUSH1 0x40 ADD PUSH1 0x40 MSTORE DUP1 PUSH1 0x7 DUP2 MSTORE PUSH1 0x20 ADD PUSH32 0x4D79546F6B656E00000000000000000000000000000000000000000000000000 DUP2 MSTORE POP DUP2 PUSH1 0x0 ADD DUP2 SWAP1 MSTORE POP PUSH1 0x40 MLOAD DUP1 PUSH1 0x40 ADD PUSH1 0x40 MSTORE DUP1 PUSH1 0x3 DUP2 MSTORE PUSH1 0x20 ADD PUSH32 0x4D544B0000000000000000000000000000000000000000000000000000000000 DUP2 MSTORE POP DUP2 PUSH1 0x20 ADD DUP2 SWAP1 MSTORE POP ADDRESS DUP2 PUSH1 0x40 ADD SWAP1 PUSH20 0xFFFFFFFFFFFFFFFFFFFFFFFFFFFFFFFFFFFFFFFF AND SWAP1 DUP2 PUSH20 0xFFFFFFFFFFFFFFFFFFFFFFFFFFFFFFFFFFFFFFFF AND DUP2 MSTORE POP POP DUP5 DUP2 PUSH1 0xE0 ADD DUP2 SWAP1 MSTORE POP PUSH2 0x349 DUP9 DUP9 PUSH2 0xCC8 JUMP JUMPDEST DUP2 PUSH2 0x100 ADD DUP2 SWAP1 MSTORE POP PUSH1 0x0 DUP1 PUSH2 0x362 DUP4 PUSH1 0xC8 PUSH1 0x8 PUSH2 0xD26 JUMP JUMPDEST SWAP2 POP SWAP2 POP PUSH1 0x16 PUSH1 0x3 SIGNEXTEND DUP3 EQ PUSH2 0x376 JUMPI PUSH1 0x0 DUP1 REVERT JUMPDEST DUP1 SWAP8 POP POP POP POP POP POP POP POP SWAP5 SWAP4 POP POP POP POP JUMP JUMPDEST PUSH1 0x0 PUSH2 0x392 PUSH2 0x182F JUMP JUMPDEST PUSH1 0x40 MLOAD DUP1 PUSH1 0x40 ADD PUSH1 0x40 MSTORE DUP1 PUSH1 0x4 DUP2 MSTORE PUSH1 0x20 ADD PUSH32 0x6E616D6500000000000000000000000000000000000000000000000000000000 DUP2 MSTORE POP DUP2 PUSH1 0x0 ADD DUP2 SWAP1 MSTORE POP PUSH1 0x40 MLOAD DUP1 PUSH1 0x40 ADD PUSH1 0x40 MSTORE DUP1 PUSH1 0x6 DUP2 MSTORE PUSH1 0x20 ADD PUSH32 0x73796D626F6C0000000000000000000000000000000000000000000000000000 DUP2 MSTORE POP DUP2 PUSH1 0x20 ADD DUP2 SWAP1 MSTORE POP ADDRESS DUP2 PUSH1 0x40 ADD SWAP1 PUSH20 0xFFFFFFFFFFFFFFFFFFFFFFFFFFFFFFFFFFFFFFFF AND SWAP1 DUP2 PUSH20 0xFFFFFFFFFFFFFFFFFFFFFFFFFFFFFFFFFFFFFFFF AND DUP2 MSTORE POP POP PUSH1 0x0 DUP1 PUSH2 0x456 DUP4 PUSH1 0xC8 PUSH1 0x8 PUSH2 0xD26 JUMP JUMPDEST SWAP2 POP SWAP2 POP PUSH1 0x16 PUSH1 0x3 SIGNEXTEND DUP3 EQ PUSH2 0x46A JUMPI PUSH1 0x0 DUP1 REVERT JUMPDEST DUP1 SWAP4 POP POP POP POP SWAP1 JUMP JUMPDEST PUSH1 0x0 DUP1 PUSH1 0x1 PUSH8 0xFFFFFFFFFFFFFFFF DUP2 GT ISZERO PUSH2 0x491 JUMPI PUSH2 0x490 PUSH2 0x1A54 JUMP JUMPDEST JUMPDEST PUSH1 0x40 MLOAD SWAP1 DUP1 DUP3 MSTORE DUP1 PUSH1 0x20 MUL PUSH1 0x20 ADD DUP3 ADD PUSH1 0x40 MSTORE DUP1 ISZERO PUSH2 0x4CA JUMPI DUP2 PUSH1 0x20 ADD JUMPDEST PUSH2 0x4B7 PUSH2 0x17B2 JUMP JUMPDEST DUP2 MSTORE PUSH1 0x20 ADD SWAP1 PUSH1 0x1 SWAP1 SUB SWAP1 DUP2 PUSH2 0x4AF JUMPI SWAP1 POP JUMPDEST POP SWAP1 POP PUSH2 0x4DA PUSH1 0x4 PUSH1 0x2 DUP8 PUSH2 0xEA5 JUMP JUMPDEST DUP2 PUSH1 0x0 DUP2 MLOAD DUP2 LT PUSH2 0x4EE JUMPI PUSH2 0x4ED PUSH2 0x1E59 JUMP JUMPDEST JUMPDEST PUSH1 0x20 MUL PUSH1 0x20 ADD ADD DUP2 SWAP1 MSTORE POP PUSH2 0x501 PUSH2 0x182F JUMP JUMPDEST PUSH1 0x40 MLOAD DUP1 PUSH1 0x40 ADD PUSH1 0x40 MSTORE DUP1 PUSH1 0x5 DUP2 MSTORE PUSH1 0x20 ADD PUSH32 0x4D794E4654000000000000000000000000000000000000000000000000000000 DUP2 MSTORE POP DUP2 PUSH1 0x0 ADD DUP2 SWAP1 MSTORE POP PUSH1 0x40 MLOAD DUP1 PUSH1 0x40 ADD PUSH1 0x40 MSTORE DUP1 PUSH1 0x4 DUP2 MSTORE PUSH1 0x20 ADD PUSH32 0x4D4E465400000000000000000000000000000000000000000000000000000000 DUP2 MSTORE POP DUP2 PUSH1 0x20 ADD DUP2 SWAP1 MSTORE POP PUSH1 0x40 MLOAD DUP1 PUSH1 0x40 ADD PUSH1 0x40 MSTORE DUP1 PUSH1 0x4 DUP2 MSTORE PUSH1 0x20 ADD PUSH32 0x6D656D6F00000000000000000000000000000000000000000000000000000000 DUP2 MSTORE POP DUP2 PUSH1 0x60 ADD DUP2 SWAP1 MSTORE POP ADDRESS DUP2 PUSH1 0x40 ADD SWAP1 PUSH20 0xFFFFFFFFFFFFFFFFFFFFFFFFFFFFFFFFFFFFFFFF AND SWAP1 DUP2 PUSH20 0xFFFFFFFFFFFFFFFFFFFFFFFFFFFFFFFFFFFFFFFF AND DUP2 MSTORE POP POP PUSH1 0x1 DUP2 PUSH1 0x80 ADD SWAP1 ISZERO ISZERO SWAP1 DUP2 ISZERO ISZERO DUP2 MSTORE POP POP PUSH1 0xA DUP2 PUSH1 0xA0 ADD SWAP1 PUSH4 0xFFFFFFFF AND SWAP1 DUP2 PUSH4 0xFFFFFFFF AND DUP2 MSTORE POP POP DUP2 DUP2 PUSH1 0xE0 ADD DUP2 SWAP1 MSTORE POP PUSH1 0x1 DUP2 PUSH1 0xC0 ADD SWAP1 ISZERO ISZERO SWAP1 DUP2 ISZERO ISZERO DUP2 MSTORE POP POP PUSH2 0x641 DUP6 DUP6 PUSH2 0xCC8 JUMP JUMPDEST DUP2 PUSH2 0x100 ADD DUP2 SWAP1 MSTORE POP PUSH1 0x0 DUP1 PUSH2 0x656 DUP4 PUSH2 0xEE4 JUMP JUMPDEST SWAP2 POP SWAP2 POP PUSH1 0x16 PUSH1 0x3 SIGNEXTEND DUP3 EQ PUSH2 0x66A JUMPI PUSH1 0x0 DUP1 REVERT JUMPDEST DUP1 SWAP5 POP POP POP POP POP SWAP4 SWAP3 POP POP POP JUMP JUMPDEST PUSH1 0x0 DUP1 PUSH1 0x1 PUSH8 0xFFFFFFFFFFFFFFFF DUP2 GT ISZERO PUSH2 0x696 JUMPI PUSH2 0x695 PUSH2 0x1A54 JUMP JUMPDEST JUMPDEST PUSH1 0x40 MLOAD SWAP1 DUP1 DUP3 MSTORE DUP1 PUSH1 0x20 MUL PUSH1 0x20 ADD DUP3 ADD PUSH1 0x40 MSTORE DUP1 ISZERO PUSH2 0x6CF JUMPI DUP2 PUSH1 0x20 ADD JUMPDEST PUSH2 0x6BC PUSH2 0x17B2 JUMP JUMPDEST DUP2 MSTORE PUSH1 0x20 ADD SWAP1 PUSH1 0x1 SWAP1 SUB SWAP1 DUP2 PUSH2 0x6B4 JUMPI SWAP1 POP JUMPDEST POP SWAP1 POP PUSH2 0x6DF PUSH1 0x1 PUSH1 0x4 DUP11 PUSH2 0xC83 JUMP JUMPDEST DUP2 PUSH1 0x0 DUP2 MLOAD DUP2 LT PUSH2 0x6F3 JUMPI PUSH2 0x6F2 PUSH2 0x1E59 JUMP JUMPDEST JUMPDEST PUSH1 0x20 MUL PUSH1 0x20 ADD ADD DUP2 SWAP1 MSTORE POP PUSH1 0x0 PUSH1 0x2 PUSH8 0xFFFFFFFFFFFFFFFF DUP2 GT ISZERO PUSH2 0x71B JUMPI PUSH2 0x71A PUSH2 0x1A54 JUMP JUMPDEST JUMPDEST PUSH1 0x40 MLOAD SWAP1 DUP1 DUP3 MSTORE DUP1 PUSH1 0x20 MUL PUSH1 0x20 ADD DUP3 ADD PUSH1 0x40 MSTORE DUP1 ISZERO PUSH2 0x754 JUMPI DUP2 PUSH1 0x20 ADD JUMPDEST PUSH2 0x741 PUSH2 0x18A1 JUMP JUMPDEST DUP2 MSTORE PUSH1 0x20 ADD SWAP1 PUSH1 0x1 SWAP1 SUB SWAP1 DUP2 PUSH2 0x739 JUMPI SWAP1 POP JUMPDEST POP SWAP1 POP PUSH2 0x762 PUSH1 0x5 DUP9 PUSH2 0x105C JUMP JUMPDEST DUP2 PUSH1 0x0 DUP2 MLOAD DUP2 LT PUSH2 0x776 JUMPI PUSH2 0x775 PUSH2 0x1E59 JUMP JUMPDEST JUMPDEST PUSH1 0x20 MUL PUSH1 0x20 ADD ADD DUP2 SWAP1 MSTORE POP PUSH2 0x78D PUSH1 0x5 DUP8 DUP10 PUSH2 0x10CB JUMP JUMPDEST DUP2 PUSH1 0x1 DUP2 MLOAD DUP2 LT PUSH2 0x7A1 JUMPI PUSH2 0x7A0 PUSH2 0x1E59 JUMP JUMPDEST JUMPDEST PUSH1 0x20 MUL PUSH1 0x20 ADD ADD DUP2 SWAP1 MSTORE POP PUSH1 0x0 PUSH1 0x1 PUSH8 0xFFFFFFFFFFFFFFFF DUP2 GT ISZERO PUSH2 0x7C9 JUMPI PUSH2 0x7C8 PUSH2 0x1A54 JUMP JUMPDEST JUMPDEST PUSH1 0x40 MLOAD SWAP1 DUP1 DUP3 MSTORE DUP1 PUSH1 0x20 MUL PUSH1 0x20 ADD DUP3 ADD PUSH1 0x40 MSTORE DUP1 ISZERO PUSH2 0x802 JUMPI DUP2 PUSH1 0x20 ADD JUMPDEST PUSH2 0x7EF PUSH2 0x1906 JUMP JUMPDEST DUP2 MSTORE PUSH1 0x20 ADD SWAP1 PUSH1 0x1 SWAP1 SUB SWAP1 DUP2 PUSH2 0x7E7 JUMPI SWAP1 POP JUMPDEST POP SWAP1 POP PUSH2 0x814 PUSH1 0x4 PUSH1 0x5 PUSH1 0x1 DUP12 PUSH2 0x1162 JUMP JUMPDEST DUP2 PUSH1 0x0 DUP2 MLOAD DUP2 LT PUSH2 0x828 JUMPI PUSH2 0x827 PUSH2 0x1E59 JUMP JUMPDEST JUMPDEST PUSH1 0x20 MUL PUSH1 0x20 ADD ADD DUP2 SWAP1 MSTORE POP PUSH2 0x83B PUSH2 0x182F JUMP JUMPDEST PUSH1 0x40 MLOAD DUP1 PUSH1 0x40 ADD PUSH1 0x40 MSTORE DUP1 PUSH1 0x7 DUP2 MSTORE PUSH1 0x20 ADD PUSH32 0x4D79546F6B656E00000000000000000000000000000000000000000000000000 DUP2 MSTORE POP DUP2 PUSH1 0x0 ADD DUP2 SWAP1 MSTORE POP PUSH1 0x40 MLOAD DUP1 PUSH1 0x40 ADD PUSH1 0x40 MSTORE DUP1 PUSH1 0x3 DUP2 MSTORE PUSH1 0x20 ADD PUSH32 0x4D544B0000000000000000000000000000000000000000000000000000000000 DUP2 MSTORE POP DUP2 PUSH1 0x20 ADD DUP2 SWAP1 MSTORE POP DUP10 DUP2 PUSH1 0x40 ADD SWAP1 PUSH20 0xFFFFFFFFFFFFFFFFFFFFFFFFFFFFFFFFFFFFFFFF AND SWAP1 DUP2 PUSH20 0xFFFFFFFFFFFFFFFFFFFFFFFFFFFFFFFFFFFFFFFF AND DUP2 MSTORE POP POP DUP4 DUP2 PUSH1 0xE0 ADD DUP2 SWAP1 MSTORE POP PUSH2 0x902 DUP8 DUP8 PUSH2 0xCC8 JUMP JUMPDEST DUP2 PUSH2 0x100 ADD DUP2 SWAP1 MSTORE POP PUSH1 0x0 DUP1 PUSH2 0x91D DUP4 PUSH1 0xC8 PUSH1 0x8 DUP9 DUP9 PUSH2 0x11EA JUMP JUMPDEST SWAP2 POP SWAP2 POP PUSH1 0x16 PUSH1 0x3 SIGNEXTEND DUP3 EQ PUSH2 0x931 JUMPI PUSH1 0x0 DUP1 REVERT JUMPDEST DUP1 SWAP7 POP POP POP POP POP POP POP SWAP7 SWAP6 POP POP POP POP POP POP JUMP JUMPDEST PUSH1 0x0 DUP1 PUSH2 0x95B PUSH1 0x0 DUP3 PUSH2 0xCB4 SWAP1 SWAP2 SWAP1 PUSH4 0xFFFFFFFF AND JUMP JUMPDEST SWAP1 POP PUSH2 0x971 PUSH1 0x4 DUP3 PUSH2 0xCB4 SWAP1 SWAP2 SWAP1 PUSH4 0xFFFFFFFF AND JUMP JUMPDEST SWAP1 POP PUSH2 0x97B PUSH2 0x17D2 JUMP JUMPDEST DUP8 DUP2 PUSH1 0x20 ADD SWAP1 PUSH20 0xFFFFFFFFFFFFFFFFFFFFFFFFFFFFFFFFFFFFFFFF AND SWAP1 DUP2 PUSH20 0xFFFFFFFFFFFFFFFFFFFFFFFFFFFFFFFFFFFFFFFF AND DUP2 MSTORE POP POP PUSH1 0x0 PUSH1 0x1 PUSH8 0xFFFFFFFFFFFFFFFF DUP2 GT ISZERO PUSH2 0x9D0 JUMPI PUSH2 0x9CF PUSH2 0x1A54 JUMP JUMPDEST JUMPDEST PUSH1 0x40 MLOAD SWAP1 DUP1 DUP3 MSTORE DUP1 PUSH1 0x20 MUL PUSH1 0x20 ADD DUP3 ADD PUSH1 0x40 MSTORE DUP1 ISZERO PUSH2 0xA09 JUMPI DUP2 PUSH1 0x20 ADD JUMPDEST PUSH2 0x9F6 PUSH2 0x17B2 JUMP JUMPDEST DUP2 MSTORE PUSH1 0x20 ADD SWAP1 PUSH1 0x1 SWAP1 SUB SWAP1 DUP2 PUSH2 0x9EE JUMPI SWAP1 POP JUMPDEST POP SWAP1 POP PUSH1 0x40 MLOAD DUP1 PUSH1 0x40 ADD PUSH1 0x40 MSTORE DUP1 DUP5 DUP2 MSTORE PUSH1 0x20 ADD DUP4 DUP2 MSTORE POP DUP2 PUSH1 0x0 DUP2 MLOAD DUP2 LT PUSH2 0xA35 JUMPI PUSH2 0xA34 PUSH2 0x1E59 JUMP JUMPDEST JUMPDEST PUSH1 0x20 MUL PUSH1 0x20 ADD ADD DUP2 SWAP1 MSTORE POP PUSH1 0x0 PUSH1 0x3 PUSH8 0xFFFFFFFFFFFFFFFF DUP2 GT ISZERO PUSH2 0xA5D JUMPI PUSH2 0xA5C PUSH2 0x1A54 JUMP JUMPDEST JUMPDEST PUSH1 0x40 MLOAD SWAP1 DUP1 DUP3 MSTORE DUP1 PUSH1 0x20 MUL PUSH1 0x20 ADD DUP3 ADD PUSH1 0x40 MSTORE DUP1 ISZERO PUSH2 0xA96 JUMPI DUP2 PUSH1 0x20 ADD JUMPDEST PUSH2 0xA83 PUSH2 0x196C JUMP JUMPDEST DUP2 MSTORE PUSH1 0x20 ADD SWAP1 PUSH1 0x1 SWAP1 SUB SWAP1 DUP2 PUSH2 0xA7B JUMPI SWAP1 POP JUMPDEST POP SWAP1 POP PUSH2 0xAA6 PUSH1 0x4 PUSH1 0x5 DUP12 PUSH2 0x136F JUMP JUMPDEST DUP2 PUSH1 0x0 DUP2 MLOAD DUP2 LT PUSH2 0xABA JUMPI PUSH2 0xAB9 PUSH2 0x1E59 JUMP JUMPDEST JUMPDEST PUSH1 0x20 MUL PUSH1 0x20 ADD ADD DUP2 SWAP1 MSTORE POP PUSH2 0xAD4 PUSH1 0x4 PUSH1 0x5 PUSH1 0x32 DUP13 PUSH2 0x13E6 JUMP JUMPDEST DUP2 PUSH1 0x1 DUP2 MLOAD DUP2 LT PUSH2 0xAE8 JUMPI PUSH2 0xAE7 PUSH2 0x1E59 JUMP JUMPDEST JUMPDEST PUSH1 0x20 MUL PUSH1 0x20 ADD ADD DUP2 SWAP1 MSTORE POP PUSH2 0xB03 PUSH1 0x4 PUSH1 0x5 PUSH1 0x1E DUP12 DUP14 PUSH2 0x1487 JUMP JUMPDEST DUP2 PUSH1 0x2 DUP2 MLOAD DUP2 LT PUSH2 0xB17 JUMPI PUSH2 0xB16 PUSH2 0x1E59 JUMP JUMPDEST JUMPDEST PUSH1 0x20 MUL PUSH1 0x20 ADD ADD DUP2 SWAP1 MSTORE POP PUSH2 0xB2A PUSH2 0x182F JUMP JUMPDEST PUSH1 0x40 MLOAD DUP1 PUSH1 0x40 ADD PUSH1 0x40 MSTORE DUP1 PUSH1 0x5 DUP2 MSTORE PUSH1 0x20 ADD PUSH32 0x4D794E4654000000000000000000000000000000000000000000000000000000 DUP2 MSTORE POP DUP2 PUSH1 0x0 ADD DUP2 SWAP1 MSTORE POP PUSH1 0x40 MLOAD DUP1 PUSH1 0x40 ADD PUSH1 0x40 MSTORE DUP1 PUSH1 0x4 DUP2 MSTORE PUSH1 0x20 ADD PUSH32 0x4D4E465400000000000000000000000000000000000000000000000000000000 DUP2 MSTORE POP DUP2 PUSH1 0x20 ADD DUP2 SWAP1 MSTORE POP DUP10 DUP2 PUSH1 0x40 ADD SWAP1 PUSH20 0xFFFFFFFFFFFFFFFFFFFFFFFFFFFFFFFFFFFFFFFF AND SWAP1 DUP2 PUSH20 0xFFFFFFFFFFFFFFFFFFFFFFFFFFFFFFFFFFFFFFFF AND DUP2 MSTORE POP POP DUP3 DUP2 PUSH1 0xE0 ADD DUP2 SWAP1 MSTORE POP PUSH2 0xBF1 DUP9 DUP9 PUSH2 0xCC8 JUMP JUMPDEST DUP2 PUSH2 0x100 ADD DUP2 SWAP1 MSTORE POP PUSH1 0x0 DUP1 PUSH2 0xC5C DUP4 PUSH1 0x0 PUSH8 0xFFFFFFFFFFFFFFFF DUP2 GT ISZERO PUSH2 0xC1C JUMPI PUSH2 0xC1B PUSH2 0x1A54 JUMP JUMPDEST JUMPDEST PUSH1 0x40 MLOAD SWAP1 DUP1 DUP3 MSTORE DUP1 PUSH1 0x20 MUL PUSH1 0x20 ADD DUP3 ADD PUSH1 0x40 MSTORE DUP1 ISZERO PUSH2 0xC55 JUMPI DUP2 PUSH1 0x20 ADD JUMPDEST PUSH2 0xC42 PUSH2 0x18A1 JUMP JUMPDEST DUP2 MSTORE PUSH1 0x20 ADD SWAP1 PUSH1 0x1 SWAP1 SUB SWAP1 DUP2 PUSH2 0xC3A JUMPI SWAP1 POP JUMPDEST POP DUP7 PUSH2 0x1550 JUMP JUMPDEST SWAP2 POP SWAP2 POP PUSH1 0x16 PUSH1 0x3 SIGNEXTEND DUP3 EQ PUSH2 0xC70 JUMPI PUSH1 0x0 DUP1 REVERT JUMPDEST DUP1 SWAP8 POP POP POP POP POP POP POP POP SWAP6 SWAP5 POP POP POP POP POP JUMP JUMPDEST PUSH2 0xC8B PUSH2 0x17B2 JUMP JUMPDEST PUSH1 0x40 MLOAD DUP1 PUSH1 0x40 ADD PUSH1 0x40 MSTORE DUP1 DUP6 DUP2 MSTORE PUSH1 0x20 ADD PUSH2 0xCA8 DUP6 DUP6 PUSH1 0x0 PUSH2 0x16CF JUMP JUMPDEST DUP2 MSTORE POP SWAP1 POP SWAP4 SWAP3 POP POP POP JUMP JUMPDEST PUSH1 0x0 DUP2 PUSH1 0xFF AND PUSH1 0x1 SWAP1 SHL DUP4 OR SWAP1 POP SWAP3 SWAP2 POP POP JUMP JUMPDEST PUSH2 0xCD0 PUSH2 0x19E2 JUMP JUMPDEST DUP3 DUP2 PUSH1 0x20 ADD SWAP1 PUSH20 0xFFFFFFFFFFFFFFFFFFFFFFFFFFFFFFFFFFFFFFFF AND SWAP1 DUP2 PUSH20 0xFFFFFFFFFFFFFFFFFFFFFFFFFFFFFFFFFFFFFFFF AND DUP2 MSTORE POP POP DUP2 DUP2 PUSH1 0x40 ADD SWAP1 PUSH4 0xFFFFFFFF AND SWAP1 DUP2 PUSH4 0xFFFFFFFF AND DUP2 MSTORE POP POP SWAP3 SWAP2 POP POP JUMP JUMPDEST PUSH1 0x0 DUP1 DUP5 PUSH1 0x0 DUP2 PUSH2 0x100 ADD MLOAD PUSH1 0x0 ADD MLOAD PUSH4 0xFFFFFFFF AND EQ DUP1 ISZERO PUSH2 0xD58 JUMPI POP PUSH1 0x0 DUP2 PUSH2 0x100 ADD MLOAD PUSH1 0x40 ADD MLOAD PUSH4 0xFFFFFFFF AND EQ JUMPDEST ISZERO PUSH2 0xD7E JUMPI PUSH3 0x76A700 DUP2 PUSH2 0x100 ADD MLOAD PUSH1 0x40 ADD SWAP1 PUSH4 0xFFFFFFFF AND SWAP1 DUP2 PUSH4 0xFFFFFFFF AND DUP2 MSTORE POP POP JUMPDEST PUSH1 0x0 DUP1 PUSH2 0x167 PUSH20 0xFFFFFFFFFFFFFFFFFFFFFFFFFFFFFFFFFFFFFFFF AND CALLVALUE PUSH4 0x7812A04B PUSH1 0xE0 SHL DUP11 DUP11 DUP11 PUSH1 0x40 MLOAD PUSH1 0x24 ADD PUSH2 0xDB8 SWAP4 SWAP3 SWAP2 SWAP1 PUSH2 0x2255 JUMP JUMPDEST PUSH1 0x40 MLOAD PUSH1 0x20 DUP2 DUP4 SUB SUB DUP2 MSTORE SWAP1 PUSH1 0x40 MSTORE SWAP1 PUSH28 0xFFFFFFFFFFFFFFFFFFFFFFFFFFFFFFFFFFFFFFFFFFFFFFFFFFFFFFFF NOT AND PUSH1 0x20 DUP3 ADD DUP1 MLOAD PUSH28 0xFFFFFFFFFFFFFFFFFFFFFFFFFFFFFFFFFFFFFFFFFFFFFFFFFFFFFFFF DUP4 DUP2 DUP4 AND OR DUP4 MSTORE POP POP POP POP PUSH1 0x40 MLOAD PUSH2 0xE22 SWAP2 SWAP1 PUSH2 0x22CF JUMP JUMPDEST PUSH1 0x0 PUSH1 0x40 MLOAD DUP1 DUP4 SUB DUP2 DUP6 DUP8 GAS CALL SWAP3 POP POP POP RETURNDATASIZE DUP1 PUSH1 0x0 DUP2 EQ PUSH2 0xE5F JUMPI PUSH1 0x40 MLOAD SWAP2 POP PUSH1 0x1F NOT PUSH1 0x3F RETURNDATASIZE ADD AND DUP3 ADD PUSH1 0x40 MSTORE RETURNDATASIZE DUP3 MSTORE RETURNDATASIZE PUSH1 0x0 PUSH1 0x20 DUP5 ADD RETURNDATACOPY PUSH2 0xE64 JUMP JUMPDEST PUSH1 0x60 SWAP2 POP JUMPDEST POP SWAP2 POP SWAP2 POP DUP2 PUSH2 0xE77 JUMPI PUSH1 0x15 PUSH1 0x0 PUSH2 0xE8C JUMP JUMPDEST DUP1 DUP1 PUSH1 0x20 ADD SWAP1 MLOAD DUP2 ADD SWAP1 PUSH2 0xE8B SWAP2 SWAP1 PUSH2 0x235D JUMP JUMPDEST JUMPDEST DUP2 PUSH1 0x3 SIGNEXTEND SWAP2 POP DUP1 SWAP6 POP DUP2 SWAP7 POP POP POP POP POP POP SWAP4 POP SWAP4 SWAP2 POP POP JUMP JUMPDEST PUSH2 0xEAD PUSH2 0x17B2 JUMP JUMPDEST PUSH1 0x40 MLOAD DUP1 PUSH1 0x40 ADD PUSH1 0x40 MSTORE DUP1 DUP6 DUP2 MSTORE PUSH1 0x20 ADD PUSH2 0xED8 DUP6 PUSH1 0x40 MLOAD DUP1 PUSH1 0x20 ADD PUSH1 0x40 MSTORE DUP1 PUSH1 0x0 DUP2 MSTORE POP DUP7 PUSH2 0x16CF JUMP JUMPDEST DUP2 MSTORE POP SWAP1 POP SWAP4 SWAP3 POP POP POP JUMP JUMPDEST PUSH1 0x0 DUP1 DUP3 PUSH1 0x0 DUP2 PUSH2 0x100 ADD MLOAD PUSH1 0x0 ADD MLOAD PUSH4 0xFFFFFFFF AND EQ DUP1 ISZERO PUSH2 0xF16 JUMPI POP PUSH1 0x0 DUP2 PUSH2 0x100 ADD MLOAD PUSH1 0x40 ADD MLOAD PUSH4 0xFFFFFFFF AND EQ JUMPDEST ISZERO PUSH2 0xF3C JUMPI PUSH3 0x76A700 DUP2 PUSH2 0x100 ADD MLOAD PUSH1 0x40 ADD SWAP1 PUSH4 0xFFFFFFFF AND SWAP1 DUP2 PUSH4 0xFFFFFFFF AND DUP2 MSTORE POP POP JUMPDEST PUSH1 0x0 DUP1 PUSH2 0x167 PUSH20 0xFFFFFFFFFFFFFFFFFFFFFFFFFFFFFFFFFFFFFFFF AND CALLVALUE PUSH4 0x9DC711E0 PUSH1 0xE0 SHL DUP9 PUSH1 0x40 MLOAD PUSH1 0x24 ADD PUSH2 0xF72 SWAP2 SWAP1 PUSH2 0x239D JUMP JUMPDEST PUSH1 0x40 MLOAD PUSH1 0x20 DUP2 DUP4 SUB SUB DUP2 MSTORE SWAP1 PUSH1 0x40 MSTORE SWAP1 PUSH28 0xFFFFFFFFFFFFFFFFFFFFFFFFFFFFFFFFFFFFFFFFFFFFFFFFFFFFFFFF NOT AND PUSH1 0x20 DUP3 ADD DUP1 MLOAD PUSH28 0xFFFFFFFFFFFFFFFFFFFFFFFFFFFFFFFFFFFFFFFFFFFFFFFFFFFFFFFF DUP4 DUP2 DUP4 AND OR DUP4 MSTORE POP POP POP POP PUSH1 0x40 MLOAD PUSH2 0xFDC SWAP2 SWAP1 PUSH2 0x22CF JUMP JUMPDEST PUSH1 0x0 PUSH1 0x40 MLOAD DUP1 DUP4 SUB DUP2 DUP6 DUP8 GAS CALL SWAP3 POP POP POP RETURNDATASIZE DUP1 PUSH1 0x0 DUP2 EQ PUSH2 0x1019 JUMPI PUSH1 0x40 MLOAD SWAP2 POP PUSH1 0x1F NOT PUSH1 0x3F RETURNDATASIZE ADD AND DUP3 ADD PUSH1 0x40 MSTORE RETURNDATASIZE DUP3 MSTORE RETURNDATASIZE PUSH1 0x0 PUSH1 0x20 DUP5 ADD RETURNDATACOPY PUSH2 0x101E JUMP JUMPDEST PUSH1 0x60 SWAP2 POP JUMPDEST POP SWAP2 POP SWAP2 POP DUP2 PUSH2 0x1031 JUMPI PUSH1 0x15 PUSH1 0x0 PUSH2 0x1046 JUMP JUMPDEST DUP1 DUP1 PUSH1 0x20 ADD SWAP1 MLOAD DUP2 ADD SWAP1 PUSH2 0x1045 SWAP2 SWAP1 PUSH2 0x235D JUMP JUMPDEST JUMPDEST DUP2 PUSH1 0x3 SIGNEXTEND SWAP2 POP DUP1 SWAP6 POP DUP2 SWAP7 POP POP POP POP POP POP SWAP2 POP SWAP2 JUMP JUMPDEST PUSH2 0x1064 PUSH2 0x18A1 JUMP JUMPDEST DUP3 DUP2 PUSH1 0x0 ADD SWAP1 PUSH4 0xFFFFFFFF AND SWAP1 DUP2 PUSH4 0xFFFFFFFF AND DUP2 MSTORE POP POP PUSH1 0x1 DUP2 PUSH1 0x40 ADD SWAP1 ISZERO ISZERO SWAP1 DUP2 ISZERO ISZERO DUP2 MSTORE POP POP DUP2 DUP2 PUSH1 0x80 ADD SWAP1 PUSH20 0xFFFFFFFFFFFFFFFFFFFFFFFFFFFFFFFFFFFFFFFF AND SWAP1 DUP2 PUSH20 0xFFFFFFFFFFFFFFFFFFFFFFFFFFFFFFFFFFFFFFFF AND DUP2 MSTORE POP POP SWAP3 SWAP2 POP POP JUMP JUMPDEST PUSH2 0x10D3 PUSH2 0x18A1 JUMP JUMPDEST DUP4 DUP2 PUSH1 0x0 ADD SWAP1 PUSH4 0xFFFFFFFF AND SWAP1 DUP2 PUSH4 0xFFFFFFFF AND DUP2 MSTORE POP POP DUP3 DUP2 PUSH1 0x20 ADD SWAP1 PUSH20 0xFFFFFFFFFFFFFFFFFFFFFFFFFFFFFFFFFFFFFFFF AND SWAP1 DUP2 PUSH20 0xFFFFFFFFFFFFFFFFFFFFFFFFFFFFFFFFFFFFFFFF AND DUP2 MSTORE POP POP DUP2 DUP2 PUSH1 0x80 ADD SWAP1 PUSH20 0xFFFFFFFFFFFFFFFFFFFFFFFFFFFFFFFFFFFFFFFF AND SWAP1 DUP2 PUSH20 0xFFFFFFFFFFFFFFFFFFFFFFFFFFFFFFFFFFFFFFFF AND DUP2 MSTORE POP POP SWAP4 SWAP3 POP POP POP JUMP JUMPDEST PUSH2 0x116A PUSH2 0x1906 JUMP JUMPDEST DUP5 DUP2 PUSH1 0x0 ADD SWAP1 PUSH4 0xFFFFFFFF AND SWAP1 DUP2 PUSH4 0xFFFFFFFF AND DUP2 MSTORE POP POP DUP4 DUP2 PUSH1 0x20 ADD SWAP1 PUSH4 0xFFFFFFFF AND SWAP1 DUP2 PUSH4 0xFFFFFFFF AND DUP2 MSTORE POP POP DUP3 DUP2 PUSH1 0x80 ADD SWAP1 ISZERO ISZERO SWAP1 DUP2 ISZERO ISZERO DUP2 MSTORE POP POP DUP2 DUP2 PUSH1 0xA0 ADD SWAP1 PUSH20 0xFFFFFFFFFFFFFFFFFFFFFFFFFFFFFFFFFFFFFFFF AND SWAP1 DUP2 PUSH20 0xFFFFFFFFFFFFFFFFFFFFFFFFFFFFFFFFFFFFFFFF AND DUP2 MSTORE POP POP SWAP5 SWAP4 POP POP POP POP JUMP JUMPDEST PUSH1 0x0 DUP1 DUP7 PUSH1 0x0 DUP2 PUSH2 0x100 ADD MLOAD PUSH1 0x0 ADD MLOAD PUSH4 0xFFFFFFFF AND EQ DUP1 ISZERO PUSH2 0x121C JUMPI POP PUSH1 0x0 DUP2 PUSH2 0x100 ADD MLOAD PUSH1 0x40 ADD MLOAD PUSH4 0xFFFFFFFF AND EQ JUMPDEST ISZERO PUSH2 0x1242 JUMPI PUSH3 0x76A700 DUP2 PUSH2 0x100 ADD MLOAD PUSH1 0x40 ADD SWAP1 PUSH4 0xFFFFFFFF AND SWAP1 DUP2 PUSH4 0xFFFFFFFF AND DUP2 MSTORE POP POP JUMPDEST PUSH1 0x0 DUP1 PUSH2 0x167 PUSH20 0xFFFFFFFFFFFFFFFFFFFFFFFFFFFFFFFFFFFFFFFF AND CALLVALUE PUSH4 0x4C381AE7 PUSH1 0xE0 SHL DUP13 DUP13 DUP13 DUP13 DUP13 PUSH1 0x40 MLOAD PUSH1 0x24 ADD PUSH2 0x1280 SWAP6 SWAP5 SWAP4 SWAP3 SWAP2 SWAP1 PUSH2 0x2600 JUMP JUMPDEST PUSH1 0x40 MLOAD PUSH1 0x20 DUP2 DUP4 SUB SUB DUP2 MSTORE SWAP1 PUSH1 0x40 MSTORE SWAP1 PUSH28 0xFFFFFFFFFFFFFFFFFFFFFFFFFFFFFFFFFFFFFFFFFFFFFFFFFFFFFFFF NOT AND PUSH1 0x20 DUP3 ADD DUP1 MLOAD PUSH28 0xFFFFFFFFFFFFFFFFFFFFFFFFFFFFFFFFFFFFFFFFFFFFFFFFFFFFFFFF DUP4 DUP2 DUP4 AND OR DUP4 MSTORE POP POP POP POP PUSH1 0x40 MLOAD PUSH2 0x12EA SWAP2 SWAP1 PUSH2 0x22CF JUMP JUMPDEST PUSH1 0x0 PUSH1 0x40 MLOAD DUP1 DUP4 SUB DUP2 DUP6 DUP8 GAS CALL SWAP3 POP POP POP RETURNDATASIZE DUP1 PUSH1 0x0 DUP2 EQ PUSH2 0x1327 JUMPI PUSH1 0x40 MLOAD SWAP2 POP PUSH1 0x1F NOT PUSH1 0x3F RETURNDATASIZE ADD AND DUP3 ADD PUSH1 0x40 MSTORE RETURNDATASIZE DUP3 MSTORE RETURNDATASIZE PUSH1 0x0 PUSH1 0x20 DUP5 ADD RETURNDATACOPY PUSH2 0x132C JUMP JUMPDEST PUSH1 0x60 SWAP2 POP JUMPDEST POP SWAP2 POP SWAP2 POP DUP2 PUSH2 0x133F JUMPI PUSH1 0x15 PUSH1 0x0 PUSH2 0x1354 JUMP JUMPDEST DUP1 DUP1 PUSH1 0x20 ADD SWAP1 MLOAD DUP2 ADD SWAP1 PUSH2 0x1353 SWAP2 SWAP1 PUSH2 0x235D JUMP JUMPDEST JUMPDEST DUP2 PUSH1 0x3 SIGNEXTEND SWAP2 POP DUP1 SWAP6 POP DUP2 SWAP7 POP POP POP POP POP POP SWAP6 POP SWAP6 SWAP4 POP POP POP POP JUMP JUMPDEST PUSH2 0x1377 PUSH2 0x196C JUMP JUMPDEST DUP4 DUP2 PUSH1 0x0 ADD SWAP1 PUSH4 0xFFFFFFFF AND SWAP1 DUP2 PUSH4 0xFFFFFFFF AND DUP2 MSTORE POP POP DUP3 DUP2 PUSH1 0x20 ADD SWAP1 PUSH4 0xFFFFFFFF AND SWAP1 DUP2 PUSH4 0xFFFFFFFF AND DUP2 MSTORE POP POP DUP2 DUP2 PUSH1 0xA0 ADD SWAP1 PUSH20 0xFFFFFFFFFFFFFFFFFFFFFFFFFFFFFFFFFFFFFFFF AND SWAP1 DUP2 PUSH20 0xFFFFFFFFFFFFFFFFFFFFFFFFFFFFFFFFFFFFFFFF AND DUP2 MSTORE POP POP SWAP4 SWAP3 POP POP POP JUMP JUMPDEST PUSH2 0x13EE PUSH2 0x196C JUMP JUMPDEST DUP5 DUP2 PUSH1 0x0 ADD SWAP1 PUSH4 0xFFFFFFFF AND SWAP1 DUP2 PUSH4 0xFFFFFFFF AND DUP2 MSTORE POP POP DUP4 DUP2 PUSH1 0x20 ADD SWAP1 PUSH4 0xFFFFFFFF AND SWAP1 DUP2 PUSH4 0xFFFFFFFF AND DUP2 MSTORE POP POP DUP3 DUP2 PUSH1 0x40 ADD SWAP1 PUSH4 0xFFFFFFFF AND SWAP1 DUP2 PUSH4 0xFFFFFFFF AND DUP2 MSTORE POP POP PUSH1 0x1 DUP2 PUSH1 0x80 ADD SWAP1 ISZERO ISZERO SWAP1 DUP2 ISZERO ISZERO DUP2 MSTORE POP POP DUP2 DUP2 PUSH1 0xA0 ADD SWAP1 PUSH20 0xFFFFFFFFFFFFFFFFFFFFFFFFFFFFFFFFFFFFFFFF AND SWAP1 DUP2 PUSH20 0xFFFFFFFFFFFFFFFFFFFFFFFFFFFFFFFFFFFFFFFF AND DUP2 MSTORE POP POP SWAP5 SWAP4 POP POP POP POP JUMP JUMPDEST PUSH2 0x148F PUSH2 0x196C JUMP JUMPDEST DUP6 DUP2 PUSH1 0x0 ADD SWAP1 PUSH4 0xFFFFFFFF AND SWAP1 DUP2 PUSH4 0xFFFFFFFF AND DUP2 MSTORE POP POP DUP5 DUP2 PUSH1 0x20 ADD SWAP1 PUSH4 0xFFFFFFFF AND SWAP1 DUP2 PUSH4 0xFFFFFFFF AND DUP2 MSTORE POP POP DUP4 DUP2 PUSH1 0x40 ADD SWAP1 PUSH4 0xFFFFFFFF AND SWAP1 DUP2 PUSH4 0xFFFFFFFF AND DUP2 MSTORE POP POP DUP3 DUP2 PUSH1 0x60 ADD SWAP1 PUSH20 0xFFFFFFFFFFFFFFFFFFFFFFFFFFFFFFFFFFFFFFFF AND SWAP1 DUP2 PUSH20 0xFFFFFFFFFFFFFFFFFFFFFFFFFFFFFFFFFFFFFFFF AND DUP2 MSTORE POP POP DUP2 DUP2 PUSH1 0xA0 ADD SWAP1 PUSH20 0xFFFFFFFFFFFFFFFFFFFFFFFFFFFFFFFFFFFFFFFF AND SWAP1 DUP2 PUSH20 0xFFFFFFFFFFFFFFFFFFFFFFFFFFFFFFFFFFFFFFFF AND DUP2 MSTORE POP POP SWAP6 SWAP5 POP POP POP POP POP JUMP JUMPDEST PUSH1 0x0 DUP1 DUP5 PUSH1 0x0 DUP2 PUSH2 0x100 ADD MLOAD PUSH1 0x0 ADD MLOAD PUSH4 0xFFFFFFFF AND EQ DUP1 ISZERO PUSH2 0x1582 JUMPI POP PUSH1 0x0 DUP2 PUSH2 0x100 ADD MLOAD PUSH1 0x40 ADD MLOAD PUSH4 0xFFFFFFFF AND EQ JUMPDEST ISZERO PUSH2 0x15A8 JUMPI PUSH3 0x76A700 DUP2 PUSH2 0x100 ADD MLOAD PUSH1 0x40 ADD SWAP1 PUSH4 0xFFFFFFFF AND SWAP1 DUP2 PUSH4 0xFFFFFFFF AND DUP2 MSTORE POP POP JUMPDEST PUSH1 0x0 DUP1 PUSH2 0x167 PUSH20 0xFFFFFFFFFFFFFFFFFFFFFFFFFFFFFFFFFFFFFFFF AND CALLVALUE PUSH4 0x5BC7C0E6 PUSH1 0xE0 SHL DUP11 DUP11 DUP11 PUSH1 0x40 MLOAD PUSH1 0x24 ADD PUSH2 0x15E2 SWAP4 SWAP3 SWAP2 SWAP1 PUSH2 0x2792 JUMP JUMPDEST PUSH1 0x40 MLOAD PUSH1 0x20 DUP2 DUP4 SUB SUB DUP2 MSTORE SWAP1 PUSH1 0x40 MSTORE SWAP1 PUSH28 0xFFFFFFFFFFFFFFFFFFFFFFFFFFFFFFFFFFFFFFFFFFFFFFFFFFFFFFFF NOT AND PUSH1 0x20 DUP3 ADD DUP1 MLOAD PUSH28 0xFFFFFFFFFFFFFFFFFFFFFFFFFFFFFFFFFFFFFFFFFFFFFFFFFFFFFFFF DUP4 DUP2 DUP4 AND OR DUP4 MSTORE POP POP POP POP PUSH1 0x40 MLOAD PUSH2 0x164C SWAP2 SWAP1 PUSH2 0x22CF JUMP JUMPDEST PUSH1 0x0 PUSH1 0x40 MLOAD DUP1 DUP4 SUB DUP2 DUP6 DUP8 GAS CALL SWAP3 POP POP POP RETURNDATASIZE DUP1 PUSH1 0x0 DUP2 EQ PUSH2 0x1689 JUMPI PUSH1 0x40 MLOAD SWAP2 POP PUSH1 0x1F NOT PUSH1 0x3F RETURNDATASIZE ADD AND DUP3 ADD PUSH1 0x40 MSTORE RETURNDATASIZE DUP3 MSTORE RETURNDATASIZE PUSH1 0x0 PUSH1 0x20 DUP5 ADD RETURNDATACOPY PUSH2 0x168E JUMP JUMPDEST PUSH1 0x60 SWAP2 POP JUMPDEST POP SWAP2 POP SWAP2 POP DUP2 PUSH2 0x16A1 JUMPI PUSH1 0x15 PUSH1 0x0 PUSH2 0x16B6 JUMP JUMPDEST DUP1 DUP1 PUSH1 0x20 ADD SWAP1 MLOAD DUP2 ADD SWAP1 PUSH2 0x16B5 SWAP2 SWAP1 PUSH2 0x235D JUMP JUMPDEST JUMPDEST DUP2 PUSH1 0x3 SIGNEXTEND SWAP2 POP DUP1 SWAP6 POP DUP2 SWAP7 POP POP POP POP POP POP SWAP4 POP SWAP4 SWAP2 POP POP JUMP JUMPDEST PUSH2 0x16D7 PUSH2 0x17D2 JUMP JUMPDEST PUSH1 0x1 DUP5 SUB PUSH2 0x16F5 JUMPI PUSH1 0x1 DUP2 PUSH1 0x0 ADD SWAP1 ISZERO ISZERO SWAP1 DUP2 ISZERO ISZERO DUP2 MSTORE POP POP PUSH2 0x17AB JUMP JUMPDEST PUSH1 0x2 DUP5 SUB PUSH2 0x173A JUMPI DUP2 DUP2 PUSH1 0x20 ADD SWAP1 PUSH20 0xFFFFFFFFFFFFFFFFFFFFFFFFFFFFFFFFFFFFFFFF AND SWAP1 DUP2 PUSH20 0xFFFFFFFFFFFFFFFFFFFFFFFFFFFFFFFFFFFFFFFF AND DUP2 MSTORE POP POP PUSH2 0x17AA JUMP JUMPDEST PUSH1 0x3 DUP5 SUB PUSH2 0x1750 JUMPI DUP3 DUP2 PUSH1 0x40 ADD DUP2 SWAP1 MSTORE POP PUSH2 0x17A9 JUMP JUMPDEST PUSH1 0x4 DUP5 SUB PUSH2 0x1766 JUMPI DUP3 DUP2 PUSH1 0x60 ADD DUP2 SWAP1 MSTORE POP PUSH2 0x17A8 JUMP JUMPDEST PUSH1 0x5 DUP5 SUB PUSH2 0x17A7 JUMPI DUP2 DUP2 PUSH1 0x80 ADD SWAP1 PUSH20 0xFFFFFFFFFFFFFFFFFFFFFFFFFFFFFFFFFFFFFFFF AND SWAP1 DUP2 PUSH20 0xFFFFFFFFFFFFFFFFFFFFFFFFFFFFFFFFFFFFFFFF AND DUP2 MSTORE POP POP JUMPDEST JUMPDEST JUMPDEST JUMPDEST JUMPDEST SWAP4 SWAP3 POP POP POP JUMP JUMPDEST PUSH1 0x40 MLOAD DUP1 PUSH1 0x40 ADD PUSH1 0x40 MSTORE DUP1 PUSH1 0x0 DUP2 MSTORE PUSH1 0x20 ADD PUSH2 0x17CC PUSH2 0x17D2 JUMP JUMPDEST DUP2 MSTORE POP SWAP1 JUMP JUMPDEST PUSH1 0x40 MLOAD DUP1 PUSH1 0xA0 ADD PUSH1 0x40 MSTORE DUP1 PUSH1 0x0 ISZERO ISZERO DUP2 MSTORE PUSH1 0x20 ADD PUSH1 0x0 PUSH20 0xFFFFFFFFFFFFFFFFFFFFFFFFFFFFFFFFFFFFFFFF AND DUP2 MSTORE PUSH1 0x20 ADD PUSH1 0x60 DUP2 MSTORE PUSH1 0x20 ADD PUSH1 0x60 DUP2 MSTORE PUSH1 0x20 ADD PUSH1 0x0 PUSH20 0xFFFFFFFFFFFFFFFFFFFFFFFFFFFFFFFFFFFFFFFF AND DUP2 MSTORE POP SWAP1 JUMP JUMPDEST PUSH1 0x40 MLOAD DUP1 PUSH2 0x120 ADD PUSH1 0x40 MSTORE DUP1 PUSH1 0x60 DUP2 MSTORE PUSH1 0x20 ADD PUSH1 0x60 DUP2 MSTORE PUSH1 0x20 ADD PUSH1 0x0 PUSH20 0xFFFFFFFFFFFFFFFFFFFFFFFFFFFFFFFFFFFFFFFF AND DUP2 MSTORE PUSH1 0x20 ADD PUSH1 0x60 DUP2 MSTORE PUSH1 0x20 ADD PUSH1 0x0 ISZERO ISZERO DUP2 MSTORE PUSH1 0x20 ADD PUSH1 0x0 PUSH4 0xFFFFFFFF AND DUP2 MSTORE PUSH1 0x20 ADD PUSH1 0x0 ISZERO ISZERO DUP2 MSTORE PUSH1 0x20 ADD PUSH1 0x60 DUP2 MSTORE PUSH1 0x20 ADD PUSH2 0x189B PUSH2 0x19E2 JUMP JUMPDEST DUP2 MSTORE POP SWAP1 JUMP JUMPDEST PUSH1 0x40 MLOAD DUP1 PUSH1 0xA0 ADD PUSH1 0x40 MSTORE DUP1 PUSH1 0x0 PUSH4 0xFFFFFFFF AND DUP2 MSTORE PUSH1 0x20 ADD PUSH1 0x0 PUSH20 0xFFFFFFFFFFFFFFFFFFFFFFFFFFFFFFFFFFFFFFFF AND DUP2 MSTORE PUSH1 0x20 ADD PUSH1 0x0 ISZERO ISZERO DUP2 MSTORE PUSH1 0x20 ADD PUSH1 0x0 ISZERO ISZERO DUP2 MSTORE PUSH1 0x20 ADD PUSH1 0x0 PUSH20 0xFFFFFFFFFFFFFFFFFFFFFFFFFFFFFFFFFFFFFFFF AND DUP2 MSTORE POP SWAP1 JUMP JUMPDEST PUSH1 0x40 MLOAD DUP1 PUSH1 0xC0 ADD PUSH1 0x40 MSTORE DUP1 PUSH1 0x0 PUSH4 0xFFFFFFFF AND DUP2 MSTORE PUSH1 0x20 ADD PUSH1 0x0 PUSH4 0xFFFFFFFF AND DUP2 MSTORE PUSH1 0x20 ADD PUSH1 0x0 PUSH4 0xFFFFFFFF AND DUP2 MSTORE PUSH1 0x20 ADD PUSH1 0x0 PUSH4 0xFFFFFFFF AND DUP2 MSTORE PUSH1 0x20 ADD PUSH1 0x0 ISZERO ISZERO DUP2 MSTORE PUSH1 0x20 ADD PUSH1 0x0 PUSH20 0xFFFFFFFFFFFFFFFFFFFFFFFFFFFFFFFFFFFFFFFF AND DUP2 MSTORE POP SWAP1 JUMP JUMPDEST PUSH1 0x40 MLOAD DUP1 PUSH1 0xC0 ADD PUSH1 0x40 MSTORE DUP1 PUSH1 0x0 PUSH4 0xFFFFFFFF AND DUP2 MSTORE PUSH1 0x20 ADD PUSH1 0x0 PUSH4 0xFFFFFFFF AND DUP2 MSTORE PUSH1 0x20 ADD PUSH1 0x0 PUSH4 0xFFFFFFFF AND DUP2 MSTORE PUSH1 0x20 ADD PUSH1 0x0 PUSH20 0xFFFFFFFFFFFFFFFFFFFFFFFFFFFFFFFFFFFFFFFF AND DUP2 MSTORE PUSH1 0x20 ADD PUSH1 0x0 ISZERO ISZERO DUP2 MSTORE PUSH1 0x20 ADD PUSH1 0x0 PUSH20 0xFFFFFFFFFFFFFFFFFFFFFFFFFFFFFFFFFFFFFFFF AND DUP2 MSTORE POP SWAP1 JUMP JUMPDEST PUSH1 0x40 MLOAD DUP1 PUSH1 0x60 ADD PUSH1 0x40 MSTORE DUP1 PUSH1 0x0 PUSH4 0xFFFFFFFF AND DUP2 MSTORE PUSH1 0x20 ADD PUSH1 0x0 PUSH20 0xFFFFFFFFFFFFFFFFFFFFFFFFFFFFFFFFFFFFFFFF AND DUP2 MSTORE PUSH1 0x20 ADD PUSH1 0x0 PUSH4 0xFFFFFFFF AND DUP2 MSTORE POP SWAP1 JUMP JUMPDEST PUSH1 0x0 PUSH1 0x40 MLOAD SWAP1 POP SWAP1 JUMP JUMPDEST PUSH1 0x0 DUP1 REVERT JUMPDEST PUSH1 0x0 DUP1 REVERT JUMPDEST PUSH1 0x0 DUP1 REVERT JUMPDEST PUSH1 0x0 DUP1 REVERT JUMPDEST PUSH1 0x0 PUSH1 0x1F NOT PUSH1 0x1F DUP4 ADD AND SWAP1 POP SWAP2 SWAP1 POP JUMP JUMPDEST PUSH32 0x4E487B7100000000000000000000000000000000000000000000000000000000 PUSH1 0x0 MSTORE PUSH1 0x41 PUSH1 0x4 MSTORE PUSH1 0x24 PUSH1 0x0 REVERT JUMPDEST PUSH2 0x1A8C DUP3 PUSH2 0x1A43 JUMP JUMPDEST DUP2 ADD DUP2 DUP2 LT PUSH8 0xFFFFFFFFFFFFFFFF DUP3 GT OR ISZERO PUSH2 0x1AAB JUMPI PUSH2 0x1AAA PUSH2 0x1A54 JUMP JUMPDEST JUMPDEST DUP1 PUSH1 0x40 MSTORE POP POP POP JUMP JUMPDEST PUSH1 0x0 PUSH2 0x1ABE PUSH2 0x1A25 JUMP JUMPDEST SWAP1 POP PUSH2 0x1ACA DUP3 DUP3 PUSH2 0x1A83 JUMP JUMPDEST SWAP2 SWAP1 POP JUMP JUMPDEST PUSH1 0x0 PUSH8 0xFFFFFFFFFFFFFFFF DUP3 GT ISZERO PUSH2 0x1AEA JUMPI PUSH2 0x1AE9 PUSH2 0x1A54 JUMP JUMPDEST JUMPDEST PUSH2 0x1AF3 DUP3 PUSH2 0x1A43 JUMP JUMPDEST SWAP1 POP PUSH1 0x20 DUP2 ADD SWAP1 POP SWAP2 SWAP1 POP JUMP JUMPDEST DUP3 DUP2 DUP4 CALLDATACOPY PUSH1 0x0 DUP4 DUP4 ADD MSTORE POP POP POP JUMP JUMPDEST PUSH1 0x0 PUSH2 0x1B22 PUSH2 0x1B1D DUP5 PUSH2 0x1ACF JUMP JUMPDEST PUSH2 0x1AB4 JUMP JUMPDEST SWAP1 POP DUP3 DUP2 MSTORE PUSH1 0x20 DUP2 ADD DUP5 DUP5 DUP5 ADD GT ISZERO PUSH2 0x1B3E JUMPI PUSH2 0x1B3D PUSH2 0x1A3E JUMP JUMPDEST JUMPDEST PUSH2 0x1B49 DUP5 DUP3 DUP6 PUSH2 0x1B00 JUMP JUMPDEST POP SWAP4 SWAP3 POP POP POP JUMP JUMPDEST PUSH1 0x0 DUP3 PUSH1 0x1F DUP4 ADD SLT PUSH2 0x1B66 JUMPI PUSH2 0x1B65 PUSH2 0x1A39 JUMP JUMPDEST JUMPDEST DUP2 CALLDATALOAD PUSH2 0x1B76 DUP5 DUP3 PUSH1 0x20 DUP7 ADD PUSH2 0x1B0F JUMP JUMPDEST SWAP2 POP POP SWAP3 SWAP2 POP POP JUMP JUMPDEST PUSH1 0x0 PUSH20 0xFFFFFFFFFFFFFFFFFFFFFFFFFFFFFFFFFFFFFFFF DUP3 AND SWAP1 POP SWAP2 SWAP1 POP JUMP JUMPDEST PUSH1 0x0 PUSH2 0x1BAA DUP3 PUSH2 0x1B7F JUMP JUMPDEST SWAP1 POP SWAP2 SWAP1 POP JUMP JUMPDEST PUSH2 0x1BBA DUP2 PUSH2 0x1B9F JUMP JUMPDEST DUP2 EQ PUSH2 0x1BC5 JUMPI PUSH1 0x0 DUP1 REVERT JUMPDEST POP JUMP JUMPDEST PUSH1 0x0 DUP2 CALLDATALOAD SWAP1 POP PUSH2 0x1BD7 DUP2 PUSH2 0x1BB1 JUMP JUMPDEST SWAP3 SWAP2 POP POP JUMP JUMPDEST PUSH1 0x0 PUSH4 0xFFFFFFFF DUP3 AND SWAP1 POP SWAP2 SWAP1 POP JUMP JUMPDEST PUSH2 0x1BF6 DUP2 PUSH2 0x1BDD JUMP JUMPDEST DUP2 EQ PUSH2 0x1C01 JUMPI PUSH1 0x0 DUP1 REVERT JUMPDEST POP JUMP JUMPDEST PUSH1 0x0 DUP2 CALLDATALOAD SWAP1 POP PUSH2 0x1C13 DUP2 PUSH2 0x1BED JUMP JUMPDEST SWAP3 SWAP2 POP POP JUMP JUMPDEST PUSH1 0x0 DUP1 PUSH1 0x0 DUP1 PUSH1 0x80 DUP6 DUP8 SUB SLT ISZERO PUSH2 0x1C33 JUMPI PUSH2 0x1C32 PUSH2 0x1A2F JUMP JUMPDEST JUMPDEST PUSH1 0x0 DUP6 ADD CALLDATALOAD PUSH8 0xFFFFFFFFFFFFFFFF DUP2 GT ISZERO PUSH2 0x1C51 JUMPI PUSH2 0x1C50 PUSH2 0x1A34 JUMP JUMPDEST JUMPDEST PUSH2 0x1C5D DUP8 DUP3 DUP9 ADD PUSH2 0x1B51 JUMP JUMPDEST SWAP5 POP POP PUSH1 0x20 DUP6 ADD CALLDATALOAD PUSH8 0xFFFFFFFFFFFFFFFF DUP2 GT ISZERO PUSH2 0x1C7E JUMPI PUSH2 0x1C7D PUSH2 0x1A34 JUMP JUMPDEST JUMPDEST PUSH2 0x1C8A DUP8 DUP3 DUP9 ADD PUSH2 0x1B51 JUMP JUMPDEST SWAP4 POP POP PUSH1 0x40 PUSH2 0x1C9B DUP8 DUP3 DUP9 ADD PUSH2 0x1BC8 JUMP JUMPDEST SWAP3 POP POP PUSH1 0x60 PUSH2 0x1CAC DUP8 DUP3 DUP9 ADD PUSH2 0x1C04 JUMP JUMPDEST SWAP2 POP POP SWAP3 SWAP6 SWAP2 SWAP5 POP SWAP3 POP JUMP JUMPDEST PUSH2 0x1CC1 DUP2 PUSH2 0x1B9F JUMP JUMPDEST DUP3 MSTORE POP POP JUMP JUMPDEST PUSH1 0x0 PUSH1 0x20 DUP3 ADD SWAP1 POP PUSH2 0x1CDC PUSH1 0x0 DUP4 ADD DUP5 PUSH2 0x1CB8 JUMP JUMPDEST SWAP3 SWAP2 POP POP JUMP JUMPDEST PUSH1 0x0 DUP1 PUSH1 0x0 PUSH1 0x60 DUP5 DUP7 SUB SLT ISZERO PUSH2 0x1CFB JUMPI PUSH2 0x1CFA PUSH2 0x1A2F JUMP JUMPDEST JUMPDEST PUSH1 0x0 PUSH2 0x1D09 DUP7 DUP3 DUP8 ADD PUSH2 0x1BC8 JUMP JUMPDEST SWAP4 POP POP PUSH1 0x20 PUSH2 0x1D1A DUP7 DUP3 DUP8 ADD PUSH2 0x1BC8 JUMP JUMPDEST SWAP3 POP POP PUSH1 0x40 PUSH2 0x1D2B DUP7 DUP3 DUP8 ADD PUSH2 0x1C04 JUMP JUMPDEST SWAP2 POP POP SWAP3 POP SWAP3 POP SWAP3 JUMP JUMPDEST PUSH1 0x0 DUP1 PUSH1 0x0 DUP1 PUSH1 0x0 DUP1 PUSH1 0xC0 DUP8 DUP10 SUB SLT ISZERO PUSH2 0x1D52 JUMPI PUSH2 0x1D51 PUSH2 0x1A2F JUMP JUMPDEST JUMPDEST PUSH1 0x0 DUP8 ADD CALLDATALOAD PUSH8 0xFFFFFFFFFFFFFFFF DUP2 GT ISZERO PUSH2 0x1D70 JUMPI PUSH2 0x1D6F PUSH2 0x1A34 JUMP JUMPDEST JUMPDEST PUSH2 0x1D7C DUP10 DUP3 DUP11 ADD PUSH2 0x1B51 JUMP JUMPDEST SWAP7 POP POP PUSH1 0x20 PUSH2 0x1D8D DUP10 DUP3 DUP11 ADD PUSH2 0x1BC8 JUMP JUMPDEST SWAP6 POP POP PUSH1 0x40 PUSH2 0x1D9E DUP10 DUP3 DUP11 ADD PUSH2 0x1BC8 JUMP JUMPDEST SWAP5 POP POP PUSH1 0x60 PUSH2 0x1DAF DUP10 DUP3 DUP11 ADD PUSH2 0x1BC8 JUMP JUMPDEST SWAP4 POP POP PUSH1 0x80 PUSH2 0x1DC0 DUP10 DUP3 DUP11 ADD PUSH2 0x1BC8 JUMP JUMPDEST SWAP3 POP POP PUSH1 0xA0 PUSH2 0x1DD1 DUP10 DUP3 DUP11 ADD PUSH2 0x1C04 JUMP JUMPDEST SWAP2 POP POP SWAP3 SWAP6 POP SWAP3 SWAP6 POP SWAP3 SWAP6 JUMP JUMPDEST PUSH1 0x0 DUP1 PUSH1 0x0 DUP1 PUSH1 0x0 PUSH1 0xA0 DUP7 DUP9 SUB SLT ISZERO PUSH2 0x1DFA JUMPI PUSH2 0x1DF9 PUSH2 0x1A2F JUMP JUMPDEST JUMPDEST PUSH1 0x0 PUSH2 0x1E08 DUP9 DUP3 DUP10 ADD PUSH2 0x1BC8 JUMP JUMPDEST SWAP6 POP POP PUSH1 0x20 PUSH2 0x1E19 DUP9 DUP3 DUP10 ADD PUSH2 0x1BC8 JUMP JUMPDEST SWAP5 POP POP PUSH1 0x40 PUSH2 0x1E2A DUP9 DUP3 DUP10 ADD PUSH2 0x1BC8 JUMP JUMPDEST SWAP4 POP POP PUSH1 0x60 PUSH2 0x1E3B DUP9 DUP3 DUP10 ADD PUSH2 0x1BC8 JUMP JUMPDEST SWAP3 POP POP PUSH1 0x80 PUSH2 0x1E4C DUP9 DUP3 DUP10 ADD PUSH2 0x1C04 JUMP JUMPDEST SWAP2 POP POP SWAP3 SWAP6 POP SWAP3 SWAP6 SWAP1 SWAP4 POP JUMP JUMPDEST PUSH32 0x4E487B7100000000000000000000000000000000000000000000000000000000 PUSH1 0x0 MSTORE PUSH1 0x32 PUSH1 0x4 MSTORE PUSH1 0x24 PUSH1 0x0 REVERT JUMPDEST PUSH1 0x0 DUP2 MLOAD SWAP1 POP SWAP2 SWAP1 POP JUMP JUMPDEST PUSH1 0x0 DUP3 DUP3 MSTORE PUSH1 0x20 DUP3 ADD SWAP1 POP SWAP3 SWAP2 POP POP JUMP JUMPDEST PUSH1 0x0 JUMPDEST DUP4 DUP2 LT ISZERO PUSH2 0x1EC2 JUMPI DUP1 DUP3 ADD MLOAD DUP2 DUP5 ADD MSTORE PUSH1 0x20 DUP2 ADD SWAP1 POP PUSH2 0x1EA7 JUMP JUMPDEST PUSH1 0x0 DUP5 DUP5 ADD MSTORE POP POP POP POP JUMP JUMPDEST PUSH1 0x0 PUSH2 0x1ED9 DUP3 PUSH2 0x1E88 JUMP JUMPDEST PUSH2 0x1EE3 DUP2 DUP6 PUSH2 0x1E93 JUMP JUMPDEST SWAP4 POP PUSH2 0x1EF3 DUP2 DUP6 PUSH1 0x20 DUP7 ADD PUSH2 0x1EA4 JUMP JUMPDEST PUSH2 0x1EFC DUP2 PUSH2 0x1A43 JUMP JUMPDEST DUP5 ADD SWAP2 POP POP SWAP3 SWAP2 POP POP JUMP JUMPDEST PUSH2 0x1F10 DUP2 PUSH2 0x1B9F JUMP JUMPDEST DUP3 MSTORE POP POP JUMP JUMPDEST PUSH1 0x0 DUP2 ISZERO ISZERO SWAP1 POP SWAP2 SWAP1 POP JUMP JUMPDEST PUSH2 0x1F2B DUP2 PUSH2 0x1F16 JUMP JUMPDEST DUP3 MSTORE POP POP JUMP JUMPDEST PUSH2 0x1F3A DUP2 PUSH2 0x1BDD JUMP JUMPDEST DUP3 MSTORE POP POP JUMP JUMPDEST PUSH1 0x0 DUP2 MLOAD SWAP1 POP SWAP2 SWAP1 POP JUMP JUMPDEST PUSH1 0x0 DUP3 DUP3 MSTORE PUSH1 0x20 DUP3 ADD SWAP1 POP SWAP3 SWAP2 POP POP JUMP JUMPDEST PUSH1 0x0 DUP2 SWAP1 POP PUSH1 0x20 DUP3 ADD SWAP1 POP SWAP2 SWAP1 POP JUMP JUMPDEST PUSH1 0x0 DUP2 SWAP1 POP SWAP2 SWAP1 POP JUMP JUMPDEST PUSH2 0x1F7F DUP2 PUSH2 0x1F6C JUMP JUMPDEST DUP3 MSTORE POP POP JUMP JUMPDEST PUSH1 0x0 DUP2 MLOAD SWAP1 POP SWAP2 SWAP1 POP JUMP JUMPDEST PUSH1 0x0 DUP3 DUP3 MSTORE PUSH1 0x20 DUP3 ADD SWAP1 POP SWAP3 SWAP2 POP POP JUMP JUMPDEST PUSH1 0x0 PUSH2 0x1FAC DUP3 PUSH2 0x1F85 JUMP JUMPDEST PUSH2 0x1FB6 DUP2 DUP6 PUSH2 0x1F90 JUMP JUMPDEST SWAP4 POP PUSH2 0x1FC6 DUP2 DUP6 PUSH1 0x20 DUP7 ADD PUSH2 0x1EA4 JUMP JUMPDEST PUSH2 0x1FCF DUP2 PUSH2 0x1A43 JUMP JUMPDEST DUP5 ADD SWAP2 POP POP SWAP3 SWAP2 POP POP JUMP JUMPDEST PUSH1 0x0 PUSH1 0xA0 DUP4 ADD PUSH1 0x0 DUP4 ADD MLOAD PUSH2 0x1FF2 PUSH1 0x0 DUP7 ADD DUP3 PUSH2 0x1F22 JUMP JUMPDEST POP PUSH1 0x20 DUP4 ADD MLOAD PUSH2 0x2005 PUSH1 0x20 DUP7 ADD DUP3 PUSH2 0x1F07 JUMP JUMPDEST POP PUSH1 0x40 DUP4 ADD MLOAD DUP5 DUP3 SUB PUSH1 0x40 DUP7 ADD MSTORE PUSH2 0x201D DUP3 DUP3 PUSH2 0x1FA1 JUMP JUMPDEST SWAP2 POP POP PUSH1 0x60 DUP4 ADD MLOAD DUP5 DUP3 SUB PUSH1 0x60 DUP7 ADD MSTORE PUSH2 0x2037 DUP3 DUP3 PUSH2 0x1FA1 JUMP JUMPDEST SWAP2 POP POP PUSH1 0x80 DUP4 ADD MLOAD PUSH2 0x204C PUSH1 0x80 DUP7 ADD DUP3 PUSH2 0x1F07 JUMP JUMPDEST POP DUP1 SWAP2 POP POP SWAP3 SWAP2 POP POP JUMP JUMPDEST PUSH1 0x0 PUSH1 0x40 DUP4 ADD PUSH1 0x0 DUP4 ADD MLOAD PUSH2 0x206F PUSH1 0x0 DUP7 ADD DUP3 PUSH2 0x1F76 JUMP JUMPDEST POP PUSH1 0x20 DUP4 ADD MLOAD DUP5 DUP3 SUB PUSH1 0x20 DUP7 ADD MSTORE PUSH2 0x2087 DUP3 DUP3 PUSH2 0x1FDA JUMP JUMPDEST SWAP2 POP POP DUP1 SWAP2 POP POP SWAP3 SWAP2 POP POP JUMP JUMPDEST PUSH1 0x0 PUSH2 0x20A0 DUP4 DUP4 PUSH2 0x2057 JUMP JUMPDEST SWAP1 POP SWAP3 SWAP2 POP POP JUMP JUMPDEST PUSH1 0x0 PUSH1 0x20 DUP3 ADD SWAP1 POP SWAP2 SWAP1 POP JUMP JUMPDEST PUSH1 0x0 PUSH2 0x20C0 DUP3 PUSH2 0x1F40 JUMP JUMPDEST PUSH2 0x20CA DUP2 DUP6 PUSH2 0x1F4B JUMP JUMPDEST SWAP4 POP DUP4 PUSH1 0x20 DUP3 MUL DUP6 ADD PUSH2 0x20DC DUP6 PUSH2 0x1F5C JUMP JUMPDEST DUP1 PUSH1 0x0 JUMPDEST DUP6 DUP2 LT ISZERO PUSH2 0x2118 JUMPI DUP5 DUP5 SUB DUP10 MSTORE DUP2 MLOAD PUSH2 0x20F9 DUP6 DUP3 PUSH2 0x2094 JUMP JUMPDEST SWAP5 POP PUSH2 0x2104 DUP4 PUSH2 0x20A8 JUMP JUMPDEST SWAP3 POP PUSH1 0x20 DUP11 ADD SWAP10 POP POP PUSH1 0x1 DUP2 ADD SWAP1 POP PUSH2 0x20E0 JUMP JUMPDEST POP DUP3 SWAP8 POP DUP8 SWAP6 POP POP POP POP POP POP SWAP3 SWAP2 POP POP JUMP JUMPDEST PUSH1 0x60 DUP3 ADD PUSH1 0x0 DUP3 ADD MLOAD PUSH2 0x2140 PUSH1 0x0 DUP6 ADD DUP3 PUSH2 0x1F31 JUMP JUMPDEST POP PUSH1 0x20 DUP3 ADD MLOAD PUSH2 0x2153 PUSH1 0x20 DUP6 ADD DUP3 PUSH2 0x1F07 JUMP JUMPDEST POP PUSH1 0x40 DUP3 ADD MLOAD PUSH2 0x2166 PUSH1 0x40 DUP6 ADD DUP3 PUSH2 0x1F31 JUMP JUMPDEST POP POP POP POP JUMP JUMPDEST PUSH1 0x0 PUSH2 0x160 DUP4 ADD PUSH1 0x0 DUP4 ADD MLOAD DUP5 DUP3 SUB PUSH1 0x0 DUP7 ADD MSTORE PUSH2 0x218A DUP3 DUP3 PUSH2 0x1ECE JUMP JUMPDEST SWAP2 POP POP PUSH1 0x20 DUP4 ADD MLOAD DUP5 DUP3 SUB PUSH1 0x20 DUP7 ADD MSTORE PUSH2 0x21A4 DUP3 DUP3 PUSH2 0x1ECE JUMP JUMPDEST SWAP2 POP POP PUSH1 0x40 DUP4 ADD MLOAD PUSH2 0x21B9 PUSH1 0x40 DUP7 ADD DUP3 PUSH2 0x1F07 JUMP JUMPDEST POP PUSH1 0x60 DUP4 ADD MLOAD DUP5 DUP3 SUB PUSH1 0x60 DUP7 ADD MSTORE PUSH2 0x21D1 DUP3 DUP3 PUSH2 0x1ECE JUMP JUMPDEST SWAP2 POP POP PUSH1 0x80 DUP4 ADD MLOAD PUSH2 0x21E6 PUSH1 0x80 DUP7 ADD DUP3 PUSH2 0x1F22 JUMP JUMPDEST POP PUSH1 0xA0 DUP4 ADD MLOAD PUSH2 0x21F9 PUSH1 0xA0 DUP7 ADD DUP3 PUSH2 0x1F31 JUMP JUMPDEST POP PUSH1 0xC0 DUP4 ADD MLOAD PUSH2 0x220C PUSH1 0xC0 DUP7 ADD DUP3 PUSH2 0x1F22 JUMP JUMPDEST POP PUSH1 0xE0 DUP4 ADD MLOAD DUP5 DUP3 SUB PUSH1 0xE0 DUP7 ADD MSTORE PUSH2 0x2224 DUP3 DUP3 PUSH2 0x20B5 JUMP JUMPDEST SWAP2 POP POP PUSH2 0x100 DUP4 ADD MLOAD PUSH2 0x223B PUSH2 0x100 DUP7 ADD DUP3 PUSH2 0x212A JUMP JUMPDEST POP DUP1 SWAP2 POP POP SWAP3 SWAP2 POP POP JUMP JUMPDEST PUSH2 0x224F DUP2 PUSH2 0x1F6C JUMP JUMPDEST DUP3 MSTORE POP POP JUMP JUMPDEST PUSH1 0x0 PUSH1 0x60 DUP3 ADD SWAP1 POP DUP2 DUP2 SUB PUSH1 0x0 DUP4 ADD MSTORE PUSH2 0x226F DUP2 DUP7 PUSH2 0x216C JUMP JUMPDEST SWAP1 POP PUSH2 0x227E PUSH1 0x20 DUP4 ADD DUP6 PUSH2 0x2246 JUMP JUMPDEST PUSH2 0x228B PUSH1 0x40 DUP4 ADD DUP5 PUSH2 0x2246 JUMP JUMPDEST SWAP5 SWAP4 POP POP POP POP JUMP JUMPDEST PUSH1 0x0 DUP2 SWAP1 POP SWAP3 SWAP2 POP POP JUMP JUMPDEST PUSH1 0x0 PUSH2 0x22A9 DUP3 PUSH2 0x1F85 JUMP JUMPDEST PUSH2 0x22B3 DUP2 DUP6 PUSH2 0x2293 JUMP JUMPDEST SWAP4 POP PUSH2 0x22C3 DUP2 DUP6 PUSH1 0x20 DUP7 ADD PUSH2 0x1EA4 JUMP JUMPDEST DUP1 DUP5 ADD SWAP2 POP POP SWAP3 SWAP2 POP POP JUMP JUMPDEST PUSH1 0x0 PUSH2 0x22DB DUP3 DUP5 PUSH2 0x229E JUMP JUMPDEST SWAP2 POP DUP2 SWAP1 POP SWAP3 SWAP2 POP POP JUMP JUMPDEST PUSH1 0x0 DUP2 PUSH1 0x3 SIGNEXTEND SWAP1 POP SWAP2 SWAP1 POP JUMP JUMPDEST PUSH2 0x22FC DUP2 PUSH2 0x22E6 JUMP JUMPDEST DUP2 EQ PUSH2 0x2307 JUMPI PUSH1 0x0 DUP1 REVERT JUMPDEST POP JUMP JUMPDEST PUSH1 0x0 DUP2 MLOAD SWAP1 POP PUSH2 0x2319 DUP2 PUSH2 0x22F3 JUMP JUMPDEST SWAP3 SWAP2 POP POP JUMP JUMPDEST PUSH1 0x0 PUSH2 0x232A DUP3 PUSH2 0x1B7F JUMP JUMPDEST SWAP1 POP SWAP2 SWAP1 POP JUMP JUMPDEST PUSH2 0x233A DUP2 PUSH2 0x231F JUMP JUMPDEST DUP2 EQ PUSH2 0x2345 JUMPI PUSH1 0x0 DUP1 REVERT JUMPDEST POP JUMP JUMPDEST PUSH1 0x0 DUP2 MLOAD SWAP1 POP PUSH2 0x2357 DUP2 PUSH2 0x2331 JUMP JUMPDEST SWAP3 SWAP2 POP POP JUMP JUMPDEST PUSH1 0x0 DUP1 PUSH1 0x40 DUP4 DUP6 SUB SLT ISZERO PUSH2 0x2374 JUMPI PUSH2 0x2373 PUSH2 0x1A2F JUMP JUMPDEST JUMPDEST PUSH1 0x0 PUSH2 0x2382 DUP6 DUP3 DUP7 ADD PUSH2 0x230A JUMP JUMPDEST SWAP3 POP POP PUSH1 0x20 PUSH2 0x2393 DUP6 DUP3 DUP7 ADD PUSH2 0x2348 JUMP JUMPDEST SWAP2 POP POP SWAP3 POP SWAP3 SWAP1 POP JUMP JUMPDEST PUSH1 0x0 PUSH1 0x20 DUP3 ADD SWAP1 POP DUP2 DUP2 SUB PUSH1 0x0 DUP4 ADD MSTORE PUSH2 0x23B7 DUP2 DUP5 PUSH2 0x216C JUMP JUMPDEST SWAP1 POP SWAP3 SWAP2 POP POP JUMP JUMPDEST PUSH1 0x0 DUP2 MLOAD SWAP1 POP SWAP2 SWAP1 POP JUMP JUMPDEST PUSH1 0x0 DUP3 DUP3 MSTORE PUSH1 0x20 DUP3 ADD SWAP1 POP SWAP3 SWAP2 POP POP JUMP JUMPDEST PUSH1 0x0 DUP2 SWAP1 POP PUSH1 0x20 DUP3 ADD SWAP1 POP SWAP2 SWAP1 POP JUMP JUMPDEST PUSH1 0xA0 DUP3 ADD PUSH1 0x0 DUP3 ADD MLOAD PUSH2 0x2401 PUSH1 0x0 DUP6 ADD DUP3 PUSH2 0x1F31 JUMP JUMPDEST POP PUSH1 0x20 DUP3 ADD MLOAD PUSH2 0x2414 PUSH1 0x20 DUP6 ADD DUP3 PUSH2 0x1F07 JUMP JUMPDEST POP PUSH1 0x40 DUP3 ADD MLOAD PUSH2 0x2427 PUSH1 0x40 DUP6 ADD DUP3 PUSH2 0x1F22 JUMP JUMPDEST POP PUSH1 0x60 DUP3 ADD MLOAD PUSH2 0x243A PUSH1 0x60 DUP6 ADD DUP3 PUSH2 0x1F22 JUMP JUMPDEST POP PUSH1 0x80 DUP3 ADD MLOAD PUSH2 0x244D PUSH1 0x80 DUP6 ADD DUP3 PUSH2 0x1F07 JUMP JUMPDEST POP POP POP POP JUMP JUMPDEST PUSH1 0x0 PUSH2 0x245F DUP4 DUP4 PUSH2 0x23EB JUMP JUMPDEST PUSH1 0xA0 DUP4 ADD SWAP1 POP SWAP3 SWAP2 POP POP JUMP JUMPDEST PUSH1 0x0 PUSH1 0x20 DUP3 ADD SWAP1 POP SWAP2 SWAP1 POP JUMP JUMPDEST PUSH1 0x0 PUSH2 0x2483 DUP3 PUSH2 0x23BF JUMP JUMPDEST PUSH2 0x248D DUP2 DUP6 PUSH2 0x23CA JUMP JUMPDEST SWAP4 POP PUSH2 0x2498 DUP4 PUSH2 0x23DB JUMP JUMPDEST DUP1 PUSH1 0x0 JUMPDEST DUP4 DUP2 LT ISZERO PUSH2 0x24C9 JUMPI DUP2 MLOAD PUSH2 0x24B0 DUP9 DUP3 PUSH2 0x2453 JUMP JUMPDEST SWAP8 POP PUSH2 0x24BB DUP4 PUSH2 0x246B JUMP JUMPDEST SWAP3 POP POP PUSH1 0x1 DUP2 ADD SWAP1 POP PUSH2 0x249C JUMP JUMPDEST POP DUP6 SWAP4 POP POP POP POP SWAP3 SWAP2 POP POP JUMP JUMPDEST PUSH1 0x0 DUP2 MLOAD SWAP1 POP SWAP2 SWAP1 POP JUMP JUMPDEST PUSH1 0x0 DUP3 DUP3 MSTORE PUSH1 0x20 DUP3 ADD SWAP1 POP SWAP3 SWAP2 POP POP JUMP JUMPDEST PUSH1 0x0 DUP2 SWAP1 POP PUSH1 0x20 DUP3 ADD SWAP1 POP SWAP2 SWAP1 POP JUMP JUMPDEST PUSH1 0xC0 DUP3 ADD PUSH1 0x0 DUP3 ADD MLOAD PUSH2 0x2518 PUSH1 0x0 DUP6 ADD DUP3 PUSH2 0x1F31 JUMP JUMPDEST POP PUSH1 0x20 DUP3 ADD MLOAD PUSH2 0x252B PUSH1 0x20 DUP6 ADD DUP3 PUSH2 0x1F31 JUMP JUMPDEST POP PUSH1 0x40 DUP3 ADD MLOAD PUSH2 0x253E PUSH1 0x40 DUP6 ADD DUP3 PUSH2 0x1F31 JUMP JUMPDEST POP PUSH1 0x60 DUP3 ADD MLOAD PUSH2 0x2551 PUSH1 0x60 DUP6 ADD DUP3 PUSH2 0x1F31 JUMP JUMPDEST POP PUSH1 0x80 DUP3 ADD MLOAD PUSH2 0x2564 PUSH1 0x80 DUP6 ADD DUP3 PUSH2 0x1F22 JUMP JUMPDEST POP PUSH1 0xA0 DUP3 ADD MLOAD PUSH2 0x2577 PUSH1 0xA0 DUP6 ADD DUP3 PUSH2 0x1F07 JUMP JUMPDEST POP POP POP POP JUMP JUMPDEST PUSH1 0x0 PUSH2 0x2589 DUP4 DUP4 PUSH2 0x2502 JUMP JUMPDEST PUSH1 0xC0 DUP4 ADD SWAP1 POP SWAP3 SWAP2 POP POP JUMP JUMPDEST PUSH1 0x0 PUSH1 0x20 DUP3 ADD SWAP1 POP SWAP2 SWAP1 POP JUMP JUMPDEST PUSH1 0x0 PUSH2 0x25AD DUP3 PUSH2 0x24D6 JUMP JUMPDEST PUSH2 0x25B7 DUP2 DUP6 PUSH2 0x24E1 JUMP JUMPDEST SWAP4 POP PUSH2 0x25C2 DUP4 PUSH2 0x24F2 JUMP JUMPDEST DUP1 PUSH1 0x0 JUMPDEST DUP4 DUP2 LT ISZERO PUSH2 0x25F3 JUMPI DUP2 MLOAD PUSH2 0x25DA DUP9 DUP3 PUSH2 0x257D JUMP JUMPDEST SWAP8 POP PUSH2 0x25E5 DUP4 PUSH2 0x2595 JUMP JUMPDEST SWAP3 POP POP PUSH1 0x1 DUP2 ADD SWAP1 POP PUSH2 0x25C6 JUMP JUMPDEST POP DUP6 SWAP4 POP POP POP POP SWAP3 SWAP2 POP POP JUMP JUMPDEST PUSH1 0x0 PUSH1 0xA0 DUP3 ADD SWAP1 POP DUP2 DUP2 SUB PUSH1 0x0 DUP4 ADD MSTORE PUSH2 0x261A DUP2 DUP9 PUSH2 0x216C JUMP JUMPDEST SWAP1 POP PUSH2 0x2629 PUSH1 0x20 DUP4 ADD DUP8 PUSH2 0x2246 JUMP JUMPDEST PUSH2 0x2636 PUSH1 0x40 DUP4 ADD DUP7 PUSH2 0x2246 JUMP JUMPDEST DUP2 DUP2 SUB PUSH1 0x60 DUP4 ADD MSTORE PUSH2 0x2648 DUP2 DUP6 PUSH2 0x2478 JUMP JUMPDEST SWAP1 POP DUP2 DUP2 SUB PUSH1 0x80 DUP4 ADD MSTORE PUSH2 0x265C DUP2 DUP5 PUSH2 0x25A2 JUMP JUMPDEST SWAP1 POP SWAP7 SWAP6 POP POP POP POP POP POP JUMP JUMPDEST PUSH1 0x0 DUP2 MLOAD SWAP1 POP SWAP2 SWAP1 POP JUMP JUMPDEST PUSH1 0x0 DUP3 DUP3 MSTORE PUSH1 0x20 DUP3 ADD SWAP1 POP SWAP3 SWAP2 POP POP JUMP JUMPDEST PUSH1 0x0 DUP2 SWAP1 POP PUSH1 0x20 DUP3 ADD SWAP1 POP SWAP2 SWAP1 POP JUMP JUMPDEST PUSH1 0xC0 DUP3 ADD PUSH1 0x0 DUP3 ADD MLOAD PUSH2 0x26AA PUSH1 0x0 DUP6 ADD DUP3 PUSH2 0x1F31 JUMP JUMPDEST POP PUSH1 0x20 DUP3 ADD MLOAD PUSH2 0x26BD PUSH1 0x20 DUP6 ADD DUP3 PUSH2 0x1F31 JUMP JUMPDEST POP PUSH1 0x40 DUP3 ADD MLOAD PUSH2 0x26D0 PUSH1 0x40 DUP6 ADD DUP3 PUSH2 0x1F31 JUMP JUMPDEST POP PUSH1 0x60 DUP3 ADD MLOAD PUSH2 0x26E3 PUSH1 0x60 DUP6 ADD DUP3 PUSH2 0x1F07 JUMP JUMPDEST POP PUSH1 0x80 DUP3 ADD MLOAD PUSH2 0x26F6 PUSH1 0x80 DUP6 ADD DUP3 PUSH2 0x1F22 JUMP JUMPDEST POP PUSH1 0xA0 DUP3 ADD MLOAD PUSH2 0x2709 PUSH1 0xA0 DUP6 ADD DUP3 PUSH2 0x1F07 JUMP JUMPDEST POP POP POP POP JUMP JUMPDEST PUSH1 0x0 PUSH2 0x271B DUP4 DUP4 PUSH2 0x2694 JUMP JUMPDEST PUSH1 0xC0 DUP4 ADD SWAP1 POP SWAP3 SWAP2 POP POP JUMP JUMPDEST PUSH1 0x0 PUSH1 0x20 DUP3 ADD SWAP1 POP SWAP2 SWAP1 POP JUMP JUMPDEST PUSH1 0x0 PUSH2 0x273F DUP3 PUSH2 0x2668 JUMP JUMPDEST PUSH2 0x2749 DUP2 DUP6 PUSH2 0x2673 JUMP JUMPDEST SWAP4 POP PUSH2 0x2754 DUP4 PUSH2 0x2684 JUMP JUMPDEST DUP1 PUSH1 0x0 JUMPDEST DUP4 DUP2 LT ISZERO PUSH2 0x2785 JUMPI DUP2 MLOAD PUSH2 0x276C DUP9 DUP3 PUSH2 0x270F JUMP JUMPDEST SWAP8 POP PUSH2 0x2777 DUP4 PUSH2 0x2727 JUMP JUMPDEST SWAP3 POP POP PUSH1 0x1 DUP2 ADD SWAP1 POP PUSH2 0x2758 JUMP JUMPDEST POP DUP6 SWAP4 POP POP POP POP SWAP3 SWAP2 POP POP JUMP JUMPDEST PUSH1 0x0 PUSH1 0x60 DUP3 ADD SWAP1 POP DUP2 DUP2 SUB PUSH1 0x0 DUP4 ADD MSTORE PUSH2 0x27AC DUP2 DUP7 PUSH2 0x216C JUMP JUMPDEST SWAP1 POP DUP2 DUP2 SUB PUSH1 0x20 DUP4 ADD MSTORE PUSH2 0x27C0 DUP2 DUP6 PUSH2 0x2478 JUMP JUMPDEST SWAP1 POP DUP2 DUP2 SUB PUSH1 0x40 DUP4 ADD MSTORE PUSH2 0x27D4 DUP2 DUP5 PUSH2 0x2734 JUMP JUMPDEST SWAP1 POP SWAP5 SWAP4 POP POP POP POP JUMP INVALID LOG2 PUSH5 0x6970667358 0x22 SLT KECCAK256 0x29 ADD EXTCODESIZE 0xD3 CODECOPY EXP SWAP5 0x21 0xA5 0xE6 LOG4 EXTCODESIZE ORIGIN 0xD6 0x25 DUP4 SLOAD 0xAA 0xDB ISZERO SDIV 0x21 0x4B 0x29 PUSH14 0xF72DA5F83EF64A64736F6C634300 ADDMOD GT STOP CALLER LOG2 PUSH5 0x6970667358 0x22 SLT KECCAK256 0xD4 JUMPDEST SWAP7 0xE3 0xD4 0xB7 0xFC 0xD8 0xE7 JUMP 0xC8 PUSH22 0x8BD561D67E960A0A3893195EDA07745334C0A9406473 PUSH16 0x6C634300081100330000000000000000 "
		},
		"gasEstimates": {
			"creation": {
				"codeDepositCost": "2814000",
				"executionCost": "3069",
				"totalCost": "2817069"
			},
			"external": {
				"hederaTokenService()": "infinite",
				"inti(address)": "infinite",
				"payer()": "2492",
				"tokenAddress()": "2533",
				"tokenCreateContract()": "infinite"
			}
		},
		"methodIdentifiers": {
			"hederaTokenService()": "7ae24951",
			"inti(address)": "afe7d54d",
			"payer()": "123119cd",
			"tokenAddress()": "9d76ea58",
			"tokenCreateContract()": "c86e25d7"
		}
	},
	"abi": [
		{
			"inputs": [],
			"name": "hederaTokenService",
			"outputs": [
				{
					"internalType": "contract HederaTokenService",
					"name": "",
					"type": "address"
				}
			],
			"stateMutability": "view",
			"type": "function"
		},
		{
			"inputs": [
				{
					"internalType": "address",
					"name": "_payer",
					"type": "address"
				}
			],
			"name": "inti",
			"outputs": [],
			"stateMutability": "payable",
			"type": "function"
		},
		{
			"inputs": [],
			"name": "payer",
			"outputs": [
				{
					"internalType": "address",
					"name": "",
					"type": "address"
				}
			],
			"stateMutability": "view",
			"type": "function"
		},
		{
			"inputs": [],
			"name": "tokenAddress",
			"outputs": [
				{
					"internalType": "address",
					"name": "",
					"type": "address"
				}
			],
			"stateMutability": "view",
			"type": "function"
		},
		{
			"inputs": [],
			"name": "tokenCreateContract",
			"outputs": [
				{
					"internalType": "contract TokenCreateContract",
					"name": "",
					"type": "address"
				}
			],
			"stateMutability": "view",
			"type": "function"
		}
	]
}